:020000040800F2
:10000000000002201DA30008892300088B2300089C
:100010008D2300088F2300089123000800000000B2
:100020000000000000000000000000009323000812
:10003000952300080000000097230008992300087A
:100040006DA300086DA300086DA300086DA3000850
:100050006DA300086DA300086DA300086DA3000840
:100060006DA300086DA300086DA300086DA3000830
:100070006DA300086DA300086DA300086DA3000820
:10008000A1230008B12300086DA300086DA3000898
:100090006DA300086DA300086DA300086DA3000800
:1000A0006DA300086DA300086DA300086DA30008F0
:1000B0006DA300086DA300086DA300086DA30008E0
:1000C0006DA300086DA300086DA300086DA30008D0
:1000D0006DA300086DA300086DA300086DA30008C0
:1000E0006DA300086DA300086DA300086DA30008B0
:1000F0006DA300086DA300086DA300086DA30008A0
:100100006DA30008C12300086DA300086DA30008BB
:100110006DA300086DA300086DA300086DA300087F
:100120006DA300086DA300086DA30008D12300088B
:100130006DA300086DA300086DA300086DA300085F
:100140006DA300086DA300086DA30008E12300085B
:100150006DA30008F12300086DA300086DA300083B
:100160006DA300086DA300086DA300086DA300082F
:100170006DA300086DA300086DA300080000000037
:080180006DA300086DA3000847
:1001900001F0FF01102A2BDB10F0070F08D010F838
:1001A000013B013A8B422DD010F0070F42B3F6D13C
:1001B000F0B441EA012141EA014122F007047FF055
:1001C00000070023F0E80256083C85EA010586EAAC
:1001D000010685FA47F5A3FA87F586FA47F6A5FAE8
:1001E00087F68EB9EED1F0BC01F0FF0102F00702F4
:1001F00032B110F8013B013A83EA010313B1F8D19F
:100200000020704701387047002D06BF354603387F
:10021000073815F0010F07D1013015F4807F02BFB8
:10022000013015F4C03F0130F0BC0138704700BF09
:10023000034613F8012B002AFBD1181A0138704726
:1002400081F0004102E000BF83F0004330B54FEA87
:1002500041044FEA430594EA050F08BF90EA020FF4
:100260001FBF54EA000C55EA020C7FEA645C7FEA87
:10027000655C00F0E2804FEA5454D4EB5555B8BFAA
:100280006D420CDD2C4480EA020281EA030382EA1B
:10029000000083EA010180EA020281EA0303362DAD
:1002A00088BF30BD11F0004F4FEA01314FF4801C80
:1002B0004CEA113102D0404261EB410113F0004F92
:1002C0004FEA03334CEA133302D0524263EB430349
:1002D00094EA050F00F0A780A4F10104D5F1200EE7
:1002E0000DDB02FA0EFC22FA05F2801841F1000142
:1002F00003FA0EF2801843FA05F359410EE0A5F116
:1003000020050EF1200E012A03FA0EFC28BF4CF046
:10031000020C43FA05F3C01851EBE37101F00045FC
:1003200007D54FF0000EDCF1000C7EEB00006EEB09
:100330000101B1F5801F1BD3B1F5001F0CD3490893
:100340005FEA30004FEA3C0C04F101044FEA4452EA
:1003500012F5800F80F09A80BCF1004F08BF5FEA71
:10036000500C50F1000041EB045141EA050130BD51
:100370005FEA4C0C404141EB0101013C28BFB1F563
:10038000801FE9D291F0000F04BF01460020B1FAAE
:1003900081F308BF2033A3F10B03B3F120020CDA81
:1003A0000C3208DD02F1140CC2F10C0201FA0CF05F
:1003B00021FA02F10CE002F11402D8BFC2F1200CC4
:1003C00001FA02F120FA0CFCDCBF41EA0C0190407A
:1003D000E41AA2BF01EB0451294330BD6FEA0404C3
:1003E0001F3C1CDA0C340EDC04F11404C4F12002AE
:1003F00020FA04F001FA02F340EA030021FA04F3C0
:1004000045EA030130BDC4F10C04C4F1200220FA16
:1004100002F001FA04F340EA0300294630BD21FA54
:1004200004F0294630BD94F0000F83F4801306BF1A
:1004300081F480110134013D4EE77FEA645C18BF0E
:100440007FEA655C29D094EA050F08BF90EA020FA5
:1004500005D054EA000C04BF1946104630BD91EA9D
:10046000030F1EBF0021002030BD5FEA545C05D1A0
:100470004000494128BF41F0004130BD14F58004DF
:100480003CBF01F5801130BD01F0004545F0FE4153
:1004900041F470014FF0000030BD7FEA645C1ABF88
:1004A000194610467FEA655C1CBF0B46024650EABF
:1004B000013406BF52EA033591EA030F41F40021EB
:1004C00030BD00BF90F0000F04BF0021704730B571
:1004D0004FF4806404F132044FF000054FF0000146
:1004E00050E700BF90F0000F04BF0021704730B507
:1004F0004FF4806404F1320410F0004548BF4042DC
:100500004FF000013EE700BF42004FEAE2014FEA30
:1005100031014FEA02701FBF12F07F4393F07F4F0B
:1005200081F06051704732F07F4208BF704793F00E
:100530007F4F04BF41F40021704730B54FF4607421
:1005400001F0004521F000411CE700BF50EA010224
:1005500008BF704730B54FF000050AE050EA0102CD
:1005600008BF704730B511F0004502D5404261EB3D
:1005700041014FF4806404F132045FEA915C3FF47E
:10058000D8AE4FF003025FEADC0C18BF03325FEA1B
:10059000DC0C18BF033202EBDC02C2F1200300FACC
:1005A00003FC20FA02F001FA03FE40EA0E0021FAF1
:1005B00002F11444BDE600BF70B54FF0FF0C4CF4DF
:1005C000E06C1CEA11541DBF1CEA135594EA0C0F91
:1005D00095EA0C0F00F0DEF82C4481EA030621EACC
:1005E0004C5123EA4C5350EA013518BF52EA033507
:1005F00041F4801143F4801338D0A0FB02CE4FF0B9
:100600000005E1FB02E506F00042E0FB03E54FF0E8
:100610000006E1FB03569CF0000F18BF4EF0010EE0
:10062000A4F1FF04B6F5007F64F5407404D25FEADC
:100630004E0E6D4146EB060642EAC62141EA55518F
:100640004FEAC52040EA5E504FEACE2EB4F1FD0CD1
:1006500088BFBCF5E06F1ED8BEF1004F08BF5FEA4F
:10066000500E50F1000041EB045170BD06F0004601
:1006700046EA010140EA020081EA0301B4EB5C04AE
:10068000C2BFD4EB0C0541EA045170BD41F48011A6
:100690004FF0000E013C00F3AB8014F1360FDEBFCB
:1006A000002001F0004170BDC4F10004203C35DAA7
:1006B0000C341BDC04F11404C4F1200500FA05F32A
:1006C00020FA04F001FA05F240EA020001F00042CB
:1006D00021F0004110EBD37021FA04F642EB060141
:1006E0005EEA430E08BF20EAD37070BDC4F10C046B
:1006F000C4F1200500FA04F320FA05F001FA04F22F
:1007000040EA020001F0004110EBD37041F100011A
:100710005EEA430E08BF20EAD37070BDC4F1200525
:1007200000FA05F24EEA020E20FA04F301FA05F28D
:1007300043EA020321FA04F001F0004121FA04F235
:1007400020EA020000EBD3705EEA430E08BF20EA05
:10075000D37070BD94F0000F0FD101F0004640003F
:1007600041EB010111F4801F08BF013CF7D041EAC1
:10077000060195F0000F18BF704703F000465200C5
:1007800043EB030313F4801F08BF013DF7D043EA96
:100790000603704794EA0C0F0CEA135518BF95EA4C
:1007A0000C0F0CD050EA410618BF52EA4306D1D1D3
:1007B00081EA030101F000414FF0000070BD50EAF2
:1007C000410606BF1046194652EA430619D094EA7C
:1007D0000C0F02D150EA013613D195EA0C0F05D166
:1007E00052EA03361CBF104619460AD181EA0301BA
:1007F00001F0004141F0FE4141F470014FF0000072
:1008000070BD41F0FE4141F4780170BD70B54FF00C
:10081000FF0C4CF4E06C1CEA11541DBF1CEA13558C
:1008200094EA0C0F95EA0C0F00F0A7F8A4EB05046E
:1008300081EA030E52EA03354FEA013100F0888065
:100840004FEA03334FF0805545EA131343EA12632E
:100850004FEA022245EA111545EA10654FEA0026E3
:100860000EF000419D4208BF964244F1FD0404F59C
:10087000407402D25B084FEA3202B61A65EB0305F8
:100880005B084FEA32024FF480104FF4002CB6EBB5
:10089000020E75EB030E22BFB61A754640EA0C0035
:1008A0005B084FEA3202B6EB020E75EB030E22BF75
:1008B000B61A754640EA5C005B084FEA3202B6EBB6
:1008C000020E75EB030E22BFB61A754640EA9C0075
:1008D0005B084FEA3202B6EB020E75EB030E22BF45
:1008E000B61A754640EADC0055EA060E18D04FEA03
:1008F000051545EA16754FEA06164FEAC30343EAA3
:1009000052734FEAC2025FEA1C1CC0D111F4801F6F
:100910000BD141EA00014FF000004FF0004CB6E768
:1009200011F4801F04BF01430020B4F1FD0C88BF07
:10093000BCF5E06F3FF6AFAEB5EB030C04BFB6EB12
:10094000020C5FEA500C50F1000041EB045170BD05
:100950000EF0004E4EEA113114EB5C04C2BFD4EB32
:100960000C0541EA045170BD41F480114FF0000EB6
:10097000013C90E645EA060E8DE60CEA135594EA32
:100980000C0F08BF95EA0C0F3FF43BAF94EA0C0F35
:100990000AD150EA01347FF434AF95EA0C0F7FF4AA
:1009A00025AF104619462CE795EA0C0F06D152EAFE
:1009B00003353FF4FDAE1046194622E750EA4106E2
:1009C00018BF52EA43067FF4C5AE50EA41047FF4F3
:1009D0000DAF52EA43057FF4EBAE12E74FF0FF3C58
:1009E00006E000BF4FF0010C02E000BF4FF0010C29
:1009F0004DF804CD4FEA410C7FEA6C5C4FEA430CA2
:100A000018BF7FEA6C5C1BD001B050EA410C0CBFF0
:100A100052EA430C91EA030F02BF90EA020F002052
:100A2000704710F1000F91EA030F58BF994208BFB9
:100A300090422CBFD8176FEAE37040F00100704776
:100A40004FEA410C7FEA6C5C02D150EA013C07D1CD
:100A50004FEA430C7FEA6C5CD6D152EA033CD3D018
:100A60005DF8040B704700BF8446104662468C4612
:100A70001946634600E000BF01B5FFF7B7FF002845
:100A800048BF10F1000F01BD4DF808EDFFF7F4FF6E
:100A90000CBF012000205DF808FB00BF4DF808EDF9
:100AA000FFF7EAFF34BF012000205DF808FB00BF1C
:100AB0004DF808EDFFF7E0FF94BF012000205DF83E
:100AC00008FB00BF4DF808EDFFF7CEFF94BF0120F3
:100AD00000205DF808FB00BF4DF808EDFFF7C4FFEC
:100AE00034BF012000205DF808FB00BF4FEA410C35
:100AF0007FEA6C5C02D150EA013C0AD14FEA430C18
:100B00007FEA6C5C02D152EA033C02D14FF0000054
:100B100070474FF0010070474FEA410212F5001292
:100B200015D211D56FF47873B3EB625212D94FEA34
:100B3000C12343F0004343EA505311F0004F23FA1E
:100B400002F018BF404270474FF00000704750EA73
:100B5000013005D111F0004008BF6FF00040704730
:100B60004FF00000704700BF4A0011D212F500128A
:100B700011D20DD56FF47873B3EB62520ED44FEAF5
:100B8000C12343F0004343EA505323FA02F0704775
:100B90004FF00000704750EA013002D14FF0FF30B3
:100BA00070474FF0000070474FEA4102B2F1E04356
:100BB00024BFB3F5001CDCF1FE5C0DD901F0004C44
:100BC0004FEAC0024CEA5070B2F1004F40EB830094
:100BD00008BF20F00100704711F0804F21D113F1C0
:100BE0003872BCBF01F00040704741F480114FEAF9
:100BF0005252C2F11802C2F1200C10FA0CF320FA82
:100C000002F018BF40F001004FEAC1234FEAD3239E
:100C100003FA0CFC40EA0C0023FA02F34FEA430308
:100C2000CCE77FEA625307D150EA01331EBF4FF091
:100C3000FE4040F44000704701F0004040F0FE40AC
:100C400040F40000704700BF53B94AB9002908BFFB
:100C500000281CBF4FF0FF314FF0FF3000F0E2B82A
:100C6000ADF1080C6DE904CE0EF082FCDDF804E075
:100C7000DDE9022304B0704700F1340191E8380047
:100C80009C46A6464CF8045D90E8FF0FE54600BD83
:100C900090EC210B704700BF80EC210B704700BF28
:100CA00090EC200B704700BF80EC200B704700BF1A
:100CB000D0EC200B704700BFC0EC200B704700BF8A
:100CC000F0EC0201F0EC0211F0EC0221F0EC023148
:100CD000F0EC0241F0EC0251F0EC0261F0EC027138
:100CE000F0EC0281F0EC0291F0EC02A1F0EC02B128
:100CF000F0EC02C1F0EC02D1F0EC02E1F0EC02F118
:100D0000704700BFE0EC0201E0EC0211E0EC0221D0
:100D1000E0EC0231E0EC0241E0EC0251E0EC026177
:100D2000E0EC0271E0EC0281E0EC0291E0EC02A167
:100D3000E0EC02B1E0EC02C1E0EC02D1E0EC02E157
:100D4000E0EC02F1704700BFB0FC0181B0FC019102
:100D5000B0FC01A1B0FC01B1704700BFA0FC018153
:100D6000A0FC0191A0FC01A1A0FC01B1704700BF53
:100D7000EC4600B52DE900502DE9FF1F4FF00003B0
:100D80002DE90C0001A90EF0ADFEDDF840E012B037
:100D9000704700BFEC4600B52DE900502DE9FF1F5C
:100DA0004FF000032DE90C0001A90EF0D7FEDDF88D
:100DB00040E012B0704700BFEC4600B52DE900508E
:100DC0002DE9FF1F4FF000032DE90C0001A90EF0E3
:100DD000E7FEDDF840E012B0704700BFEC4600B51A
:100DE0002DE900502DE9FF1F4FF000032DE90C0005
:100DF00001AB0EF0ABFEDDF840E012B0704700BF73
:100E0000EC4600B52DE900502DE9FF1F4FF000031F
:100E10002DE90C0001AA0EF01BFFDDF840E012B036
:100E2000704700BF704700BF10B5054C237833B939
:100E3000044B13B10448AFF300800123237010BDAD
:100E4000D002002000000000B405010808B5034BE3
:100E50001BB103490348AFF3008008BD0000000048
:100E6000D4020020B405010808B500224021024840
:100E700002F0B3F908BD00BF0004024008B500222B
:100E80008021024802F0A9F908BD00BF0004024019
:100E900008B501228021024802F09FF908BD00BF79
:100EA0000004024008B501224021024802F095F9F1
:100EB00008BD00BF00040240F0B583B00D461646E1
:100EC00040F020008DF80400FFF7D8FF0A4F64239C
:100ED000012201A9384604F0DEFF04464FF47A737C
:100EE000B2B22946384604F0D6FF0443E4B2FFF715
:100EF000CFFF204603B0F0BDB004002010B582B093
:100F000040F020008DF804008DF80510FFF7B6FFC3
:100F10004FF47A73022201A9044804F0BCFF04468E
:100F2000FFF7B6FF204602B010BD00BFB00400209E
:100F300030B587B0072800F0B480172800F0B580DE
:100F400008210020FFF7DAFF04463F210120FFF7C8
:100F5000D5FF0443E4B203210220FFF7CFFF04438F
:100F6000E4B203210846FFF7C9FF0443E4B20021BD
:100F70000420FFF7C3FF0443E4B202210520FFF77A
:100F8000BDFF0443E4B20E210620FFF7B7FF044380
:100F9000E4B200210720FFF7B1FF0443E4B20021CF
:100FA0000820FFF7ABFF0443E4B200210920FFF75C
:100FB000A5FF0443E4B23F4D95E8030000908DF88F
:100FC0000410052269460A20FFF776FF0443E4B2C5
:100FD000394B93E8030002908DF80C10052202A90A
:100FE0000B20FFF769FF0443E4B2C3210C20FFF795
:100FF00085FF0443E4B2C4210D20FFF77FFF0443C3
:10100000E4B2C5210E20FFF779FF0443E4B2C62104
:101010000F20FFF773FF0443E4B295E80300049048
:101020008DF81410052204A91020FFF745FF044392
:10103000E4B200211120FFF761FF0443E4B2002174
:101040001220FFF75BFF0443E4B200211320FFF7F7
:1010500055FF0443E4B200211420FFF74FFF04437F
:10106000E4B200211520FFF749FF0443E4B2002158
:101070001620FFF743FF0443E4B211211720FFF7C6
:101080003DFF0443E4B200211C20FFF737FF044377
:10109000E4B200211D20FFF731FF2043C0B207B0AA
:1010A00030BD0021FFF72AFFF9E71121FFF726FFE6
:1010B000F5E700BFD0050108D805010810B582B0DA
:1010C0008DF80700FFF7DAFE642301220DF1070116
:1010D000044804F0E0FE0446FFF7DAFE204602B0C2
:1010E00010BD00BFB004002070B582B00D468DF871
:1010F0000700FFF7C3FE0B4E642301220DF1070129
:10110000304604F0C8FE04466423012229463046D6
:1011100005F0CDF80443E4B2FFF7BAFE204602B072
:1011200070BD00BFB004002010B5FFF79DFE002089
:10113000FFF7FEFE044600210846FFF7DFFE0443EA
:10114000E4B200210120FFF7D9FE0443E4B20021FC
:101150000220FFF7D3FE0443E4B203210846FFF761
:10116000CDFE0443E4B200210420FFF7C7FE044390
:10117000E4B200210520FFF7C1FE0443E4B22721B9
:101180000620FFF7BBFE0443E4B2FFF78BFE2046C8
:1011900010BD10B5E120FFF791FF04461720FFF7BF
:1011A000C7FE2043C0B210BD10B5E220FFF786FF96
:1011B00004461720FFF7BCFE2043C0B210BD70B537
:1011C00006460D461446FFF74FFE04B94C2421464F
:1011D0000520FFF793FE044666B105223146102034
:1011E000FFF76AFE0443E4B233210420FFF786FED2
:1011F0000443E4B285B33F210220FFF77FFE04439E
:10120000E4B2052229460B20FFF756FE0443E4B260
:1012100020211120FFF772FE0443E4B220211220A6
:10122000FFF76CFE0443E4B220211320FFF766FEB3
:101230000443E4B220211420FFF760FE0443E4B22B
:1012400020211520FFF75AFE0443E4B22021162086
:10125000FFF754FE0443E4B2FFF724FEFFF799FFC3
:101260002043C0B270BD10B5FFF7FEFD0E21002077
:10127000FFF744FE0446FFF715FEFFF78AFF204301
:10128000C0B210BD10B5FFF7EFFD0F210020FFF732
:1012900035FE0446FFF706FEFFF786FF2043C0B287
:1012A00010BD000070B582B0054600238DF80730F0
:1012B000FFF7E4FDA0238DF80730234E64230122BD
:1012C0000DF10701304604F0E6FD04464FF47A7351
:1012D00020222946304604F0DEFD0443E4B2FFF745
:1012E000D7FD012001F03AFB0DF106010720FFF7C1
:1012F000FBFE0443E4B29DF8061011F0100F0FD16D
:101300000DF105011720FFF7EFFE0443E4B29DF84D
:10131000053003F01803102B10D0204602B070BD2A
:1013200041F010018DF806100720FFF7E7FD044398
:10133000E4B2FFF72EFF0443E4B2E1E7FFF729FF31
:101340000443E4B2E9E700BFB004002000B583B075
:101350000DF107011720FFF7C7FE0DF10601072069
:10136000FFF7C2FE0DF105010020FFF7BDFE9DF85D
:10137000063013F0400F03D1002003B05DF804FBEA
:1013800040210720FFF7BAFD0120F6E770B582B0D3
:10139000054600238DF80730FFF770FD61238DF8B7
:1013A0000730104E642301220DF10701304604F08E
:1013B00072FD04464FF47A7320222946304604F029
:1013C00076FF0443E4B2FFF763FD012001F0C6FAA3
:1013D000E2208DF80700FFF771FE2043C0B202B093
:1013E00070BD00BFB0040020F0B583B08DF80700D9
:1013F000F2B10C461746104D00221021284601F08C
:10140000ECFE0E4E642301220DF10701304604F07C
:1014100042FD4FF47A73BAB22146304604F03BFDE8
:1014200001221021284601F0D8FE002003B0F0BDB3
:101430006FF00100FAE700BF000802400805002035
:101440002DE9F04182B08DF807001AB30C469046A2
:10145000124D00221021284601F0BFFE104F6423D8
:1014600001220DF10701384604F015FD0D4E3070D4
:101470004FF47A731FFA88F22146384604F017FFBA
:10148000307001221021284601F0A7FE002002B092
:10149000BDE8F0816FF00100F9E700BF00080240ED
:1014A00008050020EC02002008B501F057FA08BD3D
:1014B00008B500230A4A13600A4A13605360936018
:1014C000D3600948094B8360094BC360094B036132
:1014D00006F064FC00B108BD034806F0AFFCFAE773
:1014E00000030020F0020020040300204114000843
:1014F000E9130008A914000808B5024906F0BCFD6C
:1015000008BD00BF0403002008B5034B98700349D1
:10151000184606F0FAFD08BD000300200403002071
:1015200008B5FFF7C5FF034608B1184608BD0120FE
:10153000FFF7EAFF03460028F7D10120FFF7DCFFA1
:101540000346F2E708B501221021034801F045FEE9
:10155000FFF7E6FF08BD00BF0008024008B5024AD9
:10156000024906F09FFC08BD040300200003002090
:1015700008B5DFED177AC0EE277A17EE900AFEF76E
:10158000C3FF9FED0F1B41EC100B0CF065FF51ECFE
:10159000100BFFF709FB07EE900AB7EE007A77EE23
:1015A000677A17EE900AFEF7AFFF07A3D3E900238F
:1015B000FFF72CF9FFF7F8FA00EE100A08BD00BF9C
:1015C000000000808A5AC83FDF55225749A7F73EDE
:1015D00080E6C54700B585B08DF80C008DF80D107C
:1015E0000A230093022303AA50210348006802F053
:1015F00035F905B05DF804FB1C03002008B5014671
:101600000720FFF7E7FF08BD2DE9F04184B00D4644
:1016100016468DF80F000D4F4FF06408CDF800808E
:1016200001230DF10F025021386802F017F904462A
:10163000CDF8008033462A465021386802F0CAF9B6
:101640002043C0B204B0BDE8F08100BF1C030020FD
:101650002DE9704386B006460D460020FFF7CEFF09
:101660000446202E20D0062204A93046FFF7CCFFE6
:101670000443E4B2A6F10803262B40D8DFE803F0C8
:10168000233F3F3F3F3F1C3F3F3F3F3F2A3F3F3FBE
:101690003F3F313F3F3F3F3F383F3F3F3F3F3F3F6F
:1016A000233F3F3F3F3F2300082204A93046FFF776
:1016B000ABFF0443E4B2DDE7534B1888FEF702FFAB
:1016C000804689461FE0514B1888FEF7FBFE804696
:1016D000894618E04E4B1888FEF7F4FE804689468E
:1016E00011E04C4B1888FEF7EDFE804689460AE073
:1016F000494B1888FEF7E6FE8046894603E04FF026
:101700000008DFF8189100230093019302930393DC
:10171000202E37D09DF811309DF8100040EA0320AC
:1017200000B2FEF7DFFE42464B46FFF76FF8FFF7C9
:101730003BFA01909DF813309DF8120040EA032017
:1017400000B2FEF7CFFE42464B46FFF75FF8FFF7C9
:101750002BFA02909DF815309DF8140040EA032002
:1017600000B2FEF7BFFE42464B46FFF74FF8FFF7C9
:101770001BFA03906B460FCB85E80F00204606B09E
:10178000BDE870839DF811309DF8100040EA0320F9
:1017900000B2FEF7A7FE42464B46FFF737F8FFF7C9
:1017A00003FA00909DF813309DF8120040EA0320E0
:1017B00000B2FEF797FE42464B46FFF727F8FFF7C9
:1017C000F3F901909DF815309DF8140040EA0320CC
:1017D00000B2FEF787FE42464B46FFF717F8FFF7C9
:1017E000E3F902909DF817309DF8160040EA0320B7
:1017F00000B2FEF777FE42464B46FFF707F8FFF7C9
:10180000D3F90390B6E700BF0200002008000020D3
:101810000600002004000020000000200000F03F2F
:1018200008B501F09BF808BD014B1860704700BF78
:101830001C03002038B5044601463D20FFF7CAFED0
:10184000054624B91320FFF7EBFF284638BD0720D3
:10185000FFF7E6FFF9E708B50020FFF7EBFF08BD4B
:1018600008B50C20FFF7E6FF08BD10B520213F208A
:10187000FFF7B0FE04464FF42F70FFF7D1FF20466C
:1018800010BD000010B582B0FFF7EFFF0446002046
:101890008DF8070001220DF10701FFF7B5FE0443A3
:1018A000E4B29DF80710A02914D10020FFF7A6FE8E
:1018B0000443E4B200213F20FFF78CFE0443E4B26E
:1018C000FFF7C9FF0443E4B20A20FFF7A9FF20464F
:1018D00002B010BD01480AF00BFAE6E7E005010886
:1018E00008B501461420FFF7B3FE08BD08B5014650
:1018F0001A20FFF7ADFE08BD08B501462820FFF706
:10190000A7FE08BD08B501462020FFF7A1FE08BDCF
:1019100070B582B00546FEF78BFC042824D9284414
:1019200010F8043C8DF804302846FEF781FC28446A
:1019300010F8033C8DF805300024264602E02B5DAC
:101940005E4001342846FEF773FC0538A042F6D805
:101950001022002101A809F0A9FC864202D0002033
:1019600002B070BD0120FBE70020F9E7F0B59BB0A5
:1019700006460C466422002101A80AF0A3FA244975
:1019800020460AF0B9FA0446002514E02046FEF786
:101990004FFC6F1C013008F0EBFC1AAB03EB850524
:1019A00045F8640C21460AF0A0FB194900200AF012
:1019B000A3FA04463D46002CE8D10A2200210398F0
:1019C00009F074FC0128D4BF00200120B062032379
:1019D000002100E001330E2B09DC1AAA02EB83027E
:1019E00052F8642C1278002AF4D00131F2E77162C7
:1019F000002407E01AAB03EB840353F8640C08F0EF
:101A0000BFFC0134A542F5DC01201BB0F0BD00BFD6
:101A10001C0601082DE9F04F2DED028BA1B0074601
:101A20000C466422002107A80AF04CFA66492046B9
:101A30000AF062FA0446002514E02046FEF7F8FB9F
:101A40006E1C013008F094FC20AB03EB850545F8D3
:101A5000640C21460AF049FB5B4900200AF04CFA6D
:101A600004463546002CE8D1099B93F80080B8F174
:101A7000530F1BD0B8F14E0F1AD000208DE0089AFA
:101A8000D15C03F180026A4402F87C1C0133012B13
:101A9000F5DD0023052B0DDC089A1A44917803F13B
:101AA00080026A4402F8741C0133F3E70023EEE776
:101AB0000023ECE70A22002101A809F0F7FB064603
:101AC000002103A809F014FBF0EE408A9FED3F7A55
:101AD000C0EE077A07EE106AB8EEC77A77EE277A7B
:101AE00017EE900AFEF710FD82468B460B9B93F88B
:101AF0000090002307E00A9AD15C03F180026A4457
:101B000002F8781C0133022BF5DD0023052B09DCDC
:101B10000A9A1A44D17803F180026A4402F86C1CD4
:101B20000133F3E70A22002102A809F0BFFB0446B3
:101B3000002105A809F0DCFAB0EE408A9FED237A77
:101B4000C0EE077A07EE104AB8EEC77A77EE277A2A
:101B500017EE900AFEF7D8FCE4B1B5EE408AF1EE3C
:101B600010FA1FD006B3F5EE408AF1EE10FA1DD040
:101B7000C7E900ABC7E9040187F8088087F8189027
:101B800000241DE020AB03EB840353F8640C08F041
:101B9000F7FB0134A542F5DC002021B0BDEC028B3F
:101BA000BDE8F08F0024F5E73446F3E70024F1E7C1
:101BB00020AB03EB840353F8640C08F0E1FB013421
:101BC000A542F5DC0120E8E71C0601080000704290
:101BD0002DE9F0432DED028BA1B007460C4664229F
:101BE000002107A80AF06EF97E4920460AF084F920
:101BF0000446002514E02046FEF71AFB6E1C013057
:101C000008F0B6FB20AB03EB850545F8640C2146D4
:101C10000AF06BFA734900200AF06EF90446354663
:101C2000002CE8D10C9B1E780A9B1C78089907F1C0
:101C30002C000AF05AFA532C0FD04E2C0FD000244F
:101C4000C8E0099AD15C03F180026A4402F87C1C66
:101C50000133012BF5DD00230CE00023F9E700231D
:101C6000F7E7099A1A44917803F180026A4402F86E
:101C7000741C0133052BF4DD0A22002101A809F0B0
:101C800015FB08EE100A002103A809F031FA9FEDB8
:101C9000567AC0EE077AB8EEC88A38EE278A18EE70
:101CA000100AFEF731FC80468946002307E00B9AB4
:101CB000D15C03F180026A4402F8781C0133022BE4
:101CC000F5DD002308E00B9A1A44D17803F1800275
:101CD0006A4402F86C1C0133052BF4DD0A22002152
:101CE00002A809F0E3FA08EE900A002105A809F01D
:101CF000FFF99FED3D7AC0EE077AF8EEE88A78EEBC
:101D0000A78A18EE900AFEF7FFFBB5EE408AF1EEC7
:101D100010FA51D0F5EE408AF1EE10FA4ED0DFED18
:101D2000337AB4EEE78AF1EE10FA49D5DFED307A76
:101D3000F4EEE78AF1EE10FA01D4002438E0C7E9A6
:101D400000893C72C7E904013E760021109809F031
:101D5000CFF9B5EE400AF1EE10FA01D197ED070A7E
:101D600087ED070A0A2200210E9809F09FFA78628F
:101D70000A2200210D9809F099FA0028D4BF00200A
:101D80000120B86200210F9809F0B2F9B5EE400ABF
:101D9000F1EE10FA01D197ED080A87ED080A4EE737
:101DA00020AB03EB840353F8640C08F0E9FA013428
:101DB000A542F5DC002010E00024F9E70024F7E755
:101DC0000024F5E720AB03EB840353F8640C08F020
:101DD000D7FA0134A542F5DC012021B0BDEC028B1D
:101DE000BDE8F0831C060108000070420000B44208
:101DF00000003443F8B507460C463C220021304829
:101E00000AF060F82F4920460AF076F804460025CB
:101E100012E02046FEF70CFA6E1C013008F0A8FA1A
:101E2000274B43F8250021460AF05FF92549002099
:101E30000AF062F804463546002CEAD109E022494E
:101E400030460AF0B5F810B331463846FFF78EFD3C
:101E50000134A54226DD1A4B53F824601B49304655
:101E60000AF0A6F80028F3D03046FFF751FD00280D
:101E7000EED0134B53F82460154930460AF098F819
:101E80000028DCD031463846FFF7C4FDE0E71149B1
:101E900030460AF08DF80028DAD031463846FFF790
:101EA00097FED5E7002400E00134A54207DD3A2C77
:101EB000FAD8034B53F8240008F062FAF4E7F8BDAF
:101EC00020030020200601082C060108180601083E
:101ED000240601083406010838B50C4695B2294697
:101EE000204600F0F1FA4FF47A722946204600F0BD
:101EF000E1FA002038BD000082B0002100910B4BB8
:101F00005A6C42F480425A645A6C02F48042009245
:101F1000009A01911A6C42F080521A641B6C03F013
:101F200080530193019B02B0704700BF003802400C
:101F300030B589B000230393049305930693079368
:101F40000268144B9A4201D009B030BD00250195BA
:101F5000114C236B43F002032363236B03F0020352
:101F60000193019B4FF440630393122304930323D3
:101F700006930423079303A9084800F097FF0295EE
:101F8000236C43F480032364236C03F480030293E3
:101F9000029BD9E70058004000380240000402408C
:101FA0002DE9F04F89B00023039304930593069322
:101FB00007930268594B9A4202D009B0BDE8F08FEE
:101FC00004460025009503F586335A6C42F40062FE
:101FD0005A645A6C02F400620092009A01951A6BDE
:101FE00042F004021A631A6B02F004020192019A91
:101FF00002951A6B42F008021A631B6B03F0080388
:102000000293029B4FF4807303934FF00208CDF8C4
:1020100010804FF0010BCDF814B0032606960C2764
:102020000797DFF810910DEB0701484600F03EFFDF
:102030004FF4805ACDF80CA0CDF810800595069687
:1020400007970DEB0701484600F030FF4FF00409F9
:10205000CDF80C90CDF81080CDF814B00696079707
:102060000DEB07012E4800F021FF2E482E4B036098
:102070004FF0006343608560C5604FF48063036187
:10208000C0F814A04FF4804383612023C36105622C
:10209000C0F8249086624FF40003C3624FF400132B
:1020A000036300F067FD002831D11E4B23649C635D
:1020B0001E481F4B03604FF0006343604023836062
:1020C0000023C3604FF4806202614FF4805242618A
:1020D0004FF4804282612022C26103620423436282
:1020E000032383624FF40003C3624FF400130363BE
:1020F00000F040FD70B90D4BE3639C630022114674
:10210000312000F093FC312000F0A0FC55E700F0F6
:10211000D5FACAE700F0D2FAEDE700BF002C014083
:10212000000C0240C00500205864024060050020F9
:10213000A06402400008024000B58BB00023059364
:1021400006930793089309930368274A934205D09F
:10215000264A934225D00BB05DF804FB0021019183
:10216000234B5A6C42F480525A645A6C02F48052E7
:102170000192019A02911A6B42F001021A631B6BE1
:1021800003F001030293029BE023059302230693CD
:10219000032308930523099305A9164800F086FE3A
:1021A000D9E700210391124B1A6C42F400421A64E1
:1021B0001A6C02F400420392039A04911A6B42F0E3
:1021C00002021A631B6B03F002030493049B38237F
:1021D000059302230693032308930623099305A975
:1021E000054800F063FEB6E700300140003C0040C7
:1021F00000380240000002400004024008B50368B5
:102200000E4A934203D00E4A93420BD008BD02F50A
:102210008432536C23F480535364E021094800F066
:102220003BFFF3E702F5FE32136C23F40043136423
:102230003821054800F030FFE8E700BF00300140DA
:10224000003C0040000002400004024030B58BB06A
:102250000023059306930793089309930368424A62
:10226000934205D00446414A934225D00BB030BD7D
:10227000002101913E4B5A6C42F010025A645A6C94
:1022800002F010020192019A02911A6B42F00102CF
:102290001A631B6B03F001030293029B4FF4C063AC
:1022A000059302230693032308930723099305A9A3
:1022B000304800F0FBFDD9E7002503952C4B1A6C44
:1022C00042F400321A641A6C02F400320392039A48
:1022D00004951A6B42F001021A631B6B03F00103B1
:1022E0000493049B0C230593022306930323089372
:1022F0000723099305A91F4800F0D8FD1E481F4B6E
:1023000003604FF0006343608560C5604FF48063F5
:10231000036145618561C5610562456200F02AFC83
:10232000D8B9154BE3639C631548164B03604FF017
:1023300000634360402383600023C3604FF48062E6
:10234000026143618361C3610362436200F012FC76
:1023500030B90B4BA3639C6388E700F0AFF9E0E76B
:1023600000F0ACF9F5E700BF001001400044004068
:102370000038024000000240C00300208860024094
:1023800060030020A0600240FEE7FEE7FEE7FEE7F4
:10239000FEE770477047704708B500F0CDFA08BDFA
:1023A00008B5024800F094FC08BD00BFC00300203F
:1023B00008B5024800F08CFC08BD00BF6003002097
:1023C00008B5024803F018FB08BD00BF2006002036
:1023D00008B5024800F07CFC08BD00BFC005002025
:1023E00008B5024801F0A5FF08BD00BF0C1E002083
:1023F00008B5024800F06CFC08BD00BF6005002075
:102400000120704708B509F043FE162303604FF022
:10241000FF3008BD08B54FF0FF31FFF7F3FFFEE7CF
:1024200070B50C461646002506E0AFF30080214645
:1024300001F8010B01350C46B542F6DB304670BDA4
:102440004FF0FF3070474FF400534B60002070474F
:10245000012070470020704710B503460C4A0D4913
:102460000D48006840B10C4800680344521A93427A
:1024700006D8094A136010BD0748084C0460F2E70B
:1024800009F006FE0C2303604FF0FF30F3E700BFB6
:1024900000000220000800005C03002080260020CD
:1024A000034AD2F8883043F47003C2F8883070478A
:1024B00000ED00E008B513460A460146014804F065
:1024C000F4F808BD6804002008B507F04DF808BD11
:1024D000054B064A1A6000225A609A60DA601A6157
:1024E0005A6104229A61704720060020002C0140A6
:1024F0002DE9F0438DB000240794089409940A94C0
:102500000B9401944A4B1A6B42F010021A631A6B37
:1025100002F010020192019A02941A6B42F08002BA
:102520001A631A6B02F080020292029A03941A6BE9
:1025300042F001021A631A6B02F001020392039A3D
:1025400004941A6B42F004021A631A6B02F004023C
:102550000492049A05941A6B42F002021A631A6BF1
:1025600002F002020592059A06941A6B42F00802E4
:102570001A631B6B03F008030693069BDFF8BC90FD
:10258000224641F68C71484600F027FE294F22462C
:102590001021384600F021FE274E012280213046CE
:1025A00000F01BFEDFF898802246C021404600F074
:1025B00014FE41F68C7307930125089509940A943B
:1025C00007A9484600F072FC102307930895099468
:1025D0000A9407A9384600F069FC4FF400430793BA
:1025E0004FF488130893099407A9304600F05EFC65
:1025F0004FF08009CDF81C9008940223099307A995
:10260000384600F053FCCDF81C90089509940A94C4
:1026100007A9304600F04AFCC023079308950994A7
:102620000A9407A9404600F041FC0DB0BDE8F083D4
:102630000038024000080240000C02400010024036
:102640000004024010B582B0002400941A4B1A6BAB
:1026500042F480021A631A6B02F480020092009A1C
:1026600001941A6B42F400121A631B6B03F40013FB
:102670000193019B22462146102000F0D7F910203B
:1026800000F0E4F922462146112000F0CFF9112094
:1026900000F0DCF9224621463B2000F0C7F93B2040
:1026A00000F0D4F922462146452000F0BFF945202C
:1026B00000F0CCF902B010BD0038024072B6FEE75F
:1026C00000B595B03022002108A809F0FBFB0023DB
:1026D0000393049305930693079301931F4A116C88
:1026E00041F080511164126C02F080520192019A03
:1026F00002931B4B1A6842F480421A601B6803F471
:1027000080430293029B012308934FF48033099383
:1027100002230E934FF480020F920422109248225B
:10272000119212930323139308A802F00DF980B9B4
:102730000F23039302210491002305934FF4805249
:102740000692079303A802F069FB20B915B05DF863
:1027500004FBFFF7B3FFFFF7B1FF00BF00380240F3
:102760000070004008B50A480A4B03600A4B4360FA
:1027700000238360C3604FF4804202614361836140
:10278000C361036200F08CFF00B908BDFFF796FF3C
:10279000A406002000580040A086010008B50D489E
:1027A0000D4B03604FF48273436000238360C3606A
:1027B000036143614FF400728261C361036243624B
:1027C00083620A23C36203F0F1FA00B908BDFFF780
:1027D00075FF00BFB0040020003C004008B50D4864
:1027E0000D4B03604FF48273436000238360C3602A
:1027F000036143614FF400728261C361036243620B
:1028000083620A23C36203F0D1FA00B908BDFFF75F
:1028100055FF00BF080500200030014008B50A48F8
:102820000A4B03604FF41653436000238360C36078
:1028300003610C2242618361C36103F006FF00B9AA
:1028400008BDFFF73BFF00BF20040020004400400C
:1028500008B50A480A4B03604FF4E1334360002394
:102860008360C36003610C2242618361C36103F032
:10287000ECFE00B908BDFFF721FF00BF680400208F
:102880000010014008B500F03DF8FFF719FFFFF711
:102890002FFEFFF7D7FEFFF765FFFFF77FFFFFF77C
:1028A00017FE05F081FCFFF799FFFFF7B7FF06F071
:1028B00009FEFFF7CDFF08BD10B504460E4B1A7890
:1028C0004FF47A73B3FBF2F30C4A1068B0FBF3F0E9
:1028D00000F0C0F868B90F2C01D901200AE00022ED
:1028E00021464FF0FF3000F0A1F8054B1C6000209E
:1028F00000E0012010BD00BF100000200C000020EF
:102900001400002008B50B4B1A6842F400721A60DC
:102910001A6842F480621A601A6842F480721A607F
:10292000032000F071F80F20FFF7C6FFFFF7E4FA6D
:10293000002008BD003C0240034A1168034B1B788D
:102940000B441360704700BFF80600201000002001
:10295000014B1868704700BFF806002038B50446E0
:10296000FFF7F6FF0546B4F1FF3F02D0044B1B789A
:102970001C44FFF7EDFF401BA042FAD338BD00BF57
:1029800010000020002807DB00F01F02400901238F
:102990009340024A42F82030704700BF00E100E057
:1029A000002808DB0901C9B200F1604000F5614070
:1029B00080F80013704700F00F000901C9B2014B05
:1029C0001954704714ED00E000B500F00700C0F1A5
:1029D000070CBCF1040F28BF4FF0040C031D062B9D
:1029E0000FD9C31E4FF0FF3E0EFA0CF021EA000192
:1029F00099400EFA03FE22EA0E0241EA02005DF857
:102A000004FB0023EEE70000074AD36823F4E063E9
:102A10001B041B0C000200F4E060034343F0BF639F
:102A200043F40033D360704700ED00E010B5044676
:102A3000054BD868C0F30220FFF7C6FF01462046C9
:102A4000FFF7AEFF10BD00BF00ED00E008B5FFF7D7
:102A500099FF08BD0138B0F1807F0BD24FF0E02321
:102A60005861054AF02182F823100020986107225E
:102A70001A6170470120704700ED00E030B405682E
:102A80002C6824F480242C60046863608368402BE5
:102A900005D0036899600368DA6030BC704703684A
:102AA0009A600368D960F8E710B40368D9B21039A6
:102AB0000A4AA2FB01421209094CA25CC2655F29C5
:102AC00007D96FF3090304338365806D5DF8044B08
:102AD00070476FF309038365F7E700BFABAAAAAAA3
:102AE0007C090108836A826992B9012B0AD0022B02
:102AF00002D00BB100207047C36A13F0807F28D149
:102B000000207047C36AB3F1C07F24D00020704713
:102B1000B2F5005F09D0022B25D9032B25D1C36A5A
:102B200013F0807F23D100207047032B03D8DFE808
:102B300003F01404140A00207047C36A13F0807F66
:102B40000DD100207047C36AB3F1C07F09D00020C7
:102B50007047012070470120704701207047012015
:102B60007047012070470120704700207047012006
:102B70007047000070B50446FFF7EAFE002C5BD0FA
:102B80000546022384F83530002384F83430226867
:102B9000136823F00103136023681A6812F0010F11
:102BA0000AD0FFF7D5FE431B052BF5D9202363651B
:102BB000032084F8350070BD1A682049114062680E
:102BC000A0680243E068024320690243606902434F
:102BD000A0690243E0690243206A02430A43616A32
:102BE00004291ED01A602668756925F00705636AF6
:102BF0001D43042B07D1A36A1D43E36A1BB1204682
:102C0000FFF770FF90B975612046FFF74DFFE26D49
:102C10003F239340836000206065012384F83530B2
:102C2000C9E7E16A206B01430A43DBE740236365A0
:102C3000012084F83500BEE70120BCE73F8010F09A
:102C400038B50446856D90F8340001282BD001205A
:102C500084F8340094F83500C0B2012804D0002371
:102C600084F83430022038BD022084F8350000207A
:102C700060652046FFF702FFE26D3F239340AB60A3
:102C80002268136843F016031360236C23B1226893
:102C9000136843F0080313602268136843F00103CC
:102CA00013600020DFE70220DDE790F83530DBB26B
:102CB000022B03D08023436501207047052380F851
:102CC00035300268136823F0010313600020704759
:102CD000F0B583B0044600230193724B1D68724B1C
:102CE000A3FB0535AD0A876D3E68C26D082393408E
:102CF000334210D003681A6812F0040F0BD01A6820
:102D000022F004021A60C26D08239340BB60436D39
:102D100043F001034365E26D01239340334209D040
:102D20002268526912F0800F04D0BB60636D43F0DB
:102D300002036365E26D04239340334209D02268A5
:102D4000126812F0020F04D0BB60636D43F00403FD
:102D50006365E26D10239340334224D022681268E9
:102D600012F0080F1FD0BB6023681A6812F4802F7E
:102D70000DD01B6813F4002F04D1236C9BB12046A7
:102D8000984710E0A36C73B1204698470BE01A688F
:102D900012F4807F03D11A6822F008021A60236CB3
:102DA0000BB120469847E26D20239340334255D023
:102DB0002268126812F0100F50D0BB6094F83530C2
:102DC000DBB2052B0ED023681A6812F4802F33D0A3
:102DD0001B6813F4002F2AD1636C002B3ED02046D1
:102DE00098473BE02268136823F0160313602268BB
:102DF000536923F080035361236CA3B122681368E5
:102E000023F008031360E26D3F239340BB6001236E
:102E100084F83530002384F83430236D002B3FD004
:102E2000204698473CE0A36C002BE7D1EBE7E36B2F
:102E3000A3B12046984711E01A6812F4807F09D1A7
:102E40001A6822F010021A60012384F8353000233A
:102E500084F83430E36B0BB120469847636DFBB1C7
:102E6000636D13F0010F17D0052384F83530226805
:102E7000136823F001031360019B01330193AB42FC
:102E800004D823681B6813F0010FF5D1012384F8DF
:102E90003530002384F83430E36C0BB1204698477A
:102EA00003B0F0BD0C000020B5814E1B00230F2B9A
:102EB00000F2E98070B582B065E085684FEA430EA4
:102EC000032404FA0EF425EA0405CC6804FA0EF48F
:102ED0002C438460446824EA02044A68C2F3001266
:102EE0009A40224342605CE0DC08083450F8242019
:102EF00003F00705AD004FF00F0E0EFA05FE22EAB3
:102F00000E0E0A69AA4042EA0E0240F824205CE054
:102F1000072200E0002202FA0EF22A4302345A4D40
:102F200045F82420594A94686FEA0C0224EA0C05FB
:102F30004E6816F4801F01D04CEA0405534CA5607E
:102F4000E46802EA04054E6816F4001F01D04CEA5A
:102F500004054E4CE560646802EA04054E6816F408
:102F6000003F01D04CEA0405484C656024682240CB
:102F70004D6815F4803F01D04CEA0402434C2260B6
:102F800001330F2B7DD801229A400C6804EA020C11
:102F900032EA0404F4D14C6804F00304013C012C2F
:102FA0008BD94A6802F00302032A09D0C4685D0085
:102FB0000322AA4024EA02048A68AA402243C2608B
:102FC0004A6802F00302022A8ED004684FEA430ED8
:102FD000032202FA0EF224EA02044A6802F0030213
:102FE00002FA0EF2224302604A6812F4403FC7D050
:102FF00000220192264A546C44F480445464526C7A
:1030000002F480420192019A9C08A51C1E4A52F8C3
:10301000255003F0030E4FEA8E0E0F2202FA0EF235
:1030200025EA02051B4A90423FF474AF02F5806224
:1030300090421AD002F58062904218D002F5806268
:10304000904216D002F58062904214D002F5806260
:10305000904212D002F58062904210D002F5806258
:1030600090423FF455AF082255E7012253E7022270
:1030700051E703224FE704224DE705224BE70622E2
:1030800049E702B070BD704700380140003C014084
:10309000003802400000024000230F2B00F28F8016
:1030A000F0B52DE0072500E0002505FA0CF5A54256
:1030B00069D004685D004FF0030C0CFA05FC24EAAB
:1030C0000C0404604FEAD30E0EF1080E50F82E40A7
:1030D00003F00706B6000F25B54024EA050440F8C2
:1030E0002E40C46824EA0C04C460446824EA020246
:1030F0004260826822EA0C02826001330F2B5DD8A5
:1031000001229A4002EA010632EA0104F5D14FEAAF
:10311000930E0EF102052A4C54F8254003F0030CDF
:103120004FEA8C0C0F2505FA0CF73C40254DA842C0
:10313000BAD005F58065A84219D005F58065A8428A
:1031400017D005F58065A84215D005F58065A84221
:1031500013D005F58065A84211D005F58065A84219
:103160000FD005F58065A8429CD008259DE7012574
:103170009BE7022599E7032597E7042595E70525B1
:1031800093E7062591E7104C256825EA060525609A
:10319000656825EA06056560E56825EA0605E560D7
:1031A000A56825EA0605A560054E0EF1020456F84D
:1031B000245025EA070546F824507AE7F0BD704709
:1031C0000038014000000240003C01400369194200
:1031D00001D001207047002070470AB1816170471B
:1031E00009048161704703685A6912F4806F01D144
:1031F000002070476FF480625A610023036320222D
:1032000080F83D2080F83E30026C42F004020264F7
:1032100080F83C30012070472DE9F04106460C460D
:10322000174698463BE0FFF793FB069BC01A4045C4
:1032300002D8B8F1000F32D1012D18D033689B6944
:1032400024EA03039BB2B3FA83F35B099F4226D1BE
:1032500000233363202286F83D2086F83E30326C0E
:1032600042F02002326486F83C30012027E03368C7
:103270005B6924EA03039BB2B3FA83F35B09E5E7D6
:1032800033685B6924EA030C1FFA8CFCBCFA8CFCE3
:103290004FEA5C1C674511D1B8F1FF3FC3D1C4F3BD
:1032A0000745012DECD033689B6924EA030C1FFA13
:1032B0008CFCBCFA8CFC4FEA5C1CEBE70020BDE800
:1032C000F0812DE9F84305460E469046994653E0B5
:1032D0001A6842F400721A602B686FF480625A61B7
:1032E00000232B63202285F83D2085F83E302A6C90
:1032F00042F004022A6485F83C3001204AE0FFF7DE
:1033000027FBA0EB0900404502D8B8F1000F33D1EC
:10331000012F17D02B689B6926EA03039BB2003B61
:1033200018BF012343B300232B63202285F83D20DF
:1033300085F83E302A6C42F020022A6485F83C3041
:10334000012027E02B685B6926EA03039BB2003B60
:1033500018BF0123E6E72B689C6926EA0404A4B29F
:10336000003C18BF0124A4B12B685A6912F4806F85
:10337000AED1B8F1FF3FC2D1C6F30747012FEAD162
:103380002B685C6926EA0404A4B2003C18BF01243F
:10339000E9E70020BDE8F883F0B583B004460D46A8
:1033A00016461F46C36A082B0DD0012B0BD013F510
:1033B000803F08D0036B122B0AD10268136843F4D4
:1033C0008073136004E02268136843F48073136011
:1033D0000097334600224FF001112046FFF71CFFF3
:1033E00080B92369B3F5804F16D1236805F0FE0537
:1033F0001D613B46324613492046FFF762FFF8B98C
:1034000003B0F0BD23681B6813F4807F02D04FF433
:10341000007323640320F3E7EB11226803F0060333
:1034200043F0F00313613B46324607492046FFF75D
:1034300048FF18B92368EDB21D61DAE70120DFE724
:103440000120DDE702000100080001002DE9F04144
:1034500084B004460D4616461F46C26A01680B68D2
:1034600043F480630B60082A0DD0012A0BD012F5BB
:10347000803F08D0036B112B0AD10268136843F414
:103480008073136004E02268136843F48073136050
:103490000097334600224FF001112046FFF7BCFE93
:1034A00098B92369B3F5804F19D1236845F0010518
:1034B000EDB21D613B4632462A492046FFF701FF27
:1034C00000284CD104B0BDE8F08123681B6813F4D8
:1034D000807F02D04FF4007323640320F2E74FEAA9
:1034E000E51808F00608236848F0F0021A613B4628
:1034F00032461D492046FFF7E4FE08B10120E1E70E
:103500002368EDB21D613B46324616492046FFF75F
:10351000D8FE08B10120D5E700220392236859693B
:103520000391996903910399196841F480711960B5
:10353000009733464FF001112046FFF76DFE20B98A
:10354000226848F0F1031361B4E723681B6813F4A1
:10355000807F02D04FF4007323640320B2E7012080
:10356000B0E700BF020001000800010070B504468A
:103570000D46164623685B6913F0800F21D1204663
:10358000FFF731FEF8B9B5F1FF3FF3D0FFF7E0F9EF
:10359000801BA84201D8002DECD123685B6913F091
:1035A000800FE7D100232363202284F83D2084F894
:1035B0003E30226C42F02002226484F83C3001202C
:1035C00000E0002070BD0120FCE770B504460D4608
:1035D000164623685B6913F0040F21D12046FFF7DC
:1035E00002FEF8B9B5F1FF3FF3D0FFF7B1F9801B48
:1035F000A84201D8002DECD123685B6913F0040FB9
:10360000E7D100232363202284F83D2084F83E3054
:10361000226C42F02002226484F83C30012000E059
:10362000002070BD0120FCE770B504460D4616462B
:1036300014E06FF010025A6100232363202284F803
:103640003D2084F83E30226C226484F83C30012016
:1036500025E023685B6913F0400F10D02368586998
:1036600010F0400F1AD1586910F0100FE1D1FFF798
:103670006FF9801BA842ECD8002DEFD1E9E70023B9
:103680002363202284F83D2084F83E30226C42F0EF
:103690002002226484F83C30012000E0002070BD4C
:1036A000002800F0CC8070B5044690F83D30002B27
:1036B00077D0242384F83D302268136823F0010377
:1036C00013602268136843F4004313602268136890
:1036D00023F40043136001F057FC62685A4B9A428E
:1036E00064D85A4B98428CBF00230123002B40F032
:1036F000A8805749A1FB00318B0C25686A6822F02D
:103700003F0242EA91426A6021680A6A22F03F025F
:1037100066684D4DAE424FD8013313430B622168AA
:10372000CA6922F44F4222F0FF026568464B9D426F
:103730004CD8431E6D00B3FBF5F3013340F6FC702B
:10374000034278D0C3F30B031A43CA6121680B68A4
:1037500023F0C003E269206A024313430B6021682F
:103760008B6823F4034323F0FF032269E0680243DC
:1037700013438B602168CB6823F0FF036269A06963
:1037800002431343CB602268136843F001031360C4
:1037900000202064202384F83D30206384F83E001C
:1037A00070BD80F83C30FEF7C3FB82E7294B98429E
:1037B0008CBF0023012399E74FF4967505FB03F3B3
:1037C000254DA5FB03539B090133A6E7A668BEB9A7
:1037D000431E05EB450CB3FBFCF30133C3F30B03B2
:1037E000B3FA83F35B0943BBC6B9431E05EB45053A
:1037F000B3FBF5F30133C3F30B0343F40043A3E737
:10380000431E05EB850C0CEB8C0CB3FBFCF3013376
:10381000C3F30B03B3FA83F35B09E4E7431E05EB41
:10382000850505EB8505B3FBF5F30133C3F30B0306
:1038300043F4404388E7042386E7012384E701201B
:1038400070470120ACE700BFA08601007F841E0006
:1038500083DE1B43FF083D00D34D62102DE9F0438A
:1038600085B004460F46914698460C9EFFF770F8C7
:10387000054694F83D00C0B2202804D002273846FF
:1038800005B0BDE8F0830095192301224F49204679
:10389000FFF7C2FC002840F0928094F83C30012BE6
:1038A00000F08F80012384F83C3023681A6812F0FE
:1038B000010F03D11A6842F001021A6022681368EE
:1038C00023F400631360212384F83D30102384F82F
:1038D0003E3000232364C4F82490A4F82A80638D2A
:1038E00023853B4BE3622B46324639462046FFF7A1
:1038F00053FD0746002866D10023039323685A69C5
:1039000003929B690393039B11E0236C042B01D06A
:103910000127B4E72268136843F400731360F7E7E4
:103920002A4631462046FFF750FE00282ED1238D2F
:10393000002B36D02A4631462046FFF717FE0028D6
:10394000E3D1626A236812781A61606A431C636279
:10395000618D89B2013989B26185238D013B9BB2AA
:1039600023852268516911F0040FD9D0002BD7D0DC
:1039700043781361636A01336362638D9BB2013BD9
:103980009BB26385238D013B2385C9E7236C042B00
:1039900001D0012773E72268136843F400731360B2
:1039A000F7E72268136843F400731360202384F858
:1039B0003D30002384F83E3084F83C305FE7022736
:1039C0005DE702275BE7012759E700BF020010000F
:1039D0000000FFFF2DE9F04387B004460F469146F3
:1039E00098460E9EFEF7B4FF054694F83D00C0B21F
:1039F000202804D00227384607B0BDE8F0830095A0
:103A00001923012289492046FFF706FC002840F0CF
:103A10004F8194F83C30012B00F04C81012384F855
:103A20003C3023681A6812F0010F03D11A6842F083
:103A300001021A602268136823F4006313602223D2
:103A400084F83D30102384F83E3000232364C4F80A
:103A50002490A4F82A80638D2385754BE3622B465E
:103A6000324639462046FFF7F1FC0746002840F071
:103A70002381238D5BB9029323685A6902929A6964
:103A80000292029A1A6842F400721A607AE0012BDC
:103A90000FD0022B1FD02268136843F48063136099
:103AA0000023059323685A6905929B690593059B3A
:103AB00068E02268136823F4806313600023039393
:103AC00023685A6903929A690392039A1A6842F426
:103AD00000721A6056E02268136823F48063136052
:103AE0002268136843F4006313600023049323687F
:103AF0005A6904929B690493049B43E02A46314629
:103B00002046FFF791FD002840F0D88023681A690D
:103B1000636A1A70636A01336362238D013B2385F4
:103B2000638D9BB2013B9BB263852BE000953346CE
:103B3000002240492046FFF76FFB002840F0C0807C
:103B40002268136843F40073136023681A69636A78
:103B50001A70626A531C6362238D013B2385638D57
:103B60009BB2013B9BB2638523681B695370636AF8
:103B700001336362238D013B2385638D9BB2013B3F
:103B80009BB26385218D002900F08980032953D8D9
:103B90000129B3D00229C9D0009533460022254916
:103BA0002046FFF739FB002840F08C80226813681C
:103BB00023F48063136023681A69636A1A70636A66
:103BC00001336362238D013B2385618D89B2013905
:103BD00089B2618500953346002216492046FFF7D9
:103BE0001BFB002870D12268136843F40073136034
:103BF00023681A69636A1A70626A531C6362238DB0
:103C0000013B2385638D9BB2013B9BB26385236897
:103C10001B695370636A01336362238D013B238503
:103C2000638D9BB2013B9BB26385ABE70200100042
:103C30000000FFFF040001002A4631462046FFF73E
:103C4000F3FC002842D123681A69636A1A70636A18
:103C500001336362228D013A92B22285638D9BB259
:103C6000013B9BB263852368596911F0040F89D029
:103C7000032A0FD023681A69636A1A70636A0133D2
:103C80006362238D013B2385638D9BB2013B9BB215
:103C9000638577E71A6822F480621A60EAE72023D6
:103CA00084F83D30002384F83E3084F83C30A2E6AE
:103CB0000227A0E602279EE601279CE601279AE656
:103CC000012798E6012796E6012794E6012792E668
:103CD0002DE9F04383B0D0F8008001EBC10300EB85
:103CE00083039A6A5B6A9A4254D807460C469B1A29
:103CF00001EBC10200EB8202D2699A4200D31A465C
:103D000002F103094FEA990915E006F103094FEAA8
:103D10009909BB7904EBC40507EB8505296A009373
:103D2000B3B2E2B2404603F0B8FC2B6A33442B62D4
:103D3000AB6A3344AB6208EB441303F510639B6931
:103D40009BB24B4512D304EBC40307EB83039A6A7F
:103D50005B6A9A420AD24BB19B1A04EBC40207EB8E
:103D60008202D6699E42D0D31E46CEE704EBC4033E
:103D700007EB83077A6ABB6A9A420FD804F00F04F4
:103D80000122A240D8F8343823EA0203C8F83438B4
:103D9000002000E0012003B0BDE8F0830020FAE736
:103DA00030B583B000287AD00446056890F8953481
:103DB000C3B1032384F89534B5F1A04F17D0206820
:103DC00003F01EFA237C8DF80030231D0ECB2068F3
:103DD00003F054F970B1022384F895340125284684
:103DE00003B030BD80F8943405F06EFCE1E70023A9
:103DF000A371E4E70021206803F065FE024608B9DC
:103E0000034617E0022384F895340125E7E703EB26
:103E1000C30104EB8101012048750B75CB8500209F
:103E20000876C861086203EBC30104EB81014862B4
:103E30000133DBB220799842E9D816E002EBC203E5
:103E400004EB8303002183F8551283F8542283F88E
:103E50005812C3F85C12C3F8601202EBC20304EB01
:103E60008303C3F864120132D2B29042E6D8237CB5
:103E70008DF80030231D0ECB206803F017FA05469D
:103E800020B1022384F895340125A8E70023637448
:103E9000012384F89534206803F0D4FD9FE70125C1
:103EA0009DE7036890F89424012A1AD010B50446BF
:103EB000012280F89424DA6812F0400F02D0427B8D
:103EC000012A09D0206803F095F9206803F0ACFDC1
:103ED000002084F8940410BD9A6B42F480329A63F7
:103EE000F0E702207047000070B504460D460068F8
:103EF000066C00EB411303F530639A68A179012940
:103F000011D038498E4256D03DB905EBC50304EBBC
:103F10008303D3F86432002B5ED0E9B2204605F06B
:103F20001DFC002070BD12F0080F09D02E498E42F2
:103F3000F7D912F4004FF4D04FF400429A60F0E742
:103F400012F0200F02D020229A60EAE712F0280F28
:103F5000E7D125498E4206D912F4004F03D04FF421
:103F600000429A60DDE705EBC50204EB8202D2F85D
:103F700074121B69C3F31203CB1AC2F868327DB9FD
:103F800005EBC50204EB8202D2F864226AB105EBAC
:103F9000C50204EB8202D2F860121944C2F8601222
:103FA000E9B2204605F0DAFBBBE704F29C420121AE
:103FB00003F0C8FDF4E712F4004F03D04FF40042C1
:103FC0009A60AEE712F0200F01D020229A60E9B289
:103FD000204605F0C3FBA4E704F29C42002103F055
:103FE000B1FD9AE70A31544F0A30544F38B50446B0
:103FF00003681D6C03EB4113D3F8081B0E4A95426E
:1040000007D903F5306311F4004F02D04FF400429A
:104010009A60204605F09AFB074B9D4202D9A3798E
:10402000012B01D0002038BD04F29C420121206800
:1040300003F088FDF6E700BF0A30544F90F894343F
:10404000012B0CD010B50446012380F89434417440
:10405000006803F0D9FC002084F8940410BD02200D
:10406000704738B505468C4611F0800F2BD101F012
:104070000F0E0EEBCE04A40004F514740444211DAD
:104080000EEBCE0E00EB8E0E00208EF855020CF0DB
:104090000F0C81F800C0C2F30A028A600B714A78E3
:1040A0000AB1A1F81AC0022B1CD095F89434012B48
:1040B0001BD0012385F89434286803F0D2F900203E
:1040C00085F8940438BD01F00F0000EBC0018900B1
:1040D00010312944043100EBC00005EB80000124BD
:1040E0004475D4E700234B71DFE70220EAE710B5FF
:1040F00004460A4611F0800F20D101F00F0000EBBA
:10410000C0039B0003F514732344191D00EBC0008A
:1041100004EB8000002380F8553202F00F020A7091
:1041200094F89434012B18D0012384F89434206837
:1041300003F0E4F9002084F8940410BD01F00F00AE
:1041400000EBC0039B0010332344191D00EBC0009B
:1041500004EB800001234375DFE70220EDE710B593
:10416000144601F00F0C0CEBCC01890001F5147121
:10417000014404310CEBCC0E00EB8E0ECEF8602225
:10418000CEF864320023CEF868328EF855328EF8BD
:1041900054C28279012A04D0006803F095FA002005
:1041A00010BDCEF87042F7E701F00F0101EBC1013D
:1041B00000EB8100D0F86802704710B5144601F09A
:1041C0000F0C0CEBCC0189001031014404310CEBD5
:1041D000CC0E00EB8E0ECEF82020CEF8243000233B
:1041E000CEF8283001238EF815308EF814C082796D
:1041F0009A4204D0006803F067FA002010BDCEF8A0
:104200003040F7E738B501F00F050279AA4238D3FC
:1042100004460B4611F0800F1FD101EBC10189004C
:1042200001F514710144043103EBC30300EB830374
:10423000002283F8552201238B700D7094F894347A
:10424000012B20D0012384F89434206803F081FBF3
:1042500085B1002084F8940438BD05EBC5018900C0
:1042600010310144043105EBC50300EB8303012247
:104270005A75E0E704F29C42A179206803F062FCE1
:10428000E7E70120E8E70220E6E701F00F03027903
:104290009A4230D310B5044611F0800F1ED103EBC3
:1042A000C301890001F514710144043103EBC30219
:1042B00000EB8202002082F8550200228A700B7007
:1042C00094F89434012B18D0012384F89434206896
:1042D00003F06CFB002084F8940410BD03EBC301D1
:1042E000890010310144043103EBC30200EB820268
:1042F00001205075E1E7012070470220EDE708B585
:1043000011F0800F0CD101F00F0101EBC101890008
:1043100001F5147101440431006803F05FF908BD30
:1043200001F00F0101EBC10189001031014404319A
:10433000F2E72DE9F04F83B004460568284603F004
:10434000BEFB10B103B0BDE8F08F0646206803F055
:1043500087FB0028F6D005F50067BB68C3F30D2383
:10436000C4F8D434206803F07BFB10F0020F04D0B3
:104370002268536903F002035361206803F070FB65
:1043800010F0100F15D02268936923F01003936189
:10439000D5F8208008F00F0908F4F013B3F5802F4A
:1043A0004CD0B3F5402F6FD02268936943F01003CF
:1043B0009361206803F054FB10F4002F76D120683D
:1043C00003F04EFB10F4802F40F0E080206803F0F3
:1043D00047FB0028C0F26181206803F041FB10F424
:1043E000006F09D0BB6813F0010F40F06E812268A6
:1043F000536903F400635361206803F031FB10F448
:10440000805F40F06681206803F02AFB10F4005FB3
:1044100040F0B381206803F023FB10F0080F40F058
:10442000C481206803F01CFB10F0800F00F0D781DE
:10443000AB6923F08003AB610126C0E147F6F0735E
:1044400018EA030FB0D04FEA181A4FEAC9030193D4
:1044500009EBC90B04EB8B0BC8F30A12DBF86012F3
:10446000284603F053FADBF86032CAF30A0A5344D1
:10447000CBF86032DBF86832019A4A4404EB8202DE
:104480005344C2F868328FE7082204F29C41284660
:1044900003F03CFA09EBC90304EB8303D3F8682269
:1044A000C8F30A184244C3F868227DE7206803F085
:1044B000DBFA8046B14635E005EB49130122C3F82B
:1044C000082B49462046FFF70FFD3CE005EB49135A
:1044D0000822C3F8082B49462046FFF787FD35E040
:1044E00009EBC90304EB830393F85732012B41D046
:1044F00005EB49130222C3F8082B1AF0200F04D051
:1045000005EB49132022C3F8082B1AF4005F05D0ED
:1045100005EB49134FF40052C3F8082B09F10109C8
:104520004FEA5808B8F1000F3FF449AF18F0010FF7
:10453000F4D05FFA89FB5946206803F0A5FA824659
:1045400010F0010FB8D11AF0080FBFD11AF0100FF8
:1045500004D005EB49131022C3F8082B1AF0020F00
:10456000CBD06B6913F0800FBAD07B6843F48063C3
:104570007B60B5E709EBC90304EB8303002283F8F2
:1045800057225946204605F039F9B1E7206803F073
:1045900073FA8046B14625E05946204605F0EAF810
:1045A0001AF0080F04D005EB49130822C3F80829B4
:1045B0001AF0100F04D005EB49131022C3F8082994
:1045C0001AF0400F04D005EB49134022C3F8082924
:1045D0001AF0020F40D11AF0800F59D109F10109E8
:1045E0004FEA5808B8F1000F3FF4F0AE18F0010F91
:1045F000F4D05FFA89FB5946206803F04EFA8246F0
:1046000010F0010FCCD009F00F02012101FA02F2E3
:104610007B6B23EA02037B6305EB4913C3F808199C
:10462000A3798B42B8D109EBC90304EB83031A6A5F
:10463000D9690A441A62B9F1000FADD109EBC90377
:1046400004EB83035B6A002BA6D104F29C42012198
:10465000206803F077FA9FE74946284602F0D6FD26
:1046600009EBC90304EB8303DB7D012B05D005EBCC
:1046700049130222C3F80829ADE709EBC90304EB8B
:1046800083030022DA755946204605F0BDF8EEE7AF
:1046900049462046FFF71CFBA0E77B6823F0010397
:1046A0007B6094F8CC34012B08D0204605F0A0F8AC
:1046B0002268536903F0004353618DE6002184F8BA
:1046C000CC14204600F03FF9F2E7204605F078F8D8
:1046D0008DE67B6823F001037B601021206802F0E7
:1046E00095FD1AE005EB46134FF67F31C3F8081924
:1046F000D3F8002922F40012C3F80029C3F8081BDC
:10470000D3F8002B22F40012C3F8002BD3F8002BAF
:1047100042F00062C3F8002B01362379B342E1D89E
:10472000FB6943F00113FB61E37BDBB1D7F8843015
:1047300043F00B03C7F884307B6C43F00B037B64BE
:10474000D5F8003823F4FE63C5F8003804F29C4223
:10475000A179206803F0F6F92268536903F48053C5
:10476000536150E67B6943F4005343F02B037B61B4
:104770003B6943F00B033B61E2E7206803F0D4F9A7
:10478000206802F05DFEE071266800F0F7FB01464C
:10479000E279304602F0BCFC204604F0FCFF2268BF
:1047A000536903F40053536134E6204604F0EDFFEF
:1047B0002268536903F00803536132E60136237916
:1047C000B3420CD906EBC60304EB830393F85732CC
:1047D000012BF3D1F1B22046FFF791FDEEE72068FF
:1047E00003F03EF910F4801F25D1206803F038F95A
:1047F00010F4001F59D0012326E001362379B3427B
:104800001BD905EB4613D3F8002906EBC60304EBCE
:1048100083031B7E012BF0D1002AEEDA06EBC603E0
:1048200004EB83030122DA7566F07F01C9B22046EA
:10483000FFF765FDE1E70126E0E72268536903F42D
:1048400080135361D1E7013322799A4228D905EBCD
:104850004312D2F8001B03EBC30204EB820292F86E
:104860005822012AEFD10029EDDA01F48031D4F881
:10487000D42402F001029142E5D103EBC30204EB20
:104880008202012182F85712AA6942F08002AA61CD
:104890006A6912F0800FD6D17B6843F400737B60A5
:1048A0002268536903F400135361206803F0D8F8B9
:1048B00010F0804F10D1206803F0D2F810F0040FF0
:1048C0003FF440AD23685D6815F0040F0DD12268F8
:1048D00053682B43536035E5204604F09BFF226864
:1048E000536903F080435361E5E7204604F098FFE5
:1048F000EDE710B40468606A31B940EA0240A06292
:1049000000205DF8044B70478C46A36A00EB13400F
:10491000002308E003F1400104EB8101496800EB4A
:1049200011400133DBB20CF1FF318B42F2D340EA8C
:1049300002400CF13F0104EB81046060E0E7036892
:104940005962002070477047002800F0E08170B580
:1049500082B00446036813F0010F3BD09F4B9B6865
:1049600003F00C03042B2CD09C4B9B6803F00C032E
:10497000082B21D06368B3F5803F4FD0B3F5A02F4B
:1049800052D0964B1A6822F480321A601A6822F4C8
:1049900080221A606368002B50D0FDF7D9FF0546CE
:1049A0008E4B1B6813F4003F14D1FDF7D1FF401B61
:1049B0006428F5D90320B1E1884B5B6813F4800FBC
:1049C000D8D0864B1B6813F4003F03D06368002BDC
:1049D00000F09F81236813F0020F54D07F4B9B6837
:1049E00013F00C0F3ED07D4B9B6803F00C03082B9B
:1049F00033D0E368002B68D0794B01221A60FDF7B1
:104A0000A7FF0546754B1B6813F0020F54D1FDF745
:104A10009FFF401B0228F5D903207FE16F4A1368EE
:104A200043F480331360B5E76C4B1A6842F480227C
:104A30001A601A6842F480321A60ABE7FDF788FF0B
:104A40000546664B1B6813F4003FC3D0FDF780FF9B
:104A5000401B6428F5D9032060E1604B5B6813F4C8
:104A6000800FC6D15D4B1B6813F0020F03D0E368C3
:104A7000012B40F05081594A136823F0F803216953
:104A800043EAC1031360236813F0080F42D063693F
:104A90006BB3534B0122C3F8802EFDF759FF054637
:104AA0004E4B5B6F13F0020F34D1FDF751FF401BEB
:104AB0000228F5D9032031E1484A136823F0F803AE
:104AC000216943EAC1031360DDE7454B00221A6008
:104AD000FDF73EFF0546414B1B6813F0020FD2D095
:104AE000FDF736FF401B0228F5D9032016E13C4BA9
:104AF0000022C3F8802EFDF72BFF0546374B5B6F76
:104B000013F0020F06D0FDF723FF401B0228F5D952
:104B1000032003E1236813F0040F77D02F4B1B6CA5
:104B200013F0805F33D1002301932C4B1A6C42F0B9
:104B300080521A641B6C03F080530193019B012582
:104B4000284B1B6813F4807F23D0A368012B34D03B
:104B5000052B38D0214B1A6F22F001021A671A6F09
:104B600022F004021A67A368002B3DD0FDF7F0FE87
:104B700006461A4B1B6F13F0020F46D1FDF7E8FEF5
:104B8000801B41F288339842F3D90320C6E0002508
:104B9000D6E7144A136843F480731360FDF7D8FE18
:104BA0000646104B1B6813F4807FCED1FDF7D0FE74
:104BB000801B0228F5D90320B0E0084A136F43F0A8
:104BC00001031367CFE7054B1A6F42F004021A671F
:104BD0001A6F42F001021A67C5E700BF00380240B1
:104BE0000000474200700040FDF7B2FE0646524BFF
:104BF0001B6F13F0020F08D0FDF7AAFE801B41F2D5
:104C000088339842F3D9032088E0EDB9A369002BDB
:104C100000F08380484A926802F00C02082A51D0C2
:104C2000022B17D0454B00221A66FDF791FE044671
:104C3000414B1B6813F0007F42D0FDF789FE001B3B
:104C40000228F5D9032069E03B4A136C23F0805316
:104C50001364DBE7394B00221A66FDF779FE05463F
:104C6000354B1B6813F0007F06D0FDF771FE401B2B
:104C70000228F5D9032051E0E369226A1343626AEE
:104C800043EA8213A26A5208013A43EA0243E26A03
:104C900043EA0263284A5360284B01221A66FDF753
:104CA00057FE0446244B1B6813F0007F06D1FDF726
:104CB0004FFE001B0228F5D903202FE000202DE035
:104CC00000202BE0012B2BD01B4B5B6803F48001F1
:104CD000E269914226D103F03F02216A8A4223D140
:104CE000616A47F6C0721A40B2EB811F1ED103F40D
:104CF0004031A26A5208013AB1EB024F18D103F0D9
:104D00007063E26AB3EB026F14D1002006E0012069
:104D10007047012002E0012000E0002002B070BDD9
:104D20000120FBE70120F9E70120F7E70120F5E783
:104D30000120F3E70120F1E700380240000047427C
:104D400008B5334B9B6803F00C03042B5BD0082B96
:104D50005BD12F4B5A6802F03F025B6813F4800F5F
:104D60002CD02B4B5868C0F388104FEA401CBCEB8A
:104D7000000C6EEB0E0E4FEA8E1343EA9C634FEA73
:104D80008C11B1EB0C0163EB0E03DB0043EA5173B2
:104D9000C90011EB000C43F10003590200234FEA54
:104DA0004C2041EADC51FBF74FFF194B5B68C3F322
:104DB000014301335B00B0FBF3F008BD144B5868AE
:104DC000C0F388104FEA401CBCEB000C6EEB0E0EDB
:104DD0004FEA8E1343EA9C634FEA8C11B1EB0C014E
:104DE00063EB0E03DB0043EA5173C90011EB000CC7
:104DF00043F10003990200234FEA8C2041EA9C51C1
:104E0000FBF722FFD1E70348D7E70348D5E700BF08
:104E10000038024000127A000024F400002800F05C
:104E20009B8070B50D4604464F4B1B6803F007038B
:104E30008B4208D2CBB24C4A1370136803F00703BD
:104E40008B4240F08B80236813F0020F17D013F0D1
:104E5000040F04D0454A936843F4E05393602368F9
:104E600013F0080F04D0414A936843F46043936001
:104E70003E4A936823F0F003A1680B4393602368D4
:104E800013F0010F32D06368012B21D09A1E012A42
:104E900025D9364A126812F0020F61D033498A6868
:104EA00022F0030213438B60FDF752FD06462F4BA1
:104EB0009B6803F00C036268B3EB820F16D0FDF71A
:104EC00047FD801B41F288339842F0D9032042E02D
:104ED000264A126812F4003FE0D101203BE0234A49
:104EE000126812F0007FD9D1012034E01E4B1B68FC
:104EF00003F00703AB4207D9EAB21B4B1A701B68D9
:104F000003F00703AB422DD1236813F0040F06D042
:104F1000164A936823F4E053E1680B4393602368D7
:104F200013F0080F07D0114A936823F460432169F6
:104F300043EAC1039360FFF703FF0C4B9B68C3F385
:104F400003130B4AD35CD8400A4B18600A4B18680D
:104F5000FDF7B2FC002070BD012070470120FAE788
:104F60000120F8E70120F6E7003C0240003802404B
:104F70006C0901080C00002014000020014B186887
:104F8000704700BF0C00002008B5FFF7F7FF044B87
:104F90009B68C3F38223034AD35CD84008BD00BF9B
:104FA000003802406409010808B5FFF7E7FF044B29
:104FB0009B68C3F34233034AD35CD84008BD00BFAB
:104FC000003802406409010870B582B0044600232D
:104FD0000193006801F04DFD054610B1284602B06E
:104FE00070BD206802F00EF838B90123A364A36CE9
:104FF000012B0BD02E46284614E00023A364206822
:1050000001F037FD0028F2D00546E7E700212068CF
:1050100001F096FE0028EDD04FF08055DEE7019BB1
:1050200001330193019A4FF6FE739A4213D896B951
:105030000021206801F084FEE0B91249206801F0E7
:105040002DFF0646C0B90021206801F0FDFCC30F0A
:10505000E5D01E46E3E7019A4FF6FE739A420ED85A
:1050600010F0804302D001236364B7E7002262643A
:105070001D46B3E70546B1E74FF08055AEE74FF068
:105080008075ABE7000010C1F8B5846AC66AA6B99E
:10509000F8BD386801F0B5FC2070C0F307236370D9
:1050A000C0F30743A370000EE0700434043E0135E2
:1050B000072DEED9BC62FE62EAE707460025F7E756
:1050C000F0B583B0046A466ADEB903B0F0BD237858
:1050D0000193627843EA02230193A27843EA0243F0
:1050E0000193E27843EA026301930434043E01A988
:1050F000386801F089FC0135072DE8D93C627E62F1
:10510000E3E707460025F7E770B581B104460E4690
:10511000016D0904006801F02BFE054608B1284620
:1051200070BD0021206801F08FFC3060F7E74FF080
:105130000065F4E72DE9F04F87B005460C461646AA
:105140009B46DDF840A0FDF703FC002C36D08146DD
:1051500095F83470FFB2012F40F009810023AB6352
:1051600006EB0B03EA6D93422ED8032385F8343007
:105170002B680022DA626B6C012B00D076024FF0B4
:10518000FF3300934FEA4B230193902302930223B2
:10519000039300230493012305936946286801F0D3
:1051A00056FCBBF1010F14D902232B63314628684A
:1051B00001F04CFDA0B9DDF8048038E0AB6B43F0A2
:1051C0000063AB630127D7E0AB6B43F00073AB63C5
:1051D000D2E001232B633146286801F01FFDE9E787
:1051E0002B68674A9A63AB6B0343AB63012385F873
:1051F000343000232B63BFE0286801F002FC2070EC
:10520000C0F307236370C0F30743A370000EE07080
:105210000434A8F104080136072EEDD9FDF798FBF8
:10522000A0EB0900504510D2BAF1000F0DD028684C
:10523000466B40F22A331E4015D1436B13F4004FE6
:10524000ECD0B8F1000FE9D0E6E72B684C4A9A633E
:10525000AB6B43F00043AB63012385F8343000238C
:105260002B63032788E0436B13F4807F05D0BBF1E9
:10527000010F02D96B6C032B3CD12B685A6B12F0D7
:10528000080F48D15A6B12F4007F44D15A6B12F0C8
:10529000020F4CD15A6B12F0200F54D12868436B87
:1052A00013F4001F5BD0B8F1000F58D001F0A9FB38
:1052B0002070C0F307236370C0F30743A370000E90
:1052C000E0700434A8F10408FDF742FBA0EB0900EC
:1052D000504502D2BAF1000FE0D12B68284A9A63F8
:1052E000AB6B43F00043AB63012385F834300023FC
:1052F0002B6341E001F0F2FC03460028BDD02A6890
:105300001F499163AA6B1343AB63012385F83430C3
:1053100000232B6330E01A4A9A63AB6B43F0080317
:10532000AB63012385F8343000232B6324E0144A57
:105330009A63AB6B43F00203AB63012385F834300F
:1053400000232B6318E00E4A9A63AB6B43F02003F3
:10535000AB63012385F8343000232B630CE040F26B
:105360003A538363012385F83430002704E0AB6BA4
:1053700043F00053AB630127384607B0BDE8F08F18
:10538000FF0540002DE9F04F8BB005460C46164650
:105390009B46DDF850A0FDF7DBFA002C37D08046A5
:1053A00095F83470FFB2012F40F0E6800023AB6324
:1053B00006EB0B03EA6D93422FD8032385F83430B4
:1053C0002B680022DA626B6C012B00D076024FF062
:1053D000FF3304934FEA4B23059390230693002356
:1053E000079308930123099304A9286801F02FFB70
:1053F000BBF1010F16D920232B633146286801F039
:1054000055FC0190019BABB9DDF8149040E0AB6B0B
:1054100043F00063AB630127B3E0AB6B43F0007371
:10542000AB63AEE010232B633146286801F026FC05
:105430000190E7E72B68554A9A63AB6B019A1343D7
:10544000AB63012385F8343000232B6399E0237884
:105450000393627843EA02230393A27843EA024368
:105460000393E27843EA026303930434A9F1040945
:1054700003A9286801F0C8FA0136072EE7D9FDF71D
:1054800067FAA0EB0800504510D2BAF1000F0DD01A
:105490002868466B40F21A331E4015D1436B13F453
:1054A000804FECD0B9F1000FE9D0E6E72B68374A1E
:1054B0009A63AB6B019A1343AB63012385F83430D5
:1054C00000232B6303275CE0436B13F4807F05D03C
:1054D000BBF1010F02D96B6C032B1CD12B685A6BEB
:1054E00012F0080F28D15A6B12F4007F24D15A6BA6
:1054F00012F0020F2CD15A6B12F0100F34D0234A45
:105500009A63AB6B43F01003AB63012385F834302F
:1055100000232B6335E001F0E1FB03460028DDD0DA
:105520002A681A499163AA6B1343AB63012385F878
:10553000343000232B6324E0144A9A63AB6B43F0AE
:105540000803AB63012385F8343000232B6318E094
:105550000E4A9A63AB6B43F00203AB63012385F8F9
:10556000343000232B630CE040F23A529A6301235B
:1055700085F83430002704E0AB6B43F00053AB6395
:10558000012738460BB0BDE8F08F00BFFF05400093
:10559000704700000346426E920F0A70426EC2F3DB
:1055A00083624A7090F8672002F003028A7090F8D4
:1055B0006620CA7090F865200A7190F864204A71DC
:1055C000826E120DCA80B0F86A2002F00F020A72D1
:1055D000826EC2F3C0324A72826EC2F380328A7225
:1055E000826EC2F34032CA72826EC2F300320A7314
:1055F00000224A73426C002A40F08680806E40F69A
:10560000FC7202EA8002D86E42EA90720A61DA6E97
:10561000C2F3C2620A7593F86F2002F007024A755E
:10562000DA6EC2F342528A75DA6EC2F38242CA75EA
:10563000DA6EC2F3C2320A760A6901325A65087E0E
:1056400000F00700023082405A6591F808C00CF063
:105650000F0C012000FA0CF09865400A00FB02F2E2
:10566000DA654FF400721A66DA6EC2F380324A7657
:10567000DA6EC2F3C6128A76DA6E02F07F02CA765A
:105680001A6FD20F0A771A6FC2F341724A771A6FF4
:10569000C2F382628A771A6FC2F38352CA771A6F93
:1056A000C2F3405281F82020002081F82100B3F895
:1056B000722002F0010281F822201A6FC2F3C03278
:1056C00081F823201A6FC2F3803281F824201A6FE8
:1056D000C2F3403281F825201A6FC2F3003281F8FC
:1056E00026201A6FC2F3812281F827201A6FC2F395
:1056F000012281F828201B6FC3F3460381F829306B
:10570000012381F82A307047012A11D1826E1204D8
:1057100002F47C12B0F86E0002430A610A69013299
:1057200092025A65DA654FF400729A651A669BE731
:10573000026805499163826B42F0805282630120C6
:1057400083F83400704700BFFF05400070B590B08B
:1057500004460123ADF81230006801F05EF900281C
:105760006CD0636C032B45D1636C032B5DD1636CF0
:10577000032B1DD0BDF8121021650904206801F02B
:1057800052FB054600285BD10021206801F05CF93E
:1057900060660421206801F057F9A066082120689E
:1057A00001F052F9E0660C21206801F04DF9206704
:1057B0000421206801F048F9000DE06405A92046A5
:1057C000FFF7E8FE00283ED1226D12040023206876
:1057D00001F09EFA054698BB234653F8106B93E8F8
:1057E00007008DE80700043494E80E00304601F00D
:1057F000EFF825E0206801F001FB054600BB002121
:10580000206801F021F960670421206801F01CF98B
:10581000A0670821206801F017F9E0670C212068D3
:1058200001F012F9C4F880009EE70DF11201206822
:1058300001F09EFB0546002899D001E04FF08065FD
:10584000284610B070BD4FF08055F9E770B58AB0AA
:105850000446002304930593069307930893762345
:1058600009930AAB13E907008DE8070004AB0ECBE0
:10587000206801F0ADF818B1012528460AB070BDC6
:1058800005461A4E0023C6F8A030206801F0C1F882
:105890000123C6F8A0300220FDF760F82046FFF78C
:1058A00093FB30B1012584F83450A36B0343A36309
:1058B000E3E72046FFF74AFF30B1012584F8345072
:1058C000A36B0343A363D8E74FF40071206801F092
:1058D0008DF90028D1D0236805499963A36B034350
:1058E000A363012584F83450C7E700BF0080254238
:1058F000FF054000A8B110B5044690F8343063B1FC
:10590000032384F834302046FFF7A0FF58B9A06382
:105910002063012384F8343010BD0377FCF740FB8B
:10592000EEE7012070470120F6E7436C0B60836CC3
:105930004B60C36C8B60036DCB60436D0B61836DFB
:105940004B61C36D8B61036ECB610020704710B556
:1059500082B004460023019301A9FFF7D5FB10B1E3
:10596000A36B0343A3630198C0F3432002B010BDAF
:1059700010B5846B236840F23A529A632046FFF7D1
:10598000E6FF012384F8343000232363053801281F
:1059900005D9A36B53B9204602F047FC10BD20681F
:1059A00001F09CF9A36B0343A363F2E72046FFF7E2
:1059B000EFFDF3E710B5846B236840F23A529A6327
:1059C0002046FFF7C4FF012384F83430002323630B
:1059D0000538012805D9A36B53B9204602F025FCF0
:1059E00010BD206801F07AF9A36B0343A363F2E7CB
:1059F0002046FFF7CDFDF3E738B50446056B036895
:105A00005A6B12F4004F02D015F0080F28D15A6BD0
:105A100012F4807F5AD04FF480729A632268D36B5D
:105A200023F4434323F03A03D3632268D36A23F079
:105A30000103D36215F0080F26D015F0220F12D102
:105A4000236840F23A529A63012384F834300023E9
:105A5000236315F0030F13D0204602F0F0FB01E0A2
:105A6000FFF712FB38BD206801F038F90346002823
:105A7000E6D0A26B1343A3632046FFF789FDDFE75F
:105A8000204602F0D7FBEDE715F0800FEAD015F0C5
:105A9000200F0ED115F0030FE4D12268D36A23F052
:105AA0000803D362012384F83430204602F0C2FB9D
:105AB000D8E7206801F012F903460028EAD0A26B6B
:105AC0001343A3632046FFF763FDE3E75A6B12F429
:105AD000804F02D015F0080F55D1596B40F23A2291
