:020000040800F2
:10000000000002203DA3000865360008673600089E
:10001000693600086B3600086D36000800000000E5
:100020000000000000000000000000006F36000823
:1000300071360008000000007336000875360008AD
:100040008DA300088DA300088DA300088DA30008D0
:100050008DA300088DA300088DA300088DA30008C0
:100060008DA300088DA300088DA300088DA30008B0
:100070008DA300088DA300088DA300088DA30008A0
:100080007D3600088D3600088DA300088DA300087A
:100090008DA300088DA300088DA300088DA3000880
:1000A0008DA300088DA300088DA300088DA3000870
:1000B0008DA300088DA300088DA300088DA3000860
:1000C0008DA300088DA300088DA300088DA3000850
:1000D0008DA300088DA300088DA300088DA3000840
:1000E0008DA300088DA300088DA300088DA3000830
:1000F0008DA300088DA300088DA300088DA3000820
:100100008DA300089D3600088DA300088DA300086C
:100110008DA300088DA300088DA300088DA30008FF
:100120008DA300088DA300088DA30008AD3600083C
:100130008DA300088DA300088DA300088DA30008DF
:100140008DA300088DA300088DA300088DA30008CF
:100150008DA30008BD3600088DA300088DA30008FC
:100160008DA300088DA300088DA300088DA30008AF
:100170008DA300088DA300088DA3000800000000D7
:080180008DA300088DA3000807
:1001900010B5054C237833B9044B13B10448AFF3C1
:1001A00000800123237010BD000200200000000029
:1001B00074E6000808B5034B1BB103490348AFF3CD
:1001C000008008BD000000000402002074E6000862
:1001D000034613F8012B002AFBD1181A0138704787
:1001E00001F0FF01102A2BDB10F0070F08D010F8E8
:1001F000013B013A8B422DD010F0070F42B3F6D1EC
:10020000F0B441EA012141EA014122F007047FF004
:1002100000070023F0E80256083C85EA010586EA5B
:10022000010685FA47F5A3FA87F586FA47F6A5FA97
:1002300087F68EB9EED1F0BC01F0FF0102F00702A3
:1002400032B110F8013B013A83EA010313B1F8D14E
:100250000020704701387047002D06BF354603382F
:10026000073815F0010F07D1013015F4807F02BF68
:10027000013015F4C03F0130F0BC0138704700BFB9
:1002800081F0004102E000BF83F0004330B54FEA47
:1002900041044FEA430594EA050F08BF90EA020FB4
:1002A0001FBF54EA000C55EA020C7FEA645C7FEA47
:1002B000655C00F0E2804FEA5454D4EB5555B8BF6A
:1002C0006D420CDD2C4480EA020281EA030382EADB
:1002D000000083EA010180EA020281EA0303362D6D
:1002E00088BF30BD11F0004F4FEA01314FF4801C40
:1002F0004CEA113102D0404261EB410113F0004F52
:100300004FEA03334CEA133302D0524263EB430308
:1003100094EA050F00F0A780A4F10104D5F1200EA6
:100320000DDB02FA0EFC22FA05F2801841F1000101
:1003300003FA0EF2801843FA05F359410EE0A5F1D5
:1003400020050EF1200E012A03FA0EFC28BF4CF006
:10035000020C43FA05F3C01851EBE37101F00045BC
:1003600007D54FF0000EDCF1000C7EEB00006EEBC9
:100370000101B1F5801F1BD3B1F5001F0CD3490853
:100380005FEA30004FEA3C0C04F101044FEA4452AA
:1003900012F5800F80F09A80BCF1004F08BF5FEA31
:1003A000500C50F1000041EB045141EA050130BD11
:1003B0005FEA4C0C404141EB0101013C28BFB1F523
:1003C000801FE9D291F0000F04BF01460020B1FA6E
:1003D00081F308BF2033A3F10B03B3F120020CDA41
:1003E0000C3208DD02F1140CC2F10C0201FA0CF01F
:1003F00021FA02F10CE002F11402D8BFC2F1200C84
:1004000001FA02F120FA0CFCDCBF41EA0C01904039
:10041000E41AA2BF01EB0451294330BD6FEA040482
:100420001F3C1CDA0C340EDC04F11404C4F120026D
:1004300020FA04F001FA02F340EA030021FA04F37F
:1004400045EA030130BDC4F10C04C4F1200220FAD6
:1004500002F001FA04F340EA0300294630BD21FA14
:1004600004F0294630BD94F0000F83F4801306BFDA
:1004700081F480110134013D4EE77FEA645C18BFCE
:100480007FEA655C29D094EA050F08BF90EA020F65
:1004900005D054EA000C04BF1946104630BD91EA5D
:1004A000030F1EBF0021002030BD5FEA545C05D160
:1004B0004000494128BF41F0004130BD14F580049F
:1004C0003CBF01F5801130BD01F0004545F0FE4113
:1004D00041F470014FF0000030BD7FEA645C1ABF48
:1004E000194610467FEA655C1CBF0B46024650EA7F
:1004F000013406BF52EA033591EA030F41F40021AB
:1005000030BD00BF90F0000F04BF0021704730B530
:100510004FF4806404F132044FF000054FF0000105
:1005200050E700BF90F0000F04BF0021704730B5C6
:100530004FF4806404F1320410F0004548BF40429B
:100540004FF000013EE700BF42004FEAE2014FEAF0
:1005500031014FEA02701FBF12F07F4393F07F4FCB
:1005600081F06051704732F07F4208BF704793F0CE
:100570007F4F04BF41F40021704730B54FF46074E1
:1005800001F0004521F000411CE700BF50EA0102E4
:1005900008BF704730B54FF000050AE050EA01028D
:1005A00008BF704730B511F0004502D5404261EBFD
:1005B00041014FF4806404F132045FEA915C3FF43E
:1005C000D8AE4FF003025FEADC0C18BF03325FEADB
:1005D000DC0C18BF033202EBDC02C2F1200300FA8C
:1005E00003FC20FA02F001FA03FE40EA0E0021FAB1
:1005F00002F11444BDE600BF70B54FF0FF0C4CF49F
:10060000E06C1CEA11541DBF1CEA135594EA0C0F50
:1006100095EA0C0F00F0DEF82C4481EA030621EA8B
:100620004C5123EA4C5350EA013518BF52EA0335C6
:1006300041F4801143F4801338D0A0FB02CE4FF078
:100640000005E1FB02E506F00042E0FB03E54FF0A8
:100650000006E1FB03569CF0000F18BF4EF0010EA0
:10066000A4F1FF04B6F5007F64F5407404D25FEA9C
:100670004E0E6D4146EB060642EAC62141EA55514F
:100680004FEAC52040EA5E504FEACE2EB4F1FD0C91
:1006900088BFBCF5E06F1ED8BEF1004F08BF5FEA0F
:1006A000500E50F1000041EB045170BD06F00046C1
:1006B00046EA010140EA020081EA0301B4EB5C046E
:1006C000C2BFD4EB0C0541EA045170BD41F4801166
:1006D0004FF0000E013C00F3AB8014F1360FDEBF8B
:1006E000002001F0004170BDC4F10004203C35DA67
:1006F0000C341BDC04F11404C4F1200500FA05F3EA
:1007000020FA04F001FA05F240EA020001F000428A
:1007100021F0004110EBD37021FA04F642EB060100
:100720005EEA430E08BF20EAD37070BDC4F10C042A
:10073000C4F1200500FA04F320FA05F001FA04F2EE
:1007400040EA020001F0004110EBD37041F10001DA
:100750005EEA430E08BF20EAD37070BDC4F12005E5
:1007600000FA05F24EEA020E20FA04F301FA05F24D
:1007700043EA020321FA04F001F0004121FA04F2F5
:1007800020EA020000EBD3705EEA430E08BF20EAC5
:10079000D37070BD94F0000F0FD101F000464000FF
:1007A00041EB010111F4801F08BF013CF7D041EA81
:1007B000060195F0000F18BF704703F00046520085
:1007C00043EB030313F4801F08BF013DF7D043EA56
:1007D0000603704794EA0C0F0CEA135518BF95EA0C
:1007E0000C0F0CD050EA410618BF52EA4306D1D193
:1007F00081EA030101F000414FF0000070BD50EAB2
:10080000410606BF1046194652EA430619D094EA3B
:100810000C0F02D150EA013613D195EA0C0F05D125
:1008200052EA03361CBF104619460AD181EA030179
:1008300001F0004141F0FE4141F470014FF0000031
:1008400070BD41F0FE4141F4780170BD70B54FF0CC
:10085000FF0C4CF4E06C1CEA11541DBF1CEA13554C
:1008600094EA0C0F95EA0C0F00F0A7F8A4EB05042E
:1008700081EA030E52EA03354FEA013100F0888025
:100880004FEA03334FF0805545EA131343EA1263EE
:100890004FEA022245EA111545EA10654FEA0026A3
:1008A0000EF000419D4208BF964244F1FD0404F55C
:1008B000407402D25B084FEA3202B61A65EB0305B8
:1008C0005B084FEA32024FF480104FF4002CB6EB75
:1008D000020E75EB030E22BFB61A754640EA0C00F5
:1008E0005B084FEA3202B6EB020E75EB030E22BF35
:1008F000B61A754640EA5C005B084FEA3202B6EB76
:10090000020E75EB030E22BFB61A754640EA9C0034
:100910005B084FEA3202B6EB020E75EB030E22BF04
:10092000B61A754640EADC0055EA060E18D04FEAC2
:10093000051545EA16754FEA06164FEAC30343EA62
:1009400052734FEAC2025FEA1C1CC0D111F4801F2F
:100950000BD141EA00014FF000004FF0004CB6E728
:1009600011F4801F04BF01430020B4F1FD0C88BFC7
:10097000BCF5E06F3FF6AFAEB5EB030C04BFB6EBD2
:10098000020C5FEA500C50F1000041EB045170BDC5
:100990000EF0004E4EEA113114EB5C04C2BFD4EBF2
:1009A0000C0541EA045170BD41F480114FF0000E76
:1009B000013C90E645EA060E8DE60CEA135594EAF2
:1009C0000C0F08BF95EA0C0F3FF43BAF94EA0C0FF5
:1009D0000AD150EA01347FF434AF95EA0C0F7FF46A
:1009E00025AF104619462CE795EA0C0F06D152EABE
:1009F00003353FF4FDAE1046194622E750EA4106A2
:100A000018BF52EA43067FF4C5AE50EA41047FF4B2
:100A10000DAF52EA43057FF4EBAE12E74FF0FF3C17
:100A200006E000BF4FF0010C02E000BF4FF0010CE8
:100A30004DF804CD4FEA410C7FEA6C5C4FEA430C61
:100A400018BF7FEA6C5C1BD001B050EA410C0CBFB0
:100A500052EA430C91EA030F02BF90EA020F002012
:100A6000704710F1000F91EA030F58BF994208BF79
:100A700090422CBFD8176FEAE37040F00100704736
:100A80004FEA410C7FEA6C5C02D150EA013C07D18D
:100A90004FEA430C7FEA6C5CD6D152EA033CD3D0D8
:100AA0005DF8040B704700BF8446104662468C46D2
:100AB0001946634600E000BF01B5FFF7B7FF002805
:100AC00048BF10F1000F01BD4DF808EDFFF7F4FF2E
:100AD0000CBF012000205DF808FB00BF4DF808EDB9
:100AE000FFF7EAFF34BF012000205DF808FB00BFDC
:100AF0004DF808EDFFF7E0FF94BF012000205DF8FE
:100B000008FB00BF4DF808EDFFF7CEFF94BF0120B2
:100B100000205DF808FB00BF4DF808EDFFF7C4FFAB
:100B200034BF012000205DF808FB00BF4FEA410CF4
:100B30007FEA6C5C02D150EA013C0AD14FEA430CD7
:100B40007FEA6C5C02D152EA033C02D14FF0000014
:100B500070474FF0010070474A0011D212F50012A1
:100B600011D20DD56FF47873B3EB62520ED44FEA05
:100B7000C12343F0004343EA505323FA02F0704785
:100B80004FF00000704750EA013002D14FF0FF30C3
:100B900070474FF0000070474FEA4102B2F1E04366
:100BA00024BFB3F5001CDCF1FE5C0DD901F0004C54
:100BB0004FEAC0024CEA5070B2F1004F40EB8300A4
:100BC00008BF20F00100704711F0804F21D113F1D0
:100BD0003872BCBF01F00040704741F480114FEA09
:100BE0005252C2F11802C2F1200C10FA0CF320FA92
:100BF00002F018BF40F001004FEAC1234FEAD323AF
:100C000003FA0CFC40EA0C0023FA02F34FEA430318
:100C1000CCE77FEA625307D150EA01331EBF4FF0A1
:100C2000FE4040F44000704701F0004040F0FE40BC
:100C300040F40000704700BF53B94AB9002908BF0B
:100C400000281CBF4FF0FF314FF0FF3000F0A0B97B
:100C5000ADF1080C6DE904CE00F03CF8DDF804E0DD
:100C6000DDE9022304B0704738B5002200230446B2
:100C70000D46FFF733FF28B920462946BDE8384026
:100C800000F00AB8204605F1004100F005F84042A6
:100C900061EB410138BD00BFD0B50C4B00220646C8
:100CA0000F46FFF7A9FCFFF757FF0446FFF72AFCA2
:100CB000074B0022FFF7A0FC02460B4630463946A0
:100CC000FFF7E2FAFFF748FF2146D0BD0000F03DF4
:100CD0000000F0412DE9F047089D0C46002B4ED155
:100CE00094468C458646B2FA82F262D94AB1C2F184
:100CF0002003914020FA03F30CFA02FC194300FA96
:100D000002FE4FEA1C471FFA8CF6B1FBF7F44FEADC
:100D10001E4307FB141143EA014304FB06F1994209
:100D20000AD91CEB030304F1FF3080F012819942D1
:100D300040F20F81023C6344591A1FFA8EF3B1FB53
:100D4000F7F007FB101143EA014300FB06F69E4251
:100D50000AD91CEB030300F1FF3180F0FC809E42B6
:100D600040F2F980634402389B1B40EA04400021B2
:100D70001DB1D3400022C5E90032BDE8F0878B42A7
:100D800005D90DB1C5E9000100210846F5E7B3FA20
:100D900083F1002946D1A34202D39042C0F0F080F3
:100DA000861A64EB03030120002DE6D0C5E9006339
:100DB000E3E7002A40F09080A1EB0C044FEA1C48C6
:100DC0001FFA8CF70121B4FBF8F64FEA1E4308FB2B
:100DD000164443EA044307FB06F0984208D91CEB8B
:100DE000030306F1FF3402D2984200F2CD8026467A
:100DF0001C1A1FFA8EF3B4FBF8F008FB104443EA08
:100E0000044300FB07F79F4208D91CEB030300F1E2
:100E1000FF3402D29F4200F2B0802046DB1B40EA42
:100E20000640A5E7C1F120068B4022FA06F71F43D2
:100E300020FA06FC04FA01F343EA0C03F44000FA3A
:100E400001F8380C4FEA1349B4FBF0FE1FFA87FC97
:100E500000FB1E4449EA04440EFB0CF9A14502FACA
:100E600001F20AD93C190EF1FF3A80F08480A145C5
:100E700040F28180AEF1020E3C44A4EB09041FFA5B
:100E800083F9B4FBF0F300FB134449EA044403FB89
:100E90000CFCA44507D93C1903F1FF3067D2A445E7
:100EA00065D9023B3C4443EA0E40A0FB0293A4EB0D
:100EB0000C049C42CE469C4651D34ED055B1B8EB63
:100EC0000E0364EB0C0404FA06F6CB401E43CC4040
:100ED000C5E90064002150E7C2F1200320FA03F1C4
:100EE0000CFA02FC24FA03F394400C434FEA1C482A
:100EF00000FA02FE1FFA8CF7B3FBF8F008FB103182
:100F0000230C43EA014300FB07F1994208D91CEB8B
:100F1000030300F1FF362CD299422AD902386344E8
:100F20005B1AA4B2B3FBF8F108FB113344EA0344A3
:100F300001FB07F3A34208D91CEB040401F1FF36BF
:100F400013D2A34211D902396444E41A41EA0041A0
:100F500039E70446F0E6084606E7C845AED2B9EBE5
:100F6000020E63EB070C0138A8E73146EDE70346B4
:100F700099E73046D4E7D6467FE7634402384DE729
:100F80000646234608460FE7023E634430E700BFAB
:100F9000704700BF054B064A1A6000225A609A60EB
:100FA000DA601A615A6104229A617047880700204A
:100FB000002C01402DE9F0438DB0002407940894E3
:100FC00009940A940B9401944A4B1A6B42F0100254
:100FD0001A631A6B02F010020192019A02941A6BC2
:100FE00042F080021A631A6B02F080020292029AA7
:100FF00003941A6B42F001021A631A6B02F00102A9
:101000000392039A04941A6B42F004021A631A6B57
:1010100002F004020492049A05941A6B42F0020250
:101020001A631A6B02F002020592059A06941A6B73
:1010300042F008021A631B6B03F008030693069B39
:10104000DFF8BC90224641F68C71484603F047FB1E
:10105000294F22461021384603F041FB274E01223A
:101060008021304603F03BFBDFF898802246C02108
:10107000404603F034FB41F68C7307930125089535
:1010800009940A9407A9484603F092F9102307939C
:10109000089509940A9407A9384603F089F94FF492
:1010A000004307934FF488130893099407A9304627
:1010B00003F07EF94FF08009CDF81C9008940223CC
:1010C000099307A9384603F073F9CDF81C900895E9
:1010D00009940A9407A9304603F06AF9C0230793DC
:1010E000089509940A9407A9404603F061F90DB0E8
:1010F000BDE8F0830038024000080240000C0240C6
:10110000001002400004024010B582B00024009498
:101110001A4B1A6B42F480021A631A6B02F48002B3
:101120000092009A01941A6B42F400121A631B6B2E
:1011300003F400130193019B22462146102003F083
:1011400045FD102003F052FD22462146112003F0F8
:101150003DFD112003F04AFD224621463B2003F0CD
:1011600035FD3B2003F042FD22462146452003F099
:101170002DFD452003F03AFD02B010BD00380240BD
:10118000014B1860704700BF6008002008B503F0ED
:1011900097FD08BD00B585B08DF80C008DF80D10D9
:1011A0000A230093022303AA50214B48006804F04D
:1011B00009FA00285FD00146012821D0032823D056
:1011C000022825D045480AF051F9434B186804F02D
:1011D0002EFF00284FD0431E1F2B20D8DFE803F03E
:1011E0001C341F381F1F1F3C1F1F1F1F1F1F1F40A6
:1011F0001F1F1F1F1F1F1F1F1F1F1F1F1F1F1F44DA
:1012000037480AF09BF9E0E736480AF097F9DCE73F
:1012100035480AF093F9D8E734480AF08FF92E4B95
:10122000186804F001FF18B32A2827D8202822D3F1
:10123000A0F120030A2B1ED8DFE803F02E363A1D5A
:10124000321D1D1D3E42460029480AF077F9E6E7A7
:1012500028480AF073F9E2E727480AF06FF9DEE759
:1012600026480AF06BF9DAE725480AF067F9D6E76D
:1012700024480AF063F905B05DF804FBA02827D0E4
:10128000E02803D120480AF059F9F4E76028F2D1A8
:101290001E480AF053F9EEE71A480AF04FF9EAE758
:1012A0001B480AF04BF9E6E71A480AF047F9E2E76B
:1012B00019480AF043F9DEE718480AF03FF9DAE77F
:1012C00017480AF03BF9D6E716480AF037F9D2E793
:1012D00015480AF033F9CEE76008002000E700085F
:1012E00090E60008B4E60008DCE6000818E700080D
:1012F0002CE7000840E7000854E7000868E700080A
:101300007CE7000894E7000878E8000848E800084F
:10131000ACE70008C0E70008D8E70008F0E70008DD
:1013200008E8000828E8000860E80008F0B585B083
:101330000C4615468DF80F00094E642700970123CF
:101340000DF10F025021306804F03CF900972B4654
:1013500022465021306804F0F1F905B0F0BD00BF1D
:101360006008002038B5841D012202FA04F4A4B2FA
:10137000064D2146284603F0B2F90F2003F0A0FCE9
:1013800000222146284603F0AAF938BD0010024089
:1013900008B5044B1B78012B00D008BD00F072FF8C
:1013A000FBE700BFAC0400202DE9F0410C461D4BCB
:1013B0001D881D4B1D806B18B3F5007F25DDC5F51D
:1013C0000076B6B2194FDFF8688032464146781988
:1013D0000AF0CBFA144B00221A80A21B08EB06017C
:1013E00038460AF0C2FAA5F5007525440D4B1D805C
:1013F00040220F490F4806F079FD0F4B1A68136819
:1014000023F008031360BDE8F0810A460849074845
:1014100028440AF0AAFA044B1B881C44014B1C8088
:10142000E6E700BFA8040020AA040020680200200C
:1014300068040020D00500207005002072B6FEE789
:1014400008B50A480A4B03600A4B436000238360D7
:10145000C3604FF48042026143618361C3610362F0
:1014600003F0B8FF00B908BDFFF7E8FF0C08002043
:1014700000580040A086010070B52DED028B067863
:1014800056B30546504B1E7002230020864609E0E5
:101490000EEB4E0C4D4C04EB4C0C0CF800200130C4
:1014A0000133DBB28B4206D2EA5C202AF0D10EF186
:1014B000010E0020F4E7732E11D06C2E2CD0772E65
:1014C00037D0772E3DD0772E43D0722E53D0722E48
:1014D0006BD02846FFF75CFFBDEC028B70BD3B4E26
:1014E000304608F054FF0446B01D08F050FF08EEE7
:1014F000100A374E304604F04BF8FFF7A1FF304694
:1015000001F0AEFE322001F0A7FD601EB8EEC80A61
:10151000C0B201F065FEDCE72C4808F038FF2D4B27
:1015200001221A702C4B02221A70C0B2FFF71AFF68
:10153000CFE7264B1B78652BC3D1264B01221A70AF
:10154000C7E7224B1B78642BBDD1224B00221A70B7
:10155000BFE71E4B1B78732BB7D1204C012204210F
:10156000204603F0BCF800F041FF00220421204691
:1015700003F0B5F8ADE7154B1B78612BA7D1184CDC
:10158000204605F099FF174E304600F07BFC96EDA3
:10159000000A00F081FC144B83ED000A134B00227B
:1015A0001A60204605F0E7FF93E7084B1B786C2B89
:1015B0008FD10B4C204605F07FFF00F095FF2046B1
:1015C00005F0D9FF85E700BFCE040020B00400205D
:1015D0000C080020AC0400201C0200200010024077
:1015E00070060020240200202C020020200200208F
:1015F00008B50D480D4B03604FF482734360002320
:101600008360C360036143614FF400728261C36110
:101610000362436283620A23C36205F04DFF00B98F
:1016200008BDFFF70BFF00BF18060020003C00407C
:1016300008B50D480D4B03604FF4827343600023DF
:101640008360C360036143614FF400728261C361D0
:101650000362436283620A23C36205F02DFF00B96F
:1016600008BDFFF7EBFE00BF700600200030014010
:1016700008B50A480A4B03604FF416534360002331
:101680008360C36003610C2242618361C36106F021
:101690001FFB00B908BDFFF7D1FE00BFD005002039
:1016A0000044004000B595B03022002108A80AF09F
:1016B00045F800230393049305930693079301933E
:1016C0001F4A116C41F080511164126C02F080527B
:1016D0000192019A02931B4A116841F48041116002
:1016E000126802F480420292029A022208920121B8
:1016F0000B9110210C910E920F93082310935023FD
:10170000119312920423139308A802F011FB90B9CD
:101710000F23039302210491002305934FF4C05338
:1017200006934FF48053079303A802F06BFD20B992
:1017300015B05DF804FBFFF781FEFFF77FFE00BFE9
:1017400000380240007000402DE9F04F2DED068B6F
:10175000B5B003F089FAFFF7A5FFFFF72BFCFFF701
:10176000D3FCFFF76DFEFFF743FFFFF713FC02F01A
:10177000E9F9FFF75DFFFFF77BFF40226E496F48F5
:1017800006F0B4FB6E4B1A68136823F0080313606D
:101790006C4C01220421204602F0A1FF0122082105
:1017A000204602F09CFF684C204600F01FFD64209C
:1017B00003F086FA00F01AFE01F0E0FA4C226349C9
:1017C000634801F010FB01F053FB624D2846FFF720
:1017D000D7FC00F0BDFB00F0ABFB284601F040FD5C
:1017E000322001F039FC204605F066FE03E04FF49C
:1017F0007A7003F065FA00F039FB0028F7D14FF456
:101800007A7003F05DFA544C204600F03BFB94EDF7
:10181000000A00F041FB514B83ED000A4A4805F0F5
:10182000AAFE4F4B01221A7000220421454802F003
:1018300056FF03F03FFA834603F03CFA139000F0A2
:1018400089FE9FED488AF0EE488AB0EE48AA4FF034
:10185000000A9FE000F020FB404BD3ED007A30EE11
:10186000678A414BD3ED007AF4EEC87AF1EE10FAB4
:1018700001D583ED008A139BA8EB030307EE903A92
:10188000F8EE677AF5EE407AF1EE10FA07D038EE0E
:101890004AAADFED366A87EEA67ACAEE078AF8EE24
:1018A000087AF4EEE78AF1EE10FA24D5F1EE047A24
:1018B000B4EEE78AF1EE10FA22DDDFED2D7AB4EE18
:1018C000E78AF1EE10FA20D5254B1B78022B06D0C3
:1018D000102B04D0B0EE48AACDF84C809DE0204BF0
:1018E00010221A7020212348FFF7C6FDB0EE48AA47
:1018F000CDF84C8091E0B0EE48AACDF84C808CE059
:10190000B0EE48AACDF84C8087E0B0EE48AACDF8FA
:101910004C8082E00E9405F100430F93DDE90E4503
:1019200098E08DED109A19EE903A03F1004311936F
:101930009DED109B93E000BF68040020D0050020BF
:1019400070050020001002407006002000000020FA
:10195000080000200C080020240200202C02002097
:101960001C020020000000002002002000007A4439
:101970000000164390E8000801F0CAFA012800F0C0
:101980008981A8EB0B08B8F1FA0F00F29781462085
:1019900003F096F903F08EF9804600F0F7FB8DED29
:1019A000140B8DED161B8DED182B8DED1A3B00F0F1
:1019B000FDFB8DED1C0B8DED1E1B8DED202B8DED9C
:1019C000223B00F003FC8DED240B8DED261B8DEDED
:1019D000282B8DED2A3B00F0C9FB8DED2C0B8DEDF6
:1019E0002E1B8DED302B8DED323B00F0B3FD81468B
:1019F000B54D284605F060FDB44C204600F042FA93
:101A0000284605F0B8FD94ED000ADFEDB17AB4EE9A
:101A1000E70AF1EE10FA3FF71DAFAE4CAE49204693
:101A200001F010F894ED009BD4E904450022AB4B83
:101A300020462946FFF770F838B10022A74B204610
:101A40002946FEF703FF04460D46A24B1B7E572B8B
:101A50003FF460AF9F4B1B7A532B3FF462AF0A20D9
:101A600003F02EF9BAF1000F86D101F0F5F99C4E82
:101A700020273A460021304609F060FE954B5B6A0C
:101A80000493CDE902458DED009B424695493046D1
:101A900009F05CFD304601F0F7F93046FFF778FCBD
:101AA0000F2003F00DF93A460021304609F046FEBA
:101AB00018EE100AFEF748FDCDE9000142468A49BA
:101AC000304609F043FD304601F0DEF93046FFF7BD
:101AD0005FFC0F2003F0F4F83A460021304609F08D
:101AE0002DFE18EE900AFEF72FFDCDE900014246CB
:101AF0007E49304609F02AFD304601F0C5F93046EE
:101B0000FFF746FC0F2003F0DBF83A460021304691
:101B100009F014FEDDE91645DDE91823DDE91A01B7
:101B2000089001F1004109919DED087B8DED047B4A
:101B30000A9203F100430B939DED0A7B8DED027B2E
:101B40000C9405F100430D939DED0C7B8DED007B16
:101B500042466749304609F0F9FC304601F094F9F5
:101B60003046FFF715FC0F2003F0AAF83A46002193
:101B7000304609F0E3FDDDE93223CDE90423DDE958
:101B80003023CDE90223DDE92E23CDE900234246AF
:101B90005849304609F0DAFC304601F075F9304614
:101BA000FFF7F6FB0F2003F08BF83A460021304692
:101BB00009F0C4FDDDE92223CDE90423DDE920237A
:101BC000CDE90223DDE91E23CDE9002342464A493F
:101BD000304609F0BBFC304601F056F93046FFF7BD
:101BE000D7FB0F2003F06CF83A460021304609F08D
:101BF000A5FDDDE92423CDE90623DDE92A23CDE98E
:101C00000423DDE92823CDE90223DDE92623CDE9FC
:101C1000002342463949304609F098FC304601F02D
:101C200033F93046FFF7B4FB0F2003F049F83A468A
:101C30000021304609F082FD99F884300193304B41
:101C40001B7800932F4B1B7842462F49304609F0F2
:101C50007DFC304601F018F93046FFF799FB0F2064
:101C600003F02EF8A8EB0B03B3F5FA7F7FF68FAEE7
:101C70003A460021304609F061FD63233380304647
:101C800001F002F901F0F4F803F014F883464FF084
:101C9000010A7CE61D4C20252A460021204609F039
:101CA0004DFD204601F04AF903F004F88346294629
:101CB0002046FFF7E1FB4FF0000A68E602F0FAFF6A
:101CC00083464FF0000A62E67006002024020020DE
:101CD00000401C46300200206802002000408F4077
:101CE000F004002098E80008A8E80008B4E800081C
:101CF000C0E80008D4E80008E8E80008FCE80008AC
:101D00001C020020AC04002018E90008D0040020C8
:101D1000F0B583B08DF80700F2B10C461746104DB0
:101D200000221021284602F0DAFC0E4E6423012224
:101D30000DF10701304605F034FC4FF47A73BAB266
:101D40002146304605F02DFC01221021284602F0E4
:101D5000C6FC002003B0F0BD6FF00100FAE700BF41
:101D600000080240700600202DE9F04182B08DF895
:101D700007001AB30C469046124D00221021284647
:101D800002F0ADFC104F642301220DF1070138462B
:101D900005F007FC0D4E30704FF47A731FFA88F28D
:101DA0002146384605F009FE3070012210212846F0
:101DB00002F095FC002002B0BDE8F0816FF0010058
:101DC000F9E700BF00080240700600206408002008
:101DD00008B502F075FF08BD08B500230A4A136074
:101DE0000A4A136053609360D3600948094B8360CB
:101DF000094BC360094B036106F0A7F900B108BDA8
:101E0000034806F0F2F9FAE7780800206808002095
:101E10007C080020691D0008111D0008D11D000864
:101E200008B5024906F0FEFA08BD00BF7C08002094
:101E300008B5034B98700349184606F03CFB08BDF3
:101E4000780800207C08002008B5FFF7C5FF03468E
:101E500008B1184608BD0120FFF7EAFF0346002835
:101E6000F7D10120FFF7DCFF0346F2E708B50122B6
:101E70001021034802F033FCFFF7E6FF08BD00BF66
:101E80000008024008B5024A024906F0E1F908BD1F
:101E90007C0800207808002008B5DFED177AC0EE36
:101EA000277A17EE900AFEF74FFB9FED0F1B41ECD0
:101EB000100B0BF003FC51EC100BFEF76DFE07EE60
:101EC000900AB7EE007A77EE677A17EE900AFEF77F
:101ED0003BFB07A3D3E90023FEF7B8FCFEF75CFE4B
:101EE00000EE100A08BD00BF000000808A5AC83FFB
:101EF000DF55225749A7F73E80E6C54708B501469A
:101F00000720FFF747F908BD10B5044601463D20FC
:101F1000FFF740F91CB91320FFF738F910BD07206F
:101F2000FFF734F9FAE708B50020FFF7EDFF08BD29
:101F300008B50C20FFF7E8FF08BD08B520213F20B9
:101F4000FFF728F94FF42F70FFF720F908BD0000C4
:101F500000B583B0FFF7F1FF00208DF807000122E4
:101F60000DF10701FFF7E2F99DF80710A0290ED146
:101F70000020FFF7C3FF00213F20FFF70BF9FFF719
:101F8000D2FF0A20FFF702F903B05DF804FB024814
:101F900009F06CFAECE700BF28E90008D0B59AB068
:101FA00004460020FFF7AAFF202C20D0062218A903
:101FB0002046FFF7BBF90E2C1FD0A4F10803262BF7
:101FC0003ED8DFE803F0213D3D3D3D3D3D3D3D3DFB
:101FD0003D3D283D3D3D3D3D2F3D3D3D3D3D363D5B
:101FE0003D3D3D3D3D3D213D3D3D3D3D21000822E6
:101FF00018A92046FFF79AF9DDE7564B1888FEF737
:1020000081FA06460F461DE0534B1888FEF77AFA10
:1020100006460F4616E0514B1888FEF773FA06463F
:102020000F460FE04E4B1888FEF76CFA06460F4637
:1020300008E04C4B1888FEF765FA06460F4601E0AB
:102040000026494F2022002110A809F077FB202C00
:1020500042D09DF861309DF8600040EA032000B254
:10206000FEF760FA32463B46FEF7F0FBCDE912017F
:102070009DF863309DF8620040EA032000B2FEF74D
:1020800051FA32463B46FEF7E1FBCDE914019DF8DB
:1020900065309DF8640040EA032000B2FEF742FA82
:1020A00032463B46FEF7D2FBCDE916010DF1200C7E
:1020B0000DF1400EBEE80F00ACE80F009EE80F00E7
:1020C0008CE80F009DED080B9DED0A1B9DED0C2B80
:1020D0009DED0E3B1AB0D0BD9DF861309DF86000BB
:1020E00040EA032000B2FEF71DFA32463B46FEF7F7
:1020F000ADFBCDE910019DF863309DF8620040EA28
:10210000032000B2FEF70EFA32463B46FEF79EFB76
:10211000CDE912019DF865309DF8640040EA032086
:1021200000B2FEF7FFF932463B46FEF78FFBCDE9E2
:1021300014019DF867309DF8660040EA032000B264
:10214000FEF7F0F932463B46FEF780FBCDE916017B
:10215000ACE700BF10000020160000201400002093
:10216000120000200E0000200000F03F00B591B0EA
:102170001420FFF713FF8DED080B8DED0A1B8DED7D
:102180000C2B8DED0E3B11B05DF804FB00B591B04A
:102190001A20FFF703FF8DED080B8DED0A1B8DED67
:1021A0000C2B8DED0E3B11B05DF804FB00B591B02A
:1021B0002820FFF7F3FE8DED080B8DED0A1B8DED4A
:1021C0000C2B8DED0E3B11B05DF804FB00B591B00A
:1021D0002020FFF7E3FE8DED080B8DED0A1B8DED42
:1021E0000C2B8DED0E3B11B05DF804FB70B5044671
:1021F00090F85130DBB2012B27D11B4D80231B4AB5
:102200002146284601F0D8F8194B18706B69EA6925
:1022100003FB02F217490A602A6902FB03F3164A1C
:102220001360164E4FF4006332460021284601F039
:1022300008F9134B1E6096F88430013BDBB2FD2B8E
:1022400006D8204605F097F970BD05F035F9D4E7BA
:102250003046002186F884104FF4006340F8043BB8
:10226000802209F06BFAECE7C8140020000C024051
:1022700095080020C4140020C0140020A0080020ED
:102280009C080020F8B5514D2B885F01504E06EB9D
:1022900043120468D0F804E0D0F808C0C168F451D3
:1022A000C2F804E0C2F808C0D1600469D0F814E0B4
:1022B000D0F818C0C1691461C2F814E0C2F818C09F
:1022C000D16101339BB22B801F2B4CD9414B186835
:1022D00090F85130DBB2012B46D13C4B00221A80E2
:1022E0003D4B1B6819683D4D29603A4C4FF48062A4
:1022F000204601F04FF93A4F3870232002F0E0FCFD
:10230000334E4FF4806332462968204601F0D4F8FA
:102310003870232002F0D4FC4FF4806332462968E1
:10232000204601F08EF82F4B1B78FF2B1FD02B4A35
:10233000136803F580631360274A11680B60126805
:1023400028490978013902EB810253604FF4006299
:102350000021204801F01EF9214B1870C8B11D4B17
:10236000186805F008F9F8BD05F0A6F8B5E71A4BAE
:102370001A6892F884300133DBB21A490B701F2BB4
:1023800002D90B4601211970164B1B7882F8843054
:10239000CDE7154C4FF400652A460F4B19682046CF
:1023A00009F0E3FA0B4E2B4622460021304601F09D
:1023B00083F80B4B1870232002F082FC2B46224638
:1023C0000021304601F03DF8C9E700BF9608002023
:1023D000A0100020C81400209C08002098080020AD
:1023E000950800201A000020A00800202DE9F041E7
:1023F00090B001223349344807F052FB334B187038
:1024000010B110B0BDE8F0812E4903A807F03DFEE1
:102410002E4B187000284ED12D4B186890F8513073
:10242000DBB2012B01D1012516E005F045F8FAE7F2
:10243000D3F800800023019302932A46254901A87E
:1024400009F084F80B2201A9234807F057FB1F4B22
:10245000187070B10135EDB2204B1B6893F88420E1
:10246000AA4224D3AA42E3D903EB8503D3F804801C
:10247000E0E71A4B1B686A1E03EB82035C6810E0FE
:10248000174F20233A462146114800F0DAFF124E3A
:102490003146384607F044FE3146124807F040FE08
:1024A0002034A045ECD80C4807F0DAFDD2E7084B01
:1024B000186805F060F800221146034807F0F0FAAA
:1024C0009FE700BF9C350020642500209408002071
:1024D000C814002064E90008341500209C0800207E
:1024E000A01400201800002038B5174B186890F889
:1024F0005130DBB2012B18D1134D284601F08CF876
:10250000124C4FF4006322460021284600F099FF48
:102510000F4B1C6094F88430013BDBB2FD2B07D8D5
:10252000094B186805F027F838BD04F0C5FFE3E74C
:102530002046002184F884104FF4006340F8043BE7
:10254000802209F0FBF8EBE7C8140020A008002067
:102550009C080020014B1868704700BF9C080020B1
:1025600070B582B00546FDF733FE042824D928440F
:1025700010F8043C8DF804302846FDF729FE284465
:1025800010F8033C8DF805300024264602E02B5D50
:102590005E4001342846FDF71BFE0538A042F6D800
:1025A0001022002101A808F095FE864202D00020EA
:1025B00002B070BD0120FBE70020F9E72DE9F043F0
:1025C0002DED028BA1B007460C466422002107A81E
:1025D00009F0B4F87E49204609F0CAF804460025FF
:1025E00014E02046FDF7F4FD6E1C013007F0D4FE28
:1025F00020AB03EB850545F8640C214609F0ADF9E5
:102600007349002009F0B4F804463546002CE8D19F
:102610000C9B1E780A9B1C78089907F12C0009F086
:102620009CF9532C0FD04E2C0FD00024C8E0099AEF
:10263000D15C03F180026A4402F87C1C0133012B57
:10264000F5DD00230CE00023F9E70023F7E7099A02
:102650001A44917803F180026A4402F8741C013331
:10266000052BF4DD0A22002101A808F033FE08EE54
:10267000100A002103A808F04FFD9FED567AC0EE26
:10268000077AB8EEC88A38EE278A18EE100AFDF7E6
:102690005BFF80468946002307E00B9AD15C03F17B
:1026A00080026A4402F8781C0133022BF5DD002316
:1026B00008E00B9A1A44D17803F180026A4402F8C8
:1026C0006C1C0133052BF4DD0A22002102A808F05E
:1026D00001FE08EE900A002105A808F01DFD9FEDFF
:1026E0003D7AC0EE077AF8EEE88A78EEA78A18EE0F
:1026F000900AFDF729FFB5EE408AF1EE10FA51D0AD
:10270000F5EE408AF1EE10FA4ED0DFED337AB4EEFA
:10271000E78AF1EE10FA49D5DFED307AF4EEE78A78
:10272000F1EE10FA01D4002438E0C7E900893C72C8
:10273000C7E904013E760021109808F0EDFCB5EEE3
:10274000400AF1EE10FA01D197ED070A87ED070A6A
:102750000A2200210E9808F0BDFD78620A220021AD
:102760000D9808F0B7FD0028D4BF00200120B86202
:1027700000210F9808F0D0FCB5EE400AF1EE10FAF7
:1027800001D197ED080A87ED080A4EE720AB03EB6D
:10279000840353F8640C07F007FE0134A542F5DC0E
:1027A000002010E00024F9E70024F7E70024F5E713
:1027B00020AB03EB840353F8640C07F0F5FD013400
:1027C000A542F5DC012021B0BDEC028BBDE8F08311
:1027D0006CE90008000070420000B442000034437D
:1027E000F0B59BB006460C466422002101A808F013
:1027F000A5FF2449204608F0BBFF0446002514E04D
:102800002046FDF7E5FC6F1C013007F0C5FD1AAB53
:1028100003EB850545F8640C214609F09EF819493B
:10282000002008F0A5FF04463D46002CE8D10A220E
:102830000021039808F04EFD0128D4BF002001209C
:10284000B0620323002100E001330E2B09DC1AAA39
:1028500002EB830252F8642C1278002AF4D0013182
:10286000F2E77162002407E01AAB03EB840353F82C
:10287000640C07F099FD0134A542F5DC01201BB082
:10288000F0BD00BF6CE900082DE9F04F2DED028B83
:10289000A1B007460C466422002107A808F04EFFAD
:1028A0006649204608F064FF0446002514E02046EF
:1028B000FDF78EFC6E1C013007F06EFD20AB03EBC4
:1028C000850545F8640C214609F047F85B4900206E
:1028D00008F04EFF04463546002CE8D1099B93F8DA
:1028E0000080B8F1530F1BD0B8F14E0F1AD0002062
:1028F0008DE0089AD15C03F180026A4402F87C1CE6
:102900000133012BF5DD0023052B0DDC089A1A4459
:10291000917803F180026A4402F8741C0133F3E7F2
:102920000023EEE70023ECE70A22002101A808F0CB
:10293000D1FC0646002103A808F0EEFBF0EE408A29
:102940009FED3F7AC0EE077A07EE106AB8EEC77ABD
:1029500077EE277A17EE900AFDF7F6FD82468B4652
:102960000B9B93F80090002307E00A9AD15C03F1D7
:1029700080026A4402F8781C0133022BF5DD002343
:10298000052B09DC0A9A1A44D17803F180026A44C3
:1029900002F86C1C0133F3E70A22002102A808F0B8
:1029A00099FC0446002105A808F0B6FBB0EE408A69
:1029B0009FED237AC0EE077A07EE104AB8EEC77A89
:1029C00077EE277A17EE900AFDF7BEFDE4B1B5EE7B
:1029D000408AF1EE10FA1FD006B3F5EE408AF1EE10
:1029E00010FA1DD0C7E900ABC7E9040187F80880D9
:1029F00087F8189000241DE020AB03EB840353F804
:102A0000640C07F0D1FC0134A542F5DC002021B0B4
:102A1000BDEC028BBDE8F08F0024F5E73446F3E708
:102A20000024F1E720AB03EB840353F8640C07F0B8
:102A3000BBFC0134A542F5DC0120E8E76CE90008A5
:102A400000007042F8B507460C463C220021304891
:102A500008F074FE2F49204608F08AFE044600253F
:102A600012E02046FDF7B4FB6E1C013007F094FC29
:102A7000274B43F82500214608F06FFF2549002029
:102A800008F076FE04463546002CEAD109E02249DA
:102A9000304608F0C9FE10B331463846FFF7A0FEB5
:102AA0000134A54226DD1A4B53F824601B493046F9
:102AB00008F0BAFE0028F3D03046FFF751FD002899
:102AC000EED0134B53F824601549304608F0ACFEA5
:102AD0000028DCD031463846FFF7D6FEE0E7114942
:102AE000304608F0A1FE0028DAD031463846FFF71C
:102AF00065FDD5E7002400E00134A54207DD3A2C4E
:102B0000FAD8034B53F8240007F04EFCF4E7F8BD65
:102B1000F014002070E900087CE9000860E9000872
:102B200074E9000884E9000808B500228021024801
:102B300001F0D5FD08BD00BF0004024008B5012228
:102B40008021024801F0CBFD08BD00BF0004024017
:102B500008B501224021024801F0C1FD08BD00BFB7
:102B60000004024008B500224021024801F0B7FDF0
:102B700008BD00BF0004024000B583B040F0200053
:102B80008DF804008DF80510FFF7CEFF4FF47A732F
:102B9000022201A9034804F004FDFFF7CFFF03B0B0
:102BA0005DF804FB1806002070B582B00C4615468F
:102BB00040F020008DF80400FFF7B6FF084E6423B4
:102BC000012201A9304604F0ECFC4FF47A73AAB25A
:102BD0002146304604F0E5FCFFF7B0FF02B070BDBF
:102BE0001806002030B585B08DF8070000238DF859
:102BF0000F30FFF799FF0C4D642301220DF10701FF
:102C0000284604F0CEFC094C2070642301220DF10B
:102C10000F01284604F0D1FE2070FFF78FFF9DF8CA
:102C20000F0005B030BD00BF180600202C15002095
:102C300000B583B08DF80700FFF776FF642301220B
:102C40000DF10701034804F0ACFCFFF777FF03B078
:102C50005DF804FB1806002010B586B0072800F0C8
:102C60008180172800F0828008210020FFF784FF70
:102C70003F210120FFF780FF03210220FFF77CFFA7
:102C800003210846FFF778FF00210420FFF774FFB7
:102C900002210520FFF770FF0E210620FFF76CFFD1
:102CA00000210720FFF768FF00210820FFF764FFDD
:102CB00000210920FFF760FF2E4C94E803000090EC
:102CC0008DF80410052269460A20FFF76DFF2A4B94
:102CD00093E8030002908DF80C10052202A90B2046
:102CE000FFF762FFC3210C20FFF746FFC4210D2030
:102CF000FFF742FFC5210E20FFF73EFFC6210F2040
:102D0000FFF73AFF94E8030004908DF814100522B1
:102D100004A91020FFF748FF00211120FFF72CFF26
:102D200000211220FFF728FF00211320FFF724FFC6
:102D300000211420FFF720FF00211520FFF71CFFC2
:102D400000211620FFF718FF11211720FFF714FFAD
:102D500000211C20FFF710FF00211D20FFF70CFFB2
:102D600006B010BD0021FFF707FFF9E71121FFF7BB
:102D700003FFF5E78CE9000894E9000808B5FFF7C0
:102D8000F1FE0020FFF768FF00210846FFF7F4FE80
:102D900000210120FFF7F0FE00210220FFF7ECFEEA
:102DA00003210846FFF7E8FE00210420FFF7E4FEB8
:102DB00000210520FFF7E0FE0C210620FFF7DCFED6
:102DC000FFF7C6FE08BD08B5E120FFF731FF172069
:102DD000FFF742FF08BD08B5E220FFF729FF1720E3
:102DE000FFF73AFF08BD70B505460C461646FFF7DB
:102DF000B9FE31460520FFF7BFFE05222946102007
:102E0000FFF7D2FE33210420FFF7B6FE3F21022058
:102E1000FFF7B2FE052221460B20FFF7C5FE202159
:102E20001120FFF7A9FE20211220FFF7A5FE202187
:102E30001320FFF7A1FE20211420FFF79DFE202183
:102E40001520FFF799FE20211620FFF795FEFFF7CA
:102E50007FFEFFF7B8FF70BD08B5FFF783FE0E21B8
:102E60000020FFF789FEFFF773FEFFF7ACFF08BDF8
:102E700008B5FFF777FE0F210020FFF77DFEFFF773
:102E800067FEFFF7A8FF08BD70B582B004460023B7
:102E90008DF80730FFF748FEA0238DF807301A4E53
:102EA000642301220DF10701304604F07AFB174D2F
:102EB00028704FF47A7320222146304604F071FBCB
:102EC0002870FFF73BFE012001F0FAFE0720FFF714
:102ED00089FE10F0100F09D11720FFF783FE00F0D4
:102EE000180010280BD0002002B070BD40F0100078
:102EF000C1B20720FFF740FEFFF765FFECE7FFF7E1
:102F000062FF0120F0E700BF180600202C1500200A
:102F100010B51720FFF766FE0720FFF763FE044693
:102F20000020FFF75FFE14F0400000D110BD4021EB
:102F30000720FFF721FE0120F8E7000030B583B03D
:102F4000044600238DF80730FFF7EEFD61238DF86E
:102F500007300D4D642301220DF10701284604F0CE
:102F600020FB4FF47A7320222146284604F025FDE9
:102F7000FFF7E4FD012001F0A3FEE2208DF8070039
:102F8000FFF756FE03B030BD1806002070B586B0BE
:102F900004460D46164602B101260A230293012378
:102FA00001930DF117020092224680211348006818
:102FB00002F0F4FD10B1012006B070BD012303FA48
:102FC00005F161F07F019DF8172022EA01028DF8DA
:102FD00017201E40AE4032438DF817200A2202927D
:102FE00001930DF1170200922246802103480068E8
:102FF00002F022FD0028DFD00120DDE7301500209F
:1030000000B585B006238DF80F300A230093012305
:103010000DF10F0200210448006802F0D3FA00B15C
:10302000012005B05DF804FB3015002008B502460C
:1030300004210020FFF7AAFF08BD08B502460721BA
:103040000020FFF7A3FF08BD08B5024605210020B8
:10305000FFF79CFF08BD000010B586B040F2F553A5
:1030600098421CD903238DF817300120FFF7DEFFAB
:103070000A230293012401940DF1170300932346C0
:10308000FE2280212048006802F0D6FC0020FFF7D5
:10309000CDFF2046FFF7D1FF002006B010BD182855
:1030A00003D8FF238DF81730DFE707EE900AF8EE1C
:1030B000677A17EE900AFDF747FA0022134BFDF7E7
:1030C0009BFA02460B460EA1D1E90001FDF7BEFBBB
:1030D00000220F4BFDF7D8F8FDF75EFDFDF734FA3F
:1030E00000220C4BFDF7D2F841EC100B0AF064FB08
:1030F00051EC100BFDF730FD8DF81700B5E700BF60
:103100000000000084D77741301500200000B04057
:103110000000F03F0000E03F10B586B08400E4B24C
:103120000634E4B28DF81410090A8DF815108DF8E4
:103130001620120A8DF817203223402280210C48D5
:10314000006802F0A7FE0028F6D10A2302930423A8
:10315000019305AB009301232246802104480068B7
:1031600002F06AFC08B906B010BD0120FBE700BF01
:103170003015002008B5B1F5805F01D340F6FF712E
:10318000C2B159B140F6FF7399420DD0C1F57F61CC
:103190000F318AB20021FFF7BFFF08BD00224FF4B4
:1031A0008051FFF7B9FFF8E74FF480520021FFF795
:1031B000B3FFF2E740F6FF73994205D051B94FF4DF
:1031C0008052FFF7A9FFE8E700224FF48051FFF794
:1031D000A3FFE2E70A460021FFF79EFFDDE70000BC
:1031E00010B50446B5EEC00AF1EE10FA27D4DFEDB3
:1031F000187AB4EEE70AF1EE10FA01DDB0EE670AD4
:1032000010EE100AFDF7A0F90FA3D3E90023FDF794
:10321000F3F900220F4BFDF719FB00220E4BFDF7CF
:1032200035F8FDF7B9FC07EE900AFCEEE77A0022CC
:1032300017EE903A99B22046FFF79CFF10BD9FED24
:10324000070AD4E7AFF30080000000000060784078
:10325000000034430080664000805B4000000000B6
:1032600008B5064B1860FFF7CBFE3020FFF7F4FEE1
:103270000120FFF7E9FE002008BD00BF3015002047
:1032800008B54FF0FF3392B2006804F08AF900B13C
:10329000012008BD08B54FF0FF3392B2006804F07A
:1032A0008CFB00B1012008BD30B583B0044600227C
:1032B0000189406801F013FA9F238DF80430012240
:1032C00001A92046FFF7DCFF40B10025012221893A
:1032D000606801F004FA284603B030BD032201A95A
:1032E0002046FFF7D7FF50B99DF804309DF80550F0
:1032F0002D0245EA03459DF806301D43E6E700250B
:10330000E4E730B583B0044605238DF8073000228A
:103310000189406801F0E3F901220DF1070120461F
:10332000FFF7AEFF40B1002501222189606801F05E
:10333000D6F9284603B030BD054601220DF107013C
:103340002046FFF7A7FF0028EED19DF80750EBE7D6
:1033500030B583B0044600220189406801F0BFF90E
:1033600006238DF80430012201A92046FFF788FFCB
:10337000054600B1012501222189606801F0AFF9FD
:10338000284603B030BDF8B507460D4601F092FC63
:10339000064601F08FFC01E001F08CFC841BAC427E
:1033A00004D83846FFF7ADFF0028F5D1AC4201D074
:1033B0000020F8BD0220FCE710B50446104621604D
:1033C000626023810122194601F089F92046FFF746
:1033D0006BFF40B1C0F30742A27283B2A381C82A37
:1033E00008D0EF2A1AD028220021204608F0A6F99A
:1033F000012010BD4FF4803222614FF48052A2614F
:103400001022E2614FF480712162626246F217027B
:103410009342E8D1802363610020EAE74FF48032D1
:1034200022614FF48052A2611022E2614FF4807158
:103430002162626244F217029342D4D1616100209A
:10344000D7E7F0B583B0044615461E4603238DF832
:103450000430C1F307438DF80530C1F307238DF81D
:1034600006308DF807104FF0FF31FFF78CFF18B1D1
:103470000127384603B0F0BD074600222189606865
:1034800001F02DF904220DEB02012046FFF7F8FEB2
:1034900028B9324629462046FFF7FCFE28B901220A
:1034A0002189606801F01BF9E3E701222189606846
:1034B00001F015F90127DCE72DE9F04F85B005464D
:1034C0000F4601929846036AB1FBF3F901EB080B32
:1034D0000BF1FF3BBBFBF3FB4FF0000A09E0284672
:1034E000FFF736FF18B33744B244A8EB060809F1DA
:1034F0000109D94548D82E6A731E3B40F61A464545
:1035000028BF46464FF0FF312846FFF73CFF0446F0
:1035100000283DD12846FFF71BFF0028DFD0632C91
:10352000DDD8012001F0CCFB0134E4B2F2E7022344
:103530008DF80C30C7F307438DF80D30C7F3072320
:103540008DF80E308DF80F7000222989686801F01F
:10355000C6F8042203A92846FFF792FE38B932467E
:10356000019B03EB0A012846FFF78AFE28B90122D6
:103570002989686801F0B3F8B5E7012229896868EC
:1035800001F0ADF8012000E0002005B0BDE8F08FAB
:103590000120FAE7F0B583B005468369B1FBF3F487
:1035A0008E18013EB6FBF3F6002704E02846FFF72D
:1035B000CFFE58B10134B4422BD84FF0FF3128462A
:1035C000FFF7E1FE0028F1D00227F3E7AB6904FB27
:1035D00003F320228DF80420C3F307428DF8052061
:1035E000C3F307228DF806208DF8073000222989C1
:1035F000686801F074F804220DEB02012846FFF719
:103600003FFE00B1012701222989686801F067F8AF
:10361000D0E7384603B0F0BD10B582B00446FFF7DE
:1036200097FE10B1002002B010BDC7238DF8043002
:1036300000222189606801F052F8012201A9204688
:10364000FFF71EFE08B10120EDE701222189606825
:1036500001F045F84FF0FF312046FFF794FE0028B7
:10366000E1D0F0E7FEE7FEE7FEE7FEE7FEE77047A2
:103670007047704708B501F011FB08BD08B5024856
:1036800001F062F908BD00BF7005002008B50248CE
:1036900001F05AF908BD00BF1005002008B5024826
:1036A00003F030FD08BD00BF8807002008B50248C0
:1036B00001F04AF908BD00BF2807002008B50248FC
:1036C00001F042F908BD00BFC806002082B0002109
:1036D00000910B4B5A6C42F480425A645A6C02F4CB
:1036E00080420092009A01911A6C42F080521A6452
:1036F0001B6C03F080530193019B02B0704700BF25
:103700000038024030B589B0002303930493059339
:10371000069307930268144B9A4201D009B030BD5A
:1037200000250195114C236B43F002032363236BA7
:1037300003F002030193019B4FF4406303931223B0
:103740000493032306930423079303A9084800F076
:103750002FFE0295236C43F480032364236C03F44F
:1037600080030293029BD9E70058004000380240D2
:103770000004024002680B4B9A4200D0704710B51B
:10378000094A136C23F480031364084C4FF48061DE
:10379000204600F003FF4FF40061204600F0FEFEDB
:1037A00010BD00BF00580040003802400004024035
:1037B0002DE9F04F89B000230393049305930693FA
:1037C00007930268594B9A4202D009B0BDE8F08FC6
:1037D00004460025009503F586335A6C42F40062D6
:1037E0005A645A6C02F400620092009A01951A6BB6
:1037F00042F004021A631A6B02F004020192019A69
:1038000002951A6B42F008021A631B6B03F008035F
:103810000293029B4FF4807303934FF00208CDF89C
:1038200010804FF0010BCDF814B0032606960C273C
:103830000797DFF810910DEB0701484600F0B8FD3F
:103840004FF4805ACDF80CA0CDF81080059506965F
:1038500007970DEB0701484600F0AAFD4FF0040959
:10386000CDF80C90CDF81080CDF814B006960797DF
:103870000DEB07012E4800F09BFD2E482E4B0360F8
:103880004FF0006343608560C5604FF4806303615F
:10389000C0F814A04FF4804383612023C361056204
:1038A000C0F8249086624FF40003C3624FF4001303
:1038B000036300F09BFF002831D11E4B23649C63FF
:1038C0001E481F4B03604FF000634360402383603A
:1038D0000023C3604FF4806202614FF48052426162
:1038E0004FF4804282612022C2610362042343625A
:1038F000032383624FF40003C3624FF40013036396
:1039000000F074FF70B90D4BE3639C630022114615
:10391000312001F05BF9312001F068F955E7FDF73E
:103920008DFDCAE7FDF78AFDEDE700BF002C0140E1
:10393000000C02402807002058640240C8060020FE
:10394000A06402400008024000B58BB0002305933C
:1039500006930793089309930368274A934205D077
:10396000264A934225D00BB05DF804FB002101915B
:10397000234B5A6C42F480525A645A6C02F48052BF
:103980000192019A02911A6B42F001021A631B6BB9
:1039900003F001030293029BE023059302230693A5
:1039A000032308930523099305A9164800F000FD99
:1039B000D9E700210391124B1A6C42F400421A64B9
:1039C0001A6C02F400420392039A04911A6B42F0BB
:1039D00002021A631B6B03F002030493049B382357
:1039E000059302230693032308930623099305A94D
:1039F000054800F0DDFCB6E700300140003C004027
:103A000000380240000002400004024008B503688C
:103A10000E4A934203D00E4A93420BD008BD02F5E2
:103A20008432536C23F480535364E021094800F03E
:103A3000B5FDF3E702F5FE32136C23F40043136483
:103A40003821054800F0AAFDE8E700BF003001403A
:103A5000003C0040000002400004024030B589B044
:103A600000230393049305930693079302682F4B57
:103A70009A4201D009B030BD04460025019503F5F6
:103A8000FA331A6C42F400321A641A6C02F40032EF
:103A90000192019A02951A6B42F001021A631B6BA4
:103AA00003F001030293029B0C230393022304936C
:103AB000032306930723079303A91D4800F078FC0E
:103AC0001C481D4B03604FF0006343608560C56078
:103AD0004FF48063036145618561C561056245629C
:103AE00000F084FED8B9134BE3639C631348144B76
:103AF00003604FF000634360402383600023C36092
:103B00004FF48062026143618361C3610362436277
:103B100000F06CFE30B9094BA3639C63AAE7FDF784
:103B20008DFCE0E7FDF78AFCF5E700BF00440040AC
:103B3000000002407005002088600240100500204F
:103B4000A060024008B50349034806F027FB034B79
:103B5000187008BD9C3500209CE90008A0350020A5
:103B60000020704700B583B0009313460A46014613
:103B7000034802F065FE00B1012003B05DF804FBCC
:103B80008807002000B583B0009313460A4601461B
:103B9000034802F07DFF00B1012003B05DF804FB93
:103BA0008807002008B5034803F057FA043818BF07
:103BB000012008BD8807002008B50146014803F030
:103BC0003AFA08BD88070020704708B5FFF7FCFFE8
:103BD00008BD704708B5FFF7FCFF08BD704708B582
:103BE000FFF7FCFF08BD00B583B001238DF8073057
:103BF00000F092F810B900238DF807309DF8070007
:103C000003B05DF804FB000008B5FFF7ECFF0128E6
:103C100001D0012008BD024803F0F2F9FAE700BF25
:103C20008807002008B5074B01221A70FFF7BAFF7A
:103C300020B9044A137803F0FE031370014B18787F
:103C400008BD00BF1B00002010B50446074B012231
:103C50001A70FFF7D9FF10B1044B187810BD204639
:103C6000FFF7E0FF014B1870F6E700BF1B000020D4
:103C700008B5FFF7D7FF08BD08B5084611461A4634
:103C80004FF0FF33FFF76EFF30B9FFF78BFF0346AE
:103C90000028FAD1184608BD0123FBE708B50846FD
:103CA00011461A464FF0FF33FFF76CFF30B9FFF7AC
:103CB00079FF03460028FAD1184608BD0123FBE727
:103CC00030B589B0134B187810F001041BD115469C
:103CD00003291CD8DFE801F002040A100C4613E0A7
:103CE0006846FFF769FF069B2B600DE06846FFF70B
:103CF00063FF079B2B8007E06846FFF75DFF079B8C
:103D00005B0A2B6000E00324204609B030BD042488
:103D1000FAE700BF1B00002008B58021034800F02F
:103D2000D7FC08B9012008BD0020FCE700080240CC
:103D3000002800F0E08170B582B00446036813F0FB
:103D4000010F3BD09F4B9B6803F00C03042B2CD03E
:103D50009C4B9B6803F00C03082B21D06368B3F5E0
:103D6000803F4FD0B3F5A02F52D0964B1A6822F463
:103D700080321A601A6822F480221A606368002B6D
:103D800050D000F097FF05468E4B1B6813F4003FA0
:103D900014D100F08FFF401B6428F5D90320B1E156
:103DA000884B5B6813F4800FD8D0864B1B6813F4E4
:103DB000003F03D06368002B00F09F81236813F05D
:103DC000020F54D07F4B9B6813F00C0F3ED07D4BFD
:103DD0009B6803F00C03082B33D0E368002B68D0FA
:103DE000794B01221A6000F065FF0546754B1B6890
:103DF00013F0020F54D100F05DFF401B0228F5D9EB
:103E000003207FE16F4A136843F480331360B5E702
:103E10006C4B1A6842F480221A601A6842F48032AD
:103E20001A60ABE700F046FF0546664B1B6813F4CB
:103E3000003FC3D000F03EFF401B6428F5D90320AB
:103E400060E1604B5B6813F4800FC6D15D4B1B686B
:103E500013F0020F03D0E368012B40F05081594A60
:103E6000136823F0F803216943EAC1031360236850
:103E700013F0080F42D063696BB3534B0122C3F8B0
:103E8000802E00F017FF05464E4B5B6F13F0020FBC
:103E900034D100F00FFF401B0228F5D9032031E197
:103EA000484A136823F0F803216943EAC103136009
:103EB000DDE7454B00221A6000F0FCFE0546414B51
:103EC0001B6813F0020FD2D000F0F4FE401B022852
:103ED000F5D9032016E13C4B0022C3F8802E00F0F8
:103EE000E9FE0546374B5B6F13F0020F06D000F07A
:103EF000E1FE401B0228F5D9032003E1236813F0FB
:103F0000040F77D02F4B1B6C13F0805F33D100234D
:103F100001932C4B1A6C42F080521A641B6C03F014
:103F200080530193019B0125284B1B6813F4807F6C
:103F300023D0A368012B34D0052B38D0214B1A6F26
:103F400022F001021A671A6F22F004021A67A368AE
:103F5000002B3DD000F0AEFE06461A4B1B6F13F04F
:103F6000020F46D100F0A6FE801B41F28833984232
:103F7000F3D90320C6E00025D6E7144A136843F4BA
:103F80008073136000F096FE0646104B1B6813F416
:103F9000807FCED100F08EFE801B0228F5D9032051
:103FA000B0E0084A136F43F001031367CFE7054BF6
:103FB0001A6F42F004021A671A6F42F001021A6780
:103FC000C5E700BF003802400000474200700040D3
:103FD00000F070FE0646524B1B6F13F0020F08D024
:103FE00000F068FE801B41F288339842F3D9032029
:103FF00088E0EDB9A369002B00F08380484A9268FD
:1040000002F00C02082A51D0022B17D0454B002297
:104010001A6600F04FFE0446414B1B6813F0007F08
:1040200042D000F047FE001B0228F5D9032069E0CA
:104030003B4A136C23F080531364DBE7394B0022B7
:104040001A6600F037FE0546354B1B6813F0007FFB
:1040500006D000F02FFE401B0228F5D9032051E0C6
:10406000E369226A1343626A43EA8213A26A52082E
:10407000013A43EA0243E26A43EA0263284A536090
:10408000284B01221A6600F015FE0446244B1B68DB
:1040900013F0007F06D100F00DFE001B0228F5D9B9
:1040A00003202FE000202DE000202BE0012B2BD05F
:1040B0001B4B5B6803F48001E269914226D103F057
:1040C0003F02216A8A4223D1616A47F6C0721A40D0
:1040D000B2EB811F1ED103F44031A26A5208013AAB
:1040E000B1EB024F18D103F07063E26AB3EB026FD9
:1040F00014D1002006E001207047012002E00120D9
:1041000000E0002002B070BD0120FBE70120F9E7CC
:104110000120F7E70120F5E70120F3E70120F1E7AF
:10412000003802400000474208B5334B9B6803F05B
:104130000C03042B5BD0082B5BD12F4B5A6802F089
:104140003F025B6813F4800F2CD02B4B5868C0F3F0
:1041500088104FEA401CBCEB000C6EEB0E0E4FEAD1
:104160008E1343EA9C634FEA8C11B1EB0C0163EBB5
:104170000E03DB0043EA5173C90011EB000C43F15D
:104180000003590200234FEA4C2041EADC51FCF7BE
:1041900053FD194B5B68C3F3014301335B00B0FB74
:1041A000F3F027E0144B5868C0F388104FEA401C26
:1041B000BCEB000C6EEB0E0E4FEA8E1343EA9C63D1
:1041C0004FEA8C11B1EB0C0163EB0E03DB0043EA09
:1041D0005173C90011EB000C43F100039902002355
:1041E0004FEA8C2041EA9C51FCF726FDD1E70348B9
:1041F00000E0034808BD00BF0038024000127A000A
:104200000024F400002800F09B8070B50D460446A1
:104210004F4B1B6803F007038B4208D2CBB24C4ACA
:104220001370136803F007038B4240F08B80236800
:1042300013F0020F17D013F0040F04D0454A93680F
:1042400043F4E0539360236813F0080F04D0414A0D
:10425000936843F4604393603E4A936823F0F0030D
:10426000A1680B439360236813F0010F32D0636899
:10427000012B21D09A1E012A25D9364A126812F044
:10428000020F61D033498A6822F0030213438B6026
:1042900000F010FD06462F4B9B6803F00C0362688C
:1042A000B3EB820F16D000F005FD801B41F288337E
:1042B0009842F0D9032042E0264A126812F4003FE7
:1042C000E0D101203BE0234A126812F0007FD9D1EF
:1042D000012034E01E4B1B6803F00703AB4207D9F3
:1042E000EAB21B4B1A701B6803F00703AB422DD1D7
:1042F000236813F0040F06D0164A936823F4E053A2
:10430000E1680B439360236813F0080F07D0114A4C
:10431000936823F46043216943EAC1039360FFF784
:1043200003FF0C4B9B68C3F303130B4AD35CD840C9
:104330000A4B18600A4B186800F070FC002070BD32
:10434000012070470120FAE70120F8E70120F6E795
:10435000003C024000380240C0E900082400002070
:1043600020000020014B1868704700BF2400002087
:1043700008B5FFF7F7FF044B9B68C3F38223034A9A
:10438000D35CD84008BD00BF00380240B8E900083F
:1043900008B5FFF7E7FF044B9B68C3F34233034ABA
:1043A000D35CD84008BD00BF00380240B8E900081F
:1043B00000230F2B00F2E98070B582B065E08568BC
:1043C0004FEA430E032404FA0EF425EA0405CC68F0
:1043D00004FA0EF42C438460446824EA02044A6818
:1043E000C2F300129A40224342605CE0DC080834C9
:1043F00050F8242003F00705AD004FF00F0E0EFA21
:1044000005FE22EA0E0E0A69AA4042EA0E0240F8B0
:1044100024205CE0072200E0002202FA0EF22A4388
:1044200002345A4D45F82420594A94686FEA0C0228
:1044300024EA0C054E6816F4801F01D04CEA0405EE
:10444000534CA560E46802EA04054E6816F4001FA8
:1044500001D04CEA04054E4CE560646802EA0405AC
:104460004E6816F4003F01D04CEA0405484C6560E4
:10447000246822404D6815F4803F01D04CEA0402C4
:10448000434C226001330F2B7DD801229A400C68E7
:1044900004EA020C32EA0404F4D14C6804F0030488
:1044A000013C012C8BD94A6802F00302032A09D08F
:1044B000C4685D000322AA4024EA02048A68AA4074
:1044C0002243C2604A6802F00302022A8ED00468C6
:1044D0004FEA430E032202FA0EF224EA02044A686B
:1044E00002F0030202FA0EF2224302604A6812F45A
:1044F000403FC7D000220192264A546C44F48044C5
:104500005464526C02F480420192019A9C08A51CEA
:104510001E4A52F8255003F0030E4FEA8E0E0F226A
:1045200002FA0EF225EA02051B4A90423FF474AFEC
:1045300002F5806290421AD002F58062904218D053
:1045400002F58062904216D002F58062904214D04B
:1045500002F58062904212D002F58062904210D043
:1045600002F5806290423FF455AF082255E70122E0
:1045700053E7022251E703224FE704224DE70522C9
:104580004BE7062249E702B070BD70470038014092
:10459000003C0140003802400000024000230F2B85
:1045A00000F28F80F0B52DE0072500E0002505FA28
:1045B0000CF5A54269D004685D004FF0030C0CFABD
:1045C00005FC24EA0C0404604FEAD30E0EF1080E39
:1045D00050F82E4003F00706B6000F25B54024EA38
:1045E000050440F82E40C46824EA0C04C460446802
:1045F00024EA02024260826822EA0C0282600133ED
:104600000F2B5DD801229A4002EA010632EA01042A
:10461000F5D14FEA930E0EF102052A4C54F82540CD
:1046200003F0030C4FEA8C0C0F2505FA0CF73C4005
:10463000254DA842BAD005F58065A84219D005F5E8
:104640008065A84217D005F58065A84215D005F50C
:104650008065A84213D005F58065A84211D005F504
:104660008065A8420FD005F58065A8429CD008253A
:104670009DE701259BE7022599E7032597E7042598
:1046800095E7052593E7062591E7104C256825EA6F
:1046900006052560656825EA06056560E56825EA82
:1046A0000605E560A56825EA0605A560054E0EF13C
:1046B000020456F8245025EA070546F824507AE704
:1046C000F0BD70470038014000000240003C01404E
:1046D0000369194201D001207047002070470AB1D8
:1046E0008161704709048161704730B405682C68A6
:1046F00024F480242C60046863608368402B05D018
:10470000036899600368DA6030BC704703689A6098
:104710000368D960F8E7000010B40368D9B2103913
:104720000C4AA2FB014212090B4CA25CC2655F2934
:1047300009D923F47F7323F0030304338365806D69
:104740005DF8044B704723F47F7323F00303836504
:10475000F5E700BFABAAAAAAB0E90008836A82699C
:1047600092B9012B0AD0022B02D00BB10020704766
:10477000C36A13F0807F28D100207047C36AB3F169
:10478000C07F24D000207047B2F5005F09D0022B13
:1047900025D9032B25D1C36A13F0807F23D10020B4
:1047A0007047032B03D8DFE803F01404140A002039
:1047B0007047C36A13F0807F0DD100207047C36A31
:1047C000B3F1C07F09D0002070470120704701205D
:1047D0007047012070470120704701207047012079
:1047E00070470020704701207047000070B50446F4
:1047F00000F060FA002C5BD00546022384F83530C7
:10480000002384F834302268136823F00103136016
:1048100023681A6812F0010F0AD000F04BFA431B0C
:10482000052BF5D920236365032084F8350070BD7E
:104830001A68204911406268A0680243E068024398
:104840002069024360690243A0690243E0690243B0
:10485000206A02430A43616A04291ED01A6026684E
:10486000756925F00705636A1D43042B07D1A36A08
:104870001D43E36A1BB12046FFF770FF90B97561D5
:104880002046FFF749FFE26D3F23934083600020FD
:104890006065012384F83530C9E7E16A206B014384
:1048A0000A43DBE740236365012084F83500BEE757
:1048B0000120BCE73F8010F038B50446856D90F8C4
:1048C000340001282BD0012084F8340094F83500FE
:1048D000C0B2012804D0002384F83430022038BD4F
:1048E000022084F83500002060652046FFF7FDFEB9
:1048F000E26D3F239340AB602268136843F01603D8
:104900001360236C23B12268136843F0080313601B
:104910002268136843F0010313600020DFE70220E0
:10492000DDE790F83530DBB2022B03D080234365FE
:1049300001207047052380F835300268136823F0A2
:104940000103136000207047F0B583B004460023D4
:104950000193724B1D68724BA3FB0535AD0A876D41
:104960003E68C26D08239340334210D003681A6832
:1049700012F0040F0BD01A6822F004021A60C26D04
:1049800008239340BB60436D43F001034365E26D30
:1049900001239340334209D02268526912F0800FFC
:1049A00004D0BB60636D43F002036365E26D0423D2
:1049B0009340334209D02268126812F0020F04D0EB
:1049C000BB60636D43F004036365E26D10239340A5
:1049D000334224D02268126812F0080F1FD0BB6047
:1049E00023681A6812F4802F0DD01B6813F4002F6F
:1049F00004D1236C9BB12046984710E0A36C73B19F
:104A0000204698470BE01A6812F4807F03D11A6899
:104A100022F008021A60236C0BB120469847E26D21
:104A200020239340334255D02268126812F0100FB1
:104A300050D0BB6094F83530DBB2052B0ED0236824
:104A40001A6812F4802F33D01B6813F4002F2AD178
:104A5000636C002B3ED0204698473BE022681368E9
:104A600023F0160313602268536923F08003536117
:104A7000236CA3B12268136823F008031360E26D6E
:104A80003F239340BB60012384F83530002384F832
:104A90003430236D002B3FD0204698473CE0A36C78
:104AA000002BE7D1EBE7E36BA3B12046984711E079
:104AB0001A6812F4807F09D11A6822F010021A6075
:104AC000012384F83530002384F83430E36B0BB1D4
:104AD00020469847636DFBB1636D13F0010F17D04B
:104AE000052384F835302268136823F0010313602E
:104AF000019B01330193AB4204D823681B6813F078
:104B0000010FF5D1012384F83530002384F83430C7
:104B1000E36C0BB12046984703B0F0BD24000020A1
:104B2000B5814E1B002807DB00F01F02400901235E
:104B30009340024A42F82030704700BF00E100E095
:104B4000002808DB0901C9B200F1604000F56140AE
:104B500080F80013704700F00F000901C9B2014B43
:104B60001954704714ED00E000B500F00700C0F1E3
:104B7000070CBCF1040F28BF4FF0040C031D062BDB
:104B80000FD9C31E4FF0FF3E0EFA0CF021EA0001D0
:104B900099400EFA03FE22EA0E0241EA02005DF895
:104BA00004FB0023EEE70000074AD36823F4E06328
:104BB0001B041B0C000200F4E060034343F0BF63DE
:104BC00043F40033D360704700ED00E010B50446B5
:104BD000054BD868C0F30220FFF7C6FF0146204608
:104BE000FFF7AEFF10BD00BF00ED00E008B5FFF716
:104BF00099FF08BD0138B0F1807F0BD24FF0E02360
:104C00005861054AF02182F823100020986107229C
:104C10001A6170470120704700ED00E010B50446AE
:104C20000E4B1A784FF47A73B3FBF2F30C4A106808
:104C3000B0FBF3F0FFF7DEFF68B90F2C01D90120BC
:104C40000AE0002221464FF0FF30FFF7BFFF054B7F
:104C50001C60002000E0012010BD00BF1C000020EF
:104C6000240000202000002008B50B4B1A6842F4F5
:104C700000721A601A6842F480621A601A6842F47C
:104C800080721A600320FFF78FFF0F20FFF7C6FF27
:104C9000FEF71CFD002008BD003C0240034A1168DD
:104CA000034B1B780B441360704700BFA4350020F2
:104CB0001C000020014B1868704700BFA43500207D
:104CC00038B50446FFF7F6FF0546B4F1FF3F02D0C2
:104CD000044B1B781C44FFF7EDFF401BA042FAD3A6
:104CE00038BD00BF1C00002003685A6912F4806FB1
:104CF00001D1002070476FF480625A610023036382
:104D0000202280F83D2080F83E30026C42F0040200
:104D1000026480F83C30012070472DE9F0410646DE
:104D20000C46174698463BE0FFF7C4FF069BC01AA7
:104D3000404502D8B8F1000F32D1012D18D03368A8
:104D40009B6924EA03039BB2B3FA83F35B099F4296
:104D500026D100233363202286F83D2086F83E309A
:104D6000326C42F02002326486F83C30012027E0A9
:104D700033685B6924EA03039BB2B3FA83F35B09EC
:104D8000E5E733685B6924EA030C1FFA8CFCBCFA84
:104D90008CFC4FEA5C1C674511D1B8F1FF3FC3D1D1
:104DA000C4F30745012DECD033689B6924EA030C5A
:104DB0001FFA8CFCBCFA8CFC4FEA5C1CEBE7002071
:104DC000BDE8F0812DE9F84305460E469046994628
:104DD00053E01A6842F400721A602B686FF4806224
:104DE0005A6100232B63202285F83D2085F83E3050
:104DF0002A6C42F004022A6485F83C3001204AE023
:104E0000FFF758FFA0EB0900404502D8B8F1000FAA
:104E100033D1012F17D02B689B6926EA03039BB27D
:104E2000003B18BF012343B300232B63202285F8E6
:104E30003D2085F83E302A6C42F020022A6485F835
:104E40003C30012027E02B685B6926EA03039BB214
:104E5000003B18BF0123E6E72B689C6926EA04049F
:104E6000A4B2003C18BF0124A4B12B685A6912F403
:104E7000806FAED1B8F1FF3FC2D1C6F30747012F13
:104E8000EAD12B685C6926EA0404A4B2003C18BF8E
:104E90000124E9E70020BDE8F8830000F0B583B005
:104EA00004460D4616461F46C36A082B0DD0012B3B
:104EB0000BD013F5803F08D0036B122B0AD1026888
:104EC000136843F48073136004E02268136843F4AA
:104ED000807313600097334600224FF00111204683
:104EE000FFF71BFF80B92369B3F5804F16D1236804
:104EF00005F0FE051D613B46324613492046FFF78B
:104F000061FFF8B903B0F0BD23681B6813F4807F1C
:104F100002D04FF4007323640320F3E7EB112268FF
:104F200003F0060343F0F00313613B4632460749A2
:104F30002046FFF747FF18B92368EDB21D61DAE795
:104F40000120DFE70120DDE7020001000800010089
:104F50002DE9F04184B004460D4616461F46C26A4C
:104F600001680B6843F480630B60082A0DD0012AA6
:104F70000BD012F5803F08D0036B112B0AD10268C9
:104F8000136843F48073136004E02268136843F4E9
:104F9000807313600097334600224FF001112046C2
:104FA000FFF7BBFE98B92369B3F5804F19D1236889
:104FB00045F00105EDB21D613B4632462A492046C7
:104FC000FFF700FF00284CD104B0BDE8F081236852
:104FD0001B6813F4807F02D04FF400732364032016
:104FE000F2E74FEAE51808F00608236848F0F002F7
:104FF0001A613B4632461D492046FFF7E3FE08B1E1
:105000000120E1E72368EDB21D613B4632461649B7
:105010002046FFF7D7FE08B10120D5E70022039212
:10502000236859690391996903910399196841F4B7
:1050300080711960009733464FF001112046FFF749
:105040006CFE20B9226848F0F1031361B4E72368CD
:105050001B6813F4807F02D04FF400732364032095
:10506000B2E70120B0E700BF020001000800010024
:1050700070B504460D46164623685B6913F0800F31
:1050800021D12046FFF730FEF8B9B5F1FF3FF3D04C
:10509000FFF710FE801BA84201D8002DECD1236839
:1050A0005B6913F0800FE7D100232363202284F88B
:1050B0003D2084F83E30226C42F02002226484F8C5
:1050C0003C30012000E0002070BD0120FCE7000022
:1050D0002DE9F04385B004460D4691461F46DDF8A4
:1050E00030800D9E0368196841F480711960009644
:1050F000434600224FF00111FFF70FFE60B923680D
:1051000005F0FE051D613346424626492046FFF75D
:1051100059FE68B1012008E023681B6813F4807F02
:1051200002D04FF400732364032005B0BDE8F08380
:105130000023039323685A6903929B690393039B9B
:10514000324641462046FFF793FF30B9012F0FD179
:1051500023685FFA89F61E61E7E7236C042B01D010
:105160000120E2E72268136843F400731360F7E755
:1051700023684FEA19221A61324641462046FFF75A
:1051800077FF20B923685FFA89F61E61CDE7236CAB
:10519000042B01D00120C8E72268136843F4007390
:1051A0001360F7E7020001002DE9F04784B00446E0
:1051B0000D46164699460C9FDDF834800268136848
:1051C00043F4806313600368196841F480711960C7
:1051D000CDF800803B4600224FF00111FFF79DFD06
:1051E00070B95FFA85FA236805F0FE051D61434634
:1051F0003A4641492046FFF7E5FD68B1012008E045
:1052000023681B6813F4807F02D04FF4007323647B
:10521000032004B0BDE8F0870023039323685A6994
:1052200003929B690393039B424639462046FFF74E
:105230001FFF80B9B9F1010F18D12368F6B21E61C2
:10524000424639462046FFF713FF68B3236C042B10
:1052500024D00120DDE7236C042B01D00120D8E706
:105260002268136843F400731360F7E72368320A77
:105270001A61424639462046FFF7FAFE18B92368FC
:10528000F6B21E61DCE7236C042B01D00120C0E7DD
:105290002268136843F400731360F7E72268136809
:1052A00043F400731360D4E72268136843F48073F7
:1052B0001360CDF800803B4600224FF001112046DC
:1052C000FFF72BFD68B922684AF0010313614346DA
:1052D0003A4609492046FFF775FD002899D001207C
:1052E00097E723681B6813F4807F02D04FF40073A4
:1052F000236403208DE700BF0200010070B504465F
:105300000D46164623685B6913F0040F21D1204631
:10531000FFF7EAFCF8B9B5F1FF3FF3D0FFF7CAFC9D
:10532000801BA84201D8002DECD123685B6913F0E3
:10533000040FE7D100232363202284F83D2084F862
:105340003E30226C42F02002226484F83C3001207E
:1053500000E0002070BD0120FCE770B504460D465A
:10536000164614E06FF010025A61002323632022D6
:1053700084F83D2084F83E30226C226484F83C306E
:10538000012025E023685B6913F0400F10D02368EB
:10539000586910F0400F1AD1586910F0100FE1D180
:1053A000FFF788FC801BA842ECD8002DEFD1E9E77D
:1053B00000232363202284F83D2084F83E30226CB1
:1053C00042F02002226484F83C30012000E00020FA
:1053D00070BD0000002800F0CC8070B5044690F845
:1053E0003D30002B77D0242384F83D3022681368A9
:1053F00023F0010313602268136843F40043136031
:105400002268136823F400431360FEF7B1FF62685B
:105410005A4B9A4264D85A4B98428CBF00230123BE
:10542000002B40F0A8805749A1FB00318B0C256868
:105430006A6822F03F0242EA91426A6021680A6A81
:1054400022F03F0266684D4DAE424FD80133134300
:105450000B622168CA6922F44F4222F0FF0265689C
:10546000464B9D424CD8431E6D00B3FBF5F3013310
:1054700040F6FC70034278D0C3F30B031A43CA61B1
:1054800021680B6823F0C003E269206A02431343DA
:105490000B6021688B6823F4034323F0FF03226928
:1054A000E068024313438B602168CB6823F0FF035D
:1054B0006269A06902431343CB602268136843F01A
:1054C0000103136000202064202384F83D30206312
:1054D00084F83E0070BD80F83C30FEF713F982E797
:1054E000294B98428CBF0023012399E74FF496750E
:1054F00005FB03F3254DA5FB03539B090133A6E7E9
:10550000A668BEB9431E05EB450CB3FBFCF30133A3
:10551000C3F30B03B3FA83F35B0943BBC6B9431E62
:1055200005EB4505B3FBF5F30133C3F30B0343F47C
:105530000043A3E7431E05EB850C0CEB8C0CB3FB7F
:10554000FCF30133C3F30B03B3FA83F35B09E4E722
:10555000431E05EB850505EB8505B3FBF5F301332C
:10556000C3F30B0343F4404388E7042386E7012396
:1055700084E7012070470120ACE700BFA08601004E
:105580007F841E0083DE1B43FF083D00D34D621065
:10559000A8B110B50446242380F83D300268136892
:1055A00023F001031360FEF7E5F80020206484F87F
:1055B0003D00206384F83E0084F83C0010BD0120CB
:1055C000704700002DE9F04385B004460F46914630
:1055D00098460C9EFFF76EFB054694F83D00C0B25E
:1055E000202804D00227384605B0BDE8F083009596
:1055F000192301224F492046FFF78FFB002840F076
:10560000928094F83C30012B00F08F80012384F8C5
:105610003C3023681A6812F0010F03D11A6842F077
:1056200001021A602268136823F4006313602123C7
:1056300084F83D30102384F83E3000232364C4F8FE
:105640002490A4F82A80638D23853B4BE3622B468C
:10565000324639462046FFF721FC0746002866D12E
:105660000023039323685A6903929B690393039B66
:1056700011E0236C042B01D00127B4E722681368E2
:1056800043F400731360F7E72A4631462046FFF7DC
:1056900035FE00282ED1238D002B36D02A463146E8
:1056A0002046FFF7E5FC0028E3D1626A2368127800
:1056B0001A61606A431C6362618D89B2013989B2E3
:1056C0006185238D013B9BB223852268516911F0CE
:1056D000040FD9D0002BD7D043781361636A01330C
:1056E0006362638D9BB2013B9BB26385238D013B5B
:1056F0002385C9E7236C042B01D0012773E72268B7
:10570000136843F400731360F7E72268136843F4E7
:1057100000731360202384F83D30002384F83E306A
:1057200084F83C305FE702275DE702275BE701274B
:1057300059E700BF020010000000FFFF2DE9F04311
:1057400087B004460F46914698460E9EFFF7B2FA80
:10575000054694F83D00C0B2202804D00227384600
:1057600007B0BDE8F083009519230122894920463E
:10577000FFF7D3FA002840F04F8194F83C30012B1A
:1057800000F04C81012384F83C3023681A6812F041
:10579000010F03D11A6842F001021A6022681368EF
:1057A00023F400631360222384F83D30102384F82F
:1057B0003E3000232364C4F82490A4F82A80638D2B
:1057C0002385754BE3622B46324639462046FFF768
:1057D000BFFB0746002840F02381238D5BB902936D
:1057E00023685A6902929A690292029A1A6842F4EC
:1057F00000721A607AE0012B0FD0022B1FD02268B2
:10580000136843F4806313600023059323685A6987
:1058100005929B690593059B68E02268136823F451
:10582000806313600023039323685A6903929A6983
:105830000392039A1A6842F400721A6056E02268D2
:10584000136823F4806313602268136843F40063D1
:1058500013600023049323685A6904929B6904939C
:10586000049B43E02A4631462046FFF776FD002898
:1058700040F0D88023681A69636A1A70636A01333A
:105880006362238D013B2385638D9BB2013B9BB2F9
:1058900063852BE000953346002240492046FFF700
:1058A0003CFA002840F0C0802268136843F400737B
:1058B000136023681A69636A1A70626A531C636210
:1058C000238D013B2385638D9BB2013B9BB2638596
:1058D00023681B695370636A01336362238D013B44
:1058E0002385638D9BB2013B9BB26385218D00298B
:1058F00000F08980032953D80129B3D00229C9D0E7
:1059000000953346002225492046FFF706FA002875
:1059100040F08C802268136823F48063136023684E
:105920001A69636A1A70636A01336362238D013BEB
:105930002385618D89B2013989B26185009533462D
:10594000002216492046FFF7E8F9002870D12268A6
:10595000136843F40073136023681A69636A1A704A
:10596000626A531C6362238D013B2385638D9BB266
:10597000013B9BB2638523681B695370636A0133E3
:105980006362238D013B2385638D9BB2013B9BB2F8
:105990006385ABE7020010000000FFFF0400010078
:1059A0002A4631462046FFF7D8FC002842D123681A
:1059B0001A69636A1A70636A01336362228D013A5D
:1059C00092B22285638D9BB2013B9BB263852368B3
:1059D000596911F0040F89D0032A0FD023681A697E
:1059E000636A1A70636A01336362238D013B238506
:1059F000638D9BB2013B9BB2638577E71A6822F403
:105A000080621A60EAE7202384F83D30002384F89E
:105A10003E3084F83C30A2E60227A0E602279EE64C
:105A200001279CE601279AE6012798E6012796E6DA
:105A3000012794E6012792E62DE9F04383B004465E
:105A40000F46904699460C9EFFF734F9054694F8A8
:105A50003D00C0B2202803D0022003B0BDE8F0838F
:105A60000095192301224B492046FFF756F90028DB
:105A700040F0898094F83C30012B00F086800123AF
:105A800084F83C3023681A6812F0010F03D11A68B9
:105A900042F001021A602268136823F40063136065
:105AA000212384F83D30402384F83E3000232364D2
:105AB0000A9B6362BDF82C306385638D2385364B6A
:105AC000E362019500964B46424639462046FFF771
:105AD000FFFA00285BD1238D002B35D02A463146B2
