:020000040800F2
:100000000000022009DC0008F1250008F3250008A3
:10001000F5250008F7250008F92500080000000074
:10002000000000000000000000000000FB250008A8
:10003000FD25000800000000FF250008012600083B
:1000400059DC000859DC000859DC000859DC0008BC
:1000500059DC000859DC000859DC000859DC0008AC
:1000600059DC000859DC000859DC000859DC00089C
:1000700059DC000859DC000859DC000859DC00088C
:10008000092600081926000859DC000859DC000878
:1000900059DC000859DC000859DC000859DC00086C
:1000A00059DC000859DC000859DC000859DC00085C
:1000B00059DC000859DC000859DC000859DC00084C
:1000C00059DC000859DC000859DC000859DC00083C
:1000D00059DC000859DC000859DC000859DC00082C
:1000E00059DC000859DC000859DC000859DC00081C
:1000F00059DC000859DC000859DC000859DC00080C
:1001000059DC00082926000859DC000859DC0008E1
:1001100059DC000859DC000859DC000859DC0008EB
:1001200059DC000859DC000859DC000839260008B1
:1001300059DC000859DC000859DC000859DC0008CB
:1001400059DC000859DC000859DC00084926000881
:1001500059DC00085926000859DC000859DC000861
:1001600059DC000859DC000859DC000859DC00089B
:1001700059DC000859DC000859DC000800000000C8
:0801800059DC000859DC0008FD
:1001900001F0FF01102A2BDB10F0070F08D010F838
:1001A000013B013A8B422DD010F0070F42B3F6D13C
:1001B000F0B441EA012141EA014122F007047FF055
:1001C00000070023F0E80256083C85EA010586EAAC
:1001D000010685FA47F5A3FA87F586FA47F6A5FAE8
:1001E00087F68EB9EED1F0BC01F0FF0102F00702F4
:1001F00032B110F8013B013A83EA010313B1F8D19F
:100200000020704701387047002D06BF354603387F
:10021000073815F0010F07D1013015F4807F02BFB8
:10022000013015F4C03F0130F0BC0138704700BF09
:10023000034613F8012B002AFBD1181A0138704726
:1002400081F0004102E000BF83F0004330B54FEA87
:1002500041044FEA430594EA050F08BF90EA020FF4
:100260001FBF54EA000C55EA020C7FEA645C7FEA87
:10027000655C00F0E2804FEA5454D4EB5555B8BFAA
:100280006D420CDD2C4480EA020281EA030382EA1B
:10029000000083EA010180EA020281EA0303362DAD
:1002A00088BF30BD11F0004F4FEA01314FF4801C80
:1002B0004CEA113102D0404261EB410113F0004F92
:1002C0004FEA03334CEA133302D0524263EB430349
:1002D00094EA050F00F0A780A4F10104D5F1200EE7
:1002E0000DDB02FA0EFC22FA05F2801841F1000142
:1002F00003FA0EF2801843FA05F359410EE0A5F116
:1003000020050EF1200E012A03FA0EFC28BF4CF046
:10031000020C43FA05F3C01851EBE37101F00045FC
:1003200007D54FF0000EDCF1000C7EEB00006EEB09
:100330000101B1F5801F1BD3B1F5001F0CD3490893
:100340005FEA30004FEA3C0C04F101044FEA4452EA
:1003500012F5800F80F09A80BCF1004F08BF5FEA71
:10036000500C50F1000041EB045141EA050130BD51
:100370005FEA4C0C404141EB0101013C28BFB1F563
:10038000801FE9D291F0000F04BF01460020B1FAAE
:1003900081F308BF2033A3F10B03B3F120020CDA81
:1003A0000C3208DD02F1140CC2F10C0201FA0CF05F
:1003B00021FA02F10CE002F11402D8BFC2F1200CC4
:1003C00001FA02F120FA0CFCDCBF41EA0C0190407A
:1003D000E41AA2BF01EB0451294330BD6FEA0404C3
:1003E0001F3C1CDA0C340EDC04F11404C4F12002AE
:1003F00020FA04F001FA02F340EA030021FA04F3C0
:1004000045EA030130BDC4F10C04C4F1200220FA16
:1004100002F001FA04F340EA0300294630BD21FA54
:1004200004F0294630BD94F0000F83F4801306BF1A
:1004300081F480110134013D4EE77FEA645C18BF0E
:100440007FEA655C29D094EA050F08BF90EA020FA5
:1004500005D054EA000C04BF1946104630BD91EA9D
:10046000030F1EBF0021002030BD5FEA545C05D1A0
:100470004000494128BF41F0004130BD14F58004DF
:100480003CBF01F5801130BD01F0004545F0FE4153
:1004900041F470014FF0000030BD7FEA645C1ABF88
:1004A000194610467FEA655C1CBF0B46024650EABF
:1004B000013406BF52EA033591EA030F41F40021EB
:1004C00030BD00BF90F0000F04BF0021704730B571
:1004D0004FF4806404F132044FF000054FF0000146
:1004E00050E700BF90F0000F04BF0021704730B507
:1004F0004FF4806404F1320410F0004548BF4042DC
:100500004FF000013EE700BF42004FEAE2014FEA30
:1005100031014FEA02701FBF12F07F4393F07F4F0B
:1005200081F06051704732F07F4208BF704793F00E
:100530007F4F04BF41F40021704730B54FF4607421
:1005400001F0004521F000411CE700BF50EA010224
:1005500008BF704730B54FF000050AE050EA0102CD
:1005600008BF704730B511F0004502D5404261EB3D
:1005700041014FF4806404F132045FEA915C3FF47E
:10058000D8AE4FF003025FEADC0C18BF03325FEA1B
:10059000DC0C18BF033202EBDC02C2F1200300FACC
:1005A00003FC20FA02F001FA03FE40EA0E0021FAF1
:1005B00002F11444BDE600BF70B54FF0FF0C4CF4DF
:1005C000E06C1CEA11541DBF1CEA135594EA0C0F91
:1005D00095EA0C0F00F0DEF82C4481EA030621EACC
:1005E0004C5123EA4C5350EA013518BF52EA033507
:1005F00041F4801143F4801338D0A0FB02CE4FF0B9
:100600000005E1FB02E506F00042E0FB03E54FF0E8
:100610000006E1FB03569CF0000F18BF4EF0010EE0
:10062000A4F1FF04B6F5007F64F5407404D25FEADC
:100630004E0E6D4146EB060642EAC62141EA55518F
:100640004FEAC52040EA5E504FEACE2EB4F1FD0CD1
:1006500088BFBCF5E06F1ED8BEF1004F08BF5FEA4F
:10066000500E50F1000041EB045170BD06F0004601
:1006700046EA010140EA020081EA0301B4EB5C04AE
:10068000C2BFD4EB0C0541EA045170BD41F48011A6
:100690004FF0000E013C00F3AB8014F1360FDEBFCB
:1006A000002001F0004170BDC4F10004203C35DAA7
:1006B0000C341BDC04F11404C4F1200500FA05F32A
:1006C00020FA04F001FA05F240EA020001F00042CB
:1006D00021F0004110EBD37021FA04F642EB060141
:1006E0005EEA430E08BF20EAD37070BDC4F10C046B
:1006F000C4F1200500FA04F320FA05F001FA04F22F
:1007000040EA020001F0004110EBD37041F100011A
:100710005EEA430E08BF20EAD37070BDC4F1200525
:1007200000FA05F24EEA020E20FA04F301FA05F28D
:1007300043EA020321FA04F001F0004121FA04F235
:1007400020EA020000EBD3705EEA430E08BF20EA05
:10075000D37070BD94F0000F0FD101F0004640003F
:1007600041EB010111F4801F08BF013CF7D041EAC1
:10077000060195F0000F18BF704703F000465200C5
:1007800043EB030313F4801F08BF013DF7D043EA96
:100790000603704794EA0C0F0CEA135518BF95EA4C
:1007A0000C0F0CD050EA410618BF52EA4306D1D1D3
:1007B00081EA030101F000414FF0000070BD50EAF2
:1007C000410606BF1046194652EA430619D094EA7C
:1007D0000C0F02D150EA013613D195EA0C0F05D166
:1007E00052EA03361CBF104619460AD181EA0301BA
:1007F00001F0004141F0FE4141F470014FF0000072
:1008000070BD41F0FE4141F4780170BD70B54FF00C
:10081000FF0C4CF4E06C1CEA11541DBF1CEA13558C
:1008200094EA0C0F95EA0C0F00F0A7F8A4EB05046E
:1008300081EA030E52EA03354FEA013100F0888065
:100840004FEA03334FF0805545EA131343EA12632E
:100850004FEA022245EA111545EA10654FEA0026E3
:100860000EF000419D4208BF964244F1FD0404F59C
:10087000407402D25B084FEA3202B61A65EB0305F8
:100880005B084FEA32024FF480104FF4002CB6EBB5
:10089000020E75EB030E22BFB61A754640EA0C0035
:1008A0005B084FEA3202B6EB020E75EB030E22BF75
:1008B000B61A754640EA5C005B084FEA3202B6EBB6
:1008C000020E75EB030E22BFB61A754640EA9C0075
:1008D0005B084FEA3202B6EB020E75EB030E22BF45
:1008E000B61A754640EADC0055EA060E18D04FEA03
:1008F000051545EA16754FEA06164FEAC30343EAA3
:1009000052734FEAC2025FEA1C1CC0D111F4801F6F
:100910000BD141EA00014FF000004FF0004CB6E768
:1009200011F4801F04BF01430020B4F1FD0C88BF07
:10093000BCF5E06F3FF6AFAEB5EB030C04BFB6EB12
:10094000020C5FEA500C50F1000041EB045170BD05
:100950000EF0004E4EEA113114EB5C04C2BFD4EB32
:100960000C0541EA045170BD41F480114FF0000EB6
:10097000013C90E645EA060E8DE60CEA135594EA32
:100980000C0F08BF95EA0C0F3FF43BAF94EA0C0F35
:100990000AD150EA01347FF434AF95EA0C0F7FF4AA
:1009A00025AF104619462CE795EA0C0F06D152EAFE
:1009B00003353FF4FDAE1046194622E750EA4106E2
:1009C00018BF52EA43067FF4C5AE50EA41047FF4F3
:1009D0000DAF52EA43057FF4EBAE12E74FF0FF3C58
:1009E00006E000BF4FF0010C02E000BF4FF0010C29
:1009F0004DF804CD4FEA410C7FEA6C5C4FEA430CA2
:100A000018BF7FEA6C5C1BD001B050EA410C0CBFF0
:100A100052EA430C91EA030F02BF90EA020F002052
:100A2000704710F1000F91EA030F58BF994208BFB9
:100A300090422CBFD8176FEAE37040F00100704776
:100A40004FEA410C7FEA6C5C02D150EA013C07D1CD
:100A50004FEA430C7FEA6C5CD6D152EA033CD3D018
:100A60005DF8040B704700BF8446104662468C4612
:100A70001946634600E000BF01B5FFF7B7FF002845
:100A800048BF10F1000F01BD4DF808EDFFF7F4FF6E
:100A90000CBF012000205DF808FB00BF4DF808EDF9
:100AA000FFF7EAFF34BF012000205DF808FB00BF1C
:100AB0004DF808EDFFF7E0FF94BF012000205DF83E
:100AC00008FB00BF4DF808EDFFF7CEFF94BF0120F3
:100AD00000205DF808FB00BF4DF808EDFFF7C4FFEC
:100AE00034BF012000205DF808FB00BF4FEA410C35
:100AF0007FEA6C5C02D150EA013C0AD14FEA430C18
:100B00007FEA6C5C02D152EA033C02D14FF0000054
:100B100070474FF0010070474FEA410212F5001292
:100B200015D211D56FF47873B3EB625212D94FEA34
:100B3000C12343F0004343EA505311F0004F23FA1E
:100B400002F018BF404270474FF00000704750EA73
:100B5000013005D111F0004008BF6FF00040704730
:100B60004FF00000704700BF4A0011D212F500128A
:100B700011D20DD56FF47873B3EB62520ED44FEAF5
:100B8000C12343F0004343EA505323FA02F0704775
:100B90004FF00000704750EA013002D14FF0FF30B3
:100BA00070474FF0000070474FEA4102B2F1E04356
:100BB00024BFB3F5001CDCF1FE5C0DD901F0004C44
:100BC0004FEAC0024CEA5070B2F1004F40EB830094
:100BD00008BF20F00100704711F0804F21D113F1C0
:100BE0003872BCBF01F00040704741F480114FEAF9
:100BF0005252C2F11802C2F1200C10FA0CF320FA82
:100C000002F018BF40F001004FEAC1234FEAD3239E
:100C100003FA0CFC40EA0C0023FA02F34FEA430308
:100C2000CCE77FEA625307D150EA01331EBF4FF091
:100C3000FE4040F44000704701F0004040F0FE40AC
:100C400040F40000704700BF53B94AB9002908BFFB
:100C500000281CBF4FF0FF314FF0FF3000F0E2B82A
:100C6000ADF1080C6DE904CE12F056FBDDF804E09E
:100C7000DDE9022304B0704700F1340191E8380047
:100C80009C46A6464CF8045D90E8FF0FE54600BD83
:100C900090EC210B704700BF80EC210B704700BF28
:100CA00090EC200B704700BF80EC200B704700BF1A
:100CB000D0EC200B704700BFC0EC200B704700BF8A
:100CC000F0EC0201F0EC0211F0EC0221F0EC023148
:100CD000F0EC0241F0EC0251F0EC0261F0EC027138
:100CE000F0EC0281F0EC0291F0EC02A1F0EC02B128
:100CF000F0EC02C1F0EC02D1F0EC02E1F0EC02F118
:100D0000704700BFE0EC0201E0EC0211E0EC0221D0
:100D1000E0EC0231E0EC0241E0EC0251E0EC026177
:100D2000E0EC0271E0EC0281E0EC0291E0EC02A167
:100D3000E0EC02B1E0EC02C1E0EC02D1E0EC02E157
:100D4000E0EC02F1704700BFB0FC0181B0FC019102
:100D5000B0FC01A1B0FC01B1704700BFA0FC018153
:100D6000A0FC0191A0FC01A1A0FC01B1704700BF53
:100D7000EC4600B52DE900502DE9FF1F4FF00003B0
:100D80002DE90C0001A912F081FDDDF840E012B060
:100D9000704700BFEC4600B52DE900502DE9FF1F5C
:100DA0004FF000032DE90C0001A912F0ABFDDDF8B6
:100DB00040E012B0704700BFEC4600B52DE900508E
:100DC0002DE9FF1F4FF000032DE90C0001A912F0DF
:100DD000BBFDDDF840E012B0704700BFEC4600B547
:100DE0002DE900502DE9FF1F4FF000032DE90C0005
:100DF00001AB12F07FFDDDF840E012B0704700BF9C
:100E0000EC4600B52DE900502DE9FF1F4FF000031F
:100E10002DE90C0001AA12F0EFFDDDF840E012B060
:100E2000704700BF704700BF10B5054C237833B939
:100E3000044B13B10448AFF300800123237010BDAD
:100E4000D4020020000000005C43010808B5034BF9
:100E50001BB103490348AFF3008008BD0000000048
:100E6000D80200205C43010808B501228021024815
:100E700002F02DFD08BD00BF0004024008B50022AD
:100E80008021024802F023FD08BD00BF000402409B
:100E900008B501224021024802F019FD08BD00BF3B
:100EA0000004024008B500224021024802F00FFD74
:100EB00008BD00BF0004024070B582B00C46154664
:100EC00040F020008DF80700FFF7D8FF094E4FF4DF
:100ED0007A7301220DF10701304605F02AFD4FF427
:100EE0007A732A462146304605F023FDFFF7BCFF02
:100EF00002B070BDA404002030B583B00C468DF85C
:100F0000070000238DF80630FFF7B8FF0B4D4FF4B4
:100F10007A7301220DF10701284605F00AFD4FF40E
:100F20007A7322460DF10601284605F00EFFFFF701
:100F30009BFF9DF8060003B030BD00BFA404002055
:100F400000B583B08DF807004FF47A7301220DF1DC
:100F50000701034805F0EDFC03B05DF804FB00BF9A
:100F6000A404002010B582B000248DF807400121B0
:100F70002046FFF7C1FF8DF8070040F002008DF812
:100F8000070001220DF107012046FFF795FF02B08F
:100F900010BD10B582B0044600238DF80730012142
:100FA0000620FFF7A9FF8DF8070000F0B8038DF8C1
:100FB000073043EA44038DF8073001220DF10701A1
:100FC0000620FFF779FF02B010BD10B582B00446CD
:100FD00000238DF8073001210620FFF78DFF8DF8E3
:100FE000070000F0D7038DF80730012C09D0022C40
:100FF0000CD001220DF107010620FFF75DFF02B0C2
:1010000010BD43F008008DF80700F2E743F0200020
:101010008DF80700EDE700B583B08DF807000122D9
:101020000DF107010520FFF747FF03B05DF804FB52
:1010300008B5014605221020FFF73EFF08BD00B5A8
:1010400083B08DF80710CBB2202B02D920238DF866
:10105000073005280AD8DFE800F0030C131A21280E
:1010600001220DF107011120FFF726FF03B05DF803
:1010700004FB01220DF107011220FFF71DFFF5E728
:1010800001220DF107011320FFF716FFEEE7012201
:101090000DF107011420FFF70FFFE7E701220DF123
:1010A00007011520FFF708FFE0E701220DF1070116
:1010B0001620FFF701FFD9E730B583B004460D468F
:1010C00000238DF8073001210220FFF715FF8DF86E
:1010D0000700052C0FD8DFE804F00316222E3A464D
:1010E000052229460A20FFF7E7FE9DF8073043F066
:1010F00001038DF8073001220DF107010220FFF7EF
:10110000DBFE03B030BD052229460B20FFF7D4FEDD
:101110009DF8073043F002038DF80730EBE701221A
:1011200029460C20FFF7C8FE9DF8073043F0040362
:101130008DF80730DFE7012229460D20FFF7BCFEBE
:101140009DF8073043F008038DF80730D3E70122FC
:1011500029460E20FFF7B0FE9DF8073043F010033C
:101160008DF80730C7E7012229460F20FFF7A4FEBC
:101170009DF8073043F020038DF80730BBE730B50A
:1011800083B005460C4601210020FFF7B5FE8DF81F
:10119000070000F0F3038DF80730A40044EAC5040B
:1011A00064B223438DF8073001220DF107010020BE
:1011B000FFF782FE03B030BD00B583B08DF80700A5
:1011C000C3B2023B8DF8073001220DF10701032065
:1011D000FFF772FE03B05DF804FB08B5FFF74EFEA3
:1011E000E120FFF7ADFEFFF73FFE08BD08B5FFF7B2
:1011F00045FEE220FFF7A4FEFFF736FE08BD000023
:1012000000B585B000238DF80F30FF238DF80E3028
:10121000FFF734FE4FF47A73009301230DF10F02B0
:101220000DF10E01044805F066FCFFF71DFE9DF868
:101230000F0005B05DF804FBA404002000B583B0E6
:1012400000238DF80730FFF7DBFF8DF8070040F033
:1012500040008DF8070001220DF107010720FFF77C
:101260002BFE03B05DF804FB00B583B000238DF8BE
:101270000730FFF7C5FF8DF8070040F020008DF81C
:10128000070001220DF107010720FFF715FE03B04B
:101290005DF804FB00B583B000238DF80730FFF73D
:1012A000AFFF8DF8070040F010008DF80700012215
:1012B0000DF107010720FFF7FFFD03B05DF804FB08
:1012C00010B582B000248DF8074001212046FFF7B9
:1012D00013FE8DF8070040F001008DF80700012291
:1012E0000DF107012046FFF7E7FDFFF7D1FD02B042
:1012F00010BD10B582B000248DF8074001212046B2
:10130000FFF7FAFD8DF8070020F001008DF80700C7
:1013100001220DF107012046FFF7CEFD02B010BDFE
:1013200010B582B0044601211D20FFF7E5FD8DF8C0
:101330000700012C0BD020F004008DF807000122DB
:101340000DF107011D20FFF7B7FD02B010BD40F001
:1013500004008DF80700F2E730B583B004460D466F
:1013600001211C20FFF7C8FD8DF80700052C00D9CE
:10137000052465B10123A34018438DF8070001221D
:101380000DF107011C20FFF797FD03B030BD0123CD
:10139000A340DB435BB218408DF80700EFE710B5C0
:1013A00082B0044601210846FFF7A6FD8DF807002C
:1013B00054B13F238DF8073001220DF1070110468B
:1013C000FFF77AFD02B010BD00238DF80730F3E778
:1013D00010B582B0044601211D20FFF78DFD8DF868
:1013E00007005CB140F002008DF8070001220DF10A
:1013F00007011D20FFF760FD02B010BD20F00200C4
:101400008DF80700F2E710B582B0044601210420F0
:10141000FFF772FD8DF8070000F00F038DF807301D
:1014200043EA04138DF8073001220DF1070104206F
:10143000FFF742FD02B010BD10B582B00446012195
:101440000420FFF759FD8DF8070000F0F0038DF838
:10145000073023438DF8073001220DF107010420E6
:10146000FFF72AFD02B010BD70B582B004460D46EC
:10147000FFF718FDA0238DF80730FFF7FFFC134E90
:101480004FF47A7301220DF10701304605F051FA4D
:101490004FF47A732A462146304605F04AFAFFF7A0
:1014A000E3FCFFF7F5FC012001F06CFEFFF7FAFC0E
:1014B000FFF7A6FE10F0100001D102B070BDFFF7DB
:1014C000E9FEFFF78AFE0120F7E700BFA404002031
:1014D00008B501211720FFF70FFD10F0010F01D013
:1014E000002008BD0120FCE770B582B004460D461F
:1014F00061238DF80730FFF7C1FC0B4E4FF47A7370
:1015000001220DF10701304605F013FA4FF47A730A
:101510002A462146304605F018FCFFF7A5FCFFF7E8
:101520008DFE02B070BD00BFA404002008B5FFF717
:1015300019FDFFF752FEFFF759FEFFF77FFEFFF799
:1015400093FEFFF7A7FE08BDF0B583B08DF8070046
:10155000F2B10C461746104D00221021284602F029
:10156000B6F90E4E642301220DF10701304605F055
:10157000E0F94FF47A73BAB22146304605F0D9F952
:1015800001221021284602F0A2F9002003B0F0BD8C
:101590006FF00100FAE700BF00080240FC040020E1
:1015A0002DE9F04182B08DF807001AB30C46904641
:1015B000124D00221021284602F089F9104F6423B1
:1015C00001220DF10701384605F0B3F90D4E3070D8
:1015D0004FF47A731FFA88F22146384605F0B5FBBE
:1015E000307001221021284602F071F9002002B06B
:1015F000BDE8F0816FF00100F9E700BF000802408C
:10160000FC040020F002002008B501F0BBFD08BD7D
:1016100008B500230A4A13600A4A136053609360B6
:10162000D3600948094B8360094BC360094B0361D0
:1016300007F002F900B108BD034807F04DF9FAE7D9
:1016400004030020F402002008030020A115000874
:10165000491500080916000808B5024907F05AFAAA
:1016600008BD00BF0803002008B5034B987003496C
:10167000184607F098FA08BD04030020080300206C
:1016800008B5FFF7C5FF034608B1184608BD01209D
:10169000FFF7EAFF03460028F7D10120FFF7DCFF40
:1016A0000346F2E708B501221021034802F00FF9C2
:1016B000FFF7E6FF08BD00BF0008024008B5024A78
:1016C000024907F03DF908BD08030020040300208B
:1016D00008B5DFED177AC0EE277A17EE900AFEF70D
:1016E00013FF9FED0F1B41EC100B10F089FD51EC27
:1016F000100BFFF759FA07EE900AB7EE007A77EE73
:10170000677A17EE900AFEF7FFFE07A3D3E90023DE
:10171000FFF77CF8FFF748FA00EE100A08BD00BF9B
:10172000000000808A5AC83FDF55225749A7F73E7C
:1017300080E6C54700B585B08DF80C008DF80D101A
:101740000A230093022303AA50210348006802F0F1
:101750006DFC05B05DF804FB2003002008B50146D0
:101760000720FFF7E7FF08BD2DE9F04184B00D46E3
:1017700016468DF80F000D4F4FF06408CDF800802D
:1017800001230DF10F025021386802F04FFC04468E
:10179000CDF8008033462A465021386802F002FD19
:1017A0002043C0B204B0BDE8F08100BF2003002098
:1017B0002DE9704386B006460D460020FFF7CEFFA8
:1017C0000446202E20D0062204A93046FFF7CCFF85
:1017D0000443E4B2A6F10803262B40D8DFE803F067
:1017E000233F3F3F3F3F1C3F3F3F3F3F2A3F3F3F5D
:1017F0003F3F313F3F3F3F3F383F3F3F3F3F3F3F0E
:10180000233F3F3F3F3F2300082204A93046FFF714
:10181000ABFF0443E4B2DDE7534B1888FEF752FEFA
:10182000804689461FE0514B1888FEF74BFE8046E4
:10183000894618E04E4B1888FEF744FE80468946DC
:1018400011E04C4B1888FEF73DFE804689460AE0C1
:10185000494B1888FEF736FE8046894603E04FF074
:101860000008DFF81891002300930193029303937B
:10187000202E37D09DF811309DF8100040EA03204B
:1018800000B2FEF72FFE42464B46FEF7BFFFFFF7C2
:101890008BF901909DF813309DF8120040EA032067
:1018A00000B2FEF71FFE42464B46FEF7AFFFFFF7C2
:1018B0007BF902909DF815309DF8140040EA032052
:1018C00000B2FEF70FFE42464B46FEF79FFFFFF7C2
:1018D0006BF903906B460FCB85E80F00204606B0EE
:1018E000BDE870839DF811309DF8100040EA032098
:1018F00000B2FEF7F7FD42464B46FEF787FFFFF7C3
:1019000053F900909DF813309DF8120040EA03202F
:1019100000B2FEF7E7FD42464B46FEF777FFFFF7C2
:1019200043F901909DF815309DF8140040EA03201A
:1019300000B2FEF7D7FD42464B46FEF767FFFFF7C2
:1019400033F902909DF817309DF8160040EA032005
:1019500000B2FEF7C7FD42464B46FEF757FFFFF7C2
:1019600023F90390B6E700BF020000200800002022
:101970000600002004000020000000200000F03FCE
:1019800008B501F0FFFB08BD014B1860704700BFB0
:101990002003002038B5044601463D20FFF7CAFE6B
:1019A000054624B91320FFF7EBFF284638BD072072
:1019B000FFF7E6FFF9E708B50020FFF7EBFF08BDEA
:1019C00008B50C20FFF7E6FF08BD10B520213F2029
:1019D000FFF7B0FE04464FF42F70FFF7D1FF20460B
:1019E00010BD000010B582B0FFF7EFFF04460020E5
:1019F0008DF8070001220DF10701FFF7B5FE044342
:101A0000E4B29DF80710A02914D10020FFF7A6FE2C
:101A10000443E4B200213F20FFF78CFE0443E4B20C
:101A2000FFF7C9FF0443E4B20A20FFF7A9FF2046ED
:101A300002B010BD01480DF0D3FDE6E77843010880
:101A400008B501461420FFF7B3FE08BD08B50146EE
:101A50001A20FFF7ADFE08BD08B501462820FFF7A4
:101A6000A7FE08BD08B501462020FFF7A1FE08BD6E
:101A700070B582B00546FEF7DBFB042824D9284464
:101A800010F8043C8DF804302846FEF7D1FB2844BA
:101A900010F8033C8DF805300024264602E02B5D4B
:101AA0005E4001342846FEF7C3FB0538A042F6D855
:101AB0001022002101A80DF071F8864202D000200A
:101AC00002B070BD0120FBE70020F9E7F0B59BB044
:101AD00006460C466422002101A80DF03BFF244974
:101AE00020460DF051FF0446002514E02046FEF785
:101AF0009FFB6F1C01300CF0B1F81AAB03EB8505AE
:101B000045F8640C21460EF038F8194900200DF014
:101B10003BFF04463D46002CE8D10A2200210398F1
:101B20000DF03CF80128D4BF00200120B06203234F
:101B3000002100E001330E2B09DC1AAA02EB83021C
:101B400052F8642C1278002AF4D00131F2E7716265
:101B5000002407E01AAB03EB840353F8640C0CF089
:101B600085F80134A542F5DC01201BB0F0BD00BFB3
:101B7000B44301082DE9F04F2DED028BA1B00746CB
:101B80000C466422002107A80DF0E4FE66492046B9
:101B90000DF0FAFE0446002514E02046FEF748FB4F
:101BA0006E1C01300CF05AF820AB03EB850545F8AC
:101BB000640C21460DF0E1FF5B4900200DF0E4FECE
:101BC00004463546002CE8D1099B93F80080B8F113
:101BD000530F1BD0B8F14E0F1AD000208DE0089A99
:101BE000D15C03F180026A4402F87C1C0133012BB2
:101BF000F5DD0023052B0DDC089A1A44917803F1DA
:101C000080026A4402F8741C0133F3E70023EEE714
:101C10000023ECE70A22002101A80CF0BFFF0646D2
:101C2000002103A80CF0DCFEF0EE408A9FED3F7A25
:101C3000C0EE077A07EE106AB8EEC77A77EE277A19
:101C400017EE900AFEF760FC82468B460B9B93F8DA
:101C50000090002307E00A9AD15C03F180026A44F5
:101C600002F8781C0133022BF5DD0023052B09DC7B
:101C70000A9A1A44D17803F180026A4402F86C1C73
:101C80000133F3E70A22002102A80CF087FF044683
:101C9000002105A80CF0A4FEB0EE408A9FED237A47
:101CA000C0EE077A07EE104AB8EEC77A77EE277AC9
:101CB00017EE900AFEF728FCE4B1B5EE408AF1EE8B
:101CC00010FA1FD006B3F5EE408AF1EE10FA1DD0DF
:101CD000C7E900ABC7E9040187F8088087F81890C6
:101CE00000241DE020AB03EB840353F8640C0BF0DD
:101CF000BDFF0134A542F5DC002021B0BDEC028B14
:101D0000BDE8F08F0024F5E73446F3E70024F1E75F
:101D100020AB03EB840353F8640C0BF0A7FF0134F2
:101D2000A542F5DC0120E8E7B44301080000704259
:101D30002DE9F0432DED028BA1B007460C4664223D
:101D4000002107A80DF006FE7E4920460DF01CFE7E
:101D50000446002514E02046FEF76AFA6E1C0130A6
:101D60000BF07CFF20AB03EB850545F8640C2146A6
:101D70000DF003FF734900200DF006FE04463546C2
:101D8000002CE8D10C9B1E780A9B1C78089907F15F
:101D90002C000DF0F2FE532C0FD04E2C0FD000244F
:101DA000C8E0099AD15C03F180026A4402F87C1C05
:101DB0000133012BF5DD00230CE00023F9E70023BC
:101DC000F7E7099A1A44917803F180026A4402F80D
:101DD000741C0133052BF4DD0A22002101A80CF04C
:101DE000DDFE08EE100A002103A80CF0F9FD9FEDBE
:101DF000567AC0EE077AB8EEC88A38EE278A18EE0F
:101E0000100AFEF781FB80468946002307E00B9A03
:101E1000D15C03F180026A4402F8781C0133022B82
:101E2000F5DD002308E00B9A1A44D17803F1800213
:101E30006A4402F86C1C0133052BF4DD0A220021F0
:101E400002A80CF0ABFE08EE900A002105A80CF0E9
:101E5000C7FD9FED3D7AC0EE077AF8EEE88A78EE8E
:101E6000A78A18EE900AFEF74FFBB5EE408AF1EE16
:101E700010FA51D0F5EE408AF1EE10FA4ED0DFEDB7
:101E8000337AB4EEE78AF1EE10FA49D5DFED307A15
:101E9000F4EEE78AF1EE10FA01D4002438E0C7E945
:101EA00000893C72C7E904013E76002110980CF0CD
:101EB00097FDB5EE400AF1EE10FA01D197ED070A51
:101EC00087ED070A0A2200210E980CF067FE78625F
:101ED0000A2200210D980CF061FE0028D4BF0020DA
:101EE0000120B86200210F980CF07AFDB5EE400A8F
:101EF000F1EE10FA01D197ED080A87ED080A4EE7D6
:101F000020AB03EB840353F8640C0BF0AFFE0134F9
:101F1000A542F5DC002010E00024F9E70024F7E7F3
:101F20000024F5E720AB03EB840353F8640C0BF0BB
:101F30009DFE0134A542F5DC012021B0BDEC028BF1
:101F4000BDE8F083B4430108000070420000B442D1
:101F500000003443F0B591B006460C463C22002107
:101F600001A80DF0F7FC334920460DF00DFD0446A5
:101F7000002504E02F4900200DF006FD0446002C4A
:101F800047D00E2D11DC2046FEF752F901300BF040
:101F900065FE10AB03EB850343F83C0C0028E9D049
:101FA00021460DF0EAFD0135E4E7002409E022496D
:101FB00038460DF045FD08B339463046FFF786FD3B
:101FC0000134A54227DD10AB03EB840353F83C7CBE
:101FD0001A4938460DF034FD0028F1D03846FFF795
:101FE00047FD0028ECD0164938460DF029FD0028A1
:101FF000DDD039463046FFF7BDFDE1E711493846EF
:102000000DF01EFD0028DBD039463046FFF790FE6C
:10201000D6E70024D5E70024A54208DD10AB03EB8A
:10202000840353F83C0C0BF021FE0134F4E711B0AB
:10203000F0BD00BFB8430108C4430108B043010824
:10204000BC430108CC43010810B586B08400E4B25B
:102050000634E4B28DF81410090A8DF815108DF8C5
:102060001620120A8DF817203223402280210C48B6
:10207000006802F0C7FA0028F6D10A23029304236D
:10208000019305AB00930123224680210448006898
:1020900002F006FA08B906B010BD0120FBE700BF48
:1020A0002403002008B5B1F5805F01D340F6FF712D
:1020B000C2B159B140F6FF7399420DD0C1F57F61AD
:1020C0000F318AB20021FFF7BFFF08BD00224FF495
:1020D0008051FFF7B9FFF8E74FF480520021FFF776
:1020E000B3FFF2E740F6FF73994205D051B94FF4C0
:1020F0008052FFF7A9FFE8E700224FF48051FFF775
:10210000A3FFE2E70A460021FFF79EFFDDE700009C
:1021100010B50446B5EEC00AF1EE10FA09D4DFEDB1
:10212000187AB4EEE70AF1EE10FA04DD9FED140A16
:1021300001E09FED140A10EE100AFEF7E5F90EA378
:10214000D3E90023FEF738FA00220F4BFEF75EFBBF
:1021500000220E4BFEF77AF8FEF726FD07EE900AF6
:10216000FCEEE77A002217EE903A99B22046FFF78C
:1021700099FF10BDAFF300800000000000607840C0
:1021800000003443000000000080664000805B4097
:1021900038B50C4695B22946204600F0C9FA4FF4EE
:1021A0007A722946204600F0B9FA002038BD0000B6
:1021B00082B0002100910B4B5A6C42F480425A6469
:1021C0005A6C02F480420092009A01911A6C42F01B
:1021D00080521A641B6C03F080530193019B02B080
:1021E000704700BF0038024030B589B00023039328
:1021F00004930593069307930268144B9A4201D007
:1022000009B030BD00250195114C236B43F002034A
:102210002363236B03F002030193019B4FF440639C
:10222000039312230493032306930423079303A920
:10223000084801F04FFA0295236C43F480032364AD
:10224000236C03F480030293029BD9E700580040FB
:1022500000380240000402402DE9F04F89B000230D
:10226000039304930593069307930268594B9A428C
:1022700002D009B0BDE8F08F04460025009503F5B3
:1022800086335A6C42F400625A645A6C02F400625B
:102290000092009A01951A6B42F004021A631A6BBD
:1022A00002F004020192019A02951A6B42F00802B0
:1022B0001A631B6B03F008030293029B4FF48073B5
:1022C00003934FF00208CDF810804FF0010BCDF8CA
:1022D00014B0032606960C270797DFF810910DEB34
:1022E0000701484601F0F6F94FF4805ACDF80CA0EA
:1022F000CDF810800595069607970DEB0701484627
:1023000001F0E8F94FF00409CDF80C90CDF81080F9
:10231000CDF814B0069607970DEB07012E4801F093
:10232000D9F92E482E4B03604FF00063436085605F
:10233000C5604FF480630361C0F814A04FF480437C
:1023400083612023C3610562C0F8249086624FF444
:102350000003C3624FF40013036301F01FF8002869
:1023600031D11E4B23649C631E481F4B03604FF00A
:1023700000634360402383600023C3604FF48062A6
:1023800002614FF4805242614FF480428261202208
:10239000C261036204234362032383624FF4000398
:1023A000C3624FF40013036300F0F8FF70B90D4BE4
:1023B000E3639C6300221146312000F04BFF312083
:1023C00000F058FF55E700F083FDCAE700F080FDFC
:1023D000EDE700BF002C0140000C0240B4050020D6
:1023E0005864024054050020A064024000080240E6
:1023F00000B58BB0002305930693079308930993C8
:102400000368274A934205D0264A934225D00BB051
:102410005DF804FB00210191234B5A6C42F4805279
:102420005A645A6C02F480520192019A02911A6B1A
:1024300042F001021A631B6B03F001030293029B3B
:10244000E0230593022306930323089305230993AE
:1024500005A9164801F03EF9D9E700210391124B76
:102460001A6C42F400421A641A6C02F4004203929D
:10247000039A04911A6B42F002021A631B6B03F079
:1024800002030493049B382305930223069303233A
:1024900008930623099305A9054801F01BF9B6E73F
:1024A00000300140003C0040003802400000024083
:1024B0000004024030B58BB00023059306930793C8
:1024C000089309930368424A934205D00446414A5F
:1024D000934225D00BB030BD002101913E4B5A6C88
:1024E00042F010025A645A6C02F010020192019AF2
:1024F00002911A6B42F001021A631B6B03F0010395
:102500000293029B4FF4C0630593022306930323B7
:1025100008930723099305A9304801F0DBF8D9E7B0
:10252000002503952C4B1A6C42F400321A641A6C85
:1025300002F400320392039A04951A6B42F00102EE
:102540001A631B6B03F001030493049B0C23059394
:1025500002230693032308930723099305A91F4821
:1025600001F0B8F81E481F4B03604FF00063436052
:102570008560C5604FF48063036145618561C56115
:102580000562456200F00AFFD8B9154BE3639C630E
:102590001548164B03604FF000634360402383608F
:1025A0000023C3604FF48062026143618361C361B1
:1025B0000362436200F0F2FE30B90B4BA3639C63ED
:1025C00088E700F085FCE0E700F082FCF5E700BF5B
:1025D000001001400044004000380240000002406A
:1025E000B40300208860024054030020A060024031
:1025F000FEE7FEE7FEE7FEE7FEE77047704770473D
:1026000008B500F0ADFD08BD08B5024800F074FF44
:1026100008BD00BFB403002008B5024800F06CFFFD
:1026200008BD00BF5403002008B5024803F048FF6E
:1026300008BD00BF1406002008B5024800F05CFF8A
:1026400008BD00BFB405002008B5024802F0D5FB64
:1026500008BD00BF281E002008B5024800F04CFF4E
:1026600008BD00BF540500200120704708B50DF0DB
:1026700057FA162303604FF0FF3008BD08B54FF03E
:10268000FF31FFF7F3FFFEE770B50C461646002555
:1026900006E0AFF30080214601F8010B01350C463E
:1026A000B542F6DB304670BD4FF0FF3070474FF457
:1026B00000534B6000207047012070470020704796
:1026C00010B503460C4A0D490D48006840B10C484E
:1026D00000680344521A934206D8094A136010BD99
:1026E0000748084C0460F2E70DF01AFA0C23036067
:1026F0004FF0FF30F3E700BF0000022000080000A9
:1027000028030020A8260020034AD2F8883043F48A
:102710007003C2F88830704700ED00E008B513463A
:102720000A460146014804F00EFD08BD5C04002085
:1027300008B509F0C1FC08BD00B587B08DF80F00E1
:102740006423009301230DF117020DF10F010448DA
:1027500004F0D1F99DF8170007B05DF804FB00BF45
:10276000FC040020F8B5104F00228021384601F00B
:10277000AEF89F20FFF7E0FFA520FFF7DDFF06463C
:10278000A520FFF7D9FF0446A520FFF7D5FF054692
:1027900001228021384601F09AF8240244EA0644D6
:1027A00044EA0500F8BD00BF000C024010B500224D
:1027B0008021104801F08BF84B20FFF7BDFF00246B
:1027C000032C05D8A520FFF7B7FF0134E4B2F7E7E3
:1027D000002407E0A520FFF7AFFF074B2344587004
:1027E0000134E4B2072CF5D901228021014801F01F
:1027F0006EF810BD000C02402C03002010B5094CEF
:1028000000228021204601F062F80620FFF794FFA5
:1028100001228021204601F05AF8012000F0B2FC8C
:1028200010BD00BF000C024010B5044600228021FC
:10283000164801F04CF8012C12D0022C1BD01520A8
:10284000FFF77AFFA520FFF777FF0446104B83F8C8
:102850002600012280210D4801F039F8204610BDE4
:102860000520FFF769FFA520FFF766FF0446084B28
:1028700083F82400EDE73520FFF75EFFA520FFF782
:102880005BFF0446024B83F82500E2E7000C0240A0
:102890002C03002010B5012000F074FC00228021E0
:1028A0000C4801F014F80520FFF746FFA520FFF7BC
:1028B00043FF094C84F82400012000F063FC94F8E5
:1028C000243013F0010FF1D101228021014800F0E2
:1028D000FEFF10BD000C02402C03002010B5444B3D
:1028E000012283F8272002E0012000F04BFC00F0D9
:1028F00043FC6328F8D9012280213E4800F0E7FF1D
:10290000642000F03FFCFFF72DFF80B2A0F580406F
:102910001138092866D8DFE800F05F59534D474168
:102920003B342D05324B0A221A704FF48062DA6173
:102930002F4C4FF4807363814FF480532361E3691C
:102940001A0162611B041A0AE2604FF48032A2612C
:102950009B0A2362FFF72AFF0120FFF765FF022091
:10296000FFF762FF0320FFF75FFF002384F82730A3
:10297000012010BD1E4B09221A704FF40072DA615B
:10298000D6E71B4B08221A704FF48072DA61CFE74A
:10299000174B07221A708022DA61C9E7144B06220E
:1029A0001A704022DA61C3E7114B05221A70202207
:1029B000DA61BDE70E4B04221A701022DA61B7E724
:1029C0000B4B03221A700822DA61B1E7084B02228E
:1029D0001A700422DA61ABE7054B01221A70022259
:1029E000DA61A5E70020024B83F82700C1E700BFAA
:1029F0002C030020000C024070B502E0012000F022
:102A0000C1FB114B93F82730012BF7D00E4C012658
:102A100084F82760FFF7F2FE0C4D00228021284643
:102A200000F055FFC720FFF787FE32468021284679
:102A300000F04DFFFFF72EFF0A2000F0A3FB00235C
:102A400084F8273070BD00BF2C030020000C02402A
:102A500070B5064602E0012000F094FB1C4B93F891
:102A60002730012BF7D01A4D012385F82730FFF7C7
:102A700011FF2C6906FB04F4FFF7C0FE0022802141
:102A8000144800F024FF2020FFF756FE2B78082B77
:102A900019D8C4F30740FFF74FFEC4F30720FFF730
:102AA0004BFEE0B2FFF748FE01228021094800F00A
:102AB0000EFFFFF7EFFE012000F064FB044B002245
:102AC00083F8272070BD200EFFF736FEE1E700BF38
:102AD0002C030020000C0240034A538900FB03F33F
:102AE0001069B3FBF0F070472C0300202DE9F04192
:102AF0000746884615461E4602E0012000F042FBCC
:102B0000254C94F827C0BCF1010FF6D0012284F8BF
:102B10002720721963899A4200D806B95E1B721980
:102B2000934200D25E1BFFF7B5FEFFF767FE00225F
:102B300080211A4800F0CBFE0220FFF7FDFD164B66
:102B40005A8908FB02551B78082B20D8C5F307408B
:102B5000FFF7F2FDC5F30720FFF7EEFDE8B2FFF740
:102B6000EBFD6423B2B239460D4803F0E2FE0122C8
:102B700080210A4800F0ABFEFFF78CFE012000F038
:102B800001FB054B002283F82720BDE8F081280EC9
:102B9000FFF7D2FDDAE700BF2C030020000C024053
:102BA000FC040020F8B505460C46164602E001205C
:102BB00000F0E8FA1C4B93F82730012BF7D01A4F9E
:102BC000012387F8273000228021184800F07FFE7B
:102BD0000B20FFF7B1FD3B78082B21D8C4F3074049
:102BE000FFF7AAFDC4F30720FFF7A6FDE0B2FFF749
:102BF000A3FD0020FFF7A0FD4FF4FA63B2B229460F
:102C00000B4804F0A2F801228021084800F05FFE82
:102C1000012000F0B7FA044B002283F82720F8BD0A
:102C2000200EFFF789FDD9E72C030020000C02409D
:102C3000FC0400202DE9F0410746884615461E4653
:102C400002E0012000F09EFA234C94F827C0BCF16A
:102C5000010FF6D0012284F827206389B34202D302
:102C600016B91E4600E01E467219934200D25E1B42
:102C700008FB035500228021184800F028FE0B2095
:102C8000FFF75AFD144B1B78082B21D8C5F30740DA
:102C9000FFF752FDC5F30720FFF74EFDE8B2FFF73F
:102CA0004BFD0020FFF748FD6423B2B239460C48C3
:102CB00004F04BF801228021084800F008FE0120B2
:102CC00000F060FA044B002283F82720BDE8F08171
:102CD000280EFFF731FDD9E72C030020000C02403D
:102CE000FC040020054B064A1A6000225A609A60D4
:102CF000DA601A615A6104229A6170471406002052
:102D0000002C01402DE9F0438DB000240794089475
:102D100009940A940B9401944A4B1A6B42F01002E6
:102D20001A631A6B02F010020192019A02941A6B54
:102D300042F080021A631A6B02F080020292029A39
:102D400003941A6B42F001021A631A6B02F001023B
:102D50000392039A04941A6B42F004021A631A6BEA
:102D600002F004020492049A05941A6B42F00202E3
:102D70001A631A6B02F002020592059A06941A6B06
:102D800042F008021A631B6B03F008030693069BCC
:102D9000DFF8BC90224641F68C71484600F097FD62
:102DA000294F22461021384600F091FD274E01227E
:102DB0008021304600F08BFDDFF898802246C0214C
:102DC000404600F084FD41F68C7307930125089579
:102DD00009940A9407A9484600F07CFC1023079345
:102DE000089509940A9407A9384600F073FC4FF43B
:102DF000004307934FF488130893099407A93046BA
:102E000000F068FC4FF08009CDF81C900894022374
:102E1000099307A9384600F05DFCCDF81C90089591
:102E200009940A9407A9304600F054FCC023079384
:102E3000089509940A9407A9404600F04BFC0DB090
:102E4000BDE8F0830038024000080240000C024058
:102E5000001002400004024010B582B0002400942B
:102E60001A4B1A6B42F480021A631A6B02F4800246
:102E70000092009A01941A6B42F400121A631B6BC1
:102E800003F400130193019B22462146102000F019
:102E9000E1F9102000F0EEF922462146112000F061
:102EA000D9F9112000F0E6F9224621463B2000F036
:102EB000D1F93B2000F0DEF922462146452000F002
:102EC000C9F9452000F0D6F902B010BD0038024023
:102ED00072B6FEE700B595B03022002108A80CF0CC
:102EE00039FD0023039304930593069307930193FD
:102EF0001F4A116C41F080511164126C02F0805233
:102F00000192019A02931B4B1A6842F480421A60A4
:102F10001B6803F480430293029B012308934FF440
:102F20008033099302230E934FF480020F92042200
:102F300010924822119212930323139308A802F0CF
:102F400067FA80B90F2303930221049100230593AC
:102F50004FF480520692079303A802F0C3FC20B9F5
:102F600015B05DF804FBFFF7B3FFFFF7B1FF00BF3B
:102F7000003802400070004008B50A480A4B036060
:102F80000A4B436000238360C3604FF480420261B8
:102F900043618361C361036200F06AFF00B908BD49
:102FA000FFF796FF9806002000580040A086010019
:102FB00008B50D480D4B03604FF482734360002346
:102FC0008360C360036143614FF400728261102229
:102FD000C2610362436283620A23C36203F04AFC54
:102FE00000B908BDFFF774FFA4040020003C0040B6
:102FF00008B50D480D4B03604FF482734360002306
:103000008360C360036143614FF4007282611022E8
:10301000C2610362436283620A23C36203F02AFC33
:1030200000B908BDFFF754FFFC0400200030014048
:1030300008B50A480A4B03604FF416534360002357
:103040008360C36003610C2242618361C36104F049
:103050004AF800B908BDFFF73BFF00BF1404002089
:103060000044004008B50A480A4B03604FF4E133BE
:10307000436000238360C36003610C22426183616B
:10308000C36104F030F800B908BDFFF721FF00BFAD
:103090005C0400200010014008B500F047F8FFF77D
:1030A00019FFFFF72FFEFFF7D7FEFFF765FFFFF7CA
:1030B0007FFFFFF717FE05F0C5FDFFF799FFFFF74C
:1030C000B7FF08F0A7FFFFF7CDFF034803F0D2FBDF
:1030D000024803F0CFFB08BDFC040020A40400203C
:1030E00010B504460E4B1A784FF47A73B3FBF2F323
:1030F0000C4A1068B0FBF3F000F0C0F868B90F2C70
:1031000001D901200AE0002221464FF0FF3000F0F3
:10311000A1F8054B1C60002000E0012010BD00BF9D
:10312000100000200C0000201400002008B50B4BFC
:103130001A6842F400721A601A6842F480621A60D7
:103140001A6842F480721A60032000F071F80F20B0
:10315000FFF7C6FFFFF72CF8002008BD003C024037
:10316000034A1168034B1B780B441360704700BF80
:10317000EC06002010000020014B1868704700BFCB
:10318000EC06002038B50446FFF7F6FF0546B4F11B
:10319000FF3F02D0044B1B781C44FFF7EDFF401BA0
:1031A000A042FAD338BD00BF10000020002807DB82
:1031B00000F01F02400901239340024A42F82030E8
:1031C000704700BF00E100E0002808DB0901C9B238
:1031D00000F1604000F5614080F80013704700F096
:1031E0000F000901C9B2014B1954704714ED00E0FA
:1031F00000B500F00700C0F1070CBCF1040F28BFB8
:103200004FF0040C031D062B0FD9C31E4FF0FF3ED9
:103210000EFA0CF021EA000199400EFA03FE22EAB0
:103220000E0241EA02005DF804FB0023EEE7000015
:10323000074AD36823F4E0631B041B0C000200F46C
:10324000E060034343F0BF6343F40033D36070474F
:1032500000ED00E010B50446054BD868C0F302202D
:10326000FFF7C6FF01462046FFF7AEFF10BD00BFC7
:1032700000ED00E008B5FFF799FF08BD0138B0F197
:10328000807F0BD24FF0E0235861054AF02182F88D
:1032900023100020986107221A61704701207047AF
:1032A00000ED00E030B405682C6824F480242C6024
:1032B000046863608368402B05D0036899600368E5
:1032C000DA6030BC704703689A600368D960F8E739
:1032D00010B40368D9B210390A4AA2FB014212099C
:1032E000094CA25CC2655F2907D96FF30903043357
:1032F0008365806D5DF8044B70476FF30903836548
:10330000F7E700BFABAAAAAA644E0108836A8269E4
:1033100092B9012B0AD0022B02D00BB100207047CA
:10332000C36A13F0807F28D100207047C36AB3F1CD
:10333000C07F24D000207047B2F5005F09D0022B77
:1033400025D9032B25D1C36A13F0807F23D1002018
:103350007047032B03D8DFE803F01404140A00209D
:103360007047C36A13F0807F0DD100207047C36A95
:10337000B3F1C07F09D000207047012070470120C1
:1033800070470120704701207047012070470120DD
:1033900070470020704701207047000070B5044658
:1033A000FFF7EAFE002C5BD00546022384F8353097
:1033B000002384F834302268136823F0010313607B
:1033C00023681A6812F0010F0AD0FFF7D5FE431BDD
:1033D000052BF5D920236365032084F8350070BDE3
:1033E0001A68204911406268A0680243E0680243FD
:1033F0002069024360690243A0690243E069024315
:10340000206A02430A43616A04291ED01A602668B2
:10341000756925F00705636A1D43042B07D1A36A6C
:103420001D43E36A1BB12046FFF770FF90B9756139
:103430002046FFF74DFFE26D3F239340836000205D
:103440006065012384F83530C9E7E16A206B0143E8
:103450000A43DBE740236365012084F83500BEE7BB
:103460000120BCE73F8010F038B50446856D90F828
:10347000340001282BD0012084F8340094F8350062
:10348000C0B2012804D0002384F83430022038BDB3
:10349000022084F83500002060652046FFF702FF17
:1034A000E26D3F239340AB602268136843F016033C
:1034B0001360236C23B12268136843F00803136080
:1034C0002268136843F0010313600020DFE7022045
:1034D000DDE790F83530DBB2022B03D08023436563
:1034E00001207047052380F835300268136823F007
:1034F0000103136000207047F0B583B00446002339
:103500000193724B1D68724BA3FB0535AD0A876DA5
:103510003E68C26D08239340334210D003681A6896
:1035200012F0040F0BD01A6822F004021A60C26D68
:1035300008239340BB60436D43F001034365E26D94
:1035400001239340334209D02268526912F0800F60
:1035500004D0BB60636D43F002036365E26D042336
:103560009340334209D02268126812F0020F04D04F
:10357000BB60636D43F004036365E26D1023934009
:10358000334224D02268126812F0080F1FD0BB60AB
:1035900023681A6812F4802F0DD01B6813F4002FD3
:1035A00004D1236C9BB12046984710E0A36C73B103
:1035B000204698470BE01A6812F4807F03D11A68FE
:1035C00022F008021A60236C0BB120469847E26D86
:1035D00020239340334255D02268126812F0100F16
:1035E00050D0BB6094F83530DBB2052B0ED0236889
:1035F0001A6812F4802F33D01B6813F4002F2AD1DD
:10360000636C002B3ED0204698473BE0226813684D
:1036100023F0160313602268536923F0800353617B
:10362000236CA3B12268136823F008031360E26DD2
:103630003F239340BB60012384F83530002384F896
:103640003430236D002B3FD0204698473CE0A36CDC
:10365000002BE7D1EBE7E36BA3B12046984711E0DD
:103660001A6812F4807F09D11A6822F010021A60D9
:10367000012384F83530002384F83430E36B0BB138
:1036800020469847636DFBB1636D13F0010F17D0AF
:10369000052384F835302268136823F00103136092
:1036A000019B01330193AB4204D823681B6813F0DC
:1036B000010FF5D1012384F83530002384F834302C
:1036C000E36C0BB12046984703B0F0BD0C0000201E
:1036D000B5814E1B00230F2B00F2E98070B582B03C
:1036E00065E085684FEA430E032404FA0EF425EAE8
:1036F0000405CC6804FA0EF42C438460446824EA80
:1037000002044A68C2F300129A40224342605CE01D
:10371000DC08083450F8242003F00705AD004FF012
:103720000F0E0EFA05FE22EA0E0E0A69AA4042EAC0
:103730000E0240F824205CE0072200E0002202FA9A
:103740000EF22A4302345A4D45F82420594A94680F
:103750006FEA0C0224EA0C054E6816F4801F01D0B3
:103760004CEA0405534CA560E46802EA04054E687F
:1037700016F4001F01D04CEA04054E4CE560646865
:1037800002EA04054E6816F4003F01D04CEA040535
:10379000484C6560246822404D6815F4803F01D094
:1037A0004CEA0402434C226001330F2B7DD80122E6
:1037B0009A400C6804EA020C32EA0404F4D14C6822
:1037C00004F00304013C012C8BD94A6802F0030287
:1037D000032A09D0C4685D000322AA4024EA020437
:1037E0008A68AA402243C2604A6802F00302022AA1
:1037F0008ED004684FEA430E032202FA0EF224EA46
:1038000002044A6802F0030202FA0EF22243026046
:103810004A6812F4403FC7D000220192264A546CF5
:1038200044F480445464526C02F480420192019A40
:103830009C08A51C1E4A52F8255003F0030E4FEABF
:103840008E0E0F2202FA0EF225EA02051B4A904262
:103850003FF474AF02F5806290421AD002F58062A4
:10386000904218D002F58062904216D002F5806234
:10387000904214D002F58062904212D002F580622C
:10388000904210D002F5806290423FF455AF08227A
:1038900055E7012253E7022251E703224FE70422B2
:1038A0004DE705224BE7062249E702B070BD70479D
:1038B00000380140003C0140003802400000024056
:1038C0000369194201D001207047002070470AB1F6
:1038D0008161704709048161704703685A6912F475
:1038E000806F01D1002070476FF480625A6100231D
:1038F0000363202280F83D2080F83E30026C42F0C5
:103900000402026480F83C30012070472DE9F04148
:1039100006460C46174698463BE0FFF72DFC069BF3
:10392000C01A404502D8B8F1000F32D1012D18D08D
:1039300033689B6924EA03039BB2B3FA83F35B0900
:103940009F4226D100233363202286F83D2086F84B
:103950003E30326C42F02002326486F83C30012066
:1039600027E033685B6924EA03039BB2B3FA83F36D
:103970005B09E5E733685B6924EA030C1FFA8CFCFA
:10398000BCFA8CFC4FEA5C1C674511D1B8F1FF3FD3
:10399000C3D1C4F30745012DECD033689B6924EAF9
:1039A000030C1FFA8CFCBCFA8CFC4FEA5C1CEBE7A6
:1039B0000020BDE8F0812DE9F84305460E4690460B
:1039C000994653E01A6842F400721A602B686FF44B
:1039D00080625A6100232B63202285F83D2085F800
:1039E0003E302A6C42F004022A6485F83C30012003
:1039F0004AE0FFF7C1FBA0EB0900404502D8B8F14F
:103A0000000F33D1012F17D02B689B6926EA0303DF
:103A10009BB2003B18BF012343B300232B6320223A
:103A200085F83D2085F83E302A6C42F020022A6459
:103A300085F83C30012027E02B685B6926EA030308
:103A40009BB2003B18BF0123E6E72B689C6926EA7E
:103A50000404A4B2003C18BF0124A4B12B685A6925
:103A600012F4806FAED1B8F1FF3FC2D1C6F3074761
:103A7000012FEAD12B685C6926EA0404A4B2003C59
:103A800018BF0124E9E70020BDE8F883F0B583B052
:103A900004460D4616461F46C36A082B0DD0012B5F
:103AA0000BD013F5803F08D0036B122B0AD10268AC
:103AB000136843F48073136004E02268136843F4CE
:103AC000807313600097334600224FF001112046A7
:103AD000FFF71CFF80B92369B3F5804F16D1236827
:103AE00005F0FE051D613B46324613492046FFF7AF
:103AF00062FFF8B903B0F0BD23681B6813F4807F40
:103B000002D04FF4007323640320F3E7EB11226823
:103B100003F0060343F0F00313613B4632460749C6
:103B20002046FFF748FF18B92368EDB21D61DAE7B8
:103B30000120DFE70120DDE70200010008000100AD
:103B40002DE9F04184B004460D4616461F46C26A70
:103B500001680B6843F480630B60082A0DD0012ACA
:103B60000BD012F5803F08D0036B112B0AD10268ED
:103B7000136843F48073136004E02268136843F40D
:103B8000807313600097334600224FF001112046E6
:103B9000FFF7BCFE98B92369B3F5804F19D12368AC
:103BA00045F00105EDB21D613B4632462A492046EB
:103BB000FFF701FF00284CD104B0BDE8F081236875
:103BC0001B6813F4807F02D04FF40073236403203A
:103BD000F2E74FEAE51808F00608236848F0F0021B
:103BE0001A613B4632461D492046FFF7E4FE08B104
:103BF0000120E1E72368EDB21D613B4632461649DC
:103C00002046FFF7D8FE08B10120D5E70022039235
:103C1000236859690391996903910399196841F4DB
:103C200080711960009733464FF001112046FFF76D
:103C30006DFE20B9226848F0F1031361B4E72368F0
:103C40001B6813F4807F02D04FF4007323640320B9
:103C5000B2E70120B0E700BF020001000800010048
:103C600070B504460D46164623685B6913F0800F55
:103C700021D12046FFF731FEF8B9B5F1FF3FF3D06F
:103C8000FFF77AFA801BA84201D8002DECD12368F7
:103C90005B6913F0800FE7D100232363202284F8AF
:103CA0003D2084F83E30226C42F02002226484F8E9
:103CB0003C30012000E0002070BD0120FCE7000046
:103CC0002DE9F04385B004460D4691461F46DDF8C8
:103CD00030800D9E0368196841F480711960009668
:103CE000434600224FF00111FFF710FE60B9236830
:103CF00005F0FE051D613346424626492046FFF782
:103D00005AFE68B1012008E023681B6813F4807F25
:103D100002D04FF400732364032005B0BDE8F083A4
:103D20000023039323685A6903929B690393039BBF
:103D3000324641462046FFF793FF30B9012F0FD19D
:103D400023685FFA89F61E61E7E7236C042B01D034
:103D50000120E2E72268136843F400731360F7E779
:103D600023684FEA19221A61324641462046FFF77E
:103D700077FF20B923685FFA89F61E61CDE7236CCF
:103D8000042B01D00120C8E72268136843F40073B4
:103D90001360F7E70200010070B504460D461646B1
:103DA00023685B6913F0040F21D12046FFF795FDCE
:103DB000F8B9B5F1FF3FF3D0FFF7DEF9801BA84259
:103DC00001D8002DECD123685B6913F0040FE7D113
:103DD00000232363202284F83D2084F83E30226CA7
:103DE00042F02002226484F83C30012000E00020F0
:103DF00070BD0120FCE770B504460D46164614E080
:103E00006FF010025A6100232363202284F83D20C2
:103E100084F83E30226C226484F83C30012025E096
:103E200023685B6913F0400F10D02368586910F0C5
:103E3000400F1AD1586910F0100FE1D1FFF79CF92B
:103E4000801BA842ECD8002DEFD1E9E700232363C3
:103E5000202284F83D2084F83E30226C42F020027B
:103E6000226484F83C30012000E0002070BD000096
:103E7000002800F0CC8070B5044690F83D30002B4F
:103E800077D0242384F83D302268136823F001039F
:103E900013602268136843F40043136022681368B8
:103EA00023F40043136001F0D3FD62685A4B9A4239
:103EB00064D85A4B98428CBF00230123002B40F05A
:103EC000A8805749A1FB00318B0C25686A6822F055
:103ED0003F0242EA91426A6021680A6A22F03F0288
:103EE00066684D4DAE424FD8013313430B622168D3
:103EF000CA6922F44F4222F0FF026568464B9D4298
:103F00004CD8431E6D00B3FBF5F3013340F6FC7053
:103F1000034278D0C3F30B031A43CA6121680B68CC
:103F200023F0C003E269206A024313430B60216857
:103F30008B6823F4034323F0FF032269E068024304
:103F400013438B602168CB6823F0FF036269A0698B
:103F500002431343CB602268136843F001031360EC
:103F600000202064202384F83D30206384F83E0044
:103F700070BD80F83C30FEF737F982E7294B984254
:103F80008CBF0023012399E74FF4967505FB03F3DB
:103F9000254DA5FB03539B090133A6E7A668BEB9CF
:103FA000431E05EB450CB3FBFCF30133C3F30B03DA
:103FB000B3FA83F35B0943BBC6B9431E05EB450562
:103FC000B3FBF5F30133C3F30B0343F40043A3E75F
:103FD000431E05EB850C0CEB8C0CB3FBFCF301339F
:103FE000C3F30B03B3FA83F35B09E4E7431E05EB6A
:103FF000850505EB8505B3FBF5F30133C3F30B032F
:1040000043F4404388E7042386E7012384E7012043
:1040100070470120ACE700BFA08601007F841E002E
:1040200083DE1B43FF083D00D34D62102DE9F043B2
:1040300085B004460F46914698460C9EFFF79CF8C3
:10404000054694F83D00C0B2202804D00227384627
:1040500005B0BDE8F0830095192301224F492046A1
:10406000FFF754FC002840F0928094F83C30012B7C
:1040700000F08F80012384F83C3023681A6812F026
:10408000010F03D11A6842F001021A602268136816
:1040900023F400631360212384F83D30102384F857
:1040A0003E3000232364C4F82490A4F82A80638D52
:1040B00023853B4BE3622B46324639462046FFF7C9
:1040C000E5FC0746002866D10023039323685A695C
:1040D00003929B690393039B11E0236C042B01D093
:1040E0000127B4E72268136843F400731360F7E70D
:1040F0002A4631462046FFF74FFE00282ED1238D59
:10410000002B36D02A4631462046FFF7A9FD00286D
:10411000E3D1626A236812781A61606A431C6362A1
:10412000618D89B2013989B26185238D013B9BB2D2
:1041300023852268516911F0040FD9D0002BD7D004
:1041400043781361636A01336362638D9BB2013B01
:104150009BB26385238D013B2385C9E7236C042B28
:1041600001D0012773E72268136843F400731360DA
:10417000F7E72268136843F400731360202384F880
:104180003D30002384F83E3084F83C305FE702275E
:104190005DE702275BE7012759E700BF0200100037
:1041A0000000FFFF2DE9F04387B004460F4691461B
:1041B00098460E9EFEF7E0FF054694F83D00C0B21B
:1041C000202804D00227384607B0BDE8F0830095C8
:1041D0001923012289492046FFF798FB002840F067
:1041E0004F8194F83C30012B00F04C81012384F87E
:1041F0003C3023681A6812F0010F03D11A6842F0AC
:1042000001021A602268136823F4006313602223FA
:1042100084F83D30102384F83E3000232364C4F832
:104220002490A4F82A80638D2385754BE3622B4686
:10423000324639462046FFF783FC0746002840F007
:104240002381238D5BB9029323685A6902929A698C
:104250000292029A1A6842F400721A607AE0012B04
:104260000FD0022B1FD02268136843F480631360C1
:104270000023059323685A6905929B690593059B62
:1042800068E02268136823F48063136000230393BB
:1042900023685A6903929A690392039A1A6842F44E
:1042A00000721A6056E02268136823F4806313607A
:1042B0002268136843F400631360002304932368A7
:1042C0005A6904929B690493049B43E02A46314651
:1042D0002046FFF790FD002840F0D88023681A6937
:1042E000636A1A70636A01336362238D013B23851D
:1042F000638D9BB2013B9BB263852BE000953346F7
:10430000002240492046FFF701FB002840F0C08012
:104310002268136843F40073136023681A69636AA0
:104320001A70626A531C6362238D013B2385638D7F
:104330009BB2013B9BB2638523681B695370636A20
:1043400001336362238D013B2385638D9BB2013B67
:104350009BB26385218D002900F08980032953D801
:104360000129B3D00229C9D000953346002225493E
:104370002046FFF7CBFA002840F08C8022681368B3
:1043800023F48063136023681A69636A1A70636A8E
:1043900001336362238D013B2385618D89B201392D
:1043A00089B2618500953346002216492046FFF701
:1043B000ADFA002870D12268136843F400731360CB
:1043C00023681A69636A1A70626A531C6362238DD8
:1043D000013B2385638D9BB2013B9BB263852368C0
:1043E0001B695370636A01336362238D013B23852C
:1043F000638D9BB2013B9BB26385ABE7020010006B
:104400000000FFFF040001002A4631462046FFF766
:10441000F2FC002842D123681A69636A1A70636A41
:1044200001336362228D013A92B22285638D9BB281
:10443000013B9BB263852368596911F0040F89D051
:10444000032A0FD023681A69636A1A70636A0133FA
:104450006362238D013B2385638D9BB2013B9BB23D
:10446000638577E71A6822F480621A60EAE72023FE
:1044700084F83D30002384F83E3084F83C30A2E6D6
:104480000227A0E602279EE601279CE601279AE67E
:10449000012798E6012796E6012794E6012792E690
:1044A0002DE9F04383B004460F46904699460C9E92
:1044B000FEF762FE054694F83D00C0B2202803D006
:1044C000022003B0BDE8F0830095192301224B4977
:1044D0002046FFF71BFA002840F0898094F83C3012
:1044E000012B00F08680012384F83C3023681A6891
:1044F00012F0010F03D11A6842F001021A6022681B
:10450000136823F400631360212384F83D304023B3
:1045100084F83E30002323640A9B6362BDF82C308C
:104520006385638D2385364BE362019500964B4688
:10453000424639462046FFF7C3FB00285BD1238D56
:10454000002B35D02A4631462046FFF789FB20BB99
:10455000626A236812781A61626A531C6362218D51
:10456000013989B22185638D9BB2013B9BB2638582
:104570002368586910F0040FE1D00029DFD0527889
:104580001A61636A01336362238D013B2385638D66
:104590009BB2013B9BB26385D1E7236C042B01D016
:1045A00001208EE72268136843F400731360F7E775
:1045B0002A4631462046FFF7EFFB50B1236C042B0F
:1045C00001D001207DE72268136843F40073136073
:1045D000F7E72268136843F400731360202384F81C
:1045E0003D30002384F83E3084F83C3069E70220F7
:1045F00067E7022065E7012063E700BF02001000C3
:104600000000FFFF2DE9F04385B00446884691463F
:104610001D46FEF7B1FD94F83D30DBB2202B03D0F0
:10462000022005B0BDE8F083064600901923012260
:1046300057492046FFF76AF9002840F0A08094F817
:104640003C30012B00F09D80012384F83C3023682E
:104650001A6812F0010F03D11A6842F001021A60C1
:104660002268136823F400631360242384F83D3028
:1046700000272764474BE36240E023681B6813F47C
:10468000807F02D04FF4007323640320C9E7A02386
:1046900084F83D3022685369C3F340035269C2F382
:1046A000802294F83DC05FFA8CFCBCF1A00F09D0C9
:1046B00043B93AB9FEF760FD801BA842E7D8002D48
:1046C000E8D1E4E7202384F83D3023685A6912F0EA
:1046D000020F31D11A6842F400721A6023686FF435
:1046E00080625A6100961923012229492046FFF76A
:1046F0000DF9002849D101374F4538D22268136897
:1047000043F48073136000962B4600224FF0011192
:104710002046FFF7FBF80028AFD1236808F0FE021F
:104720001A61FEF729FD064622685369C3F3400368
:104730005269C2F38022B4E71A6842F400721A6028
:104740000023039323685A6903929B690393039B95
:104750000096192301220E492046FFF7D7F890B999
:10476000202384F83D30002384F83C3059E720238F
:1047700084F83D30002384F83C30012051E70220CA
:104780004FE702204DE701204BE7012049E700BF3A
:10479000020010000000FFFF2DE9F04383B0D0F8C5
:1047A000008001EBC10300EB83039A6A5B6A9A42C3
:1047B00054D807460C469B1A01EBC10200EB82025B
:1047C000D2699A4200D31A4602F103094FEA9909C5
:1047D00015E006F103094FEA9909BB7904EBC4051A
:1047E00007EB8505296A0093B3B2E2B2404603F0B5
:1047F000A2FC2B6A33442B62AB6A3344AB6208EBF6
:10480000441303F510639B699BB24B4512D304EB31
:10481000C40307EB83039A6A5B6A9A420AD24BB1DC
:104820009B1A04EBC40207EB8202D6699E42D0D3E6
:104830001E46CEE704EBC40307EB83077A6ABB6A24
:104840009A420FD804F00F040122A240D8F834385D
:1048500023EA0203C8F83438002000E0012003B046
:10486000BDE8F0830020FAE730B583B000287AD0A5
:104870000446056890F89534C3B1032384F8953451
:10488000B5F1A04F17D0206803F008FA237C8DF80B
:104890000030231D0ECB206803F03EF970B10223D7
:1048A00084F895340125284603B030BD80F894344F
:1048B00007F0B2FCE1E70023A371E4E700212068E0
:1048C00003F04FFE024608B9034617E0022384F8BE
:1048D00095340125E7E703EBC30104EB81010120D7
:1048E00048750B75CB8500200876C861086203EB1C
:1048F000C30104EB810148620133DBB220799842A5
:10490000E9D816E002EBC20304EB8303002183F82D
:10491000551283F8542283F85812C3F85C12C3F876
:10492000601202EBC20304EB8303C3F8641201328A
:10493000D2B29042E6D8237C8DF80030231D0ECBF6
:10494000206803F001FA054620B1022384F895346B
:104950000125A8E700236374012384F895342068B7
:1049600003F0BEFD9FE701259DE7036890F89424BE
:10497000012A1AD010B50446012280F89424DA687E
:1049800012F0400F02D0427B012A09D0206803F0C8
:104990007FF9206803F096FD002084F8940410BD90
:1049A0009A6B42F480329A63F0E70220704700006D
:1049B00070B504460D460068066C00EB411303F524
:1049C00030639A68A179012911D038498E4256D0B6
:1049D0003DB905EBC50304EB8303D3F86432002B28
:1049E0005ED0E9B2204607F061FC002070BD12F0F5
:1049F000080F09D02E498E42F7D912F4004FF4D097
:104A00004FF400429A60F0E712F0200F02D020220B
:104A10009A60EAE712F0280FE7D125498E4206D9BD
:104A200012F4004F03D04FF400429A60DDE705EB2B
:104A3000C50204EB8202D2F874121B69C3F312039D
:104A4000CB1AC2F868327DB905EBC50204EB8202CD
:104A5000D2F864226AB105EBC50204EB8202D2F8F7
:104A600060121944C2F86012E9B2204607F01EFC39
:104A7000BBE704F29C42012103F0B2FDF4E712F41B
:104A8000004F03D04FF400429A60AEE712F0200FBF
:104A900001D020229A60E9B2204607F007FCA4E783
:104AA00004F29C42002103F09BFD9AE70A31544F27
:104AB0000A30544F38B5044603681D6C03EB4113AC
:104AC000D3F8081B0E4A954207D903F5306311F459
:104AD000004F02D04FF400429A60204607F0DEFB00
:104AE000074B9D4202D9A379012B01D0002038BD8C
:104AF00004F29C420121206803F072FDF6E700BF3A
:104B00000A30544F90F89434012B0CD010B5044661
:104B1000012380F894344174006803F0C3FC002042
:104B200084F8940410BD0220704738B505468C46C1
:104B300011F0800F2BD101F00F0E0EEBCE04A4006C
:104B400004F514740444211D0EEBCE0E00EB8E0E02
:104B500000208EF855020CF00F0C81F800C0C2F353
:104B60000A028A600B714A780AB1A1F81AC0022BB6
:104B70001CD095F89434012B1BD0012385F8943474
:104B8000286803F0BCF9002085F8940438BD01F0D2
:104B90000F0000EBC001890010312944043100EB03
:104BA000C00005EB800001244475D4E700234B715D
:104BB000DFE70220EAE710B504460A4611F0800F4D
:104BC00020D101F00F0000EBC0039B0003F514732C
:104BD0002344191D00EBC00004EB8000002380F883
:104BE000553202F00F020A7094F89434012B18D059
:104BF000012384F89434206803F0CEF9002084F86F
:104C0000940410BD01F00F0000EBC0039B001033B3
:104C10002344191D00EBC00004EB80000123437501
:104C2000DFE70220EDE710B5144601F00F0C0CEBA6
:104C3000CC01890001F51471014404310CEBCC0E58
:104C400000EB8E0ECEF86022CEF864320023CEF850
:104C500068328EF855328EF854C28279012A04D017
:104C6000006803F07FFA002010BDCEF87042F7E72D
:104C700001F00F0101EBC10100EB8100D0F86802E7
:104C8000704710B5144601F00F0C0CEBCC018900F5
:104C90001031014404310CEBCC0E00EB8E0ECEF83B
:104CA0002020CEF824300023CEF8283001238EF8BF
:104CB00015308EF814C082799A4204D0006803F04F
:104CC00051FA002010BDCEF83040F7E738B501F0BA
:104CD0000F050279AA4238D304460B4611F0800F23
:104CE0001FD101EBC101890001F5147101440431A8
:104CF00003EBC30300EB8303002283F85522012357
:104D00008B700D7094F89434012B20D0012384F81B
:104D10009434206803F06BFB85B1002084F8940480
:104D200038BD05EBC501890010310144043105EBA4
:104D3000C50300EB830301225A75E0E704F29C42AD
:104D4000A179206803F04CFCE7E70120E8E70220A6
:104D5000E6E701F00F0302799A4230D310B504461A
:104D600011F0800F1ED103EBC301890001F514710E
:104D70000144043103EBC30200EB8202002082F8FD
:104D8000550200228A700B7094F89434012B18D0CD
:104D9000012384F89434206803F056FB002084F843
:104DA000940410BD03EBC3018900103101440431A8
:104DB00003EBC30200EB820201205075E1E7012002
:104DC00070470220EDE708B511F0800F0CD101F01B
:104DD0000F0101EBC101890001F514710144043197
:104DE000006803F049F908BD01F00F0101EBC101B2
:104DF0008900103101440431F2E72DE9F04F83B00E
:104E000004460568284603F0A8FB10B103B0BDE8CE
:104E1000F08F0646206803F071FB0028F6D005F5F8
:104E20000067BB68C3F30D23C4F8D434206803F0D3
:104E300065FB10F0020F04D02268536903F00203EF
:104E40005361206803F05AFB10F0100F15D0226850
:104E5000936923F010039361D5F8208008F00F09BF
:104E600008F4F013B3F5802F4CD0B3F5402F6FD07A
:104E70002268936943F010039361206803F03EFBBE
:104E800010F4002F76D1206803F038FB10F4802F47
:104E900040F0E080206803F031FB0028C0F261811F
:104EA000206803F02BFB10F4006F09D0BB6813F0EF
:104EB000010F40F06E812268536903F4006353616F
:104EC000206803F01BFB10F4805F40F066812068CF
:104ED00003F014FB10F4005F40F0B381206803F08E
:104EE0000DFB10F0080F40F0C481206803F006FBB2
:104EF00010F0800F00F0D781AB6923F08003AB6125
:104F00000126C0E147F6F07318EA030FB0D04FEA6C
:104F1000181A4FEAC903019309EBC90B04EB8B0B79
:104F2000C8F30A12DBF86012284603F03DFADBF8FA
:104F30006032CAF30A0A5344CBF86032DBF86832B5
:104F4000019A4A4404EB82025344C2F868328FE764
:104F5000082204F29C41284603F026FA09EBC90313
:104F600004EB8303D3F86822C8F30A184244C3F859
:104F700068227DE7206803F0C5FA8046B14635E037
:104F800005EB49130122C3F8082B49462046FFF7D9
:104F90000FFD3CE005EB49130822C3F8082B4946F6
:104FA0002046FFF787FD35E009EBC90304EB8303D7
:104FB00093F85732012B41D005EB49130222C3F875
:104FC000082B1AF0200F04D005EB49132022C3F858
:104FD000082B1AF4005F05D005EB49134FF400527B
:104FE000C3F8082B09F101094FEA5808B8F1000F7E
:104FF0003FF449AF18F0010FF4D05FFA89FB59462E
:10500000206803F08FFA824610F0010FB8D11AF031
:10501000080FBFD11AF0100F04D005EB491310226E
:10502000C3F8082B1AF0020FCBD06B6913F0800F76
:10503000BAD07B6843F480637B60B5E709EBC903B2
:1050400004EB8303002283F857225946204607F0D9
:105050007DF9B1E7206803F05DFA8046B14625E0AE
:105060005946204607F02EF91AF0080F04D005EB38
:1050700049130822C3F808291AF0100F04D005EBD1
:1050800049131022C3F808291AF0400F04D005EB89
:1050900049134022C3F808291AF0020F40D11AF030
:1050A000800F59D109F101094FEA5808B8F1000FF2
:1050B0003FF4F0AE18F0010FF4D05FFA89FB5946C7
:1050C000206803F038FA824610F0010FCCD009F0C6
:1050D0000F02012101FA02F27B6B23EA02037B63D8
:1050E00005EB4913C3F80819A3798B42B8D109EB32
:1050F000C90304EB83031A6AD9690A441A62B9F135
:10510000000FADD109EBC90304EB83035B6A002BED
:10511000A6D104F29C420121206803F061FA9FE7C6
:105120004946284602F0C0FD09EBC90304EB83039E
:10513000DB7D012B05D005EB49130222C3F80829BA
:10514000ADE709EBC90304EB83030022DA75594686
:10515000204607F001F9EEE749462046FFF71CFB21
:10516000A0E77B6823F001037B6094F8CC34012B2B
:1051700008D0204607F0E4F82268536903F00043A2
:1051800053618DE6002184F8CC14204600F03FF9ED
:10519000F2E7204607F0BCF88DE67B6823F00103B8
:1051A0007B601021206802F07FFD1AE005EB4613BA
:1051B0004FF67F31C3F80819D3F8002922F4001202
:1051C000C3F80029C3F8081BD3F8002B22F40012FF
:1051D000C3F8002BD3F8002B42F00062C3F8002B79
:1051E00001362379B342E1D8FB6943F00113FB6137
:1051F000E37BDBB1D7F8843043F00B03C7F884308E
:105200007B6C43F00B037B64D5F8003823F4FE631A
:10521000C5F8003804F29C42A179206803F0E0F957
:105220002268536903F48053536150E67B6943F469
:10523000005343F02B037B613B6943F00B033B615D
:10524000E2E7206803F0BEF9206802F047FEE07153
:10525000266800F0F7FB0146E279304602F0A6FC32
:10526000204607F040F82268536903F40053536165
:1052700034E6204607F031F82268536903F008034A
:10528000536132E601362379B3420CD906EBC603EB
:1052900004EB830393F85732012BF3D1F1B220468C
:1052A000FFF791FDEEE7206803F028F910F4801F66
:1052B00025D1206803F022F910F4001F59D00123F2
:1052C00026E001362379B3421BD905EB4613D3F808
:1052D000002906EBC60304EB83031B7E012BF0D1F0
:1052E000002AEEDA06EBC60304EB83030122DA752B
:1052F00066F07F01C9B22046FFF765FDE1E70126B0
:10530000E0E72268536903F480135361D1E7013366
:1053100022799A4228D905EB4312D2F8001B03EBFD
:10532000C30204EB820292F85822012AEFD100292D
:10533000EDDA01F48031D4F8D42402F00102914274
:10534000E5D103EBC30204EB8202012182F857127C
:10535000AA6942F08002AA616A6912F0800FD6D170
:105360007B6843F400737B602268536903F4001385
:105370005361206803F0C2F810F0804F10D120680C
:1053800003F0BCF810F0040F3FF440AD23685D68F3
:1053900015F0040F0DD1226853682B43536035E597
:1053A000204606F0DFFF2268536903F08043536113
:1053B000E5E7204606F0DCFFEDE710B40468606A1C
:1053C00031B940EA0240A06200205DF8044B70470A
:1053D0008C46A36A00EB1340002308E003F1400170
:1053E00004EB8101496800EB11400133DBB20CF1A1
:1053F000FF318B42F2D340EA02400CF13F0104EB53
:1054000081046060E0E703685962002070477047DC
:10541000002800F0E08170B582B00446036813F004
:10542000010F3BD09F4B9B6803F00C03042B2CD047
:105430009C4B9B6803F00C03082B21D06368B3F5E9
:10544000803F4FD0B3F5A02F52D0964B1A6822F46C
:1054500080321A601A6822F480221A606368002B76
:1054600050D0FDF789FE05468E4B1B6813F4003FB4
:1054700014D1FDF781FE401B6428F5D90320B1E16A
:10548000884B5B6813F4800FD8D0864B1B6813F4ED
:10549000003F03D06368002B00F09F81236813F066
:1054A000020F54D07F4B9B6813F00C0F3ED07D4B06
:1054B0009B6803F00C03082B33D0E368002B68D003
:1054C000794B01221A60FDF757FE0546754B1B68A4
:1054D00013F0020F54D1FDF74FFE401B0228F5D9FF
:1054E00003207FE16F4A136843F480331360B5E70C
:1054F0006C4B1A6842F480221A601A6842F48032B7
:105500001A60ABE7FDF738FE0546664B1B6813F4DF
:10551000003FC3D0FDF730FE401B6428F5D90320BF
:1055200060E1604B5B6813F4800FC6D15D4B1B6874
:1055300013F0020F03D0E368012B40F05081594A69
:10554000136823F0F803216943EAC1031360236859
:1055500013F0080F42D063696BB3534B0122C3F8B9
:10556000802EFDF709FE05464E4B5B6F13F0020FD0
:1055700034D1FDF701FE401B0228F5D9032031E1AB
:10558000484A136823F0F803216943EAC103136012
:10559000DDE7454B00221A60FDF7EEFD0546414B65
:1055A0001B6813F0020FD2D0FDF7E6FD401B022866
:1055B000F5D9032016E13C4B0022C3F8802EFDF7FD
:1055C000DBFD0546374B5B6F13F0020F06D0FDF78E
:1055D000D3FD401B0228F5D9032003E1236813F013
:1055E000040F77D02F4B1B6C13F0805F33D1002357
:1055F00001932C4B1A6C42F080521A641B6C03F01E
:1056000080530193019B0125284B1B6813F4807F75
:1056100023D0A368012B34D0052B38D0214B1A6F2F
:1056200022F001021A671A6F22F004021A67A368B7
:10563000002B3DD0FDF7A0FD06461A4B1B6F13F063
:10564000020F46D1FDF798FD801B41F28833984246
:10565000F3D90320C6E00025D6E7144A136843F4C3
:1056600080731360FDF788FD0646104B1B6813F42A
:10567000807FCED1FDF780FD801B0228F5D9032065
:10568000B0E0084A136F43F001031367CFE7054BFF
:105690001A6F42F004021A671A6F42F001021A6789
:1056A000C5E700BF003802400000474200700040DC
:1056B000FDF762FD0646524B1B6F13F0020F08D038
:1056C000FDF75AFD801B41F288339842F3D903203D
:1056D00088E0EDB9A369002B00F08380484A926806
:1056E00002F00C02082A51D0022B17D0454B0022A1
:1056F0001A66FDF741FD0446414B1B6813F0007F1D
:1057000042D0FDF739FD001B0228F5D9032069E0DE
:105710003B4A136C23F080531364DBE7394B0022C0
:105720001A66FDF729FD0546354B1B6813F0007F0F
:1057300006D0FDF721FD401B0228F5D9032051E0DA
:10574000E369226A1343626A43EA8213A26A520837
:10575000013A43EA0243E26A43EA0263284A536099
:10576000284B01221A66FDF707FD0446244B1B68EF
:1057700013F0007F06D1FDF7FFFC001B0228F5D9CE
:1057800003202FE000202DE000202BE0012B2BD068
:105790001B4B5B6803F48001E269914226D103F060
:1057A0003F02216A8A4223D1616A47F6C0721A40D9
:1057B000B2EB811F1ED103F44031A26A5208013AB4
:1057C000B1EB024F18D103F07063E26AB3EB026FE2
:1057D00014D1002006E001207047012002E00120E2
:1057E00000E0002002B070BD0120FBE70120F9E7D6
:1057F0000120F7E70120F5E70120F3E70120F1E7B9
:10580000003802400000474208B5334B9B6803F064
:105810000C03042B5BD0082B5BD12F4B5A6802F092
:105820003F025B6813F4800F2CD02B4B5868C0F3F9
:1058300088104FEA401CBCEB000C6EEB0E0E4FEADA
:105840008E1343EA9C634FEA8C11B1EB0C0163EBBE
:105850000E03DB0043EA5173C90011EB000C43F166
:105860000003590200234FEA4C2041EADC51FBF7C8
:10587000EBF9194B5B68C3F3014301335B00B0FBE9
:10588000F3F008BD144B5868C0F388104FEA401C71
:10589000BCEB000C6EEB0E0E4FEA8E1343EA9C63DA
:1058A0004FEA8C11B1EB0C0163EB0E03DB0043EA12
:1058B0005173C90011EB000C43F10003990200235E
:1058C0004FEA8C2041EA9C51FBF7BEF9D1E703482F
:1058D000D7E70348D5E700BF0038024000127A003E
:1058E0000024F400002800F09B8070B50D460446AB
:1058F0004F4B1B6803F007038B4208D2CBB24C4AD4
:105900001370136803F007038B4240F08B80236809
:1059100013F0020F17D013F0040F04D0454A936818
:1059200043F4E0539360236813F0080F04D0414A16
:10593000936843F4604393603E4A936823F0F00316
:10594000A1680B439360236813F0010F32D06368A2
:10595000012B21D09A1E012A25D9364A126812F04D
:10596000020F61D033498A6822F0030213438B602F
:10597000FDF702FC06462F4B9B6803F00C036268A0
:10598000B3EB820F16D0FDF7F7FB801B41F2883393
:105990009842F0D9032042E0264A126812F4003FF0
:1059A000E0D101203BE0234A126812F0007FD9D1F8
:1059B000012034E01E4B1B6803F00703AB4207D9FC
:1059C000EAB21B4B1A701B6803F00703AB422DD1E0
:1059D000236813F0040F06D0164A936823F4E053AB
:1059E000E1680B439360236813F0080F07D0114A56
:1059F000936823F46043216943EAC1039360FFF78E
:105A000003FF0C4B9B68C3F303130B4AD35CD840D2
:105A10000A4B18600A4B1868FDF762FB002070BD46
:105A2000012070470120FAE70120F8E70120F6E79E
:105A3000003C024000380240544E01080C00002097
:105A400014000020014B1868704700BF0C000020B4
:105A500008B5FFF7F7FF044B9B68C3F38223034AA3
:105A6000D35CD84008BD00BF003802404C4E01084E
:105A700008B5FFF7E7FF044B9B68C3F34233034AC3
:105A8000D35CD84008BD00BF003802404C4E01082E
:105A900070B582B0044600230193006801F037FD21
:105AA000054610B1284602B070BD206801F0F8FF2D
:105AB00038B90123A364A36C012B0BD02E462846D2
:105AC00014E00023A364206801F021FD0028F2D037
:105AD0000546E7E70021206801F080FE0028EDD0B0
