:020000040800F2
:1000000000000220C52E0008852C00088B2C00085B
:10001000912C0008972C00089D2C0008000000007F
:10002000000000000000000000000000A32C0008F9
:10003000B12C000800000000BF2C0008CD2C0008E7
:10004000152F0008152F0008152F0008152F000880
:10005000152F0008152F0008152F0008152F000870
:10006000152F0008152F0008152F0008152F000860
:10007000152F0008152F0008152F0008152F000850
:10008000152F0008152F0008152F0008152F000840
:10009000152F0008152F0008152F0008152F000830
:1000A000152F0008152F0008152F0008152F000820
:1000B000152F0008152F0008152F0008152F000810
:1000C000152F0008152F0008152F0008152F000800
:1000D000152F0008152F0008152F0008152F0008F0
:1000E000152F0008152F0008152F0008152F0008E0
:1000F000152F0008152F0008152F0008152F0008D0
:10010000152F0008D92C0008152F0008152F0008FE
:10011000152F0008152F0008152F0008152F0008AF
:10012000152F0008152F0008152F0008ED2C0008CA
:10013000152F0008152F0008152F0008152F00088F
:10014000152F0008152F0008152F0008152F00087F
:10015000152F0008012D0008152F0008152F000885
:10016000152F0008152F0008152F0008152F00085F
:10017000152F0008152F0008152F0008000000009B
:08018000152F0008152F0008DF
:1001900010B5054C237833B9044B13B10448AFF3C1
:1001A00000800123237010BDF0010020000000003A
:1001B00018EE000808B5034B1BB103490348AFF321
:1001C000008008BD00000000F401002018EE0008C7
:1001D00001F0FF01102A2BDB10F0070F08D010F8F8
:1001E000013B013A8B422DD010F0070F42B3F6D1FC
:1001F000F0B441EA012141EA014122F007047FF015
:1002000000070023F0E80256083C85EA010586EA6B
:10021000010685FA47F5A3FA87F586FA47F6A5FAA7
:1002200087F68EB9EED1F0BC01F0FF0102F00702B3
:1002300032B110F8013B013A83EA010313B1F8D15E
:100240000020704701387047002D06BF354603383F
:10025000073815F0010F07D1013015F4807F02BF78
:10026000013015F4C03F0130F0BC0138704700BFC9
:10027000034613F8012B002AFBD1181A01387047E6
:1002800081F0004102E000BF83F0004330B54FEA47
:1002900041044FEA430594EA050F08BF90EA020FB4
:1002A0001FBF54EA000C55EA020C7FEA645C7FEA47
:1002B000655C00F0E2804FEA5454D4EB5555B8BF6A
:1002C0006D420CDD2C4480EA020281EA030382EADB
:1002D000000083EA010180EA020281EA0303362D6D
:1002E00088BF30BD11F0004F4FEA01314FF4801C40
:1002F0004CEA113102D0404261EB410113F0004F52
:100300004FEA03334CEA133302D0524263EB430308
:1003100094EA050F00F0A780A4F10104D5F1200EA6
:100320000DDB02FA0EFC22FA05F2801841F1000101
:1003300003FA0EF2801843FA05F359410EE0A5F1D5
:1003400020050EF1200E012A03FA0EFC28BF4CF006
:10035000020C43FA05F3C01851EBE37101F00045BC
:1003600007D54FF0000EDCF1000C7EEB00006EEBC9
:100370000101B1F5801F1BD3B1F5001F0CD3490853
:100380005FEA30004FEA3C0C04F101044FEA4452AA
:1003900012F5800F80F09A80BCF1004F08BF5FEA31
:1003A000500C50F1000041EB045141EA050130BD11
:1003B0005FEA4C0C404141EB0101013C28BFB1F523
:1003C000801FE9D291F0000F04BF01460020B1FA6E
:1003D00081F308BF2033A3F10B03B3F120020CDA41
:1003E0000C3208DD02F1140CC2F10C0201FA0CF01F
:1003F00021FA02F10CE002F11402D8BFC2F1200C84
:1004000001FA02F120FA0CFCDCBF41EA0C01904039
:10041000E41AA2BF01EB0451294330BD6FEA040482
:100420001F3C1CDA0C340EDC04F11404C4F120026D
:1004300020FA04F001FA02F340EA030021FA04F37F
:1004400045EA030130BDC4F10C04C4F1200220FAD6
:1004500002F001FA04F340EA0300294630BD21FA14
:1004600004F0294630BD94F0000F83F4801306BFDA
:1004700081F480110134013D4EE77FEA645C18BFCE
:100480007FEA655C29D094EA050F08BF90EA020F65
:1004900005D054EA000C04BF1946104630BD91EA5D
:1004A000030F1EBF0021002030BD5FEA545C05D160
:1004B0004000494128BF41F0004130BD14F580049F
:1004C0003CBF01F5801130BD01F0004545F0FE4113
:1004D00041F470014FF0000030BD7FEA645C1ABF48
:1004E000194610467FEA655C1CBF0B46024650EA7F
:1004F000013406BF52EA033591EA030F41F40021AB
:1005000030BD00BF90F0000F04BF0021704730B530
:100510004FF4806404F132044FF000054FF0000105
:1005200050E700BF90F0000F04BF0021704730B5C6
:100530004FF4806404F1320410F0004548BF40429B
:100540004FF000013EE700BF42004FEAE2014FEAF0
:1005500031014FEA02701FBF12F07F4393F07F4FCB
:1005600081F06051704732F07F4208BF704793F0CE
:100570007F4F04BF41F40021704730B54FF46074E1
:1005800001F0004521F000411CE700BF50EA0102E4
:1005900008BF704730B54FF000050AE050EA01028D
:1005A00008BF704730B511F0004502D5404261EBFD
:1005B00041014FF4806404F132045FEA915C3FF43E
:1005C000D8AE4FF003025FEADC0C18BF03325FEADB
:1005D000DC0C18BF033202EBDC02C2F1200300FA8C
:1005E00003FC20FA02F001FA03FE40EA0E0021FAB1
:1005F00002F11444BDE600BF70B54FF0FF0C4CF49F
:10060000E06C1CEA11541DBF1CEA135594EA0C0F50
:1006100095EA0C0F00F0DEF82C4481EA030621EA8B
:100620004C5123EA4C5350EA013518BF52EA0335C6
:1006300041F4801143F4801338D0A0FB02CE4FF078
:100640000005E1FB02E506F00042E0FB03E54FF0A8
:100650000006E1FB03569CF0000F18BF4EF0010EA0
:10066000A4F1FF04B6F5007F64F5407404D25FEA9C
:100670004E0E6D4146EB060642EAC62141EA55514F
:100680004FEAC52040EA5E504FEACE2EB4F1FD0C91
:1006900088BFBCF5E06F1ED8BEF1004F08BF5FEA0F
:1006A000500E50F1000041EB045170BD06F00046C1
:1006B00046EA010140EA020081EA0301B4EB5C046E
:1006C000C2BFD4EB0C0541EA045170BD41F4801166
:1006D0004FF0000E013C00F3AB8014F1360FDEBF8B
:1006E000002001F0004170BDC4F10004203C35DA67
:1006F0000C341BDC04F11404C4F1200500FA05F3EA
:1007000020FA04F001FA05F240EA020001F000428A
:1007100021F0004110EBD37021FA04F642EB060100
:100720005EEA430E08BF20EAD37070BDC4F10C042A
:10073000C4F1200500FA04F320FA05F001FA04F2EE
:1007400040EA020001F0004110EBD37041F10001DA
:100750005EEA430E08BF20EAD37070BDC4F12005E5
:1007600000FA05F24EEA020E20FA04F301FA05F24D
:1007700043EA020321FA04F001F0004121FA04F2F5
:1007800020EA020000EBD3705EEA430E08BF20EAC5
:10079000D37070BD94F0000F0FD101F000464000FF
:1007A00041EB010111F4801F08BF013CF7D041EA81
:1007B000060195F0000F18BF704703F00046520085
:1007C00043EB030313F4801F08BF013DF7D043EA56
:1007D0000603704794EA0C0F0CEA135518BF95EA0C
:1007E0000C0F0CD050EA410618BF52EA4306D1D193
:1007F00081EA030101F000414FF0000070BD50EAB2
:10080000410606BF1046194652EA430619D094EA3B
:100810000C0F02D150EA013613D195EA0C0F05D125
:1008200052EA03361CBF104619460AD181EA030179
:1008300001F0004141F0FE4141F470014FF0000031
:1008400070BD41F0FE4141F4780170BD70B54FF0CC
:10085000FF0C4CF4E06C1CEA11541DBF1CEA13554C
:1008600094EA0C0F95EA0C0F00F0A7F8A4EB05042E
:1008700081EA030E52EA03354FEA013100F0888025
:100880004FEA03334FF0805545EA131343EA1263EE
:100890004FEA022245EA111545EA10654FEA0026A3
:1008A0000EF000419D4208BF964244F1FD0404F55C
:1008B000407402D25B084FEA3202B61A65EB0305B8
:1008C0005B084FEA32024FF480104FF4002CB6EB75
:1008D000020E75EB030E22BFB61A754640EA0C00F5
:1008E0005B084FEA3202B6EB020E75EB030E22BF35
:1008F000B61A754640EA5C005B084FEA3202B6EB76
:10090000020E75EB030E22BFB61A754640EA9C0034
:100910005B084FEA3202B6EB020E75EB030E22BF04
:10092000B61A754640EADC0055EA060E18D04FEAC2
:10093000051545EA16754FEA06164FEAC30343EA62
:1009400052734FEAC2025FEA1C1CC0D111F4801F2F
:100950000BD141EA00014FF000004FF0004CB6E728
:1009600011F4801F04BF01430020B4F1FD0C88BFC7
:10097000BCF5E06F3FF6AFAEB5EB030C04BFB6EBD2
:10098000020C5FEA500C50F1000041EB045170BDC5
:100990000EF0004E4EEA113114EB5C04C2BFD4EBF2
:1009A0000C0541EA045170BD41F480114FF0000E76
:1009B000013C90E645EA060E8DE60CEA135594EAF2
:1009C0000C0F08BF95EA0C0F3FF43BAF94EA0C0FF5
:1009D0000AD150EA01347FF434AF95EA0C0F7FF46A
:1009E00025AF104619462CE795EA0C0F06D152EABE
:1009F00003353FF4FDAE1046194622E750EA4106A2
:100A000018BF52EA43067FF4C5AE50EA41047FF4B2
:100A10000DAF52EA43057FF4EBAE12E74FF0FF3C17
:100A200006E000BF4FF0010C02E000BF4FF0010CE8
:100A30004DF804CD4FEA410C7FEA6C5C4FEA430C61
:100A400018BF7FEA6C5C1BD001B050EA410C0CBFB0
:100A500052EA430C91EA030F02BF90EA020F002012
:100A6000704710F1000F91EA030F58BF994208BF79
:100A700090422CBFD8176FEAE37040F00100704736
:100A80004FEA410C7FEA6C5C02D150EA013C07D18D
:100A90004FEA430C7FEA6C5CD6D152EA033CD3D0D8
:100AA0005DF8040B704700BF8446104662468C46D2
:100AB0001946634600E000BF01B5FFF7B7FF002805
:100AC00048BF10F1000F01BD4DF808EDFFF7F4FF2E
:100AD0000CBF012000205DF808FB00BF4DF808EDB9
:100AE000FFF7EAFF34BF012000205DF808FB00BFDC
:100AF0004DF808EDFFF7E0FF94BF012000205DF8FE
:100B000008FB00BF4DF808EDFFF7CEFF94BF0120B2
:100B100000205DF808FB00BF4DF808EDFFF7C4FFAB
:100B200034BF012000205DF808FB00BF4FEA410CF4
:100B30007FEA6C5C02D150EA013C0AD14FEA430CD7
:100B40007FEA6C5C02D152EA033C02D14FF0000014
:100B500070474FF0010070474FEA410212F5001252
:100B600015D211D56FF47873B3EB625212D94FEAF4
:100B7000C12343F0004343EA505311F0004F23FADE
:100B800002F018BF404270474FF00000704750EA33
:100B9000013005D111F0004008BF6FF000407047F0
:100BA0004FF00000704700BF4A0011D212F500124A
:100BB00011D20DD56FF47873B3EB62520ED44FEAB5
:100BC000C12343F0004343EA505323FA02F0704735
:100BD0004FF00000704750EA013002D14FF0FF3073
:100BE00070474FF0000070474FEA4102B2F1E04316
:100BF00024BFB3F5001CDCF1FE5C0DD901F0004C04
:100C00004FEAC0024CEA5070B2F1004F40EB830053
:100C100008BF20F00100704711F0804F21D113F17F
:100C20003872BCBF01F00040704741F480114FEAB8
:100C30005252C2F11802C2F1200C10FA0CF320FA41
:100C400002F018BF40F001004FEAC1234FEAD3235E
:100C500003FA0CFC40EA0C0023FA02F34FEA4303C8
:100C6000CCE77FEA625307D150EA01331EBF4FF051
:100C7000FE4040F44000704701F0004040F0FE406C
:100C800040F40000704700BF53B94AB9002908BFBB
:100C900000281CBF4FF0FF314FF0FF3000F070B95B
:100CA000ADF1080C6DE904CE00F006F8DDF804E0C3
:100CB000DDE9022304B070472DE9F047089E0D4698
:100CC00004460F46002B4AD18A42944665D9B2FAAF
:100CD00082F343B102FA03FCC3F120029F4020FAE1
:100CE00002F217439C404FEA1C4E1FFA8CF5B7FBEB
:100CF000FEF1220C0EFB117742EA074201FB05F0E0
:100D000090420AD91CEB020201F1FF3780F01C81EE
:100D1000904240F2198102396244121AA4B2B2FB25
:100D2000FEF00EFB102244EA024400FB05F5A5424A
:100D30000AD91CEB040400F1FF3280F00781A542C0
:100D400040F204816444023840EA0140641B0021FF
:100D50001EB1DC400023C6E90043BDE8F0878B42AA
:100D600008D9002E00F0ED800021C6E900050846F4
:100D7000BDE8F087B3FA83F1002949D1AB4202D331
:100D8000824200F2F880841A65EB030201201746C4
:100D9000002EE2D0C6E90047DFE702B9FFDEB2FA73
:100DA00082F3002B40F090808A1A4FEA1C471FFA0A
:100DB0008CFE0121B2FBF7F507FB1520220C42EA5D
:100DC00000420EFB05F0904208D91CEB020205F12F
:100DD000FF3802D2904200F2CB804546121AA4B2EC
:100DE000B2FBF7F007FB102244EA02440EFB00FEC0
:100DF000A64508D91CEB040400F1FF3202D2A64537
:100E000000F2BB801046A4EB0E0440EA05409FE7C9
:100E1000C1F120078B4022FA07FC4CEA030C05FACB
:100E200001F420FA07F3FD404FEA1C492343B5FBC8
:100E3000F9F81FFA8CFE09FB18551C0C44EA05440E
:100E400008FB0EF5A54202FA01F200FA01F00BD9F7
:100E50001CEB040408F1FF3A80F08880A54240F2C0
:100E60008580A8F102086444641B9DB2B4FBF9F3C9
:100E700009FB134445EA044403FB0EFEA64508D9CA
:100E80001CEB040403F1FF356CD2A6456AD9023B82
:100E9000644443EA0843A3FB0295A4EB0E04AC426E
:100EA000C846AE4656D353D056B1B0EB080264EBF9
:100EB0000E0404FA07F7CA40CC401743C6E9007491
:100EC00018460021BDE8F087C3F1200102FA03FCB7
:100ED00020FA01F225FA01F19D402A434FEA1C470E
:100EE0001FFA8CFEB1FBF7F007FB1015110C41EA5D
:100EF000054100FB0EF58D4204FA03F408D91CEB02
:100F0000010100F1FF382FD28D422DD90238614402
:100F1000491B92B2B1FBF7F507FB151142EA0142FA
:100F200005FB0EF1914208D91CEB020205F1FF38D6
:100F300016D2914214D9023D6244521A45EA004148
:100F400038E73146304608E73946E6E61046FBE624
:100F50004845A9D2B9EB020865EB0C0E013BA3E7AB
:100F60004546EAE72B4694E74046D1E7D0467BE783
:100F7000023D624432E708460AE76444023842E729
:100F8000704700BF80B500AF00228021024802F008
:100F9000BDFE00BF80BD00BF0004024080B500AFB1
:100FA00001228021024802F0B1FE00BF80BD00BFD7
:100FB0000004024080B500AF01224021024802F047
:100FC000A5FE00BF80BD00BF0004024080B500AF99
:100FD00000224021024802F099FE00BF80BD00BF00
:100FE0000004024080B584B000AF03460A46FB719E
:100FF0001346BB71FB7943F02003DBB23B73BB7933
:101000007B73FFF7BFFF07F10C014FF47A730222E5
:10101000044806F090F9FFF7C1FF00BF1037BD4646
:1010200080BD00BFA803002080B586B000AF034696
:10103000B9607A60FB73FB7B43F02003DBB23B7546
:10104000FFF7A0FF07F1140164230122084806F00E
:1010500072F97B689AB24FF47A73B968044806F063
:101060006AF9FFF79BFF00BF1837BD4680BD00BF80
:10107000A803002080B584B000AF0346FB710023B5
:10108000FB73FFF77FFFF91D64230122084806F078
:1010900052F907F10F0164230122054806F08EFA88
:1010A000FFF77CFFFB7B18461037BD4680BD00BFB5
:1010B000A803002080B582B000AF0346FB71FFF7A4
:1010C00061FFF91D64230122044806F034F9FFF79B
:1010D00065FF00BF0837BD4680BD00BFA8030020E4
:1010E00080B588B000AF0346FB71FB79072B04D1B4
:1010F00000210720FFF776FF90E0FB79172B04D142
:1011000011211720FFF76EFF88E008210020FFF76C
:1011100069FF3F210120FFF765FF03210220FFF750
:1011200061FF03210320FFF75DFF00210420FFF78B
:1011300059FF02210520FFF755FF0E210620FFF77A
:1011400051FF00210720FFF74DFF00210820FFF786
:1011500049FF00210920FFF745FF324A07F1180334
:1011600092E8030018600433197007F11803052290
:1011700019460A20FFF758FF2B4A07F1100392E89F
:10118000030018600433197007F110030522194693
:101190000B20FFF749FFC3210C20FFF723FFC421D9
:1011A0000D20FFF71FFFC5210E20FFF71BFFC621F3
:1011B0000F20FFF717FF1B4A07F1080392E803000F
:1011C00018600433197007F108030522194610202E
:1011D000FFF72AFF00211120FFF704FF0021122052
:1011E000FFF700FF00211320FFF7FCFE0021142071
:1011F000FFF7F8FE00211520FFF7F4FE002116206E
:10120000FFF7F0FE11211720FFF7ECFE00211C2054
:10121000FFF7E8FE00211D20FFF7E4FE00BF2037A6
:10122000BD4680BD30EE000838EE000880B500AF46
:10123000FFF7CCFE0020FFF753FF00210020FFF74F
:10124000D1FE00210120FFF7CDFE00210220FFF793
:10125000C9FE03210320FFF7C5FE00210420FFF78C
:10126000C1FE00210520FFF7BDFE0C210620FFF77F
:10127000B9FEFFF79FFE00BF80BD80B586B000AF0E
:10128000F860B9601346FB71FFF7A0FEFB791946C1
:101290000520FFF7A7FE0522F9681020FFF7C4FE1E
:1012A00033210420FFF79EFE3F23FB75FB7D19468B
:1012B0000220FFF797FE0522B9680B20FFF7B4FE66
:1012C00020211120FFF78EFE20211220FFF78AFE39
:1012D00020211320FFF786FE20211420FFF782FE35
:1012E00020211520FFF77EFE20211620FFF77AFE31
:1012F000FFF760FE00F090F800BF1837BD4680BDD4
:1013000080B582B000AFFFF761FE0023FB71FB796F
:1013100043F00203FB71FB7943F00803FB71FB7997
:1013200043F00403FB71FB7919460020FFF75AFED6
:10133000FFF740FE00F070F800BF0837BD4680BDE3
:1013400080B582B000AFFFF741FE0023FB71FB794F
:1013500043F00303FB71FB7943F00803FB71FB7956
:1013600043F00403FB71FB7919460020FFF73AFEB6
:10137000FFF720FE00F060F800BF0837BD4680BDD3
:1013800080B584B000AF786000237B73FFF7FAFD6F
:10139000A0237B7307F10D01642301221D4805F092
:1013A000CAFF4FF47A73202279681A4805F0C3FF08
:1013B000FFF7F4FD012001F021FE0720FFF75AFEA0
:1013C0000346FB73FB7B03F01003002B0AD0FB7B6F
:1013D00043F01003FB73FB7B19460720FFF702FE67
:1013E00000F01AF81720FFF745FE0346BB73BB7BDE
:1013F00003F01003002B08D0BB7B03F00803002B85
:1014000003D100F009F8012300E00023184610374B
:10141000BD4680BDA803002080B582B000AFE123A7
:10142000FB71FB791846FFF745FE1720FFF758FEC2
:1014300000BF0837BD4680BD80B582B000AFE22353
:10144000FB71FB791846FFF735FE1720FFF748FEC2
:1014500000BF0837BD4680BD80B582B000AF172001
:10146000FFF708FE0346FB710720FFF703FE034664
:10147000BB710020FFF7FEFD03467B71BB7903F0D3
:101480004003002B05D040210720FFF7ABFD0123CF
:1014900000E0002318460837BD4680BD80B584B003
:1014A00000AF78600023FB73FFF76CFD6123FB73D3
:1014B00007F10F01642301220C4805F03CFF4FF4B3
:1014C0007A7320227968094806F078F8FFF766FDFC
:1014D000012001F093FDE223FB73FB7B1846FFF72D
:1014E000E9FD00BF1037BD4680BD00BFA803002046
:1014F00080B582B000AF0346FB71FB791946072027
:1015000000F0CAFA00BF0837BD4680BD80B582B082
:1015100000AF0346FB71FB7919463D2000F0BCFA91
:10152000FB79002B03D1132000F0AAFA02E0072078
:1015300000F0A6FA00BF0837BD4680BD80B500AFF9
:101540000020FFF7E3FF00BF80BD80B500AF0C2097
:10155000FFF7DCFF00BF80BD80B500AF20213F203A
:1015600000F09AFA4FF42F7000F08AFA00BF80BDA5
:1015700080B582B000AFFFF7EFFF0023FB71FB1DCA
:1015800001221946002000F073FBFB79A02B04D048
:10159000FB79194609480BF0F3F90020FFF7A8FF83
:1015A00000213F2000F078FAFFF7C8FF0A2000F082
:1015B00067FA00BF0837BD4680BD00BF40EE000897
:1015C0002DE9B0439EB000AF034687F827300020D6
:1015D000FFF78EFF97F82730202B08D107F148013D
:1015E00097F827300822184600F042FB07E007F181
:1015F000480197F827300622184600F039FB4FF0D3
:1016000000028B4BC7E91C2397F827300E2B09D11A
:10161000884B1B881846FEF775FF02460B46C7E944
:101620001C233EE097F82730082B07D097F8273087
:10163000282B03D097F827302E2B09D17E4B1B88FF
:101640001846FEF75FFF02460B46C7E91C2328E059
:1016500097F82730142B09D1784B1B881846FEF7D2
:1016600051FF02460B46C7E91C231AE097F82730C2
:101670001A2B09D1724B1B881846FEF743FF02460E
:101680000B46C7E91C230CE097F82730202B08D124
:101690006C4B1B881846FEF735FF02460B46C7E920
:1016A0001C2307F128032022002118460BF0CEFA54
:1016B00097F82730202B50D197F849301B021AB2E7
:1016C00097F848301BB213431BB21846FEF72AFFA7
:1016D000D7E91C23FFF7BAF802460B46C7E90A23ED
:1016E00097F84B301B021AB297F84A301BB21343DB
:1016F0001BB21846FEF716FFD7E91C23FFF7A6F822
:1017000002460B46C7E90C2397F84D301B021AB26C
:1017100097F84C301BB213431BB21846FEF702FF7A
:10172000D7E91C23FFF792F802460B46C7E90E23C0
:1017300097F84F301B021AB297F84E301BB2134382
:101740001BB21846FEF7EEFED7E91C23FFF77EF822
:1017500002460B46C7E910233BE097F849301B02CD
:101760001AB297F848301BB213431BB21846FEF763
:10177000D9FED7E91C23FFF769F802460B46C7E9F3
:101780000C2397F84B301B021AB297F84A301BB261
:1017900013431BB21846FEF7C5FED7E91C23FFF71B
:1017A00055F802460B46C7E90E2397F84D301B0249
:1017B0001AB297F84C301BB213431BB21846FEF70F
:1017C000B1FED7E91C23FFF741F802460B46C7E9F3
:1017D000102307F1500407F128050FCD0FC495E839
:1017E0000F0084E80F00D7E91489D7E91645D7E937
:1017F0001801D7E91A2349EC148B45EC154B41EC41
:10180000160B43EC172BB0EE440AF0EE640AB0EE70
:10181000451AF0EE651AB0EE462AF0EE662AB0EEF2
:10182000473AF0EE673A7837BD46BDE8B08300BF6F
:101830000000F03F06000020000000200200002011
:1018400004000020080000202DE9B04390B000AF54
:101850001420FFF7B5FEB0EE404AF0EE604AB0EE5D
:10186000415AF0EE615AB0EE426AF0EE626AB0EEB2
:10187000437AF0EE637A87ED084B87ED0A5B87EDDC
:101880000C6B87ED0E7BD7E90889D7E90A45D7E9C4
:101890000C01D7E90E2349EC148B45EC154B41ECB8
:1018A000160B43EC172BB0EE440AF0EE640AB0EED0
:1018B000451AF0EE651AB0EE462AF0EE662AB0EE52
:1018C000473AF0EE673A4037BD46BDE8B0832DE9B0
:1018D000B04390B000AF1A20FFF772FEB0EE404A5E
:1018E000F0EE604AB0EE415AF0EE615AB0EE426A54
:1018F000F0EE626AB0EE437AF0EE637A87ED084B61
:1019000087ED0A5B87ED0C6B87ED0E7BD7E90889C5
:10191000D7E90A45D7E90C01D7E90E2349EC148B26
:1019200045EC154B41EC160B43EC172BB0EE440A7B
:10193000F0EE640AB0EE451AF0EE651AB0EE462AF3
:10194000F0EE662AB0EE473AF0EE673A4037BD4611
:10195000BDE8B0832DE9B04390B000AF2820FFF779
:101960002FFEB0EE404AF0EE604AB0EE415AF0EE83
:10197000615AB0EE426AF0EE626AB0EE437AF0EE7F
:10198000637A87ED084B87ED0A5B87ED0C6B87ED7B
:101990000E7BD7E90889D7E90A45D7E90C01D7E9D1
:1019A0000E2349EC148B45EC154B41EC160B43EC24
:1019B000172BB0EE440AF0EE640AB0EE451AF0EED2
:1019C000651AB0EE462AF0EE662AB0EE473AF0EE1F
:1019D000673A4037BD46BDE8B0832DE9B04390B0CB
:1019E00000AF2020FFF7ECFDB0EE404AF0EE604A79
:1019F000B0EE415AF0EE615AB0EE426AF0EE626A21
:101A0000B0EE437AF0EE637A87ED084B87ED0A5B20
:101A100087ED0C6B87ED0E7BD7E90889D7E90A457E
:101A2000D7E90C01D7E90E2349EC148B45EC154B93
:101A300041EC160B43EC172BB0EE440AF0EE640AAF
:101A4000B0EE451AF0EE651AB0EE462AF0EE662AC0
:101A5000B0EE473AF0EE673A4037BD46BDE8B08396
:101A600080B483B000AF7860044A7B68136000BF25
:101A70000C37BD465DF8047B704700BF0C020020A8
:101A800080B582B000AF78607B68184601F0B6FA86
:101A900000BF0837BD4680BD80B588B002AF0346A1
:101AA0000A46FB711346BB71FB793B73BB797B73B1
:101AB0005A4B186807F10C020A23009302235021A5
:101AC00002F082FA0346FB75FB7D002B00F0A0803C
:101AD000FB7D012B03D152480AF0B8FF12E0FB7DD9
:101AE000032B03D14F480AF0B1FF0BE0FB7D022B23
:101AF00003D14D480AF0AAFF04E0FB7D19464B488C
:101B00000AF03EFF454B1B68184603F0C7F83861E2
:101B10003B69002B7ED03B69012B03D144480AF07E
:101B200095FF21E03B69022B03D142480AF08EFF6A
:101B30001AE03B69042B03D13F480AF087FF13E00A
:101B40003B69082B03D13D480AF080FF0CE03B695C
:101B5000102B03D13A480AF079FF05E03B69202BAE
:101B600002D138480AF072FF2C4B1B68184603F06C
:101B700087F80346FB73FB7B002B03D132480AF046
:101B800065FF48E0FB7B202B03D12F480AF05EFF66
:101B900041E0FB7B242B03D12C480AF057FF3AE0AD
:101BA000FB7B212B03D12A480AF050FF33E0FB7B5B
:101BB000222B03D127480AF049FF2CE0FB7B282B7E
:101BC00003D125480AF042FF25E0FB7B292B03D1F6
:101BD00022480AF03BFF1EE0FB7B2A2B03D1204862
:101BE0000AF034FF17E0FB7B602B03D11D480AF09D
:101BF0002DFF10E0FB7BA02B03D11B480AF026FF32
:101C000009E0FB7BE02B06D118480AF01FFF02E039
:101C100000BF00E000BF1837BD4680BD0C020020A9
:101C20007CEE0008A0EE0008C8EE0008ECEE00080C
:101C300004EF000818EF00082CEF000840EF000840
:101C400054EF000868EF000880EF000898EF0008E4
:101C5000ACEF0008C4EF0008DCEF0008F4EF000868
:101C600014F0000834F000084CF0000864F000089C
:101C700080B584B002AF03463960FB711346BB7177
:101C80000B4B1868FA1D642300930123502102F0C6
:101C90009BF9074B1868BB799BB2642200923A68A3
:101CA000502102F08FFA00BF0837BD4680BD00BF4B
:101CB0000C02002080B588B000AF78600B46FB7046
:101CC0007B681B78002B5AD07B681A782E4B1A70D1
:101CD0000023FB610023BB610223FB7520E0FB7D39
:101CE0007A6813441B78202B05D1FB690133FB6113
:101CF0000023BB6111E0FB7D7A6813441878234907
:101D0000FA6913465B0013445B00CA18BB691344AD
:101D100002461A70BB690133BB61FB7D0133FB7561
:101D2000FA7DFB789A42DAD3174B1B78732B1AD1C2
:101D300016480AF06DF8F86015480AF069F8B860BE
:101D4000144800F0E1FD322000F06AFCFB68DBB2D1
:101D5000BA6807EE902AF8EEE77AB0EE670A1846FE
:101D600000F076FD0CE0084B1B786C2B08D107487F
:101D70000AF04EF83861386900F00EF800E000BF54
:101D80002037BD4680BD00BF400400204404002031
:101D90004A0400201002002080B584B000AF034642
:101DA000FB71FB790633012202FA03F3FB81FB8905
:101DB00001221946074801F0A9FF0F2001F01EF982
:101DC000FB8900221946034801F0A0FF00BF10372D
:101DD000BD4680BD001002402DE9B043ACB008AF55
:101DE00001F09AF800F0BAF900F0CEFA00F0A4FA87
:101DF00000F01EFA00F06AFA00F048FA06F01AFD48
:101E0000FFF714FA4C22C049C048FFF736FAFFF733
:101E100097FABF48FFF724FEFFF7AAFBFFF795FBF1
:101E2000BB4800F071FD322000F0FAFB01F0DAF857
:101E3000C7F88C00002387F88B3001F0D3F8C7F87F
:101E40008400FFF744FDB0EE404AF0EE604AB0EE89
:101E5000415AF0EE615AB0EE426AF0EE626AB0EEBC
:101E6000437AF0EE637A87ED004B87ED025B87EDF6
:101E7000046B87ED067BFFF76DFDB0EE404AF0EE98
:101E8000604AB0EE415AF0EE615AB0EE426AF0EEAE
:101E9000626AB0EE437AF0EE637A87ED084B87ED25
:101EA0000A5B87ED0C6B87ED0E7BFFF796FDB0EEBE
:101EB000404AF0EE604AB0EE415AF0EE615AB0EEA0
:101EC000426AF0EE626AB0EE437AF0EE637A87ED32
:101ED000104B87ED125B87ED146B87ED167BFFF7D8
:101EE000B3FCB0EE404AF0EE604AB0EE415AF0EE7C
:101EF000615AB0EE426AF0EE626AB0EE437AF0EEFA
:101F0000637A87ED184B87ED1A5B87ED1C6B87EDC5
:101F10001E7B01227F49804809F0BAF803461A4621
:101F20007E4B1A707C4A7E497E4809F0FFFC7A4B52
:101F3000DB69023B784A528902FB03F31846FEF73D
:101F4000E1FA4FF00002784BFEF756FB02460B46D3
:101F500010461946FEF728FE0346744A13606E4B7E
:101F60005B891A466E4B1B6802FB03F31846FEF7AB
:101F7000C9FA4FF000026C4BFEF73EFB02460B46DF
:101F800010461946FEF710FE0346694A13600B22FD
:101F90006849694809F0C2F803461A465F4B1A704F
:101FA0006549664809F0EEFD634809F095FC00229A
:101FB0005C49002009F06CF803461A46574B1A702A
:101FC0000A2001F01BF897F88B3083F00103DBB295
:101FD000002B72D0FFF794F9D7E90223D7E9040167
:101FE000D7E90645CDE90445CDE90201CDE9002355
:101FF000D7F88420524953480AF030FD5148FFF782
:10200000BFF9D7E91A23D7E91C01D7E91E45CDE965
:102010000445CDE90201CDE90023D7F884204A49DF
:1020200048480AF01BFD4748FFF7AAF9D7E90A23F9
:10203000D7E90C01D7E90E45CDE90445CDE9020108
:10204000CDE90023D7F8842040493E480AF006FD38
:102050003C48FFF795F9D7E91223D7E91401D7E9EE
:102060001645D7E91089CDE90689CDE90445CDE9C2
:102070000201CDE90023D7F88420354931480AF020
:10208000EDFC3048FFF77CF9D7F88420D7F88C3086
:10209000D31AB3F5FA7F32D92E492A480AF0DEFC6A
:1020A0002848FFF76DF9012387F88B30FFF748F9CF
:1020B00000F098FFC7F88C0021E0FFF7CDF9034648
:1020C000012B0ED12448FFF7E9F9002387F88B3064
:1020D00000F088FFC7F88C0020211F48FFF7EAFDB9
:1020E0000DE0D7F88420D7F88C30D31AFA2B06D914
:1020F000002387F88B3000F075FFC7F88C00642050
:1021000000F07CFF99E600BF140000200C000020C6
:1021100010020020800400208404002062040020BB
:10212000640400207CF000080000E03F6804002008
:102130006C04002080F00008BC14002090F000081F
:10214000C8F0000800040020DCF00008F0F00008EF
:1021500004F1000820F100082004002080B594B0AC
:1021600000AF07F120033022002118460AF06EFD6F
:1021700007F10C0300221A605A609A60DA601A6153
:102180000023BB60284B1B6C274A43F08053136429
:10219000254B1B6C03F08053BB60BB6800237B6046
:1021A000224B1B68214A43F4804313601F4B1B687A
:1021B00003F480437B607B6802233B620123FB6264
:1021C00010233B630223BB630023FB6308233B64B0
:1021D00050237B640223BB640423FB6407F12003C8
:1021E000184603F06BFA0346002B01D000F06CF99F
:1021F0000F23FB6002233B6100237B614FF4C0533C
:10220000BB614FF48053FB6107F10C0302211846B8
:1022100003F0CCFC0346002B01D000F055F900BFC1
:102220005037BD4680BD00BF0038024000700040FE
:1022300080B500AF124B134A1A60114B124A5A6014
:102240000F4B00229A600E4B0022DA600C4B4FF4C9
:1022500080421A610A4B00225A61094B00229A619E
:10226000074B0022DA61064B00221A62044801F093
:1022700067FD0346002B01D000F026F900BF80BDAA
:102280001002002000580040A086010080B400AF7A
:102290000C4B0D4A1A600B4B00225A60094B00226E
:1022A0009A60084B0022DA60064B00221A61054B47
:1022B00000225A61034B01229A6100BFBD465DF8BE
:1022C000047B704764020020002C014080B500AF01
:1022D000174B184A1A60164B4FF482725A60144B0F
:1022E00000229A60124B0022DA60114B00221A6120
:1022F0000F4B00225A610E4B4FF400729A610C4B47
:102300000022DA610A4B00221A62094B00225A624B
:10231000074B00229A62064B0A22DA62044804F054
:1023200081FF0346002B01D000F0CEF800BF80BD36
:10233000A8030020003C004080B582B000AF00231D
:102340007B60104B1B6B0F4A43F4800313630D4BF0
:102350001B6B03F480037B607B68002200213B2021
:1023600000F04BFF3B2000F064FF002200214520DD
:1023700000F043FF452000F05CFF00BF0837BD467A
:1023800080BD00BF0038024080B58CB000AF07F1BF
:102390001C0300221A605A609A60DA601A610023F6
:1023A000BB61454B1B6B444A43F080031363424BB4
:1023B0001B6B03F08003BB61BB6900237B613E4B59
:1023C0001B6B3D4A43F0100313633B4B1B6B03F045
:1023D00010037B617B6900233B61374B1B6B364AE3
:1023E00043F002031363344B1B6B03F002033B61A6
:1023F0003B690023FB60304B1B6B2F4A43F0040307
:1024000013632D4B1B6B03F00403FB60FB6800237D
:10241000BB60294B1B6B284A43F001031363264B17
:102420001B6B03F00103BB60BB6800237B60224B86
:102430001B6B214A43F0080313631F4B1B6B03F014
:1024400008037B607B6800224FF4FC511B4801F0BD
:102450005DFC0022C0211A4801F058FC4FF4FC53E7
:10246000FB6101233B6200237B620023BB6207F117
:102470001C031946114801F095FA8023FB610023E3
:102480003B6200237B6207F11C0319460D4801F0F3
:1024900089FAC023FB6101233B6200237B62002396
:1024A000BB6207F11C031946054801F07BFA00BF27
:1024B0003037BD4680BD00BF0038024000100240EA
:1024C000000402400008024080B400AF72B600BFB2
:1024D000FEE7000080B588B004AF0346FB710B46F1
:1024E000BB7113467B717B79002B01D001237B717B
:1024F000244B1868FB799AB20A23029301230193B3
:1025000007F10F0300930123802102F087F90346AE
:10251000002B01D0012331E0BB79012202FA03F341
:102520005BB263F07F035BB2DB435AB2FB7B5BB20F
:1025300013405BB2DBB2FB737B7903F00102BB7922
:1025400002FA03F35AB2FB7B5BB213435BB2DBB21A
:10255000FB730C4B1868FB799AB20A230293012390
:10256000019307F10F0300930123802102F05CF82F
:102570000346002B01D0012300E00023184610374A
:10258000BD4680BD7004002080B584B002AF062334
:10259000FB71094B1868FA1D0A23009301230021DF
:1025A00001F012FD0346002B01D1002300E00123BE
:1025B00018460837BD4680BD7004002080B582B043
:1025C00000AF0346FB71FB791A4604210020FFF798
:1025D00081FF034618460837BD4680BD80B582B0EE
:1025E00000AF0346FB71FB791A4607210020FFF775
:1025F00071FF034618460837BD4680BD80B582B0DE
:1026000000AF0346FB71FB791A4605210020FFF756
:1026100061FF034618460837BD4680BD0000000034
:1026200080B588B004AF0346FB80FB8840F2F552CA
:10263000934202D90323FB7246E0FB88182B02D891
:10264000FF23FB7240E0FB8807EE903AF8EE677AD2
:1026500017EE900AFDF778FF4FF000022A4BFDF7C6
:10266000CBFF02460B4626A1D1E90001FEF7EEF8AA
:1026700002460B46104619464FF00002234BFDF769
:1026800003FE02460B4610461946FEF7ADFA034616
:10269000FB60F868FDF758FF4FF000021C4BFDF798
:1026A000F5FD02460B4643EC172BB0EE470AF0EE61
:1026B000670A0CF031FB53EC102B10461946FEF75D
:1026C00073FA0346DBB2FB720120FFF777FF114B71
:1026D00018680A2302930123019307F10B03009367
:1026E0000123FE22802101F09FFF0020FFF766FFFB
:1026F0000120FFF773FF002318461037BD4680BD49
:102700000000000084D777410000B0400000F03F97
:102710000000E03F7004002080B588B004AF03469D
:10272000FB710B46BB8013467B80FB799B00DBB2C1
:102730000633FB73BB88DBB23B72BB881B0A9BB2C0
:10274000DBB27B727B88DBB2BB727B881B0A9BB2DD
:10275000DBB2FB720D4B1868FB7B9AB20A23029323
:102760000423019307F1080300930123802101F062
:102770005BFF0346BB73BB7B002B01D0012300E052
:10278000002318461037BD4680BD00BF70040020EE
:1027900080B582B000AF0346FB710B46BB80134689
:1027A000BB71BB88B3F5805F02D340F6FF73BB807B
:1027B000BB79002B25D0BB88002B08D1FB790022E8
:1027C0004FF480511846FFF7A7FF03463AE0BB8855
:1027D00040F6FF72934208D1FB794FF480520021FA
:1027E0001846FFF799FF03462CE0BB88C3F57F63CB
:1027F0000F339AB2FB7900211846FFF78DFF03468D
:1028000020E0BB8840F6FF72934208D1FB7900229A
:102810004FF480511846FFF77FFF034612E0BB8854
:10282000002B08D1FB794FF4805200211846FFF7A6
:1028300073FF034606E0BA88FB7900211846FFF7CC
:102840006BFF034618460837BD4680BD00000000F8
:1028500080B584B000AF034687ED000AFB71D7ED69
:10286000007AF5EEC07AF1EE10FA02D54FF00003CF
:102870003B60D7ED007A9FED207AF4EEC77AF1EE57
:1028800010FA01DD1D4B3B603868FDF75DFE18A3B3
:10289000D3E90023FDF7B0FE02460B461046194669
:1028A0004FF00002164BFDF7D1FF02460B461046D3
:1028B00019464FF00002134BFDF7E8FC02460B46A9
:1028C00010461946FEF790F90346FB60D7ED037AF0
:1028D000FCEEE77A17EE903A99B2FB79002218469F
:1028E000FFF756FF034618461037BD4680BD00BFB0
:1028F00000000000006078400000344300003443D2
:102900000080664000805B4080B582B000AF786098
:10291000074A7B681360FFF737FE3020FFF780FE21
:102920000120FFF76BFE002318460837BD4680BD27
:102930007004002080B483B000AF00237B60104B94
:102940005B6C0F4A43F4804353640D4B5B6C03F4A0
:1029500080437B607B6800233B60094B1B6C084A0B
:1029600043F080531364064B1B6C03F080533B60B1
:102970003B6800BF0C37BD465DF8047B704700BF65
:102980000038024080B58AB000AF786007F11403C8
:1029900000221A605A609A60DA601A617B681B68CC
:1029A000194A93422CD100233B61184B1B6B174AE9
:1029B00043F002031363154B1B6B03F002033B61EF
:1029C0003B694FF440637B611223BB610023FB61D1
:1029D00003233B6204237B6207F1140319460C486E
:1029E00000F0E0FF0023FB60084B1B6C074A43F438
:1029F00080031364054B1B6C03F48003FB60FB68CE
:102A000000BF2837BD4680BD005800400038024056
:102A10000004024080B58AB000AF786007F114036B
:102A200000221A605A609A60DA601A617B681B683B
:102A3000684A934240F0C98000233B61664B5B6C5F
:102A4000654A43F400635364634B5B6C03F40063B7
:102A50003B613B690023FB605F4B1B6B5E4A43F0AD
:102A6000040313635C4B1B6B03F00403FB60FB6804
:102A70000023BB60584B1B6B574A43F0080313639A
:102A8000554B1B6B03F00803BB60BB684FF48853C6
:102A90007B610223BB610023FB6103233B620C23A8
:102AA0007B6207F1140319464C4800F07BFF0423B6
:102AB0007B610223BB610023FB6103233B620C2388
:102AC0007B6207F114031946454800F06BFF454B44
:102AD000454A1A60434B4FF000625A60414B002256
:102AE0009A60404B0022DA603E4B4FF480621A61DC
:102AF0003C4B4FF480525A613A4B4FF480429A61FA
:102B0000384B2022DA61374B00221A62354B0422FF
:102B10005A62344B03229A62324B4FF40002DA625B
:102B2000304B4FF400121A632E4800F09DFB034611
:102B3000002B01D0FFF7C8FC7B682A4A1A64294A97
:102B40007B689363294B2A4A1A60284B4FF0006236
:102B50005A60264B40229A60244B0022DA60234BB5
:102B60004FF480621A61214B4FF480525A611F4B1F
:102B70004FF480429A611D4B2022DA611B4B0022E8
:102B80001A621A4B04225A62184B03229A62174B9C
:102B90004FF40002DA62154B4FF400121A63134827
:102BA00000F062FB0346002B01D0FFF78DFC7B6831
:102BB0000E4ADA630D4A7B689363002200213120BC
:102BC00000F01BFB312000F034FB00BF2837BD466E
:102BD00080BD00BF002C01400038024000080240C8
:102BE000000C0240E8020020586402404803002024
:102BF000A064024080B58AB000AF786007F114038A
:102C000000221A605A609A60DA601A617B681B6859
:102C1000194A93422BD100233B61184B1B6C174A76
:102C200043F400431364154B1B6C03F400433B61F6
:102C30003B690023FB60114B1B6B104A43F00203FE
:102C400013630E4B1B6B03F00203FB60FB6838231E
:102C50007B610223BB610023FB6103233B620623EC
:102C60007B6207F114031946054800F09BFE00BF84
:102C70002837BD4680BD00BF003C00400038024000
:102C80000004024080B400AFFEE780B400AFFEE76E
:102C900080B400AFFEE780B400AFFEE780B400AFC1
:102CA000FEE780B400AF00BFBD465DF8047B70470F
:102CB00080B400AF00BFBD465DF8047B704780B4B0
:102CC00000AF00BFBD465DF8047B704780B500AF24
:102CD00000F074F900BF80BD80B500AF024803F07A
:102CE000E9FB00BF80BD00BF6402002080B500AFDB
:102CF000024800F0E1FB00BF80BD00BFE8020020F9
:102D000080B500AF024800F0D7FB00BF80BD00BF18
:102D10004803002080B400AF01231846BD465DF88B
:102D2000047B704780B582B000AF7860396009F0ED
:102D3000DFFF034616221A604FF0FF3318460837AC
:102D4000BD4680BD80B582B000AF78604FF0FF31E6
:102D50007868FFF7E7FFFEE780B586B000AFF86060
:102D6000B9607A6000237B610AE0AFF3008001461E
:102D7000BB685A1CBA60CAB21A707B6901337B61A6
:102D80007A697B689A42F0DB7B6818461837BD4643
:102D900080BD80B586B000AFF860B9607A6000236E
:102DA0007B6109E0BB685A1CBA601B781846AFF318
:102DB00000807B6901337B617A697B689A42F1DB31
:102DC0007B6818461837BD4680BD80B483B000AF1D
:102DD00078604FF0FF3318460C37BD465DF8047B32
:102DE000704780B483B000AF786039603B684FF4BF
:102DF00000525A60002318460C37BD465DF8047B2C
:102E0000704780B483B000AF7860012318460C3758
:102E1000BD465DF8047B704780B485B000AFF860B4
:102E2000B9607A60002318461437BD465DF8047B0C
:102E30007047000080B586B000AF7860144A154B2B
:102E4000D31A7B617B693B61134B1B68002B02D15A
:102E5000114B124A1A60104B1A687B6813443A6986
:102E60009A4207D209F044FF03460C221A604FF041
:102E7000FF3309E0084B1B68FB60074B1A687B684F
:102E80001344054A1360FB6818461837BD4680BDD9
:102E900000000220000800007404002078280020B0
:102EA00080B400AF064BD3F88830054A43F4700372
:102EB000C2F8883000BFBD465DF8047B704700BF94
:102EC00000ED00E0DFF834D0FFF7EAFF0C480D49D1
:102ED0000D4A002302E0D458C4500433C4188C4275
:102EE000F9D30A4A0A4C002301E013600432A242DB
:102EF000FBD309F003FFFEF76FFF704700000220CD
:102F000000000020F001002064F90008F00100201A
:102F100074280020FEE7000080B500AF0E4B1B6850
:102F20000D4A43F4007313600B4B1B680A4A43F4C9
:102F300080631360084B1B68074A43F48073136077
:102F4000032000F04FF90F2000F008F8FFF7F2FC23
:102F50000023184680BD00BF003C024080B582B00F
:102F600000AF7860124B1A68124B1B7819464FF469
:102F70007A73B3FBF1F3B2FBF3F3184600F067F991
:102F80000346002B01D001230EE07B680F2B0AD8EB
:102F9000002279684FF0FF3000F02FF9064A7B6875
:102FA0001360002300E0012318460837BD4680BDAA
:102FB0001C000020240000202000002080B400AF6E
:102FC000064B1B781A46064B1B681344044A1360D1
:102FD00000BFBD465DF8047B704700BF24000020A1
:102FE0007804002080B400AF034B1B681846BD4630
:102FF0005DF8047B704700BF7804002080B584B082
:1030000000AF7860FFF7EEFFB8607B68FB60FB689D
:10301000B3F1FF3F05D00A4B1B781A46FB681344F7
:10302000FB6000BFFFF7DEFF0246BB68D31AFA68F9
:103030009A42F7D800BF00BF1037BD4680BD00BF21
:103040002400002080B485B000AF78607B6803F076
:103050000703FB600C4BDB68BB60BA684FF6FF03ED
:103060001340BB60FB681A02BB68134343F0BF63A5
:1030700043F40033BB60044ABB68D36000BF14371D
:10308000BD465DF8047B704700ED00E080B400AF02
:10309000044BDB681B0A03F007031846BD465DF8C6
:1030A000047B704700ED00E080B483B000AF0346BE
:1030B000FB7197F90730002B0BDBFB7903F01F0244
:1030C000074997F907305B09012000FA02F241F83D
:1030D000232000BF0C37BD465DF8047B704700BF5E
:1030E00000E100E080B483B000AF03463960FB71BB
:1030F00097F90730002B0ADB3B68DAB20C4997F9E5
:1031000007301201D2B20B4483F800230AE03B6877
:10311000DAB20849FB7903F00F03043B1201D2B283
:103120000B441A7600BF0C37BD465DF8047B704730
:1031300000E100E000ED00E080B489B000AFF8608D
:10314000B9607A60FB6803F00703FB61FB69C3F1B8
:103150000703042B28BF0423BB61FB690433062B40
:1031600002D9FB69033B00E000237B614FF0FF3293
:10317000BB6902FA03F3DA43BB681A407B699A40E1
:103180004FF0FF317B6901FA03F3D9437B680B40B1
:10319000134318462437BD465DF8047B7047000092
:1031A00080B582B000AF78607B68013BB3F1807F6F
:1031B00001D301230FE00A4A7B68013B53600F21D2
:1031C0004FF0FF30FFF78EFF054B00229A60044B53
:1031D00007221A60002318460837BD4680BD00BF8D
:1031E00010E000E080B582B000AF78607868FFF74B
:1031F00029FF00BF0837BD4680BD80B586B000AF4F
:103200000346B9607A60FB7300237B61FFF73EFFE2
:1032100078617A68B9687869FFF78EFF024697F996
:103220000F3011461846FFF75DFF00BF1837BD4647
:1032300080BD80B582B000AF0346FB7197F90730BF
:103240001846FFF731FF00BF0837BD4680BD80B587
:1032500082B000AF78607868FFF7A2FF0346184697
:103260000837BD4680BD000080B586B000AF7860ED
:1032700000237B61FFF7B6FE38617B68002B01D12C
:10328000012399E07B68022283F835207B680022C5
:1032900083F834207B681B681A687B681B6822F0FF
:1032A00001021A600FE0FFF79DFE02463B69D31A48
:1032B000052B08D97B6820225A657B68032283F896
:1032C0003520032378E07B681B681B6803F001034B
:1032D000002BE8D17B681B681B687B617A69384BDF
:1032E00013407B617B685A687B689B681A437B68E4
:1032F000DB681A437B681B691A437B685B691A4366
:103300007B689B691A437B68DB691A437B681B6A8D
:1033100013437A6913437B617B685B6A042B07D193
:103320007B68DA6A7B681B6B13437A6913437B61A2
:103330007B681B687A691A607B681B685B697B61C4
:103340007B6923F007037B617B685B6A7A691343BF
:103350007B617B685B6A042B17D17B689B6A7A6907
:1033600013437B617B68DB6A002B0ED0786800F02A
:103370009DFA0346002B08D07B6840225A657B6883
:10338000012283F83520012316E07B681B687A69E7
:103390005A61786800F054FA0346FB607B68DB6D85
:1033A0003F229A40FB689A607B6800225A657B68DE
:1033B000012283F83520002318461837BD4680BD0A
:1033C0003F8010F080B586B000AFF860B9607A60D9
:1033D0003B600023FB75FB689B6D3B61FB6893F8CA
:1033E0003430012B01D1022340E0FB68012283F835
:1033F0003420FB6893F83530DBB2012B2FD1FB680A
:10340000022283F83520FB6800225A653B687A68FF
:10341000B968F86800F0E6F9FB68DB6D3F229A4076
:103420003B699A60FB681B681A68FB681B6842F07E
:1034300016021A60FB681B6C002B07D0FB681B6828
:103440001A68FB681B6842F008021A60FB681B6878
:103450001A68FB681B6842F001021A6005E0FB680D
:10346000002283F834200223FB75FB7D18461837B1
:10347000BD4680BD80B483B000AF78607B6893F8B0
:103480003530DBB2022B04D07B6880225A650123E1
:103490000CE07B68052283F835207B681B681A687E
:1034A0007B681B6822F001021A60002318460C3763
:1034B000BD465DF8047B704780B586B000AF78608C
:1034C0000023BB608E4B1B688E4AA2FB03239B0A22
:1034D0007B617B689B6D3B613B691B68FB607B6824
:1034E000DB6D08229A40FB681340002B1AD07B68E2
:1034F0001B681B6803F00403002B13D07B681B6858
:103500001A687B681B6822F004021A607B68DB6D16
:1035100008229A403B699A607B685B6D43F0010228
:103520007B685A657B68DB6D01229A40FB6813401B
:10353000002B12D07B681B685B6903F08003002BB3
:103540000BD07B68DB6D01229A403B699A607B68F7
:103550005B6D43F002027B685A657B68DB6D042279
:103560009A40FB681340002B12D07B681B681B68D5
:1035700003F00203002B0BD07B68DB6D04229A4022
:103580003B699A607B685B6D43F004027B685A6517
:103590007B68DB6D10229A40FB681340002B43D000
:1035A0007B681B681B6803F00803002B3CD07B681A
:1035B000DB6D10229A403B699A607B681B681B6830
:1035C00003F48023002B18D07B681B681B6803F46E
:1035D0000023002B08D17B681B6C002B24D07B6858
:1035E0001B6C786898471FE07B689B6C002B1BD096
:1035F0007B689B6C7868984716E07B681B681B6843
:1036000003F48073002B07D17B681B681A687B6802
:103610001B6822F008021A607B681B6C002B03D029
:103620007B681B6C786898477B68DB6D20229A402A
:10363000FB681340002B00F08F807B681B681B68C1
:1036400003F01003002B00F087807B68DB6D2022E5
:103650009A403B699A607B6893F83530DBB2052B62
:1036600036D17B681B681A687B681B6822F01602DB
:103670001A607B681B685A697B681B6822F08002AD
:103680005A617B681B6C002B03D17B689B6C002B01
:1036900007D07B681B681A687B681B6822F00802E9
:1036A0001A607B68DB6D3F229A403B699A607B68B9
:1036B000012283F835207B68002283F834207B6860
:1036C0001B6D002B7ED07B681B6D7868984779E076
:1036D0007B681B681B6803F48023002B1DD07B686C
:1036E0001B681B6803F40023002B0DD17B685B6C07
:1036F000002B31D07B685B6C786898472CE000BF6A
:103700001C000020B5814E1B7B68DB6B002B23D097
:103710007B68DB6B786898471EE07B681B681B68DA
:1037200003F48073002B0FD17B681B681A687B68D9
:103730001B6822F010021A607B68012283F8352092
:103740007B68002283F834207B68DB6B002B03D07E
:103750007B68DB6B786898477B685B6D002B32D0A9
:103760007B685B6D03F00103002B22D07B68052290
:1037700083F835207B681B681A687B681B6822F019
:1037800001021A60BB680133BB607A699A4207D3B1
:103790007B681B681B6803F00103002BF2D100E07B
:1037A00000BF7B68012283F835207B68002283F804
:1037B00034207B68DB6C002B05D07B68DB6C786881
:1037C000984700E000BF1837BD4680BD80B483B085
:1037D00000AF78607B685B6D18460C37BD465DF8BE
:1037E000047B704780B485B000AFF860B9607A6040
:1037F0003B60FB681B681A68FB681B6822F4802228
:103800001A60FB681B683A685A60FB689B68402B2B
:1038100008D1FB681B687A689A60FB681B68BA6805
:10382000DA6007E0FB681B68BA689A60FB681B688F
:103830007A68DA6000BF1437BD465DF8047B7047D4
:1038400080B485B000AF78607B681B68DBB2103B4A
:10385000144AA2FB03231B09FB60134AFB681344B1
:103860001B781A467B68DA65FB68032B09D97B68ED
:103870001B6823F47F7323F003031A1D7B689A658A
:1038800007E07B681B6823F47F7323F003037A68E7
:1038900093657B689B6D18461437BD465DF8047BC5
:1038A000704700BFABAAAAAA84F1000880B485B013
:1038B00000AF78600023FB737B689B6ABB607B680A
:1038C0009B69002B1FD1BB68032B56D801A252F86D
:1038D00023F000BFE5380008F7380008E538000895
:1038E0007B3900087B68DB6A03F08073002B46D0CD
:1038F0000123FB7343E07B68DB6AB3F1C07F40D1F7
:103900000123FB733DE07B689B69B3F5005F21D128
:10391000BB68032B37D801A252F823F02D390008D9
:10392000333900082D390008453900080123FB739D
:1039300030E07B68DB6A03F08073002B25D0012325
:10394000FB7322E07B68DB6AB3F1C07F1FD10123E8
:10395000FB731CE0BB68022B03D9BB68032B03D0AD
:1039600018E00123FB7315E07B68DB6A03F08073CA
:10397000002B0ED00123FB730BE000BF0AE000BF59
:1039800008E000BF06E000BF04E000BF02E000BFA7
:1039900000E000BFFB7B18461437BD465DF8047B92
:1039A000704700BF80B489B000AF786039600023F1
:1039B0007B6100233B610023BB610023FB616BE162
:1039C0000122FB6902FA03F37B613B681B687A6999
:1039D00013403B613A697B699A4240F05A813B68E7
:1039E0005B6803F00303012B05D03B685B6803F0C1
:1039F0000303022B30D17B689B68BB61FB695B00D2
:103A0000032202FA03F3DB43BA691340BB613B684C
:103A1000DA68FB695B0002FA03F3BA691343BB611E
:103A20007B68BA699A607B685B68BB610122FB694D
:103A300002FA03F3DB43BA691340BB613B685B687E
:103A40001B0903F00102FB6902FA03F3BA6913438D
:103A5000BB617B68BA695A603B685B6803F003032B
:103A6000032B17D07B68DB68BB61FB695B0003221B
:103A700002FA03F3DB43BA691340BB613B689A68FF
:103A8000FB695B0002FA03F3BA691343BB617B680D
:103A9000BA69DA603B685B6803F00303022B23D149
:103AA000FB69DA087B68083253F82230BB61FB6996
:103AB00003F007039B000F2202FA03F3DB43BA690A
:103AC0001340BB613B681A69FB6903F007039B0065
:103AD00002FA03F3BA691343BB61FB69DA087B6836
:103AE0000832B96943F822107B681B68BB61FB6927
:103AF0005B00032202FA03F3DB43BA691340BB61A4
:103B00003B685B6803F00302FB695B0002FA03F3A6
:103B1000BA691343BB617B68BA691A603B685B682A
:103B200003F44033002B00F0B4800023FB60604BB3
:103B30005B6C5F4A43F4804353645D4B5B6C03F4FE
:103B40008043FB60FB685B4AFB699B08023352F8C9
:103B50002330BB61FB6903F003039B000F2202FAD1
:103B600003F3DB43BA691340BB617B68524A93425B
:103B70002BD07B68514A934225D07B68504A9342B0
:103B80001FD07B684F4A934219D07B684E4A9342BC
:103B900013D07B684D4A93420DD07B684C4A9342C8
:103BA00007D07B684B4A934201D107230EE00823DC
:103BB0000CE006230AE0052308E0042306E00323C3
:103BC00004E0022302E0012300E00023FA6902F08E
:103BD000030292009340BA691343BB613549FB6904
:103BE0009B080233BA6941F823203B4B9B68BB61B9
:103BF0003B69DB43BA691340BB613B685B6803F414
:103C00008013002B03D0BA693B691343BB61324A6E
:103C1000BB699360304BDB68BB613B69DB43BA69CE
:103C20001340BB613B685B6803F40013002B03D0B7
:103C3000BA693B691343BB61274ABB69D360264B12
:103C40005B68BB613B69DB43BA691340BB613B689E
:103C50005B6803F40033002B03D0BA693B6913435C
:103C6000BB611D4ABB6953601B4B1B68BB613B6951
:103C7000DB43BA691340BB613B685B6803F4803384
:103C8000002B03D0BA693B691343BB61124ABB697D
:103C90001360FB690133FB61FB690F2B7FF690AE6C
:103CA00000BF00BF2437BD465DF8047B704700BFEE
:103CB0000038024000380140000002400004024089
:103CC00000080240000C02400010024000140240B4
:103CD00000180240001C0240003C014080B485B046
:103CE00000AF78600B467B807B681A697B88134045
:103CF000002B02D00123FB7301E00023FB73FB7B4D
:103D000018461437BD465DF8047B704780B483B015
:103D100000AF78600B467B8013467B707B78002B6E
:103D200003D07A887B689A6103E07B881A047B68F9
:103D30009A6100BF0C37BD465DF8047B70470000F8
:103D400080B584B000AF78607B68002B01D101237F
:103D50002BE17B6893F83D30DBB2002B06D17B680A
:103D6000002283F83C207868FEF70CFE7B68242252
:103D700083F83D207B681B681A687B681B6822F00B
:103D800001021A607B681B681A687B681B6842F432
:103D900000421A607B681B681A687B681B6822F403
:103DA00000421A6002F0FAF8F8607B685B68814AAA
:103DB000934207D8FB68804A934294BF01230023B3
:103DC000DBB206E0FB687D4A934294BF01230023E7
:103DD000DBB2002B01D00123E7E0FB68784AA2FBAD
:103DE00003239B0CBB607B681B685B6823F03F016F
:103DF0007B681B68BA680A435A607B681B681B6A49
:103E000023F03F017B685B686A4A934202D8BB6833
:103E1000013309E0BB684FF4967202FB03F3694A71
:103E2000A2FB03239B0901337A6812680B431362D8
:103E30007B681B68DB6923F44F4222F0FF027B683A
:103E40005B685C498B4219D8FB68591E7B685B68CC
:103E50005B00B1FBF3F3591C40F6FC730B40002BE5
:103E60000AD0FB68591E7B685B685B00B1FBF3F30B
:103E70000133C3F30B0351E004234FE07B689B68DD
:103E8000002B11D1FB68581E7B6859680B465B00FC
:103E90000B44B0FBF3F30133C3F30B03002B0CBF54
:103EA00001230023DBB212E0FB68581E7B685968CF
:103EB0000B469B000B4499000B44B0FBF3F301331A
:103EC000C3F30B03002B0CBF01230023DBB2002B39
:103ED00001D0012322E07B689B68002B0ED1FB6898
:103EE000581E7B6859680B465B000B44B0FBF3F32C
:103EF0000133C3F30B0343F400430FE0FB68581E88
:103F00007B6859680B469B000B4499000B44B0FB3F
:103F1000F3F30133C3F30B0343F4404379680968B7
:103F20001343CB617B681B681B6823F0C0017B686F
:103F3000DA697B681B6A1A437B681B680A431A604C
:103F40007B681B689B6823F4034323F0FF037A68B4
:103F500011697A68D26811437A6812680B439360DA
:103F60007B681B68DB6823F0FF017B685A697B680C
:103F70009B691A437B681B680A43DA607B681B688D
:103F80001A687B681B6842F001021A607B68002295
:103F90001A647B68202283F83D207B6800221A6324
:103FA0007B68002283F83E20002318461037BD4668
:103FB00080BD00BFA08601007F841E00FF083D0079
:103FC00083DE1B43D34D621080B588B002AFF8602A
:103FD0007A601A460B467B8113463B81FFF702F855
:103FE0007861FB6893F83D30DBB2202B40F0E08035
:103FF0007B690093192301227049F86801F028F9C0
:104000000346002B01D00223D3E0FB6893F83C3039
:10401000012B01D10223CCE0FB68012283F83C2074
:10402000FB681B681B6803F00103012B07D0FB68CA
:104030001B681A68FB681B6842F001021A60FB6883
:104040001B681A68FB681B6822F400621A60FB6830
:10405000212283F83D20FB68102283F83E20FB6874
:1040600000221A64FB687A685A62FB683A895A85AA
:10407000FB685B8D9AB2FB681A85FB68504ADA626E
:1040800079897B693A6AF86800F014FE0346002BD0
:1040900001D001238DE000233B61FB681B685B6955
:1040A0003B61FB681B689B693B613B6966E07A6921
:1040B000396AF86801F0E6F90346002B0DD0FB6879
:1040C0001B6C042B07D1FB681B681A68FB681B6814
:1040D00042F400721A6001236BE0FB685B6A1A7895
:1040E000FB681B681A61FB685B6A5A1CFB685A62B2
:1040F000FB685B8D9BB2013B9AB2FB685A85FB68FB
:104100001B8D013B9AB2FB681A85FB681B685B69D3
:1041100003F00403042B1BD1FB681B8D002B17D06D
:10412000FB685B6A1A78FB681B681A61FB685B6A4C
:104130005A1CFB685A62FB685B8D9BB2013B9AB2CA
:10414000FB685A85FB681B8D013B9AB2FB681A8598
:104150007A69396AF86801F0DDF90346002B0DD061
:10416000FB681B6C042B07D1FB681B681A68FB6893
:104170001B6842F400721A6001231AE0FB681B8D71
:10418000002B94D1FB681B681A68FB681B6842F41B
:1041900000721A60FB68202283F83D20FB68002231
:1041A00083F83E20FB68002283F83C20002300E0D7
:1041B000022318461837BD4680BD00BF020010001C
:1041C0000000FFFF80B58CB002AFF8607A601A463D
:1041D0000B467B8113463B81FEF704FF7862FB6848
:1041E00093F83D30DBB2202B40F017827B6A0093BE
:1041F000192301227C49F86801F02AF80346002BB4
:1042000001D002230AE2FB6893F83C30012B01D174
:10421000022303E2FB68012283F83C20FB681B6851
:104220001B6803F00103012B07D0FB681B681A68A9
:10423000FB681B6842F001021A60FB681B681A6881
:10424000FB681B6822F400621A60FB68222283F874
:104250003D20FB68102283F83E20FB6800221A6490
:10426000FB687A685A62FB683A895A85FB685B8DFD
:104270009AB2FB681A85FB685C4ADA6279897B6AC4
:104280003A6BF86800F098FD0346002B01D001233B
:10429000C4E1FB681B8D002B13D100233B62FB683C
:1042A0001B685B693B62FB681B689B693B623B6AFE
:1042B000FB681B681A68FB681B6842F400721A608E
:1042C00098E1FB681B8D012B1BD1FB681B681A68EA
:1042D000FB681B6822F480621A600023FB61FB68A4
:1042E0001B685B69FB61FB681B689B69FB61FB6981
:1042F000FB681B681A68FB681B6842F400721A604E
:1043000078E1FB681B8D022B1BD1FB681B681A68C8
:10431000FB681B6822F480621A60FB681B681A68DD
:10432000FB681B6842F400621A600023BB61FB68F3
:104330001B685B69BB61FB681B689B69BB61BB69F0
:1043400058E1FB681B681A68FB681B6842F48062CE
:104350001A6000237B61FB681B685B697B61FB68FB
:104360001B689B697B617B6944E1FB681B8D032BA8
:1043700000F2F180FB681B8D012B23D17A6A396B27
:10438000F86801F00FF90346002B01D0012345E145
:10439000FB681B681A69FB685B6AD2B21A70FB681B
:1043A0005B6A5A1CFB685A62FB681B8D013B9AB220
:1043B000FB681A85FB685B8D9BB2013B9AB2FB6878
:1043C0005A8517E1FB681B8D022B4ED17B6A009347
:1043D0003B6B00220649F86800F03AFF0346002BC9
:1043E00008D001231AE100BF020010000000FFFF07
:1043F00004000100FB681B681A68FB681B6842F434
:1044000000721A60FB681B681A69FB685B6AD2B2AB
:104410001A70FB685B6A5A1CFB685A62FB681B8D4A
:10442000013B9AB2FB681A85FB685B8D9BB2013B2E
:104430009AB2FB685A85FB681B681A69FB685B6A5D
:10444000D2B21A70FB685B6A5A1CFB685A62FB683E
:104450001B8D013B9AB2FB681A85FB685B8D9BB292
:10446000013B9AB2FB685A85C4E07B6A00933B6BC0
:1044700000226C49F86800F0EBFE0346002B01D0E7
:104480000123CBE0FB681B681A68FB681B6822F4F9
:1044900080621A60FB681B681A69FB685B6AD2B2AB
:1044A0001A70FB685B6A5A1CFB685A62FB681B8DBA
:1044B000013B9AB2FB681A85FB685B8D9BB2013B9E
:1044C0009AB2FB685A857B6A00933B6B0022554980
:1044D000F86800F0BDFE0346002B01D001239DE0EB
:1044E000FB681B681A68FB681B6842F400721A605C
:1044F000FB681B681A69FB685B6AD2B21A70FB68BA
:104500005B6A5A1CFB685A62FB681B8D013B9AB2BE
:10451000FB681A85FB685B8D9BB2013B9AB2FB6816
:104520005A85FB681B681A69FB685B6AD2B21A700D
:10453000FB685B6A5A1CFB685A62FB681B8D013B77
:104540009AB2FB681A85FB685B8D9BB2013B9AB2FD
:10455000FB685A854EE07A6A396BF86801F022F8F8
:104560000346002B01D0012358E0FB681B681A6941
:10457000FB685B6AD2B21A70FB685B6A5A1CFB6804
:104580005A62FB681B8D013B9AB2FB681A85FB6877
:104590005B8D9BB2013B9AB2FB685A85FB681B6836
:1045A0005B6903F00403042B24D1FB681B8D032BF0
:1045B00007D1FB681B681A68FB681B6822F48062DD
:1045C0001A60FB681B681A69FB685B6AD2B21A70D2
:1045D000FB685B6A5A1CFB685A62FB681B8D013BD7
:1045E0009AB2FB681A85FB685B8D9BB2013B9AB25D
:1045F000FB685A85FB681B8D002B7FF4B6AEFB6809
:10460000202283F83D20FB68002283F83E20FB68CF
:10461000002283F83C20002300E0022318462837BC
:10462000BD4680BD0400010080B588B002AFF860CF
:10463000084611461A4603467B810B463B811346CA
:10464000FB80FEF7CFFC7861FB6893F83D30DBB26E
:10465000202B40F0D9807B690093192301226D49FA
:10466000F86800F0F5FD0346002B01D00223CCE0F2
:10467000FB6893F83C30012B01D10223C5E0FB68B5
:10468000012283F83C20FB681B681B6803F00103D0
:10469000012B07D0FB681B681A68FB681B6842F097
:1046A00001021A60FB681B681A68FB681B6822F429
:1046B00000621A60FB68212283F83D20FB684022DB
:1046C00083F83E20FB6800221A64FB683A6A5A624B
:1046D000FB68BA8C5A85FB685B8D9AB2FB681A85B9
:1046E000FB684D4ADA62F8883A8979897B690193D7
:1046F000BB6A00930346F86800F02CFC0346002BCD
:1047000052D0012381E07A69B96AF86800F0BAFEF4
:104710000346002B0DD0FB681B6C042B07D1FB68F4
:104720001B681A68FB681B6842F400721A60012358
:104730006BE0FB685B6A1A78FB681B681A61FB68B0
:104740005B6A5A1CFB685A62FB681B8D013B9AB27C
:10475000FB681A85FB685B8D9BB2013B9AB2FB68D4
:104760005A85FB681B685B6903F00403042B1BD1AB
:10477000FB681B8D002B17D0FB685B6A1A78FB68FF
:104780001B681A61FB685B6A5A1CFB685A62FB680B
:104790001B8D013B9AB2FB681A85FB685B8D9BB24F
:1047A000013B9AB2FB685A85FB681B8D002BAAD18E
:1047B0007A69B96AF86800F0ADFE0346002B0DD0A7
:1047C000FB681B6C042B07D1FB681B681A68FB682D
:1047D0001B6842F400721A60012316E0FB681B6834
:1047E0001A68FB681B6842F400721A60FB6820229A
:1047F00083F83D20FB68002283F83E20FB680022FE
:1048000083F83C20002300E0022318461837BD46F9
:1048100080BD00BF020010000000FFFF80B58CB01B
:1048200002AFF860084611461A4603467B810B46E4
:104830003B811346FB80FEF7D5FB7862FB6893F85B
:104840003D30DBB2202B40F014827B6A00931923A9
:1048500001227B49F86800F0FBFC0346002B01D0E5
:10486000022307E2FB6893F83C30012B01D10223BD
:1048700000E2FB68012283F83C20FB681B681B6890
:1048800003F00103012B07D0FB681B681A68FB6863
:104890001B6842F001021A60FB681B681A68FB681B
:1048A0001B6822F400621A60FB68222283F83D2014
:1048B000FB68402283F83E20FB6800221A64FB68F4
:1048C0003A6B5A62FB68BA8E5A85FB685B8D9AB266
:1048D000FB681A85FB685B4ADA62F8883A8979894D
:1048E0007B6A0193BB6B00930346F86800F0C8FB3A
:1048F0000346002B01D00123BCE1FB681B8D002B7C
:1049000013D100233B62FB681B685B693B62FB6859
:104910001B689B693B623B6AFB681B681A68FB6803
:104920001B6842F400721A6090E1FB681B8D012B3A
:104930001BD1FB681B681A68FB681B6822F4806245
:104940001A600023FB61FB681B685B69FB61FB6805
:104950001B689B69FB61FB69FB681B681A68FB6845
:104960001B6842F400721A6070E1FB681B8D022B19
:104970001BD1FB681B681A68FB681B6822F4806205
:104980001A60FB681B681A68FB681B6842F40062C7
:104990001A600023BB61FB681B685B69BB61FB6835
:1049A0001B689B69BB61BB6950E100237B61FB68AD
:1049B0001B685B697B61FB681B689B697B617B692A
:1049C00044E1FB681B8D032B00F2F180FB681B8D1B
:1049D000012B23D17A6AB96BF86800F0E3FD034636
:1049E000002B01D0012345E1FB681B681A69FB68B5
:1049F0005B6AD2B21A70FB685B6A5A1CFB685A6227
:104A0000FB681B8D013B9AB2FB681A85FB685B8DC6
:104A10009BB2013B9AB2FB685A8517E1FB681B8D7C
:104A2000022B4ED17B6A0093BB6B00220649F868CB
:104A300000F00EFC0346002B08D001231AE100BF52
:104A4000020010000000FFFF04000100FB681B686B
:104A50001A68FB681B6842F400721A60FB681B68E6
:104A60001A69FB685B6AD2B21A70FB685B6A5A1CEF
:104A7000FB685A62FB681B8D013B9AB2FB681A8582
:104A8000FB685B8D9BB2013B9AB2FB685A85FB6861
:104A90001B681A69FB685B6AD2B21A70FB685B6AB2
:104AA0005A1CFB685A62FB681B8D013B9AB2FB687B
:104AB0001A85FB685B8D9BB2013B9AB2FB685A85F5
:104AC000C4E07B6A0093BB6B00226C49F86800F07D
:104AD000BFFB0346002B01D00123CBE0FB681B6822
:104AE0001A68FB681B6822F480621A60FB681B6806
:104AF0001A69FB685B6AD2B21A70FB685B6A5A1C5F
:104B0000FB685A62FB681B8D013B9AB2FB681A85F1
:104B1000FB685B8D9BB2013B9AB2FB685A857B6A4E
:104B20000093BB6B00225549F86800F091FB0346E7
:104B3000002B01D001239DE0FB681B681A68FB680D
:104B40001B6842F400721A60FB681B681A69FB68F4
:104B50005B6AD2B21A70FB685B6A5A1CFB685A62C5
:104B6000FB681B8D013B9AB2FB681A85FB685B8D65
:104B70009BB2013B9AB2FB685A85FB681B681A69B5
:104B8000FB685B6AD2B21A70FB685B6A5A1CFB68EE
:104B90005A62FB681B8D013B9AB2FB681A85FB6861
:104BA0005B8D9BB2013B9AB2FB685A854EE07A6AF4
:104BB000B96BF86800F0F6FC0346002B01D0012326
:104BC00058E0FB681B681A69FB685B6AD2B21A700E
:104BD000FB685B6A5A1CFB685A62FB681B8D013BD1
:104BE0009AB2FB681A85FB685B8D9BB2013B9AB257
:104BF000FB685A85FB681B685B6903F00403042BA0
:104C000024D1FB681B8D032B07D1FB681B681A6836
:104C1000FB681B6822F480621A60FB681B681A69D3
:104C2000FB685B6AD2B21A70FB685B6A5A1CFB684D
:104C30005A62FB681B8D013B9AB2FB681A85FB68C0
:104C40005B8D9BB2013B9AB2FB685A85FB681B8D5A
:104C5000002B7FF4B6AEFB68202283F83D20FB6872
:104C6000002283F83E20FB68002283F83C200023CA
:104C700000E0022318462837BD4680BD040001002D
:104C800080B483B000AF78607B6893F83D30DBB2CE
:104C900018460C37BD465DF8047B704780B483B07E
:104CA00000AF78607B681B6C18460C37BD465DF81A
:104CB000047B704780B588B002AFF8607A603B60D3
:104CC0000B467B81FB68DB6A7B617B69082B06D026
:104CD0007B69012B03D07B6913F5803F08D1FB680A
:104CE0001B681A68FB681B6842F480721A600BE04C
:104CF000FB681B6B122B07D1FB681B681A68FB68EB
:104D00001B6842F480721A603B6800937B68002243
:104D10004FF00111F86800F09BFA0346002B0DD00C
:104D2000FB681B681B6803F48073B3F5807F03D1B5
:104D3000FB684FF400721A64032335E0FB681B69BB
:104D4000B3F5804F08D17B89DBB21A46FB681B683C
:104D500002F0FE021A611BE07B89DB11DBB203F07B
:104D60000603DBB263F00F03DAB2FB681B681A615B
:104D70003B687A680E49F86800F0E4FA0346002BB5
:104D800001D0012310E07B89DAB2FB681B681A614D
:104D90003B687A680749F86800F0D4FA0346002BAC
:104DA00001D0012300E0002318461837BD4680BD1E
:104DB000080001000200010080B588B002AFF86071
:104DC0007A603B600B467B81FB68DB6A7B61FB683A
:104DD0001B681A68FB681B6842F480621A607B6972
:104DE000082B06D07B69012B03D07B6913F5803F2C
:104DF00008D1FB681B681A68FB681B6842F4807264
:104E00001A600BE0FB681B6B112B07D1FB681B685A
:104E10001A68FB681B6842F480721A603B68009352
:104E20007B6800224FF00111F86800F011FA034688
:104E3000002B0DD0FB681B681B6803F48073B3F56F
:104E4000807F03D1FB684FF400721A64032379E07A
:104E5000FB681B69B3F5804F08D17B89DBB243F057
:104E60000103DAB2FB681B681A615FE07B89DB1122
:104E7000DBB203F00603DBB263F00F03DAB2FB68C8
:104E80001B681A613B687A683049F86800F05AFA82
:104E90000346002B01D0012354E07B89DAB2FB6882
:104EA0001B681A613B687A682949F86800F04AFA79
:104EB0000346002B01D0012344E000233B61FB6843
:104EC0001B685B693B61FB681B689B693B613B69D5
:104ED000FB681B681A68FB681B6842F480721A60E2
:104EE0003B6800937B6800224FF00111F86800F0E6
:104EF000AFF90346002B0DD0FB681B681B6803F459
:104F00008073B3F5807F03D1FB684FF400721A649D
:104F1000032317E07B89DB11DBB203F00603DBB26E
:104F200063F00E03DAB2FB681B681A613B687A68AB
:104F30000749F86800F006FA0346002B01D0012368
:104F400000E0002318461837BD4680BD0800010068
:104F50000200010080B588B002AFF8600846114633
:104F60001A4603467B810B463B811346FB80FB6858
:104F70001B681A68FB681B6842F480721A607B6ABF
:104F800000933B6A00224FF00111F86800F060F9CD
:104F90000346002B0DD0FB681B681B6803F480736D
:104FA000B3F5807F03D1FB684FF400721A640323CA
:104FB0005FE07B89DBB21A46FB681B6802F0FE02E9
:104FC0001A617B6A3A6A2D49F86800F0BBF903461A
:104FD000002B01D001234CE000237B61FB681B68A0
:104FE0005B697B61FB681B689B697B617B697A6A93
:104FF000396AF86800F046FA0346002B0DD0FB68CA
:105000001B6C042B07D1FB681B681A68FB681B68C4
:1050100042F400721A6001232BE0FB88012B05D1BA
:105020003B89DAB2FB681B681A6121E03B891B0AE5
:105030009BB2DAB2FB681B681A617A6A396AF8684F
:1050400000F020FA0346002B0DD0FB681B6C042BEC
:1050500007D1FB681B681A68FB681B6842F4007282
:105060001A60012305E03B89DAB2FB681B681A610C
:10507000002318461837BD4680BD00BF020001005E
:1050800080B588B002AFF860084611461A4603465C
:105090007B810B463B811346FB80FB681B681A68CB
:1050A000FB681B6842F480621A60FB681B681A6820
:1050B000FB681B6842F480721A607B6A00933B6A4B
:1050C00000224FF00111F86800F0C2F80346002BEF
:1050D0000DD0FB681B681B6803F48073B3F5807FF9
:1050E00003D1FB684FF400721A640323AAE07B89A2
:1050F000DBB21A46FB681B6802F0FE021A617B6A8B
:105100003A6A5249F86800F01DF90346002B01D0B5
:10511000012397E000237B61FB681B685B697B616F
:10512000FB681B689B697B617B697A6A396AF868EE
:1051300000F0A8F90346002B0DD0FB681B6C042B74
:1051400007D1FB681B681A68FB681B6842F4007291
:105150001A60012376E0FB88012B05D13B89DAB286
:10516000FB681B681A6121E03B891B0A9BB2DAB21B
:10517000FB681B681A617A6A396AF86800F082F97C
:105180000346002B0DD0FB681B6C042B07D1FB687A
:105190001B681A68FB681B6842F400721A600123DE
:1051A00050E03B89DAB2FB681B681A617A6A396A97
:1051B000F86800F067F90346002B0DD0FB681B6C04
:1051C000042B07D1FB681B681A68FB681B6842F454
:1051D00000721A60012335E0FB681B681A68FB68DF
:1051E0001B6842F480721A607B6A00933B6A00225B
:1051F0004FF00111F86800F02BF80346002B0DD09A
:10520000FB681B681B6803F48073B3F5807F03D1D0
:10521000FB684FF400721A64032313E07B89DBB24E
:1052200043F00103DAB2FB681B681A617B6A3A6AD1
:105230000649F86800F086F80346002B01D00123E8
:1052400000E0002318461837BD4680BD020001006B
:1052500080B584B000AFF860B9603B601346FB7165
:1052600048E03B68B3F1FF3F44D0FDF7BBFE024688
:10527000BB69D31A3A689A4202D33B68002B39D1F2
:10528000BB681B0CDBB2012B0DD1FB681B685B6993
:10529000DA43BB6813409BB2002B0CBF01230023F1
:1052A000DBB21A460CE0FB681B689B69DA43BB68FB
:1052B00013409BB2002B0CBF01230023DBB21A4624
:1052C000FB799A4216D1FB6800221A63FB68202200
:1052D00083F83D20FB68002283F83E20FB681B6CAE
:1052E00043F02002FB681A64FB68002283F83C202C
:1052F000012323E0BB681B0CDBB2012B0DD1FB6843
:105300001B685B69DA43BB6813409BB2002B0CBF80
:1053100001230023DBB21A460CE0FB681B689B6983
:10532000DA43BB6813409BB2002B0CBF0123002360
:10533000DBB21A46FB799A4293D000231846103705
:10534000BD4680BD80B584B000AFF860B9607A60BA
:105350003B6071E0FB681B685B6903F48063B3F535
:10536000806F23D1FB681B681A68FB681B6842F4D6
:1053700000721A60FB681B686FF480625A61FB68F8
:1053800000221A63FB68202283F83D20FB6800227C
:1053900083F83E20FB681B6C43F00402FB681A6430
:1053A000FB68002283F83C20012367E07B68B3F1AF
:1053B000FF3F41D0FDF716FE02463B68D31A7A68DC
:1053C0009A4202D37B68002B36D1BB681B0CDBB240
:1053D000012B0CD1FB681B685B69DA43BB68134087
:1053E0009BB2002B14BF01230023DBB20BE0FB6850
:1053F0001B689B69DA43BB6813409BB2002B14BF48
:1054000001230023DBB2002B16D0FB6800221A63B5
:10541000FB68202283F83D20FB68002283F83E20B1
:10542000FB681B6C43F02002FB681A64FB680022D7
:1054300083F83C20012321E0BB681B0CDBB2012B6D
:105440000CD1FB681B685B69DA43BB6813409BB2F5
:10545000002B14BF01230023DBB20BE0FB681B68A9
:105460009B69DA43BB6813409BB2002B14BF012336
:105470000023DBB2002B7FF46DAF002318461037FA
:10548000BD4680BD80B584B000AFF860B9607A6079
:1054900034E0F86800F0E3F80346002B01D0012364
:1054A00034E0BB68B3F1FF3F28D0FDF79BFD024617
:1054B0007B68D31ABA689A4202D3BB68002B1DD10D
:1054C000FB681B685B6903F08003802B16D0FB68C8
:1054D00000221A63FB68202283F83D20FB6800222B
:1054E00083F83E20FB681B6C43F02002FB681A64C3
:1054F000FB68002283F83C20012307E0FB681B685F
:105500005B6903F08003802BC3D10023184610375A
:10551000BD4680BD80B584B000AFF860B9607A60E8
:1055200034E0F86800F09BF80346002B01D001231B
:1055300034E0BB68B3F1FF3F28D0FDF753FD0246CE
:105540007B68D31ABA689A4202D3BB68002B1DD17C
:10555000FB681B685B6903F00403042B16D0FB682F
:1055600000221A63FB68202283F83D20FB6800229A
:1055700083F83E20FB681B6C43F02002FB681A6432
:10558000FB68002283F83C20012307E0FB681B68CE
:105590005B6903F00403042BC3D1002318461037C2
:1055A000BD4680BD80B584B000AFF860B9607A6058
:1055B00049E0FB681B685B6903F01003102B19D1ED
:1055C000FB681B686FF010025A61FB6800221A63C7
:1055D000FB68202283F83D20FB68002283F83E20F0
:1055E000FB681A6CFB681A64FB68002283F83C2095
:1055F000012330E0FDF7F6FC02467B68D31ABA6857
:105600009A4202D3BB68002B1DD1FB681B685B6903
:1056100003F04003402B16D0FB6800221A63FB689E
:10562000202283F83D20FB68002283F83E20FB689F
:105630001B6C43F02002FB681A64FB68002283F8AD
:105640003C20012307E0FB681B685B6903F0400313
:10565000402BAED1002318461037BD4680BD80B424
:1056600083B000AF78607B681B685B6903F480637C
:10567000B3F5806F1BD17B681B686FF480625A6141
:105680007B6800221A637B68202283F83D207B68B8
:10569000002283F83E207B681B6C43F004027B6889
:1056A0001A647B68002283F83C20012300E0002379
:1056B00018460C37BD465DF8047B704780B586B050
:1056C00000AF78607B68002B01D1012367E27B6823
:1056D0001B6803F00103002B75D0884B9B6803F017
:1056E0000C03042B0CD0854B9B6803F00C03082B98
:1056F00012D1824B5B6803F48003B3F5800F0BD1AA
:105700007E4B1B6803F40033002B5BD07B685B6827
:10571000002B57D1012342E27B685B68B3F5803FE1
:1057200006D1764B1B68754A43F4803313601DE045
:105730007B685B68B3F5A02F0CD1704B1B686F4A78
:1057400043F4802313606D4B1B686C4A43F4803331
:1057500013600BE0694B1B68684A23F480331360C5
:10576000664B1B68654A23F4802313607B685B6883
:10577000002B13D0FDF736FC386108E0FDF732FC52
:1057800002463B69D31A642B01D9032307E25B4B22
:105790001B6803F40033002BF0D014E0FDF722FC6B
:1057A000386108E0FDF71EFC02463B69D31A642B02
:1057B00001D90323F3E1514B1B6803F40033002BA1
:1057C000F0D100E000BF7B681B6803F00203002BF0
:1057D00063D04A4B9B6803F00C03002B0BD0474B64
:1057E0009B6803F00C03082B1CD1444B5B6803F44B
:1057F0008003002B16D1414B1B6803F00203002BE2
:1058000005D07B68DB68012B01D00123C7E13B4B4E
:105810001B6823F0F8027B681B69DB0037491343E0
:105820000B603AE07B68DB68002B20D0344B012210
:105830001A60FDF7D7FB386108E0FDF7D3FB02469D
:105840003B69D31A022B01D90323A8E12B4B1B6818
:1058500003F00203002BF0D0284B1B6823F0F80262
:105860007B681B69DB00254913430B6015E0244B63
:1058700000221A60FDF7B6FB386108E0FDF7B2FBC5
:1058800002463B69D31A022B01D9032387E11B4B44
:105890001B6803F00203002BF0D17B681B6803F048
:1058A0000803002B36D07B685B69002B16D0154BA4
:1058B00001221A60FDF796FB386108E0FDF792FBC4
:1058C00002463B69D31A022B01D9032367E10B4B34
:1058D0005B6F03F00203002BF0D01BE0094B0022AA
:1058E0001A60FDF77FFB38610EE0FDF77BFB024697
:1058F0003B69D31A022B07D9032350E10038024039
:1059000000004742800E4742884B5B6F03F0020362
:10591000002BEAD17B681B6803F00403002B00F026
:1059200097800023FB75814B1B6C03F08053002B89
:105930000FD10023BB607D4B1B6C7C4A43F080532E
:1059400013647A4B1B6C03F08053BB60BB6801236C
:10595000FB75774B1B6803F48073002B18D1744BD5
:105960001B68734A43F480731360FDF73BFB386197
:1059700008E0FDF737FB02463B69D31A022B01D939
:1059800003230CE16A4B1B6803F48073002BF0D0F7
:105990007B689B68012B06D1644B1B6F634A43F005
:1059A000010313671CE07B689B68052B0CD15F4BE0
:1059B0001B6F5E4A43F0040313675C4B1B6F5B4A2B
:1059C00043F0010313670BE0584B1B6F574A23F05A
:1059D00001031367554B1B6F544A23F004031367ED
:1059E0007B689B68002B15D0FDF7FCFA38610AE054
:1059F000FDF7F8FA02463B69D31A41F28832934226
:105A000001D90323CBE0494B1B6F03F00203002BAA
:105A1000EED014E0FDF7E6FA38610AE0FDF7E2FAAD
:105A200002463B69D31A41F28832934201D90323DB
:105A3000B5E03E4B1B6F03F00203002BEED1FB7D64
:105A4000012B05D1394B1B6C384A23F0805313646A
:105A50007B689B69002B00F0A180344B9B6803F0AE
:105A60000C03082B5CD07B689B69022B41D1314B26
:105A700000221A60FDF7B6FA386108E0FDF7B2FAC5
:105A800002463B69D31A022B01D9032387E0274B37
:105A90001B6803F00073002BF0D17B68DA697B6828
:105AA0001B6A1A437B685B6A9B011A437B689B6A8B
:105AB0005B08013B1B041A437B68DB6A1B061B491E
:105AC00013434B601B4B01221A60FDF78BFA3861C0
:105AD00008E0FDF787FA02463B69D31A022B01D989
