:020000040800F2
:100000000000022065310008192D00081F2D00088E
:10001000252D00082B2D0008312D000800000000C0
:10002000000000000000000000000000372D000864
:10003000452D000800000000532D0008612D000828
:10004000B5310008B5310008B5310008B5310008F8
:10005000B5310008B5310008B5310008B5310008E8
:10006000B5310008B5310008B5310008B5310008D8
:10007000B5310008B5310008B5310008B5310008C8
:10008000B5310008B5310008B5310008B5310008B8
:10009000B5310008B5310008B5310008B5310008A8
:1000A000B5310008B5310008B5310008B531000898
:1000B000B5310008B5310008B5310008B531000888
:1000C000B5310008B5310008B5310008B531000878
:1000D000B5310008B5310008B5310008B531000868
:1000E000B5310008B5310008B5310008B531000858
:1000F000B5310008B5310008B5310008B531000848
:10010000B53100086D2D0008B5310008B531000883
:10011000B5310008B5310008B5310008B531000827
:10012000B5310008B5310008B5310008812D00084F
:10013000B5310008B5310008B5310008B531000807
:10014000B5310008B5310008B5310008B5310008F7
:10015000B5310008952D0008B5310008B53100080B
:10016000B5310008B5310008B5310008B5310008D7
:10017000B5310008B5310008B531000800000000B5
:08018000B5310008B53100089B
:1001900010B5054C237833B9044B13B10448AFF3C1
:1001A00000800123237010BDF0010020000000003A
:1001B000E0C3000808B5034B1BB103490348AFF384
:1001C000008008BD00000000F4010020E0C300082A
:1001D00001F0FF01102A2BDB10F0070F08D010F8F8
:1001E000013B013A8B422DD010F0070F42B3F6D1FC
:1001F000F0B441EA012141EA014122F007047FF015
:1002000000070023F0E80256083C85EA010586EA6B
:10021000010685FA47F5A3FA87F586FA47F6A5FAA7
:1002200087F68EB9EED1F0BC01F0FF0102F00702B3
:1002300032B110F8013B013A83EA010313B1F8D15E
:100240000020704701387047002D06BF354603383F
:10025000073815F0010F07D1013015F4807F02BF78
:10026000013015F4C03F0130F0BC0138704700BFC9
:10027000034613F8012B002AFBD1181A01387047E6
:1002800081F0004102E000BF83F0004330B54FEA47
:1002900041044FEA430594EA050F08BF90EA020FB4
:1002A0001FBF54EA000C55EA020C7FEA645C7FEA47
:1002B000655C00F0E2804FEA5454D4EB5555B8BF6A
:1002C0006D420CDD2C4480EA020281EA030382EADB
:1002D000000083EA010180EA020281EA0303362D6D
:1002E00088BF30BD11F0004F4FEA01314FF4801C40
:1002F0004CEA113102D0404261EB410113F0004F52
:100300004FEA03334CEA133302D0524263EB430308
:1003100094EA050F00F0A780A4F10104D5F1200EA6
:100320000DDB02FA0EFC22FA05F2801841F1000101
:1003300003FA0EF2801843FA05F359410EE0A5F1D5
:1003400020050EF1200E012A03FA0EFC28BF4CF006
:10035000020C43FA05F3C01851EBE37101F00045BC
:1003600007D54FF0000EDCF1000C7EEB00006EEBC9
:100370000101B1F5801F1BD3B1F5001F0CD3490853
:100380005FEA30004FEA3C0C04F101044FEA4452AA
:1003900012F5800F80F09A80BCF1004F08BF5FEA31
:1003A000500C50F1000041EB045141EA050130BD11
:1003B0005FEA4C0C404141EB0101013C28BFB1F523
:1003C000801FE9D291F0000F04BF01460020B1FA6E
:1003D00081F308BF2033A3F10B03B3F120020CDA41
:1003E0000C3208DD02F1140CC2F10C0201FA0CF01F
:1003F00021FA02F10CE002F11402D8BFC2F1200C84
:1004000001FA02F120FA0CFCDCBF41EA0C01904039
:10041000E41AA2BF01EB0451294330BD6FEA040482
:100420001F3C1CDA0C340EDC04F11404C4F120026D
:1004300020FA04F001FA02F340EA030021FA04F37F
:1004400045EA030130BDC4F10C04C4F1200220FAD6
:1004500002F001FA04F340EA0300294630BD21FA14
:1004600004F0294630BD94F0000F83F4801306BFDA
:1004700081F480110134013D4EE77FEA645C18BFCE
:100480007FEA655C29D094EA050F08BF90EA020F65
:1004900005D054EA000C04BF1946104630BD91EA5D
:1004A000030F1EBF0021002030BD5FEA545C05D160
:1004B0004000494128BF41F0004130BD14F580049F
:1004C0003CBF01F5801130BD01F0004545F0FE4113
:1004D00041F470014FF0000030BD7FEA645C1ABF48
:1004E000194610467FEA655C1CBF0B46024650EA7F
:1004F000013406BF52EA033591EA030F41F40021AB
:1005000030BD00BF90F0000F04BF0021704730B530
:100510004FF4806404F132044FF000054FF0000105
:1005200050E700BF90F0000F04BF0021704730B5C6
:100530004FF4806404F1320410F0004548BF40429B
:100540004FF000013EE700BF42004FEAE2014FEAF0
:1005500031014FEA02701FBF12F07F4393F07F4FCB
:1005600081F06051704732F07F4208BF704793F0CE
:100570007F4F04BF41F40021704730B54FF46074E1
:1005800001F0004521F000411CE700BF50EA0102E4
:1005900008BF704730B54FF000050AE050EA01028D
:1005A00008BF704730B511F0004502D5404261EBFD
:1005B00041014FF4806404F132045FEA915C3FF43E
:1005C000D8AE4FF003025FEADC0C18BF03325FEADB
:1005D000DC0C18BF033202EBDC02C2F1200300FA8C
:1005E00003FC20FA02F001FA03FE40EA0E0021FAB1
:1005F00002F11444BDE600BF70B54FF0FF0C4CF49F
:10060000E06C1CEA11541DBF1CEA135594EA0C0F50
:1006100095EA0C0F00F0DEF82C4481EA030621EA8B
:100620004C5123EA4C5350EA013518BF52EA0335C6
:1006300041F4801143F4801338D0A0FB02CE4FF078
:100640000005E1FB02E506F00042E0FB03E54FF0A8
:100650000006E1FB03569CF0000F18BF4EF0010EA0
:10066000A4F1FF04B6F5007F64F5407404D25FEA9C
:100670004E0E6D4146EB060642EAC62141EA55514F
:100680004FEAC52040EA5E504FEACE2EB4F1FD0C91
:1006900088BFBCF5E06F1ED8BEF1004F08BF5FEA0F
:1006A000500E50F1000041EB045170BD06F00046C1
:1006B00046EA010140EA020081EA0301B4EB5C046E
:1006C000C2BFD4EB0C0541EA045170BD41F4801166
:1006D0004FF0000E013C00F3AB8014F1360FDEBF8B
:1006E000002001F0004170BDC4F10004203C35DA67
:1006F0000C341BDC04F11404C4F1200500FA05F3EA
:1007000020FA04F001FA05F240EA020001F000428A
:1007100021F0004110EBD37021FA04F642EB060100
:100720005EEA430E08BF20EAD37070BDC4F10C042A
:10073000C4F1200500FA04F320FA05F001FA04F2EE
:1007400040EA020001F0004110EBD37041F10001DA
:100750005EEA430E08BF20EAD37070BDC4F12005E5
:1007600000FA05F24EEA020E20FA04F301FA05F24D
:1007700043EA020321FA04F001F0004121FA04F2F5
:1007800020EA020000EBD3705EEA430E08BF20EAC5
:10079000D37070BD94F0000F0FD101F000464000FF
:1007A00041EB010111F4801F08BF013CF7D041EA81
:1007B000060195F0000F18BF704703F00046520085
:1007C00043EB030313F4801F08BF013DF7D043EA56
:1007D0000603704794EA0C0F0CEA135518BF95EA0C
:1007E0000C0F0CD050EA410618BF52EA4306D1D193
:1007F00081EA030101F000414FF0000070BD50EAB2
:10080000410606BF1046194652EA430619D094EA3B
:100810000C0F02D150EA013613D195EA0C0F05D125
:1008200052EA03361CBF104619460AD181EA030179
:1008300001F0004141F0FE4141F470014FF0000031
:1008400070BD41F0FE4141F4780170BD70B54FF0CC
:10085000FF0C4CF4E06C1CEA11541DBF1CEA13554C
:1008600094EA0C0F95EA0C0F00F0A7F8A4EB05042E
:1008700081EA030E52EA03354FEA013100F0888025
:100880004FEA03334FF0805545EA131343EA1263EE
:100890004FEA022245EA111545EA10654FEA0026A3
:1008A0000EF000419D4208BF964244F1FD0404F55C
:1008B000407402D25B084FEA3202B61A65EB0305B8
:1008C0005B084FEA32024FF480104FF4002CB6EB75
:1008D000020E75EB030E22BFB61A754640EA0C00F5
:1008E0005B084FEA3202B6EB020E75EB030E22BF35
:1008F000B61A754640EA5C005B084FEA3202B6EB76
:10090000020E75EB030E22BFB61A754640EA9C0034
:100910005B084FEA3202B6EB020E75EB030E22BF04
:10092000B61A754640EADC0055EA060E18D04FEAC2
:10093000051545EA16754FEA06164FEAC30343EA62
:1009400052734FEAC2025FEA1C1CC0D111F4801F2F
:100950000BD141EA00014FF000004FF0004CB6E728
:1009600011F4801F04BF01430020B4F1FD0C88BFC7
:10097000BCF5E06F3FF6AFAEB5EB030C04BFB6EBD2
:10098000020C5FEA500C50F1000041EB045170BDC5
:100990000EF0004E4EEA113114EB5C04C2BFD4EBF2
:1009A0000C0541EA045170BD41F480114FF0000E76
:1009B000013C90E645EA060E8DE60CEA135594EAF2
:1009C0000C0F08BF95EA0C0F3FF43BAF94EA0C0FF5
:1009D0000AD150EA01347FF434AF95EA0C0F7FF46A
:1009E00025AF104619462CE795EA0C0F06D152EABE
:1009F00003353FF4FDAE1046194622E750EA4106A2
:100A000018BF52EA43067FF4C5AE50EA41047FF4B2
:100A10000DAF52EA43057FF4EBAE12E74FF0FF3C17
:100A200006E000BF4FF0010C02E000BF4FF0010CE8
:100A30004DF804CD4FEA410C7FEA6C5C4FEA430C61
:100A400018BF7FEA6C5C1BD001B050EA410C0CBFB0
:100A500052EA430C91EA030F02BF90EA020F002012
:100A6000704710F1000F91EA030F58BF994208BF79
:100A700090422CBFD8176FEAE37040F00100704736
:100A80004FEA410C7FEA6C5C02D150EA013C07D18D
:100A90004FEA430C7FEA6C5CD6D152EA033CD3D0D8
:100AA0005DF8040B704700BF8446104662468C46D2
:100AB0001946634600E000BF01B5FFF7B7FF002805
:100AC00048BF10F1000F01BD4DF808EDFFF7F4FF2E
:100AD0000CBF012000205DF808FB00BF4DF808EDB9
:100AE000FFF7EAFF34BF012000205DF808FB00BFDC
:100AF0004DF808EDFFF7E0FF94BF012000205DF8FE
:100B000008FB00BF4DF808EDFFF7CEFF94BF0120B2
:100B100000205DF808FB00BF4DF808EDFFF7C4FFAB
:100B200034BF012000205DF808FB00BF4FEA410CF4
:100B30007FEA6C5C02D150EA013C0AD14FEA430CD7
:100B40007FEA6C5C02D152EA033C02D14FF0000014
:100B500070474FF0010070474FEA410212F5001252
:100B600015D211D56FF47873B3EB625212D94FEAF4
:100B7000C12343F0004343EA505311F0004F23FADE
:100B800002F018BF404270474FF00000704750EA33
:100B9000013005D111F0004008BF6FF000407047F0
:100BA0004FF00000704700BF4A0011D212F500124A
:100BB00011D20DD56FF47873B3EB62520ED44FEAB5
:100BC000C12343F0004343EA505323FA02F0704735
:100BD0004FF00000704750EA013002D14FF0FF3073
:100BE00070474FF0000070474FEA4102B2F1E04316
:100BF00024BFB3F5001CDCF1FE5C0DD901F0004C04
:100C00004FEAC0024CEA5070B2F1004F40EB830053
:100C100008BF20F00100704711F0804F21D113F17F
:100C20003872BCBF01F00040704741F480114FEAB8
:100C30005252C2F11802C2F1200C10FA0CF320FA41
:100C400002F018BF40F001004FEAC1234FEAD3235E
:100C500003FA0CFC40EA0C0023FA02F34FEA4303C8
:100C6000CCE77FEA625307D150EA01331EBF4FF051
:100C7000FE4040F44000704701F0004040F0FE406C
:100C800040F40000704700BF53B94AB9002908BFBB
:100C900000281CBF4FF0FF314FF0FF3000F070B95B
:100CA000ADF1080C6DE904CE00F006F8DDF804E0C3
:100CB000DDE9022304B070472DE9F047089E0D4698
:100CC00004460F46002B4AD18A42944665D9B2FAAF
:100CD00082F343B102FA03FCC3F120029F4020FAE1
:100CE00002F217439C404FEA1C4E1FFA8CF5B7FBEB
:100CF000FEF1220C0EFB117742EA074201FB05F0E0
:100D000090420AD91CEB020201F1FF3780F01C81EE
:100D1000904240F2198102396244121AA4B2B2FB25
:100D2000FEF00EFB102244EA024400FB05F5A5424A
:100D30000AD91CEB040400F1FF3280F00781A542C0
:100D400040F204816444023840EA0140641B0021FF
:100D50001EB1DC400023C6E90043BDE8F0878B42AA
:100D600008D9002E00F0ED800021C6E900050846F4
:100D7000BDE8F087B3FA83F1002949D1AB4202D331
:100D8000824200F2F880841A65EB030201201746C4
:100D9000002EE2D0C6E90047DFE702B9FFDEB2FA73
:100DA00082F3002B40F090808A1A4FEA1C471FFA0A
:100DB0008CFE0121B2FBF7F507FB1520220C42EA5D
:100DC00000420EFB05F0904208D91CEB020205F12F
:100DD000FF3802D2904200F2CB804546121AA4B2EC
:100DE000B2FBF7F007FB102244EA02440EFB00FEC0
:100DF000A64508D91CEB040400F1FF3202D2A64537
:100E000000F2BB801046A4EB0E0440EA05409FE7C9
:100E1000C1F120078B4022FA07FC4CEA030C05FACB
:100E200001F420FA07F3FD404FEA1C492343B5FBC8
:100E3000F9F81FFA8CFE09FB18551C0C44EA05440E
:100E400008FB0EF5A54202FA01F200FA01F00BD9F7
:100E50001CEB040408F1FF3A80F08880A54240F2C0
:100E60008580A8F102086444641B9DB2B4FBF9F3C9
:100E700009FB134445EA044403FB0EFEA64508D9CA
:100E80001CEB040403F1FF356CD2A6456AD9023B82
:100E9000644443EA0843A3FB0295A4EB0E04AC426E
:100EA000C846AE4656D353D056B1B0EB080264EBF9
:100EB0000E0404FA07F7CA40CC401743C6E9007491
:100EC00018460021BDE8F087C3F1200102FA03FCB7
:100ED00020FA01F225FA01F19D402A434FEA1C470E
:100EE0001FFA8CFEB1FBF7F007FB1015110C41EA5D
:100EF000054100FB0EF58D4204FA03F408D91CEB02
:100F0000010100F1FF382FD28D422DD90238614402
:100F1000491B92B2B1FBF7F507FB151142EA0142FA
:100F200005FB0EF1914208D91CEB020205F1FF38D6
:100F300016D2914214D9023D6244521A45EA004148
:100F400038E73146304608E73946E6E61046FBE624
:100F50004845A9D2B9EB020865EB0C0E013BA3E7AB
:100F60004546EAE72B4694E74046D1E7D0467BE783
:100F7000023D624432E708460AE76444023842E729
:100F8000704700BF80B500AF00228021024803F007
:100F90007DF800BF80BD00BF0004024080B500AFF7
:100FA00001228021024803F071F800BF80BD00BF1C
:100FB0000004024080B500AF01224021024803F046
:100FC00065F800BF80BD00BF0004024080B500AFDF
:100FD00000224021024803F059F800BF80BD00BF45
:100FE0000004024080B584B000AF03460A46FB719E
:100FF0001346BB71FB7943F02003DBB23B73BB7933
:101000007B73FFF7BFFF074B186807F10C014FF424
:101010007A73022206F04FFBFFF7C0FF00BF1037C4
:10102000BD4680BD0C02002080B586B000AF0346EF
:10103000B9607A60FB73FB7B43F02003DBB23B7546
:10104000FFF7A0FF0B4B186807F11401642301227E
:1010500006F031FB074B18687B689AB24FF47A733D
:10106000B96806F028FBFFF799FF00BF1837BD46A7
:1010700080BD00BF0C02002080B584B000AF0346E5
:10108000FB710023FB73FFF77DFF0B4B1868F91D05
:101090006423012206F00FFB074B186807F10F01CC
:1010A0006423012206F060FCFFF778FFFB7B184603
:1010B0001037BD4680BD00BF0C02002080B582B055
:1010C00000AF0346FB71FFF75DFF064B1868F91D83
:1010D0006423012206F0EFFAFFF760FF00BF083734
:1010E000BD4680BD0C02002080B588B000AF03462D
:1010F000FB71FB79072B04D100210720FFF772FF5A
:1011000090E0FB79172B04D111211720FFF76AFF1C
:1011100088E008210020FFF765FF3F210120FFF74D
:1011200061FF03210220FFF75DFF03210320FFF78A
:1011300059FF00210420FFF755FF02210520FFF78A
:1011400051FF0E210620FFF74DFF00210720FFF77A
:1011500049FF00210820FFF745FF00210920FFF784
:1011600041FF324A07F1180392E803001860043384
:10117000197007F11803052219460A20FFF754FFDA
:101180002B4A07F1100392E803001860043319702A
:1011900007F11003052219460B20FFF745FFC32175
:1011A0000C20FFF71FFFC4210D20FFF71BFFC521F7
:1011B0000E20FFF717FFC6210F20FFF713FF1B4A72
:1011C00007F1080392E8030018600433197007F16F
:1011D0000803052219461020FFF726FF00211120E1
:1011E000FFF700FF00211220FFF7FCFE0021132073
:1011F000FFF7F8FE00211420FFF7F4FE0021152070
:10120000FFF7F0FE00211620FFF7ECFE112117205A
:10121000FFF7E8FE00211C20FFF7E4FE00211D205F
:10122000FFF7E0FE00BF2037BD4680BDF8C30008D1
:1012300000C4000880B582B000AF7860174A7B68B0
:101240001360164B1B68184606F056FEFFF7BEFEED
:101250000020FFF749FF00210020FFF7C3FE002117
:101260000120FFF7BFFE00210220FFF7BBFE032194
:101270000320FFF7B7FE00210420FFF7B3FE002193
:101280000520FFF7AFFE0C210620FFF7ABFEFFF7AE
:1012900091FE00BF0837BD4680BD00BF0C02002094
:1012A00080B586B000AFF860B9601346FB71FFF7F8
:1012B0008DFEFB7919460520FFF794FE0522F9689B
:1012C0001020FFF7B1FE33210420FFF78BFE3F23F0
:1012D000FB75FB7D19460220FFF784FE0522B968E5
:1012E0000B20FFF7A1FE20211120FFF77BFE20211C
:1012F0001220FFF777FE20211320FFF773FE202135
:101300001420FFF76FFE20211520FFF76BFE202130
:101310001620FFF767FEFFF74DFE00F099F800BFBB
:101320001837BD4680BD80B582B000AFFFF74EFED6
:101330000023FB71FB7943F00203FB71FB7943F05F
:101340000803FB71FB7943F00403FB71FB79194639
:101350000020FFF747FEFFF72DFE00F079F800BFF1
:101360000837BD4680BD80B582B000AFFFF72EFEC6
:101370000023FB71FB7943F00303FB71FB7943F01E
:101380000803FB71FB7943F00403FB71FB791946F9
:101390000020FFF727FEFFF70DFE00F069F800BF01
:1013A0000837BD4680BD000080B584B000AF7860CE
:1013B000264B1B68184606F09FFD00237B73FFF742
:1013C000E1FDA0237B73214B186807F10D01642315
:1013D000012206F070F91D4B18684FF47A73202231
:1013E000796806F068F9FFF7D9FD012001F056FF92
:1013F0000720FFF741FE0346FB73FB7B03F010035E
:10140000002B0AD0FB7B43F01003FB73FB7B1946D8
:101410000720FFF7E7FD00F01BF81720FFF72CFE71
:101420000346BB73BB7B03F01003002B08D0BB7BD0
:1014300003F00803002B03D100F00AF8012300E0B9
:10144000002318461037BD4680BD00BF0C020020A7
:1014500080B582B000AFE123FB71FB791846FFF73E
:101460002DFE1720FFF740FE00BF0837BD4680BDA8
:1014700080B582B000AFE223FB71FB791846FFF71D
:101480001DFE1720FFF730FE00BF0837BD4680BDA8
:1014900080B582B000AF124B1B68184606F02CFDD9
:1014A0001720FFF7E9FD0346FB710720FFF7E4FD76
:1014B0000346BB710020FFF7DFFD03467B71BB795C
:1014C00003F04003002B05D040210720FFF78AFDE1
:1014D000012300E0002318460837BD4680BD00BF49
:1014E0000C02002080B584B000AF7860144B1B68FC
:1014F000184606F001FD0023FB73FFF743FD61234F
:10150000FB730F4B186807F10F016423012206F0EB
:10151000D2F80B4B18684FF47A732022796806F0E2
:1015200023FAFFF73BFD012001F0B8FEE223FB7335
:10153000FB7B1846FFF7C2FD00BF1037BD4680BDDC
:101540000C02002080B582B000AF0346FB71FB792E
:101550001946072000F0E2FA00BF0837BD4680BDFB
:1015600080B582B000AF0346FB71FB7919463D2080
:1015700000F0D4FAFB79002B03D1132000F0C2FA5B
:1015800002E0072000F0BEFA00BF0837BD4680BD6C
:1015900080B500AF0020FFF7E3FF00BF80BD80B53E
:1015A00000AF0C20FFF7DCFF00BF80BD80B500AFAF
:1015B00020213F2000F0B2FA4FF42F7000F0A2FA81
:1015C00000BF80BD80B582B000AFFFF7EFFF002302
:1015D000FB71FB1D01221946002000F08BFBFB79FB
:1015E000A02B04D0FB791946094808F0ABFC002079
:1015F000FFF7A8FF00213F2000F090FAFFF7C8FF97
:101600000A2000F07FFA00BF0837BD4680BD00BF4A
:1016100008C400082DE9B0439EB000AF034687F828
:1016200027300020FFF78EFF97F82730202B08D1B6
:1016300007F1480197F827300822184600F05AFBB6
:1016400007E007F1480197F827300622184600F016
:1016500051FB4FF000028B4BC7E91C2397F8273052
:101660000E2B09D1884B1B881846FEF74BFF02460C
:101670000B46C7E91C233EE097F82730082B07D01C
:1016800097F82730282B03D097F827302E2B09D135
:101690007E4B1B881846FEF735FF02460B46C7E90E
:1016A0001C2328E097F82730142B09D1784B1B888E
:1016B0001846FEF727FF02460B46C7E91C231AE02F
:1016C00097F827301A2B09D1724B1B881846FEF762
:1016D00019FF02460B46C7E91C230CE097F8273098
:1016E000202B08D16C4B1B881846FEF70BFF0246D7
:1016F0000B46C7E91C2307F12803202200211846C6
:1017000008F086FD97F82730202B50D197F8493004
:101710001B021AB297F848301BB213431BB218468B
:10172000FEF700FFD7E91C23FFF790F802460B46AF
:10173000C7E90A2397F84B301B021AB297F84A30D0
:101740001BB213431BB21846FEF7ECFED7E91C236D
:10175000FFF77CF802460B46C7E90C2397F84D309B
:101760001B021AB297F84C301BB213431BB2184637
:10177000FEF7D8FED7E91C23FFF768F802460B46B0
:10178000C7E90E2397F84F301B021AB297F84E3074
:101790001BB213431BB21846FEF7C4FED7E91C2345
:1017A000FFF754F802460B46C7E910233BE097F8D1
:1017B00049301B021AB297F848301BB213431BB2D0
:1017C0001846FEF7AFFED7E91C23FFF73FF80246A5
:1017D0000B46C7E90C2397F84B301B021AB297F857
:1017E0004A301BB213431BB21846FEF79BFED7E9E3
:1017F0001C23FFF72BF802460B46C7E90E2397F888
:101800004D301B021AB297F84C301BB213431BB277
:101810001846FEF787FED7E91C23FFF717F80246A4
:101820000B46C7E9102307F1500407F128050FCD37
:101830000FC495E80F0084E80F00D7E91489D7E9B1
:101840001645D7E91801D7E91A2349EC148B45EC62
:10185000154B41EC160B43EC172BB0EE440AF0EE9F
:10186000640AB0EE451AF0EE651AB0EE462AF0EEC4
:10187000662AB0EE473AF0EE673A7837BD46BDE8E3
:10188000B08300BF0000F03F0600002000000020F1
:101890000200002004000020080000202DE9B043D1
:1018A00090B000AF1420FFF7B5FEB0EE404AF0EE66
:1018B000604AB0EE415AF0EE615AB0EE426AF0EE84
:1018C000626AB0EE437AF0EE637A87ED084B87EDFB
:1018D0000A5B87ED0C6B87ED0E7BD7E90889D7E9AA
:1018E0000A45D7E90C01D7E90E2349EC148B45ECE6
:1018F000154B41EC160B43EC172BB0EE440AF0EEFF
:10190000640AB0EE451AF0EE651AB0EE462AF0EE23
:10191000662AB0EE473AF0EE673A4037BD46BDE87A
:10192000B0832DE9B04390B000AF1A20FFF772FEEC
:10193000B0EE404AF0EE604AB0EE415AF0EE615A25
:10194000B0EE426AF0EE626AB0EE437AF0EE637A8D
:1019500087ED084B87ED0A5B87ED0C6B87ED0E7BFF
:10196000D7E90889D7E90A45D7E90C01D7E90E2359
:1019700049EC148B45EC154B41EC160B43EC172B43
:10198000B0EE440AF0EE640AB0EE451AF0EE651AC5
:10199000B0EE462AF0EE662AB0EE473AF0EE673A2D
:1019A0004037BD46BDE8B0832DE9B04390B000AFED
:1019B0002820FFF72FFEB0EE404AF0EE604AB0EE6E
:1019C000415AF0EE615AB0EE426AF0EE626AB0EE51
:1019D000437AF0EE637A87ED084B87ED0A5B87ED7B
:1019E0000C6B87ED0E7BD7E90889D7E90A45D7E963
:1019F0000C01D7E90E2349EC148B45EC154B41EC57
:101A0000160B43EC172BB0EE440AF0EE640AB0EE6E
:101A1000451AF0EE651AB0EE462AF0EE662AB0EEF0
:101A2000473AF0EE673A4037BD46BDE8B0832DE94E
:101A3000B04390B000AF2020FFF7ECFDB0EE404A7D
:101A4000F0EE604AB0EE415AF0EE615AB0EE426AF2
:101A5000F0EE626AB0EE437AF0EE637A87ED084BFF
:101A600087ED0A5B87ED0C6B87ED0E7BD7E9088964
:101A7000D7E90A45D7E90C01D7E90E2349EC148BC5
:101A800045EC154B41EC160B43EC172BB0EE440A1A
:101A9000F0EE640AB0EE451AF0EE651AB0EE462A92
:101AA000F0EE662AB0EE473AF0EE673A4037BD46B0
:101AB000BDE8B08380B582B000AF78608023064A6D
:101AC0007968064801F0CDFA03461A46044B1A70AD
:101AD00000BF0837BD4680BD000C02401002002048
:101AE0003802002080B483B000AF7860044A7B687D
:101AF000136000BF0C37BD465DF8047B704700BF24
:101B00003C02002080B582B000AF78607B68184648
:101B100001F0C4FB00BF0837BD4680BD80B588B06A
:101B200002AF03460A46FB711346BB71FB793B7358
:101B3000BB797B735A4B186807F10C020A23009398
:101B40000223502102F000FC0346FB75FB7D002BB5
:101B500000F0A080FB7D012B03D1524808F058FA19
:101B600012E0FB7D032B03D14F4808F051FA0BE044
:101B7000FB7D022B03D14D4808F04AFA04E0FB7DBF
:101B800019464B4808F0DEF9454B1B68184603F030
:101B900045FA38613B69002B7ED03B69012B03D1AC
:101BA000444808F035FA21E03B69022B03D1424852
:101BB00008F02EFA1AE03B69042B03D13F4808F0E5
:101BC00027FA13E03B69082B03D13D4808F020FABF
:101BD0000CE03B69102B03D13A4808F019FA05E0F4
:101BE0003B69202B02D1384808F012FA2C4B1B68B5
:101BF000184603F005FA0346FB73FB7B002B03D169
:101C0000324808F005FA48E0FB7B202B03D12F482F
:101C100008F0FEF941E0FB7B242B03D12C4808F0AF
:101C2000F7F93AE0FB7B212B03D12A4808F0F0F9C1
:101C300033E0FB7B222B03D1274808F0E9F92CE0A5
:101C4000FB7B282B03D1254808F0E2F925E0FB7B3C
:101C5000292B03D1224808F0DBF91EE0FB7B2A2B5D
:101C600003D1204808F0D4F917E0FB7B602B03D1A7
:101C70001D4808F0CDF910E0FB7BA02B03D11B48D9
:101C800008F0C6F909E0FB7BE02B06D1184808F004
:101C9000BFF902E000BF00E000BF1837BD4680BDBD
:101CA0003C02002044C4000868C4000890C4000836
:101CB000B4C40008CCC40008E0C40008F4C40008A0
:101CC00008C500081CC5000830C5000848C5000844
:101CD00060C5000874C500088CC50008A4C50008CC
:101CE000BCC50008DCC50008FCC5000814C6000817
:101CF0002CC6000880B584B002AF03463960FB7182
:101D00001346BB710B4B1868FA1D64230093012323
:101D1000502102F019FB074B1868BB799BB2642273
:101D200000923A68502102F00DFC00BF0837BD4612
:101D300080BD00BF3C02002080B588B000AF786055
:101D40000B46FB707B681B78002B5AD07B681A7897
:101D50002E4B1A700023FB610023BB610223FB752D
:101D600020E0FB7D7A6813441B78202B05D1FB69AA
:101D70000133FB610023BB6111E0FB7D7A681344F2
:101D800018782349FA6913465B0013445B00CA18AC
:101D9000BB69134402461A70BB690133BB61FB7D0A
:101DA0000133FB75FA7DFB789A42DAD3174B1B7827
:101DB000732B1AD1164807F00CFBF860154807F092
:101DC00008FBB860144800F0B3FD322000F03CFC82
:101DD000FB68DBB2BA6807EE902AF8EEE77AB0EE5D
:101DE000670A184600F048FD0CE0084B1B786C2B86
:101DF00008D1074807F0EDFA3861386900F00EF8AD
:101E000000E000BF2037BD4680BD00BFC8040020F1
:101E1000CC040020D20400204002002080B584B011
:101E200000AF0346FB71FB790633012202FA03F38C
:101E3000FB81FB8901221946074802F027F90F2090
:101E400001F02CFAFB8900221946034802F01EF922
:101E500000BF1037BD4680BD001002402DE9B043E1
:101E6000ACB008AF01F0A8F900F056F900F0A0FA04
:101E700000F076FA00F0BAF900F03CFA00F0E4F96C
:101E800007F000F800F000FA9748FFF7D3F94C226A
:101E900096499748FFF704FAFFF765FA9548FFF768
:101EA00009FE9548FFF71EFEFFF78CFBFFF777FB57
:101EB000914800F03DFD322000F0C6FB01F0E2F950
:101EC000C7F88C00002387F88B3001F0DBF9C7F8E6
:101ED0008400FFF726FDB0EE404AF0EE604AB0EE17
:101EE000415AF0EE615AB0EE426AF0EE626AB0EE2C
:101EF000437AF0EE637A87ED004B87ED025B87ED66
:101F0000046B87ED067BFFF74FFDB0EE404AF0EE25
:101F1000604AB0EE415AF0EE615AB0EE426AF0EE1D
:101F2000626AB0EE437AF0EE637A87ED084B87ED94
:101F30000A5B87ED0C6B87ED0E7BFFF778FDB0EE4B
:101F4000404AF0EE604AB0EE415AF0EE615AB0EE0F
:101F5000426AF0EE626AB0EE437AF0EE637A87EDA1
:101F6000104B87ED125B87ED146B87ED167BFFF747
:101F700095FCB0EE404AF0EE604AB0EE415AF0EE09
:101F8000615AB0EE426AF0EE626AB0EE437AF0EE69
:101F9000637A87ED184B87ED1A5B87ED1C6B87ED35
:101FA0001E7B0A2001F07AF997F88B3083F0010349
:101FB000DBB2002B72D0FFF7B6F9D7E90223D7E9DD
:101FC0000401D7E90645CDE90445CDE90201CDE993
:101FD0000023D7F884204949494808F021F84848A7
:101FE000FFF7E2F9D7E91A23D7E91C01D7E91E4523
:101FF000CDE90445CDE90201CDE90023D7F88420DD
:1020000040493F4808F00CF83D48FFF7CDF9D7E9C3
:102010000A23D7E90C01D7E90E45CDE90445CDE9FE
:102020000201CDE90023D7F884203749344807F06E
:10203000F7FF3348FFF7B8F9D7E91223D7E91401BE
:10204000D7E91645D7E91089CDE90689CDE90445D8
:10205000CDE90201CDE90023D7F884202B49284897
:1020600007F0DEFF2648FFF79FF9D7F88420D7F85E
:102070008C30D31AB3F5FA7F32D92549204807F0BE
:10208000CFFF1F48FFF790F9012387F88B30FFF748
:102090006AF901F0F7F8C7F88C0021E0FFF7F8F9CA
:1020A0000346012B0ED11B48FFF71CFA002387F8CB
:1020B0008B3001F0E7F8C7F88C0020211548FFF7B6
:1020C0003BFE0DE0D7F88420D7F88C30D31AFA2BDA
:1020D00006D9002387F88B3001F0D4F8C7F88C00BC
:1020E000642001F0DBF8F0E630040020140000204A
:1020F0000C000020D80300204002002044C6000845
:102100008804002058C600086CC6000880C6000875
:102110009CC60008A804002080B594B000AF07F169
:10212000200330220021184608F072F807F10C0352
:1021300000221A605A609A60DA601A610023BB605C
:10214000284B1B6C274A43F080531364254B1B6CB0
:1021500003F08053BB60BB6800237B60224B1B688D
:10216000214A43F4804313601F4B1B6803F48043F0
:102170007B607B6802233B620123FB6210233B638D
:102180000223BB630023FB6308233B6450237B646F
:102190000223BB640423FB6407F12003184603F009
:1021A0004DFC0346002B01D000F0A2F90F23FB6089
:1021B00002233B6100237B614FF4C053BB614FF4AA
:1021C0008053FB6107F10C030221184603F0AEFEB9
:1021D0000346002B01D000F08BF900BF5037BD46FD
:1021E00080BD00BF003802400070004080B500AFE5
:1021F000124B134A1A60114B124A5A600F4B0022BD
:102200009A600E4B0022DA600C4B4FF480421A6148
:102210000A4B00225A61094B00229A61074B0022A7
:10222000DA61064B00221A62044801F049FF0346B6
:10223000002B01D000F05CF900BF80BD40020020FF
:1022400000580040A086010080B400AF0C4B0D4A3E
:102250001A600B4B00225A60094B00229A60084B0F
:102260000022DA60064B00221A61054B00225A61F7
:10227000034B01229A6100BFBD465DF8047B7047A5
:1022800094020020002C014080B500AF174B184A83
:102290001A60164B4FF482725A60144B00229A60F7
:1022A000124B0022DA60114B00221A610F4B002200
:1022B0005A610E4B4FF400729A610C4B0022DA61A6
:1022C0000A4B00221A62094B00225A62074B002275
:1022D0009A62064B0A22DA62044805F063F9034663
:1022E000002B01D000F004F900BF80BDD80300200E
:1022F0000030014080B500AF174B184A1A60164BEA
:102300004FF482725A60144B00229A60124B0022E2
:10231000DA60114B00221A610F4B00225A610E4BFA
:102320004FF400729A610C4B0022DA610A4B0022D2
:102330001A62094B00225A62074B00229A62064B2E
:102340000A22DA62044805F02DF90346002B01D079
:1023500000F0CEF800BF80BD30040020003C0040FB
:1023600080B582B000AF00237B60104B1B6B0F4A1F
:1023700043F4800313630D4B1B6B03F480037B60FA
:102380007B68002200213B2001F087F83B2001F010
:10239000A0F800220021452001F07FF8452001F03F
:1023A00098F800BF0837BD4680BD00BF0038024026
:1023B00080B58CB000AF07F11C0300221A605A6090
:1023C0009A60DA601A610023BB61454B1B6B444A7B
:1023D00043F080031363424B1B6B03F08003BB612C
:1023E000BB6900237B613E4B1B6B3D4A43F00103FD
:1023F00013633B4B1B6B03F001037B617B69002381
:102400003B61374B1B6B364A43F010031363344B6D
:102410001B6B03F010033B613B690023FB60304BF7
:102420001B6B2F4A43F0020313632D4B1B6B03F00E
:102430000203FB60FB680023BB60294B1B6B284A2F
:1024400043F004031363264B1B6B03F00403BB60D0
:10245000BB6800237B60224B1B6B214A43F00803BF
:1024600013631F4B1B6B03F008037B607B68002228
:102470004FF4FC511B4801F009FE0022C0211A480C
:1024800001F004FE4FF4FC53FB6101233B62002387
:102490007B620023BB6207F11C031946114801F05F
:1024A00041FC8023FB6100233B6200237B6207F138
:1024B0001C0319460D4801F035FCC023FB610123C4
:1024C0003B6200237B620023BB6207F11C031946B9
:1024D000054801F027FC00BF3037BD4680BD00BF76
:1024E0000038024000100240000402400008024090
:1024F00080B400AF72B600BFFEE7000080B588B0C0
:1025000004AF0346FB710B46BB7113467B717B79AD
:10251000002B01D001237B71244B1868FB799AB200
:102520000A2302930123019307F10F030093012370
:10253000802102F033FB0346002B01D0012331E060
:10254000BB79012202FA03F35BB263F07F035BB253
:10255000DB435AB2FB7B5BB213405BB2DBB2FB7373
:102560007B7903F00102BB7902FA03F35AB2FB7BD9
:102570005BB213435BB2DBB2FB730C4B1868FB79A5
:102580009AB20A2302930123019307F10F030093E8
:102590000123802102F008FA0346002B01D0012319
:1025A00000E0002318461037BD4680BDEC04002033
:1025B00080B584B002AF0623FB71094B1868FA1D81
:1025C0000A2300930123002101F0BEFE0346002BE5
:1025D00001D1002300E0012318460837BD4680BD25
:1025E000EC04002080B582B000AF0346FB71FB799C
:1025F0001A4604210020FFF781FF034618460837DA
:10260000BD4680BD80B582B000AF0346FB71FB794B
:102610001A4607210020FFF771FF034618460837C6
:10262000BD4680BD80B582B000AF0346FB71FB792B
:102630001A4605210020FFF761FF034618460837B8
:10264000BD4680BD0000000080B588B004AF0346E1
:10265000FB80FB8840F2F552934202D90323FB72C0
:1026600046E0FB88182B02D8FF23FB7240E0FB8872
:1026700007EE903AF8EE677A17EE900AFDF764FFDE
:102680004FF000022A4BFDF7B7FF02460B4626A18A
:10269000D1E90001FEF7DAF802460B46104619466A
:1026A0004FF00002234BFDF7EFFD02460B461046AC
:1026B0001946FEF799FA0346FB60F868FDF744FFF8
:1026C0004FF000021C4BFDF7E1FD02460B4643ECC8
:1026D000172BB0EE470AF0EE670A09F001FE53EC43
:1026E000102B10461946FEF75FFA0346DBB2FB7269
:1026F0000120FFF777FF114B18680A23029301238B
:10270000019307F10B0300930123FE22802102F0C5
:102710004BF90020FFF766FF0120FFF773FF00234E
:1027200018461037BD4680BD0000000084D77741B1
:102730000000B0400000F03F0000E03FEC0400204B
:1027400080B588B004AF0346FB710B46BB801346CF
:102750007B80FB799B00DBB20633FB73BB88DBB26B
:102760003B72BB881B0A9BB2DBB27B727B88DBB2FD
:10277000BB727B881B0A9BB2DBB2FB720D4B1868E5
:10278000FB7B9AB20A2302930423019307F1080307
:1027900000930123802102F007F90346BB73BB7B42
:1027A000002B01D0012300E0002318461037BD465E
:1027B00080BD00BFEC04002080B582B000AF0346AE
:1027C000FB710B46BB801346BB71BB88B3F5805FC2
:1027D00002D340F6FF73BB80BB79002B25D0BB88AA
:1027E000002B08D1FB7900224FF480511846FFF7E7
:1027F000A7FF03463AE0BB8840F6FF72934208D138
:10280000FB794FF4805200211846FFF799FF0346E9
:102810002CE0BB88C3F57F630F339AB2FB790021AC
:102820001846FFF78DFF034620E0BB8840F6FF7295
:10283000934208D1FB7900224FF480511846FFF7EC
:102840007FFF034612E0BB88002B08D1FB794FF4D1
:10285000805200211846FFF773FF034606E0BA884E
:10286000FB7900211846FFF76BFF0346184608372F
:10287000BD4680BD0000000080B584B000AF0346B7
:1028800087ED000AFB71D7ED007AF5EEC07AF1EE24
:1028900010FA02D54FF000033B60D7ED007A9FEDB0
:1028A000207AF4EEC77AF1EE10FA01DD1D4B3B60A1
:1028B0003868FDF749FE18A3D3E90023FDF79CFE15
:1028C00002460B46104619464FF00002164BFDF724
:1028D000BDFF02460B46104619464FF00002134B4F
:1028E000FDF7D4FC02460B4610461946FEF77CF96C
:1028F0000346FB60D7ED037AFCEEE77A17EE903AD9
:1029000099B2FB7900221846FFF756FF0346184696
:102910001037BD4680BD00BF000000000060784059
:1029200000003443000034430080664000805B4078
:1029300080B582B000AF7860074A7B681360FFF70C
:1029400037FE3020FFF780FE0120FFF76BFE0023EB
:1029500018460837BD4680BDEC04002080B483B023
:1029600000AF00237B60104B5B6C0F4A43F4804345
:1029700053640D4B5B6C03F480437B607B680023E6
:102980003B60094B1B6C084A43F080531364064BB1
:102990001B6C03F080533B603B6800BF0C37BD46A7
:1029A0005DF8047B704700BF0038024080B58AB0F4
:1029B00000AF786007F1140300221A605A609A6031
:1029C000DA601A617B681B68194A93422CD1002394
:1029D0003B61184B1B6B174A43F002031363154B03
:1029E0001B6B03F002033B613B694FF440637B6167
:1029F0001223BB610023FB6103233B6204237B6240
:102A000007F1140319460C4801F08CF90023FB6010
:102A1000084B1B6C074A43F480031364054B1B6C83
:102A200003F48003FB60FB6800BF2837BD4680BD10
:102A300000580040003802400004024080B58AB0CF
:102A400000AF786007F1140300221A605A609A60A0
:102A5000DA601A617B681B68684A934240F0C9805B
:102A600000233B61664B5B6C654A43F4006353642F
:102A7000634B5B6C03F400633B613B690023FB60C9
:102A80005F4B1B6B5E4A43F0040313635C4B1B6B91
:102A900003F00403FB60FB680023BB60584B1B6B17
:102AA000574A43F008031363554B1B6B03F00803AD
:102AB000BB60BB684FF488537B610223BB6100237A
:102AC000FB6103233B620C237B6207F1140319466D
:102AD0004C4801F027F904237B610223BB610023EA
:102AE000FB6103233B620C237B6207F1140319464D
:102AF000454801F017F9454B454A1A60434B4FF0E2
:102B000000625A60414B00229A60404B0022DA601A
:102B10003E4B4FF480621A613C4B4FF480525A6135
:102B20003A4B4FF480429A61384B2022DA61374B9E
:102B300000221A62354B04225A62344B03229A62F5
:102B4000324B4FF40002DA62304B4FF400121A633A
:102B50002E4800F0D9FC0346002B01D0FFF7C8FC3B
:102B60007B682A4A1A64294A7B689363294B2A4A5C
:102B70001A60284B4FF000625A60264B40229A6040
:102B8000244B0022DA60234B4FF480621A61214B00
:102B90004FF480525A611F4B4FF480429A611D4B93
:102BA0002022DA611B4B00221A621A4B04225A625D
:102BB000184B03229A62174B4FF40002DA62154B4E
:102BC0004FF400121A63134800F09EFC0346002BDA
:102BD00001D0FFF78DFC7B680E4ADA630D4A7B68F3
:102BE000936300220021312000F057FC312000F0D7
:102BF00070FC00BF2837BD4680BD00BF002C0140DF
:102C00000038024000080240000C02401803002077
:102C10005864024078030020A064024080B58CB064
:102C200000AF786007F11C0300221A605A609A60B6
:102C3000DA601A617B681B68324A93422CD1002308
:102C4000BB61314B5B6C304A43F4805353642E4B71
:102C50005B6C03F48053BB61BB6900237B612A4B2F
:102C60001B6B294A43F001031363274B1B6B03F0D3
:102C700001037B617B69E023FB6102233B6200234C
:102C80007B620323BB620523FB6207F11C03194629
:102C90001E4801F047F830E07B681B681C4A9342ED
:102CA0002BD100233B61184B1B6C174A43F40043A4
:102CB0001364154B1B6C03F400433B613B69002319
:102CC000FB60114B1B6B104A43F0020313630E4B66
:102CD0001B6B03F00203FB60FB683823FB610223DC
:102CE0003B6200237B620323BB620623FB6207F186
:102CF0001C031946074801F015F800BF3037BD46E0
:102D000080BD00BF0030014000380240000002409A
:102D1000003C00400004024080B400AFFEE780B4F5
:102D200000AFFEE780B400AFFEE780B400AFFEE77F
:102D300080B400AFFEE780B400AF00BFBD465DF8D1
:102D4000047B704780B400AF00BFBD465DF8047BD4
:102D5000704780B400AF00BFBD465DF8047B70478C
:102D600080B500AF00F07AFA00BF80BD80B500AF3B
:102D7000024803F05FFD00BF80BD00BF9402002049
:102D800080B500AF024800F057FD00BF80BD00BF16
:102D90001803002080B500AF024800F04DFD00BFD1
:102DA00080BD00BF7803002080B400AF0123184627
:102DB000BD465DF8047B704780B582B000AF786097
:102DC000396007F077FA034616221A604FF0FF3396
:102DD00018460837BD4680BD80B582B000AF786028
:102DE0004FF0FF317868FFF7E7FFFEE780B586B068
:102DF00000AFF860B9607A6000237B610AE0AFF34E
:102E000000800146BB685A1CBA60CAB21A707B695E
:102E100001337B617A697B689A42F0DB7B681846F4
:102E20001837BD4680BD80B586B000AFF860B96088
:102E30007A6000237B6109E0BB685A1CBA601B788A
:102E40001846AFF300807B6901337B617A697B6848
:102E50009A42F1DB7B6818461837BD4680BD80B4C6
:102E600083B000AF78604FF0FF3318460C37BD4693
:102E70005DF8047B704780B483B000AF7860396040
:102E80003B684FF400525A60002318460C37BD4689
:102E90005DF8047B704780B483B000AF7860012395
:102EA00018460C37BD465DF8047B704780B485B08A
:102EB00000AFF860B9607A60002318461437BD4649
:102EC0005DF8047B7047000080B586B000AF786085
:102ED000144A154BD31A7B617B693B61134B1B680A
:102EE000002B02D1114B124A1A60104B1A687B68F2
:102EF00013443A699A4207D207F0DCF903460C22E0
:102F00001A604FF0FF3309E0084B1B68FB60074B6A
:102F10001A687B681344054A1360FB681846183723
:102F2000BD4680BD0000022000080000F004002023
:102F30006006002080B400AF064BD3F88830054A05
:102F400043F47003C2F8883000BFBD465DF8047BCF
:102F5000704700BF00ED00E080B582B000AF786040
:102F60007B6858687B681B890022194601F08EF83F
:102F700000BF0837BD4680BD80B582B000AF786025
:102F80007B6858687B681B890122194601F07EF82E
:102F900000BF0837BD4680BD80B586B000AFF86081
:102FA000B9607A600123FB75FB6818687B689AB288
:102FB0004FF0FF33B96804F07EFB0346002B01D1CC
:102FC0000023FB75FB7D18461837BD4680BD80B5D4
:102FD00086B000AFF860B9607A600123FB75FB68CA
:102FE00018687B689AB24FF0FF33B96804F0BCFCF4
:102FF0000346002B01D10023FB75FB7D18461837D3
:10300000BD4680BD80B584B000AF78600023FB6012
:103010007868FFF7A1FF9F233B7207F108030122A5
:1030200019467868FFF7B8FF0346002B11D107F166
:103030000803032219467868FFF7C9FF0346002BEF
:1030400007D13B7A1A047B7A1B021343BA7A1343E3
:10305000FB607868FFF790FFFB6818461037BD46A5
:1030600080BD80B586B000AFF860B9607A607B80C3
:103070000023FB75FB68BA681A60FB687A685A60BF
:10308000FB687A881A81F868FFF776FFF868FFF71F
:10309000B9FF38613B69002B55D03B691B0CDAB294
:1030A000FB689A723B699AB2FB689A81FB689B7ACB
:1030B000C82B02D0EF2B21D042E0FB684FF48032C6
:1030C0001A61FB684FF480529A61FB681022DA6142
:1030D000FB684FF480721A62FB6810225A62FB6828
:1030E0009B891A4646F217039A4204D1FB68802254
:1030F0005A6100BF29E00123FB7526E0FB684FF40D
:1031000080321A61FB684FF480529A61FB6810228A
:10311000DA61FB684FF480721A62FB6810225A620F
:10312000FB689B891A4644F218039A4205D1FB6852
:103130004FF480725A6100BF07E00123FB7504E081
:103140000123FB7501E00123FB75FB7D012B04D1FD
:1031500028220021F86807F05BF8FB7D1846183735
:10316000BD4680BDDFF834D0FFF7E4FE0C480D49C2
:103170000D4A002302E0D458C4500433C4188C42D2
:10318000F9D30A4A0A4C002301E013600432A24238
:10319000FBD307F095F8FEF761FE704700000220B0
:1031A00000000020F001002054CA0008F0010020B7
:1031B00060060020FEE7000080B500AF0E4B1B68E4
:1031C0000D4A43F4007313600B4B1B680A4A43F427
:1031D00080631360084B1B68074A43F480731360D5
:1031E000032000F04FF90F2000F008F8FFF7B6FBBE
:1031F0000023184680BD00BF003C024080B582B06D
:1032000000AF7860124B1A68124B1B7819464FF4C6
:103210007A73B3FBF1F3B2FBF3F3184600F067F9EE
:103220000346002B01D001230EE07B680F2B0AD848
:10323000002279684FF0FF3000F02FF9064A7B68D2
:103240001360002300E0012318460837BD4680BD07
:103250001C000020240000202000002080B400AFCB
:10326000064B1B781A46064B1B681344044A13602E
:1032700000BFBD465DF8047B704700BF24000020FE
:10328000F404002080B400AF034B1B681846BD4611
:103290005DF8047B704700BFF404002080B584B063
:1032A00000AF7860FFF7EEFFB8607B68FB60FB68FB
:1032B000B3F1FF3F05D00A4B1B781A46FB68134455
:1032C000FB6000BFFFF7DEFF0246BB68D31AFA6857
:1032D0009A42F7D800BF00BF1037BD4680BD00BF7F
:1032E0002400002080B485B000AF78607B6803F0D4
:1032F0000703FB600C4BDB68BB60BA684FF6FF034B
:103300001340BB60FB681A02BB68134343F0BF6302
:1033100043F40033BB60044ABB68D36000BF14377A
:10332000BD465DF8047B704700ED00E080B400AF5F
:10333000044BDB681B0A03F007031846BD465DF823
:10334000047B704700ED00E080B483B000AF03461B
:10335000FB7197F90730002B0BDBFB7903F01F02A1
:10336000074997F907305B09012000FA02F241F89A
:10337000232000BF0C37BD465DF8047B704700BFBB
:1033800000E100E080B483B000AF03463960FB7118
:1033900097F90730002B0ADB3B68DAB20C4997F942
:1033A00007301201D2B20B4483F800230AE03B68D5
:1033B000DAB20849FB7903F00F03043B1201D2B2E1
:1033C0000B441A7600BF0C37BD465DF8047B70478E
:1033D00000E100E000ED00E080B489B000AFF860EB
:1033E000B9607A60FB6803F00703FB61FB69C3F116
:1033F0000703042B28BF0423BB61FB690433062B9E
:1034000002D9FB69033B00E000237B614FF0FF32F0
:10341000BB6902FA03F3DA43BB681A407B699A403E
:103420004FF0FF317B6901FA03F3D9437B680B400E
:10343000134318462437BD465DF8047B70470000EF
:1034400080B582B000AF78607B68013BB3F1807FCC
:1034500001D301230FE00A4A7B68013B53600F212F
:103460004FF0FF30FFF78EFF054B00229A60044BB0
:1034700007221A60002318460837BD4680BD00BFEA
:1034800010E000E080B582B000AF78607868FFF7A8
:1034900029FF00BF0837BD4680BD80B586B000AFAC
:1034A0000346B9607A60FB7300237B61FFF73EFF40
:1034B00078617A68B9687869FFF78EFF024697F9F4
:1034C0000F3011461846FFF75DFF00BF1837BD46A5
:1034D00080BD80B582B000AF0346FB7197F907301D
:1034E0001846FFF731FF00BF0837BD4680BD80B5E5
:1034F00082B000AF78607868FFF7A2FF03461846F5
:103500000837BD4680BD000080B586B000AF78604A
:1035100000237B61FFF7B6FE38617B68002B01D189
:10352000012399E07B68022283F835207B68002222
:1035300083F834207B681B681A687B681B6822F05C
:1035400001021A600FE0FFF79DFE02463B69D31AA5
:10355000052B08D97B6820225A657B68032283F8F3
:103560003520032378E07B681B681B6803F00103A8
:10357000002BE8D17B681B681B687B617A69384B3C
:1035800013407B617B685A687B689B681A437B6841
:10359000DB681A437B681B691A437B685B691A43C3
:1035A0007B689B691A437B68DB691A437B681B6AEB
:1035B00013437A6913437B617B685B6A042B07D1F1
:1035C0007B68DA6A7B681B6B13437A6913437B6100
:1035D0007B681B687A691A607B681B685B697B6122
:1035E0007B6923F007037B617B685B6A7A6913431D
:1035F0007B617B685B6A042B17D17B689B6A7A6965
:1036000013437B617B68DB6A002B0ED0786800F087
:103610000DFB0346002B08D07B6840225A657B686F
:10362000012283F83520012316E07B681B687A6944
:103630005A61786800F0C4FA0346FB607B68DB6D72
:103640003F229A40FB689A607B6800225A657B683B
:10365000012283F83520002318461837BD4680BD67
:103660003F8010F080B586B000AFF860B9607A6036
:103670003B600023FB75FB689B6D3B61FB6893F827
:103680003430012B01D1022340E0FB68012283F892
:103690003420FB6893F83530DBB2012B2FD1FB6867
:1036A000022283F83520FB6800225A653B687A685D
:1036B000B968F86800F056FAFB68DB6D3F229A4063
:1036C0003B699A60FB681B681A68FB681B6842F0DC
:1036D00016021A60FB681B6C002B07D0FB681B6886
:1036E0001A68FB681B6842F008021A60FB681B68D6
:1036F0001A68FB681B6842F001021A6005E0FB686B
:10370000002283F834200223FB75FB7D184618370E
:10371000BD4680BD80B584B000AF78607B689B6D8E
:10372000FB60FFF7AFFDB8607B6893F83530DBB224
:10373000022B08D07B6880225A657B68002283F8C0
:103740003420012352E07B681B681A687B681B6881
:1037500022F016021A607B681B685A697B681B6836
:1037600022F080025A617B681B6C002B03D17B68BE
:103770009B6C002B07D07B681B681A687B681B68F2
:1037800022F008021A607B681B681A687B681B6855
:1037900022F001021A6013E0FFF774FD0246BB68D5
:1037A000D31A052B0CD97B6820225A657B6803222B
:1037B00083F835207B68002283F83420032315E04A
:1037C0007B681B681B6803F00103002BE4D17B6856
:1037D000DB6D3F229A40FB689A607B68012283F888
:1037E00035207B68002283F83420002318461037E8
:1037F000BD4680BD80B483B000AF78607B6893F82D
:103800003530DBB2022B04D07B6880225A6501235D
:103810000CE07B68052283F835207B681B681A68FA
:103820007B681B6822F001021A60002318460C37DF
:10383000BD465DF8047B704780B586B000AF786008
:103840000023BB608E4B1B688E4AA2FB03239B0A9E
:103850007B617B689B6D3B613B691B68FB607B68A0
:10386000DB6D08229A40FB681340002B1AD07B685E
:103870001B681B6803F00403002B13D07B681B68D4
:103880001A687B681B6822F004021A607B68DB6D93
:1038900008229A403B699A607B685B6D43F00102A5
:1038A0007B685A657B68DB6D01229A40FB68134098
:1038B000002B12D07B681B685B6903F08003002B30
:1038C0000BD07B68DB6D01229A403B699A607B6874
:1038D0005B6D43F002027B685A657B68DB6D0422F6
:1038E0009A40FB681340002B12D07B681B681B6852
:1038F00003F00203002B0BD07B68DB6D04229A409F
:103900003B699A607B685B6D43F004027B685A6593
:103910007B68DB6D10229A40FB681340002B43D07C
:103920007B681B681B6803F00803002B3CD07B6896
:10393000DB6D10229A403B699A607B681B681B68AC
:1039400003F48023002B18D07B681B681B6803F4EA
:103950000023002B08D17B681B6C002B24D07B68D4
:103960001B6C786898471FE07B689B6C002B1BD012
:103970007B689B6C7868984716E07B681B681B68BF
:1039800003F48073002B07D17B681B681A687B687F
:103990001B6822F008021A607B681B6C002B03D0A6
:1039A0007B681B6C786898477B68DB6D20229A40A7
:1039B000FB681340002B00F08F807B681B681B683E
:1039C00003F01003002B00F087807B68DB6D202262
:1039D0009A403B699A607B6893F83530DBB2052BDF
:1039E00036D17B681B681A687B681B6822F0160258
:1039F0001A607B681B685A697B681B6822F080022A
:103A00005A617B681B6C002B03D17B689B6C002B7D
:103A100007D07B681B681A687B681B6822F0080265
:103A20001A607B68DB6D3F229A403B699A607B6835
:103A3000012283F835207B68002283F834207B68DC
:103A40001B6D002B7ED07B681B6D7868984779E0F2
:103A50007B681B681B6803F48023002B1DD07B68E8
:103A60001B681B6803F40023002B0DD17B685B6C83
:103A7000002B31D07B685B6C786898472CE000BFE6
:103A80001C000020B5814E1B7B68DB6B002B23D014
:103A90007B68DB6B786898471EE07B681B681B6857
:103AA00003F48073002B0FD17B681B681A687B6856
:103AB0001B6822F010021A607B68012283F835200F
:103AC0007B68002283F834207B68DB6B002B03D0FB
:103AD0007B68DB6B786898477B685B6D002B32D026
:103AE0007B685B6D03F00103002B22D07B6805220D
:103AF00083F835207B681B681A687B681B6822F096
:103B000001021A60BB680133BB607A699A4207D32D
:103B10007B681B681B6803F00103002BF2D100E0F7
:103B200000BF7B68012283F835207B68002283F880
:103B300034207B68DB6C002B05D07B68DB6C7868FD
:103B4000984700E000BF1837BD4680BD80B483B001
:103B500000AF78607B685B6D18460C37BD465DF83A
:103B6000047B704780B485B000AFF860B9607A60BC
:103B70003B60FB681B681A68FB681B6822F48022A4
:103B80001A60FB681B683A685A60FB689B68402BA8
:103B900008D1FB681B687A689A60FB681B68BA6882
:103BA000DA6007E0FB681B68BA689A60FB681B680C
:103BB0007A68DA6000BF1437BD465DF8047B704751
:103BC00080B485B000AF78607B681B68DBB2103BC7
:103BD000144AA2FB03231B09FB60134AFB6813442E
:103BE0001B781A467B68DA65FB68032B09D97B686A
:103BF0001B6823F47F7323F003031A1D7B689A6507
:103C000007E07B681B6823F47F7323F003037A6863
:103C100093657B689B6D18461437BD465DF8047B41
:103C2000704700BFABAAAAAAB8C6000880B485B086
:103C300000AF78600023FB737B689B6ABB607B6886
:103C40009B69002B1FD1BB68032B56D801A252F8E9
:103C500023F000BF653C0008773C0008653C000885
:103C6000FB3C00087B68DB6A03F08073002B46D0C6
:103C70000123FB7343E07B68DB6AB3F1C07F40D173
:103C80000123FB733DE07B689B69B3F5005F21D1A5
:103C9000BB68032B37D801A252F823F0AD3C0008D3
:103CA000B33C0008AD3C0008C53C00080123FB7391
:103CB00030E07B68DB6A03F08073002B25D00123A2
:103CC000FB7322E07B68DB6AB3F1C07F1FD1012365
:103CD000FB731CE0BB68022B03D9BB68032B03D02A
:103CE00018E00123FB7315E07B68DB6A03F0807347
:103CF000002B0ED00123FB730BE000BF0AE000BFD6
:103D000008E000BF06E000BF04E000BF02E000BF23
:103D100000E000BFFB7B18461437BD465DF8047B0E
:103D2000704700BF80B489B000AF7860396000236D
:103D30007B6100233B610023BB610023FB616BE1DE
:103D40000122FB6902FA03F37B613B681B687A6915
:103D500013403B613A697B699A4240F05A813B6863
:103D60005B6803F00303012B05D03B685B6803F03D
:103D70000303022B30D17B689B68BB61FB695B004E
:103D8000032202FA03F3DB43BA691340BB613B68C9
:103D9000DA68FB695B0002FA03F3BA691343BB619B
:103DA0007B68BA699A607B685B68BB610122FB69CA
:103DB00002FA03F3DB43BA691340BB613B685B68FB
:103DC0001B0903F00102FB6902FA03F3BA6913430A
:103DD000BB617B68BA695A603B685B6803F00303A8
:103DE000032B17D07B68DB68BB61FB695B00032298
:103DF00002FA03F3DB43BA691340BB613B689A687C
:103E0000FB695B0002FA03F3BA691343BB617B6889
:103E1000BA69DA603B685B6803F00303022B23D1C5
:103E2000FB69DA087B68083253F82230BB61FB6912
:103E300003F007039B000F2202FA03F3DB43BA6986
:103E40001340BB613B681A69FB6903F007039B00E1
:103E500002FA03F3BA691343BB61FB69DA087B68B2
:103E60000832B96943F822107B681B68BB61FB69A3
:103E70005B00032202FA03F3DB43BA691340BB6120
:103E80003B685B6803F00302FB695B0002FA03F323
:103E9000BA691343BB617B68BA691A603B685B68A7
:103EA00003F44033002B00F0B4800023FB60604B30
:103EB0005B6C5F4A43F4804353645D4B5B6C03F47B
:103EC0008043FB60FB685B4AFB699B08023352F846
:103ED0002330BB61FB6903F003039B000F2202FA4E
:103EE00003F3DB43BA691340BB617B68524A9342D8
:103EF0002BD07B68514A934225D07B68504A93422D
:103F00001FD07B684F4A934219D07B684E4A934238
:103F100013D07B684D4A93420DD07B684C4A934244
:103F200007D07B684B4A934201D107230EE0082358
:103F30000CE006230AE0052308E0042306E003233F
:103F400004E0022302E0012300E00023FA6902F00A
:103F5000030292009340BA691343BB613549FB6980
:103F60009B080233BA6941F823203B4B9B68BB6135
:103F70003B69DB43BA691340BB613B685B6803F490
:103F80008013002B03D0BA693B691343BB61324AEB
:103F9000BB699360304BDB68BB613B69DB43BA694B
:103FA0001340BB613B685B6803F40013002B03D034
:103FB000BA693B691343BB61274ABB69D360264B8F
:103FC0005B68BB613B69DB43BA691340BB613B681B
:103FD0005B6803F40033002B03D0BA693B691343D9
:103FE000BB611D4ABB6953601B4B1B68BB613B69CE
:103FF000DB43BA691340BB613B685B6803F4803301
:10400000002B03D0BA693B691343BB61124ABB69F9
:104010001360FB690133FB61FB690F2B7FF690AEE8
:1040200000BF00BF2437BD465DF8047B704700BF6A
:104030000038024000380140000002400004024005
:1040400000080240000C0240001002400014024030
:1040500000180240001C0240003C014080B485B0C2
:1040600000AF78600B467B807B681A697B881340C1
:10407000002B02D00123FB7301E00023FB73FB7BC9
:1040800018461437BD465DF8047B704780B483B092
:1040900000AF78600B467B8013467B707B78002BEB
:1040A00003D07A887B689A6103E07B881A047B6876
:1040B0009A6100BF0C37BD465DF8047B7047000075
:1040C00080B584B000AF78607B68002B01D10123FC
:1040D0002BE17B6893F83D30DBB2002B06D17B6887
:1040E000002283F83C207868FEF760FC7B6824227D
:1040F00083F83D207B681B681A687B681B6822F088
:1041000001021A607B681B681A687B681B6842F4AE
:1041100000421A607B681B681A687B681B6822F47F
:1041200000421A6002F0FAF8F8607B685B68814A26
:10413000934207D8FB68804A934294BF012300232F
:10414000DBB206E0FB687D4A934294BF0123002363
:10415000DBB2002B01D00123E7E0FB68784AA2FB29
:1041600003239B0CBB607B681B685B6823F03F01EB
:104170007B681B68BA680A435A607B681B681B6AC5
:1041800023F03F017B685B686A4A934202D8BB68B0
:10419000013309E0BB684FF4967202FB03F3694AEE
:1041A000A2FB03239B0901337A6812680B43136255
:1041B0007B681B68DB6923F44F4222F0FF027B68B7
:1041C0005B685C498B4219D8FB68591E7B685B6849
:1041D0005B00B1FBF3F3591C40F6FC730B40002B62
:1041E0000AD0FB68591E7B685B685B00B1FBF3F388
:1041F0000133C3F30B0351E004234FE07B689B685A
:10420000002B11D1FB68581E7B6859680B465B0078
:104210000B44B0FBF3F30133C3F30B03002B0CBFD0
:1042200001230023DBB212E0FB68581E7B6859684B
:104230000B469B000B4499000B44B0FBF3F3013396
:10424000C3F30B03002B0CBF01230023DBB2002BB5
:1042500001D0012322E07B689B68002B0ED1FB6814
:10426000581E7B6859680B465B000B44B0FBF3F3A8
:104270000133C3F30B0343F400430FE0FB68581E04
:104280007B6859680B469B000B4499000B44B0FBBC
:10429000F3F30133C3F30B0343F440437968096834
:1042A0001343CB617B681B681B6823F0C0017B68EC
:1042B000DA697B681B6A1A437B681B680A431A60C9
:1042C0007B681B689B6823F4034323F0FF037A6831
:1042D00011697A68D26811437A6812680B43936057
:1042E0007B681B68DB6823F0FF017B685A697B6889
:1042F0009B691A437B681B680A43DA607B681B680A
:104300001A687B681B6842F001021A607B68002211
:104310001A647B68202283F83D207B6800221A63A0
:104320007B68002283F83E20002318461037BD46E4
:1043300080BD00BFA08601007F841E00FF083D00F5
:1043400083DE1B43D34D621080B588B002AFF860A6
:104350007A601A460B467B8113463B81FEF792FF3B
:104360007861FB6893F83D30DBB2202B40F0E080B1
:104370007B690093192301227049F86801F028F93C
:104380000346002B01D00223D3E0FB6893F83C30B6
:10439000012B01D10223CCE0FB68012283F83C20F1
:1043A000FB681B681B6803F00103012B07D0FB6847
:1043B0001B681A68FB681B6842F001021A60FB6800
:1043C0001B681A68FB681B6822F400621A60FB68AD
:1043D000212283F83D20FB68102283F83E20FB68F1
:1043E00000221A64FB687A685A62FB683A895A8527
:1043F000FB685B8D9AB2FB681A85FB68504ADA62EB
:1044000079897B693A6AF86800F014FE0346002B4C
:1044100001D001238DE000233B61FB681B685B69D1
:104420003B61FB681B689B693B613B6966E07A699D
:10443000396AF86801F0E6F90346002B0DD0FB68F5
:104440001B6C042B07D1FB681B681A68FB681B6890
:1044500042F400721A6001236BE0FB685B6A1A7811
:10446000FB681B681A61FB685B6A5A1CFB685A622E
:10447000FB685B8D9BB2013B9AB2FB685A85FB6877
:104480001B8D013B9AB2FB681A85FB681B685B6950
:1044900003F00403042B1BD1FB681B8D002B17D0EA
:1044A000FB685B6A1A78FB681B681A61FB685B6AC9
:1044B0005A1CFB685A62FB685B8D9BB2013B9AB247
:1044C000FB685A85FB681B8D013B9AB2FB681A8515
:1044D0007A69396AF86801F0DDF90346002B0DD0DE
:1044E000FB681B6C042B07D1FB681B681A68FB6810
:1044F0001B6842F400721A6001231AE0FB681B8DEE
:10450000002B94D1FB681B681A68FB681B6842F497
:1045100000721A60FB68202283F83D20FB680022AD
:1045200083F83E20FB68002283F83C20002300E053
:10453000022318461837BD4680BD00BF0200100098
:104540000000FFFF80B58CB002AFF8607A601A46B9
:104550000B467B8113463B81FEF794FE7862FB6835
:1045600093F83D30DBB2202B40F017827B6A00933A
:10457000192301227C49F86801F02AF80346002B30
:1045800001D002230AE2FB6893F83C30012B01D1F1
:10459000022303E2FB68012283F83C20FB681B68CE
:1045A0001B6803F00103012B07D0FB681B681A6826
:1045B000FB681B6842F001021A60FB681B681A68FE
:1045C000FB681B6822F400621A60FB68222283F8F1
:1045D0003D20FB68102283F83E20FB6800221A640D
:1045E000FB687A685A62FB683A895A85FB685B8D7A
:1045F0009AB2FB681A85FB685C4ADA6279897B6A41
:104600003A6BF86800F098FD0346002B01D00123B7
:10461000C4E1FB681B8D002B13D100233B62FB68B8
:104620001B685B693B62FB681B689B693B623B6A7A
:10463000FB681B681A68FB681B6842F400721A600A
:1046400098E1FB681B8D012B1BD1FB681B681A6866
:10465000FB681B6822F480621A600023FB61FB6820
:104660001B685B69FB61FB681B689B69FB61FB69FD
:10467000FB681B681A68FB681B6842F400721A60CA
:1046800078E1FB681B8D022B1BD1FB681B681A6845
:10469000FB681B6822F480621A60FB681B681A685A
:1046A000FB681B6842F400621A600023BB61FB6870
:1046B0001B685B69BB61FB681B689B69BB61BB696D
:1046C00058E1FB681B681A68FB681B6842F480624B
:1046D0001A6000237B61FB681B685B697B61FB6878
:1046E0001B689B697B617B6944E1FB681B8D032B25
:1046F00000F2F180FB681B8D012B23D17A6A396BA4
:10470000F86801F00FF90346002B01D0012345E1C1
:10471000FB681B681A69FB685B6AD2B21A70FB6897
:104720005B6A5A1CFB685A62FB681B8D013B9AB29C
:10473000FB681A85FB685B8D9BB2013B9AB2FB68F4
:104740005A8517E1FB681B8D022B4ED17B6A0093C3
:104750003B6B00220649F86800F03AFF0346002B45
:1047600008D001231AE100BF020010000000FFFF83
:1047700004000100FB681B681A68FB681B6842F4B0
:1047800000721A60FB681B681A69FB685B6AD2B228
:104790001A70FB685B6A5A1CFB685A62FB681B8DC7
:1047A000013B9AB2FB681A85FB685B8D9BB2013BAB
:1047B0009AB2FB685A85FB681B681A69FB685B6ADA
:1047C000D2B21A70FB685B6A5A1CFB685A62FB68BB
:1047D0001B8D013B9AB2FB681A85FB685B8D9BB20F
:1047E000013B9AB2FB685A85C4E07B6A00933B6B3D
:1047F00000226C49F86800F0EBFE0346002B01D064
:104800000123CBE0FB681B681A68FB681B6822F475
:1048100080621A60FB681B681A69FB685B6AD2B227
:104820001A70FB685B6A5A1CFB685A62FB681B8D36
:10483000013B9AB2FB681A85FB685B8D9BB2013B1A
:104840009AB2FB685A857B6A00933B6B00225549FC
:10485000F86800F0BDFE0346002B01D001239DE067
:10486000FB681B681A68FB681B6842F400721A60D8
:10487000FB681B681A69FB685B6AD2B21A70FB6836
:104880005B6A5A1CFB685A62FB681B8D013B9AB23B
:10489000FB681A85FB685B8D9BB2013B9AB2FB6893
:1048A0005A85FB681B681A69FB685B6AD2B21A708A
:1048B000FB685B6A5A1CFB685A62FB681B8D013BF4
:1048C0009AB2FB681A85FB685B8D9BB2013B9AB27A
:1048D000FB685A854EE07A6A396BF86801F022F875
:1048E0000346002B01D0012358E0FB681B681A69BE
:1048F000FB685B6AD2B21A70FB685B6A5A1CFB6881
:104900005A62FB681B8D013B9AB2FB681A85FB68F3
:104910005B8D9BB2013B9AB2FB685A85FB681B68B2
:104920005B6903F00403042B24D1FB681B8D032B6C
:1049300007D1FB681B681A68FB681B6822F4806259
:104940001A60FB681B681A69FB685B6AD2B21A704E
:10495000FB685B6A5A1CFB685A62FB681B8D013B53
:104960009AB2FB681A85FB685B8D9BB2013B9AB2D9
:10497000FB685A85FB681B8D002B7FF4B6AEFB6885
:10498000202283F83D20FB68002283F83E20FB684C
:10499000002283F83C20002300E002231846283739
:1049A000BD4680BD0400010080B588B002AFF8604C
:1049B000084611461A4603467B810B463B81134647
:1049C000FB80FEF75FFC7861FB6893F83D30DBB25B
:1049D000202B40F0D9807B690093192301226D4977
:1049E000F86800F0F5FD0346002B01D00223CCE06F
:1049F000FB6893F83C30012B01D10223C5E0FB6832
:104A0000012283F83C20FB681B681B6803F001034C
:104A1000012B07D0FB681B681A68FB681B6842F013
:104A200001021A60FB681B681A68FB681B6822F4A5
:104A300000621A60FB68212283F83D20FB68402257
:104A400083F83E20FB6800221A64FB683A6A5A62C7
:104A5000FB68BA8C5A85FB685B8D9AB2FB681A8535
:104A6000FB684D4ADA62F8883A8979897B69019353
:104A7000BB6A00930346F86800F02CFC0346002B49
:104A800052D0012381E07A69B96AF86800F0BAFE71
:104A90000346002B0DD0FB681B6C042B07D1FB6871
:104AA0001B681A68FB681B6842F400721A600123D5
:104AB0006BE0FB685B6A1A78FB681B681A61FB682D
:104AC0005B6A5A1CFB685A62FB681B8D013B9AB2F9
:104AD000FB681A85FB685B8D9BB2013B9AB2FB6851
:104AE0005A85FB681B685B6903F00403042B1BD128
:104AF000FB681B8D002B17D0FB685B6A1A78FB687C
:104B00001B681A61FB685B6A5A1CFB685A62FB6887
:104B10001B8D013B9AB2FB681A85FB685B8D9BB2CB
:104B2000013B9AB2FB685A85FB681B8D002BAAD10A
:104B30007A69B96AF86800F0ADFE0346002B0DD023
:104B4000FB681B6C042B07D1FB681B681A68FB68A9
:104B50001B6842F400721A60012316E0FB681B68B0
:104B60001A68FB681B6842F400721A60FB68202216
:104B700083F83D20FB68002283F83E20FB6800227A
:104B800083F83C20002300E0022318461837BD4676
:104B900080BD00BF020010000000FFFF80B58CB098
:104BA00002AFF860084611461A4603467B810B4661
:104BB0003B811346FB80FEF765FB7862FB6893F848
:104BC0003D30DBB2202B40F014827B6A0093192326
:104BD00001227B49F86800F0FBFC0346002B01D062
:104BE000022307E2FB6893F83C30012B01D102233A
:104BF00000E2FB68012283F83C20FB681B681B680D
:104C000003F00103012B07D0FB681B681A68FB68DF
:104C10001B6842F001021A60FB681B681A68FB6897
:104C20001B6822F400621A60FB68222283F83D2090
:104C3000FB68402283F83E20FB6800221A64FB6870
:104C40003A6B5A62FB68BA8E5A85FB685B8D9AB2E2
:104C5000FB681A85FB685B4ADA62F8883A897989C9
:104C60007B6A0193BB6B00930346F86800F0C8FBB6
:104C70000346002B01D00123BCE1FB681B8D002BF8
:104C800013D100233B62FB681B685B693B62FB68D6
:104C90001B689B693B623B6AFB681B681A68FB6880
:104CA0001B6842F400721A6090E1FB681B8D012BB7
:104CB0001BD1FB681B681A68FB681B6822F48062C2
:104CC0001A600023FB61FB681B685B69FB61FB6882
:104CD0001B689B69FB61FB69FB681B681A68FB68C2
:104CE0001B6842F400721A6070E1FB681B8D022B96
:104CF0001BD1FB681B681A68FB681B6822F4806282
:104D00001A60FB681B681A68FB681B6842F4006243
:104D10001A600023BB61FB681B685B69BB61FB68B1
:104D20001B689B69BB61BB6950E100237B61FB6829
:104D30001B685B697B61FB681B689B697B617B69A6
:104D400044E1FB681B8D032B00F2F180FB681B8D97
:104D5000012B23D17A6AB96BF86800F0E3FD0346B2
:104D6000002B01D0012345E1FB681B681A69FB6831
:104D70005B6AD2B21A70FB685B6A5A1CFB685A62A3
:104D8000FB681B8D013B9AB2FB681A85FB685B8D43
:104D90009BB2013B9AB2FB685A8517E1FB681B8DF9
:104DA000022B4ED17B6A0093BB6B00220649F86848
:104DB00000F00EFC0346002B08D001231AE100BFCF
:104DC000020010000000FFFF04000100FB681B68E8
:104DD0001A68FB681B6842F400721A60FB681B6863
:104DE0001A69FB685B6AD2B21A70FB685B6A5A1C6C
:104DF000FB685A62FB681B8D013B9AB2FB681A85FF
:104E0000FB685B8D9BB2013B9AB2FB685A85FB68DD
:104E10001B681A69FB685B6AD2B21A70FB685B6A2E
:104E20005A1CFB685A62FB681B8D013B9AB2FB68F7
:104E30001A85FB685B8D9BB2013B9AB2FB685A8571
:104E4000C4E07B6A0093BB6B00226C49F86800F0F9
:104E5000BFFB0346002B01D00123CBE0FB681B689E
:104E60001A68FB681B6822F480621A60FB681B6882
:104E70001A69FB685B6AD2B21A70FB685B6A5A1CDB
:104E8000FB685A62FB681B8D013B9AB2FB681A856E
:104E9000FB685B8D9BB2013B9AB2FB685A857B6ACB
:104EA0000093BB6B00225549F86800F091FB034664
:104EB000002B01D001239DE0FB681B681A68FB688A
:104EC0001B6842F400721A60FB681B681A69FB6871
:104ED0005B6AD2B21A70FB685B6A5A1CFB685A6242
:104EE000FB681B8D013B9AB2FB681A85FB685B8DE2
:104EF0009BB2013B9AB2FB685A85FB681B681A6932
:104F0000FB685B6AD2B21A70FB685B6A5A1CFB686A
:104F10005A62FB681B8D013B9AB2FB681A85FB68DD
:104F20005B8D9BB2013B9AB2FB685A854EE07A6A70
:104F3000B96BF86800F0F6FC0346002B01D00123A2
:104F400058E0FB681B681A69FB685B6AD2B21A708A
:104F5000FB685B6A5A1CFB685A62FB681B8D013B4D
:104F60009AB2FB681A85FB685B8D9BB2013B9AB2D3
:104F7000FB685A85FB681B685B6903F00403042B1C
:104F800024D1FB681B8D032B07D1FB681B681A68B3
:104F9000FB681B6822F480621A60FB681B681A6950
:104FA000FB685B6AD2B21A70FB685B6A5A1CFB68CA
:104FB0005A62FB681B8D013B9AB2FB681A85FB683D
:104FC0005B8D9BB2013B9AB2FB685A85FB681B8DD7
:104FD000002B7FF4B6AEFB68202283F83D20FB68EF
:104FE000002283F83E20FB68002283F83C20002347
:104FF00000E0022318462837BD4680BD04000100AA
:1050000080B483B000AF78607B6893F83D30DBB24A
:1050100018460C37BD465DF8047B704780B483B0FA
:1050200000AF78607B681B6C18460C37BD465DF896
:10503000047B704780B588B002AFF8607A603B604F
:105040000B467B81FB68DB6A7B617B69082B06D0A2
:105050007B69012B03D07B6913F5803F08D1FB6886
:105060001B681A68FB681B6842F480721A600BE0C8
:10507000FB681B6B122B07D1FB681B681A68FB6867
:105080001B6842F480721A603B6800937B680022C0
:105090004FF00111F86800F09BFA0346002B0DD089
:1050A000FB681B681B6803F48073B3F5807F03D132
:1050B000FB684FF400721A64032335E0FB681B6938
:1050C000B3F5804F08D17B89DBB21A46FB681B68B9
:1050D00002F0FE021A611BE07B89DB11DBB203F0F8
:1050E0000603DBB263F00F03DAB2FB681B681A61D8
:1050F0003B687A680E49F86800F0E4FA0346002B32
:1051000001D0012310E07B89DAB2FB681B681A61C9
:105110003B687A680749F86800F0D4FA0346002B28
:1051200001D0012300E0002318461837BD4680BD9A
:10513000080001000200010080B588B002AFF860ED
:105140007A603B600B467B81FB68DB6A7B61FB68B6
:105150001B681A68FB681B6842F480621A607B69EE
:10516000082B06D07B69012B03D07B6913F5803FA8
:1051700008D1FB681B681A68FB681B6842F48072E0
:105180001A600BE0FB681B6B112B07D1FB681B68D7
:105190001A68FB681B6842F480721A603B680093CF
:1051A0007B6800224FF00111F86800F011FA034605
:1051B000002B0DD0FB681B681B6803F48073B3F5EC
:1051C000807F03D1FB684FF400721A64032379E0F7
:1051D000FB681B69B3F5804F08D17B89DBB243F0D4
:1051E0000103DAB2FB681B681A615FE07B89DB119F
:1051F000DBB203F00603DBB263F00F03DAB2FB6845
:105200001B681A613B687A683049F86800F05AFAFE
:105210000346002B01D0012354E07B89DAB2FB68FE
:105220001B681A613B687A682949F86800F04AFAF5
:105230000346002B01D0012344E000233B61FB68BF
:105240001B685B693B61FB681B689B693B613B6951
:10525000FB681B681A68FB681B6842F480721A605E
:105260003B6800937B6800224FF00111F86800F062
:10527000AFF90346002B0DD0FB681B681B6803F4D5
:105280008073B3F5807F03D1FB684FF400721A641A
:10529000032317E07B89DB11DBB203F00603DBB2EB
:1052A00063F00E03DAB2FB681B681A613B687A6828
:1052B0000749F86800F006FA0346002B01D00123E5
:1052C00000E0002318461837BD4680BD08000100E5
:1052D0000200010080B588B002AFF86008461146B0
:1052E0001A4603467B810B463B811346FB80FB68D5
:1052F0001B681A68FB681B6842F480721A607B6A3C
:1053000000933B6A00224FF00111F86800F060F949
:105310000346002B0DD0FB681B681B6803F48073E9
:10532000B3F5807F03D1FB684FF400721A64032346
:105330005FE07B89DBB21A46FB681B6802F0FE0265
:105340001A617B6A3A6A2D49F86800F0BBF9034696
:10535000002B01D001234CE000237B61FB681B681C
:105360005B697B61FB681B689B697B617B697A6A0F
:10537000396AF86800F046FA0346002B0DD0FB6846
:105380001B6C042B07D1FB681B681A68FB681B6841
:1053900042F400721A6001232BE0FB88012B05D137
:1053A0003B89DAB2FB681B681A6121E03B891B0A62
:1053B0009BB2DAB2FB681B681A617A6A396AF868CC
:1053C00000F020FA0346002B0DD0FB681B6C042B69
:1053D00007D1FB681B681A68FB681B6842F40072FF
:1053E0001A60012305E03B89DAB2FB681B681A6189
:1053F000002318461837BD4680BD00BF02000100DB
:1054000080B588B002AFF860084611461A460346D8
:105410007B810B463B811346FB80FB681B681A6847
:10542000FB681B6842F480621A60FB681B681A689C
:10543000FB681B6842F480721A607B6A00933B6AC7
:1054400000224FF00111F86800F0C2F80346002B6B
:105450000DD0FB681B681B6803F48073B3F5807F75
:1054600003D1FB684FF400721A640323AAE07B891E
:10547000DBB21A46FB681B6802F0FE021A617B6A07
:105480003A6A5249F86800F01DF90346002B01D032
:10549000012397E000237B61FB681B685B697B61EC
:1054A000FB681B689B697B617B697A6A396AF8686B
:1054B00000F0A8F90346002B0DD0FB681B6C042BF1
:1054C00007D1FB681B681A68FB681B6842F400720E
:1054D0001A60012376E0FB88012B05D13B89DAB203
:1054E000FB681B681A6121E03B891B0A9BB2DAB298
:1054F000FB681B681A617A6A396AF86800F082F9F9
:105500000346002B0DD0FB681B6C042B07D1FB68F6
:105510001B681A68FB681B6842F400721A6001235A
:1055200050E03B89DAB2FB681B681A617A6A396A13
:10553000F86800F067F90346002B0DD0FB681B6C80
:10554000042B07D1FB681B681A68FB681B6842F4D0
:1055500000721A60012335E0FB681B681A68FB685B
:105560001B6842F480721A607B6A00933B6A0022D7
:105570004FF00111F86800F02BF80346002B0DD016
:10558000FB681B681B6803F48073B3F5807F03D14D
:10559000FB684FF400721A64032313E07B89DBB2CB
:1055A00043F00103DAB2FB681B681A617B6A3A6A4E
:1055B0000649F86800F086F80346002B01D0012365
:1055C00000E0002318461837BD4680BD02000100E8
:1055D00080B584B000AFF860B9603B601346FB71E2
:1055E00048E03B68B3F1FF3F44D0FDF74BFE024675
:1055F000BB69D31A3A689A4202D33B68002B39D16F
:10560000BB681B0CDBB2012B0DD1FB681B685B690F
:10561000DA43BB6813409BB2002B0CBF012300236D
:10562000DBB21A460CE0FB681B689B69DA43BB6877
:1056300013409BB2002B0CBF01230023DBB21A46A0
:10564000FB799A4216D1FB6800221A63FB6820227C
:1056500083F83D20FB68002283F83E20FB681B6C2A
:1056600043F02002FB681A64FB68002283F83C20A8
:10567000012323E0BB681B0CDBB2012B0DD1FB68BF
:105680001B685B69DA43BB6813409BB2002B0CBFFD
:1056900001230023DBB21A460CE0FB681B689B6900
:1056A000DA43BB6813409BB2002B0CBF01230023DD
:1056B000DBB21A46FB799A4293D000231846103782
:1056C000BD4680BD80B584B000AFF860B9607A6037
:1056D0003B6071E0FB681B685B6903F48063B3F5B2
:1056E000806F23D1FB681B681A68FB681B6842F453
:1056F00000721A60FB681B686FF480625A61FB6875
:1057000000221A63FB68202283F83D20FB680022F8
:1057100083F83E20FB681B6C43F00402FB681A64AC
:10572000FB68002283F83C20012367E07B68B3F12B
:10573000FF3F41D0FDF7A6FD02463B68D31A7A68C9
:105740009A4202D37B68002B36D1BB681B0CDBB2BC
:10575000012B0CD1FB681B685B69DA43BB68134003
:105760009BB2002B14BF01230023DBB20BE0FB68CC
:105770001B689B69DA43BB6813409BB2002B14BFC4
:1057800001230023DBB2002B16D0FB6800221A6332
:10579000FB68202283F83D20FB68002283F83E202E
:1057A000FB681B6C43F02002FB681A64FB68002254
:1057B00083F83C20012321E0BB681B0CDBB2012BEA
:1057C0000CD1FB681B685B69DA43BB6813409BB272
:1057D000002B14BF01230023DBB20BE0FB681B6826
:1057E0009B69DA43BB6813409BB2002B14BF0123B3
:1057F0000023DBB2002B7FF46DAF00231846103777
:10580000BD4680BD80B584B000AFF860B9607A60F5
:1058100034E0F86800F0E3F80346002B01D00123E0
:1058200034E0BB68B3F1FF3F28D0FDF72BFD024603
:105830007B68D31ABA689A4202D3BB68002B1DD189
:10584000FB681B685B6903F08003802B16D0FB6844
:1058500000221A63FB68202283F83D20FB680022A7
:1058600083F83E20FB681B6C43F02002FB681A643F
:10587000FB68002283F83C20012307E0FB681B68DB
:105880005B6903F08003802BC3D1002318461037D7
:10589000BD4680BD80B584B000AFF860B9607A6065
:1058A00034E0F86800F09BF80346002B01D0012398
:1058B00034E0BB68B3F1FF3F28D0FDF7E3FC0246BC
:1058C0007B68D31ABA689A4202D3BB68002B1DD1F9
:1058D000FB681B685B6903F00403042B16D0FB68AC
:1058E00000221A63FB68202283F83D20FB68002217
:1058F00083F83E20FB681B6C43F02002FB681A64AF
:10590000FB68002283F83C20012307E0FB681B684A
:105910005B6903F00403042BC3D10023184610373E
:10592000BD4680BD80B584B000AFF860B9607A60D4
:1059300049E0FB681B685B6903F01003102B19D169
:10594000FB681B686FF010025A61FB6800221A6343
:10595000FB68202283F83D20FB68002283F83E206C
:10596000FB681A6CFB681A64FB68002283F83C2011
:10597000012330E0FDF786FC02467B68D31ABA6843
:105980009A4202D3BB68002B1DD1FB681B685B6980
:1059900003F04003402B16D0FB6800221A63FB681B
:1059A000202283F83D20FB68002283F83E20FB681C
:1059B0001B6C43F02002FB681A64FB68002283F82A
:1059C0003C20012307E0FB681B685B6903F0400390
:1059D000402BAED1002318461037BD4680BD80B4A1
:1059E00083B000AF78607B681B685B6903F48063F9
:1059F000B3F5806F1BD17B681B686FF480625A61BE
:105A00007B6800221A637B68202283F83D207B6834
:105A1000002283F83E207B681B6C43F004027B6805
:105A20001A647B68002283F83C20012300E00023F5
:105A300018460C37BD465DF8047B704780B586B0CC
:105A400000AF78607B68002B01D1012367E27B689F
:105A50001B6803F00103002B75D0884B9B6803F093
:105A60000C03042B0CD0854B9B6803F00C03082B14
:105A700012D1824B5B6803F48003B3F5800F0BD126
:105A80007E4B1B6803F40033002B5BD07B685B68A4
:105A9000002B57D1012342E27B685B68B3F5803F5E
:105AA00006D1764B1B68754A43F4803313601DE0C2
:105AB0007B685B68B3F5A02F0CD1704B1B686F4AF5
:105AC00043F4802313606D4B1B686C4A43F48033AE
:105AD00013600BE0694B1B68684A23F48033136042
