:020000040800F2
:100000000000022005500008E5470008EB47000803
:10001000F1470008F7470008FD470008000000000E
:10002000000000000000000000000000034800087D
:1000300011480008000000001F4800082D48000873
:1000400055500008555000085550000855500008FC
:1000500055500008555000085550000855500008EC
:1000600055500008555000085550000855500008DC
:1000700055500008555000085550000855500008CC
:10008000394800084D4800085550000855500008F0
:1000900055500008555000085550000855500008AC
:1000A000555000085550000855500008555000089C
:1000B000555000085550000855500008555000088C
:1000C000555000085550000855500008555000087C
:1000D000555000085550000855500008555000086C
:1000E000555000085550000855500008555000085C
:1000F000555000085550000855500008555000084C
:100100005550000861480008555000085550000837
:10011000555000085550000855500008555000082B
:100120005550000855500008555000087548000803
:10013000555000085550000855500008555000080B
:1001400055500008555000085550000855500008FB
:1001500055500008894800085550000855500008BF
:1001600055500008555000085550000855500008DB
:100170005550000855500008555000080000000078
:0801800055500008555000081D
:1001900010B5054C237833B9044B13B10448AFF3C1
:1001A00000800123237010BD080200200000000021
:1001B0003051010808B5034B1BB103490348AFF3A5
:1001C000008008BD000000000C0200203051010832
:1001D00001F0FF01102A2BDB10F0070F08D010F8F8
:1001E000013B013A8B422DD010F0070F42B3F6D1FC
:1001F000F0B441EA012141EA014122F007047FF015
:1002000000070023F0E80256083C85EA010586EA6B
:10021000010685FA47F5A3FA87F586FA47F6A5FAA7
:1002200087F68EB9EED1F0BC01F0FF0102F00702B3
:1002300032B110F8013B013A83EA010313B1F8D15E
:100240000020704701387047002D06BF354603383F
:10025000073815F0010F07D1013015F4807F02BF78
:10026000013015F4C03F0130F0BC0138704700BFC9
:10027000034613F8012B002AFBD1181A01387047E6
:1002800081F0004102E000BF83F0004330B54FEA47
:1002900041044FEA430594EA050F08BF90EA020FB4
:1002A0001FBF54EA000C55EA020C7FEA645C7FEA47
:1002B000655C00F0E2804FEA5454D4EB5555B8BF6A
:1002C0006D420CDD2C4480EA020281EA030382EADB
:1002D000000083EA010180EA020281EA0303362D6D
:1002E00088BF30BD11F0004F4FEA01314FF4801C40
:1002F0004CEA113102D0404261EB410113F0004F52
:100300004FEA03334CEA133302D0524263EB430308
:1003100094EA050F00F0A780A4F10104D5F1200EA6
:100320000DDB02FA0EFC22FA05F2801841F1000101
:1003300003FA0EF2801843FA05F359410EE0A5F1D5
:1003400020050EF1200E012A03FA0EFC28BF4CF006
:10035000020C43FA05F3C01851EBE37101F00045BC
:1003600007D54FF0000EDCF1000C7EEB00006EEBC9
:100370000101B1F5801F1BD3B1F5001F0CD3490853
:100380005FEA30004FEA3C0C04F101044FEA4452AA
:1003900012F5800F80F09A80BCF1004F08BF5FEA31
:1003A000500C50F1000041EB045141EA050130BD11
:1003B0005FEA4C0C404141EB0101013C28BFB1F523
:1003C000801FE9D291F0000F04BF01460020B1FA6E
:1003D00081F308BF2033A3F10B03B3F120020CDA41
:1003E0000C3208DD02F1140CC2F10C0201FA0CF01F
:1003F00021FA02F10CE002F11402D8BFC2F1200C84
:1004000001FA02F120FA0CFCDCBF41EA0C01904039
:10041000E41AA2BF01EB0451294330BD6FEA040482
:100420001F3C1CDA0C340EDC04F11404C4F120026D
:1004300020FA04F001FA02F340EA030021FA04F37F
:1004400045EA030130BDC4F10C04C4F1200220FAD6
:1004500002F001FA04F340EA0300294630BD21FA14
:1004600004F0294630BD94F0000F83F4801306BFDA
:1004700081F480110134013D4EE77FEA645C18BFCE
:100480007FEA655C29D094EA050F08BF90EA020F65
:1004900005D054EA000C04BF1946104630BD91EA5D
:1004A000030F1EBF0021002030BD5FEA545C05D160
:1004B0004000494128BF41F0004130BD14F580049F
:1004C0003CBF01F5801130BD01F0004545F0FE4113
:1004D00041F470014FF0000030BD7FEA645C1ABF48
:1004E000194610467FEA655C1CBF0B46024650EA7F
:1004F000013406BF52EA033591EA030F41F40021AB
:1005000030BD00BF90F0000F04BF0021704730B530
:100510004FF4806404F132044FF000054FF0000105
:1005200050E700BF90F0000F04BF0021704730B5C6
:100530004FF4806404F1320410F0004548BF40429B
:100540004FF000013EE700BF42004FEAE2014FEAF0
:1005500031014FEA02701FBF12F07F4393F07F4FCB
:1005600081F06051704732F07F4208BF704793F0CE
:100570007F4F04BF41F40021704730B54FF46074E1
:1005800001F0004521F000411CE700BF50EA0102E4
:1005900008BF704730B54FF000050AE050EA01028D
:1005A00008BF704730B511F0004502D5404261EBFD
:1005B00041014FF4806404F132045FEA915C3FF43E
:1005C000D8AE4FF003025FEADC0C18BF03325FEADB
:1005D000DC0C18BF033202EBDC02C2F1200300FA8C
:1005E00003FC20FA02F001FA03FE40EA0E0021FAB1
:1005F00002F11444BDE600BF70B54FF0FF0C4CF49F
:10060000E06C1CEA11541DBF1CEA135594EA0C0F50
:1006100095EA0C0F00F0DEF82C4481EA030621EA8B
:100620004C5123EA4C5350EA013518BF52EA0335C6
:1006300041F4801143F4801338D0A0FB02CE4FF078
:100640000005E1FB02E506F00042E0FB03E54FF0A8
:100650000006E1FB03569CF0000F18BF4EF0010EA0
:10066000A4F1FF04B6F5007F64F5407404D25FEA9C
:100670004E0E6D4146EB060642EAC62141EA55514F
:100680004FEAC52040EA5E504FEACE2EB4F1FD0C91
:1006900088BFBCF5E06F1ED8BEF1004F08BF5FEA0F
:1006A000500E50F1000041EB045170BD06F00046C1
:1006B00046EA010140EA020081EA0301B4EB5C046E
:1006C000C2BFD4EB0C0541EA045170BD41F4801166
:1006D0004FF0000E013C00F3AB8014F1360FDEBF8B
:1006E000002001F0004170BDC4F10004203C35DA67
:1006F0000C341BDC04F11404C4F1200500FA05F3EA
:1007000020FA04F001FA05F240EA020001F000428A
:1007100021F0004110EBD37021FA04F642EB060100
:100720005EEA430E08BF20EAD37070BDC4F10C042A
:10073000C4F1200500FA04F320FA05F001FA04F2EE
:1007400040EA020001F0004110EBD37041F10001DA
:100750005EEA430E08BF20EAD37070BDC4F12005E5
:1007600000FA05F24EEA020E20FA04F301FA05F24D
:1007700043EA020321FA04F001F0004121FA04F2F5
:1007800020EA020000EBD3705EEA430E08BF20EAC5
:10079000D37070BD94F0000F0FD101F000464000FF
:1007A00041EB010111F4801F08BF013CF7D041EA81
:1007B000060195F0000F18BF704703F00046520085
:1007C00043EB030313F4801F08BF013DF7D043EA56
:1007D0000603704794EA0C0F0CEA135518BF95EA0C
:1007E0000C0F0CD050EA410618BF52EA4306D1D193
:1007F00081EA030101F000414FF0000070BD50EAB2
:10080000410606BF1046194652EA430619D094EA3B
:100810000C0F02D150EA013613D195EA0C0F05D125
:1008200052EA03361CBF104619460AD181EA030179
:1008300001F0004141F0FE4141F470014FF0000031
:1008400070BD41F0FE4141F4780170BD70B54FF0CC
:10085000FF0C4CF4E06C1CEA11541DBF1CEA13554C
:1008600094EA0C0F95EA0C0F00F0A7F8A4EB05042E
:1008700081EA030E52EA03354FEA013100F0888025
:100880004FEA03334FF0805545EA131343EA1263EE
:100890004FEA022245EA111545EA10654FEA0026A3
:1008A0000EF000419D4208BF964244F1FD0404F55C
:1008B000407402D25B084FEA3202B61A65EB0305B8
:1008C0005B084FEA32024FF480104FF4002CB6EB75
:1008D000020E75EB030E22BFB61A754640EA0C00F5
:1008E0005B084FEA3202B6EB020E75EB030E22BF35
:1008F000B61A754640EA5C005B084FEA3202B6EB76
:10090000020E75EB030E22BFB61A754640EA9C0034
:100910005B084FEA3202B6EB020E75EB030E22BF04
:10092000B61A754640EADC0055EA060E18D04FEAC2
:10093000051545EA16754FEA06164FEAC30343EA62
:1009400052734FEAC2025FEA1C1CC0D111F4801F2F
:100950000BD141EA00014FF000004FF0004CB6E728
:1009600011F4801F04BF01430020B4F1FD0C88BFC7
:10097000BCF5E06F3FF6AFAEB5EB030C04BFB6EBD2
:10098000020C5FEA500C50F1000041EB045170BDC5
:100990000EF0004E4EEA113114EB5C04C2BFD4EBF2
:1009A0000C0541EA045170BD41F480114FF0000E76
:1009B000013C90E645EA060E8DE60CEA135594EAF2
:1009C0000C0F08BF95EA0C0F3FF43BAF94EA0C0FF5
:1009D0000AD150EA01347FF434AF95EA0C0F7FF46A
:1009E00025AF104619462CE795EA0C0F06D152EABE
:1009F00003353FF4FDAE1046194622E750EA4106A2
:100A000018BF52EA43067FF4C5AE50EA41047FF4B2
:100A10000DAF52EA43057FF4EBAE12E74FF0FF3C17
:100A200006E000BF4FF0010C02E000BF4FF0010CE8
:100A30004DF804CD4FEA410C7FEA6C5C4FEA430C61
:100A400018BF7FEA6C5C1BD001B050EA410C0CBFB0
:100A500052EA430C91EA030F02BF90EA020F002012
:100A6000704710F1000F91EA030F58BF994208BF79
:100A700090422CBFD8176FEAE37040F00100704736
:100A80004FEA410C7FEA6C5C02D150EA013C07D18D
:100A90004FEA430C7FEA6C5CD6D152EA033CD3D0D8
:100AA0005DF8040B704700BF8446104662468C46D2
:100AB0001946634600E000BF01B5FFF7B7FF002805
:100AC00048BF10F1000F01BD4DF808EDFFF7F4FF2E
:100AD0000CBF012000205DF808FB00BF4DF808EDB9
:100AE000FFF7EAFF34BF012000205DF808FB00BFDC
:100AF0004DF808EDFFF7E0FF94BF012000205DF8FE
:100B000008FB00BF4DF808EDFFF7CEFF94BF0120B2
:100B100000205DF808FB00BF4DF808EDFFF7C4FFAB
:100B200034BF012000205DF808FB00BF4FEA410CF4
:100B30007FEA6C5C02D150EA013C0AD14FEA430CD7
:100B40007FEA6C5C02D152EA033C02D14FF0000014
:100B500070474FF0010070474FEA410212F5001252
:100B600015D211D56FF47873B3EB625212D94FEAF4
:100B7000C12343F0004343EA505311F0004F23FADE
:100B800002F018BF404270474FF00000704750EA33
:100B9000013005D111F0004008BF6FF000407047F0
:100BA0004FF00000704700BF4A0011D212F500124A
:100BB00011D20DD56FF47873B3EB62520ED44FEAB5
:100BC000C12343F0004343EA505323FA02F0704735
:100BD0004FF00000704750EA013002D14FF0FF3073
:100BE00070474FF0000070474FEA4102B2F1E04316
:100BF00024BFB3F5001CDCF1FE5C0DD901F0004C04
:100C00004FEAC0024CEA5070B2F1004F40EB830053
:100C100008BF20F00100704711F0804F21D113F17F
:100C20003872BCBF01F00040704741F480114FEAB8
:100C30005252C2F11802C2F1200C10FA0CF320FA41
:100C400002F018BF40F001004FEAC1234FEAD3235E
:100C500003FA0CFC40EA0C0023FA02F34FEA4303C8
:100C6000CCE77FEA625307D150EA01331EBF4FF051
:100C7000FE4040F44000704701F0004040F0FE406C
:100C800040F40000704700BF53B94AB9002908BFBB
:100C900000281CBF4FF0FF314FF0FF3000F0A6B925
:100CA000ADF1080C6DE904CE00F03CF8DDF804E08D
:100CB000DDE9022304B0704738B500220023044662
:100CC0000D46FFF70BFF28B920462946BDE83840FE
:100CD00000F00AB8204605F1004100F005F8404256
:100CE00061EB410138BD00BFD0B50C4B0022064678
:100CF0000F46FFF781FCFFF757FF0446FFF702FCA2
:100D0000074B0022FFF778FC02460B463046394677
:100D1000FFF7BAFAFFF748FF2146D0BD0000F03DCB
:100D20000000F0412DE9F047089E0D4604460F46AD
:100D3000002B4AD18A42944665D9B2FA82F343B174
:100D400002FA03FCC3F120029F4020FA02F217438B
:100D50009C404FEA1C4E1FFA8CF5B7FBFEF1220CAB
:100D60000EFB117742EA074201FB05F090420AD9D7
:100D70001CEB020201F1FF3780F01C81904240F22F
:100D8000198102396244121AA4B2B2FBFEF00EFBC2
:100D9000102244EA024400FB05F5A5420AD91CEBE7
:100DA000040400F1FF3280F00781A54240F2048183
:100DB0006444023840EA0140641B00211EB1DC405B
:100DC0000023C6E90043BDE8F0878B4208D9002E16
:100DD00000F0ED800021C6E900050846BDE8F08777
:100DE000B3FA83F1002949D1AB4202D3824200F227
:100DF000F880841A65EB030201201746002EE2D02A
:100E0000C6E90047DFE702B9FFDEB2FA82F3002B42
:100E100040F090808A1A4FEA1C471FFA8CFE01218D
:100E2000B2FBF7F507FB1520220C42EA00420EFB4D
:100E300005F0904208D91CEB020205F1FF3802D2FE
:100E4000904200F2CB804546121AA4B2B2FBF7F0F2
:100E500007FB102244EA02440EFB00FEA64508D917
:100E60001CEB040400F1FF3202D2A64500F2BB8065
:100E70001046A4EB0E0440EA05409FE7C1F12007AD
:100E80008B4022FA07FC4CEA030C05FA01F420FA25
:100E900007F3FD404FEA1C492343B5FBF9F81FFA5D
:100EA0008CFE09FB18551C0C44EA054408FB0EF5A2
:100EB000A54202FA01F200FA01F00BD91CEB04047E
:100EC00008F1FF3A80F08880A54240F28580A8F1C1
:100ED00002086444641B9DB2B4FBF9F309FB13449C
:100EE00045EA044403FB0EFEA64508D91CEB0404A6
:100EF00003F1FF356CD2A6456AD9023B644443EA4C
:100F00000843A3FB0295A4EB0E04AC42C846AE46D0
:100F100056D353D056B1B0EB080264EB0E0404FA7A
:100F200007F7CA40CC401743C6E9007418460021B1
:100F3000BDE8F087C3F1200102FA03FC20FA01F2B8
:100F400025FA01F19D402A434FEA1C471FFA8CFE07
:100F5000B1FBF7F007FB1015110C41EA054100FB4E
:100F60000EF58D4204FA03F408D91CEB010100F1DF
:100F7000FF382FD28D422DD902386144491B92B2DD
:100F8000B1FBF7F507FB151142EA014205FB0EF133
:100F9000914208D91CEB020205F1FF3816D29142AA
:100FA00014D9023D6244521A45EA004138E73146FD
:100FB000304608E73946E6E61046FBE64845A9D242
:100FC000B9EB020865EB0C0E013BA3E74546EAE7E7
:100FD0002B4694E74046D1E7D0467BE7023D62448A
:100FE00032E708460AE76444023842E7704700BF28
:100FF00080B500AF00228021024805F017F800BF3D
:1010000080BD00BF0004024080B500AF01228021F6
:10101000024805F00BF800BF80BD00BF000402408D
:1010200080B500AF01224021024804F0FFFF00BF5D
:1010300080BD00BF0004024080B500AF0022402107
:10104000024804F0F3FF00BF80BD00BF000402406F
:1010500080B584B000AF03460A46FB711346BB71EE
:10106000FB7943F02003DBB23B73BB797B73FFF763
:10107000BFFF07F10C014FF47A730222044808F015
:1010800090FDFFF7C1FF00BF1037BD4680BD00BF18
:10109000A810002080B586B000AF0346B9607A6022
:1010A000FB73FB7B43F02003DBB23B75FFF7A0FF34
:1010B00007F1140164230122084808F072FD7B68DF
:1010C0009AB24FF47A73B968044808F06AFDFFF7E2
:1010D0009BFF00BF1837BD4680BD00BFA810002091
:1010E00080B584B000AF0346FB710023FB73FFF7AC
:1010F0007FFFF91D642301220C4808F052FD0346CE
:101100001A460B4B1A7007F10F016423012207489E
:1011100008F08AFE03461A46054B1A70FFF774FF63
:10112000FB7B18461037BD4680BD00BFA8100020CD
:101130002402002080B582B000AF0346FB71FFF7A8
:1011400057FFF91D64230122044808F02AFDFFF728
:101150005BFF00BF0837BD4680BD00BFA810002060
:1011600080B588B000AF0346FB71FB79072B04D133
:1011700000210720FFF76CFF90E0FB79172B04D1CB
:1011800011211720FFF764FF88E008210020FFF7F6
:101190005FFF3F210120FFF75BFF03210220FFF7E4
:1011A00057FF03210320FFF753FF00210420FFF71F
:1011B0004FFF02210520FFF74BFF0E210620FFF70E
:1011C00047FF00210720FFF743FF00210820FFF71A
:1011D0003FFF00210920FFF73BFF324A07F11803C8
:1011E00092E8030018600433197007F11803052210
:1011F00019460A20FFF74EFF2B4A07F1100392E829
:10120000030018600433197007F110030522194612
:101210000B20FFF73FFFC3210C20FFF719FFC4216C
:101220000D20FFF715FFC5210E20FFF711FFC62186
:101230000F20FFF70DFF1B4A07F1080392E8030098
:1012400018600433197007F10803052219461020AD
:10125000FFF720FF00211120FFF7FAFE00211220E6
:10126000FFF7F6FE00211320FFF7F2FE0021142005
:10127000FFF7EEFE00211520FFF7EAFE0021162001
:10128000FFF7E6FE11211720FFF7E2FE00211C20E8
:10129000FFF7DEFE00211D20FFF7DAFE00BF20373A
:1012A000BD4680BD485101085051010880B500AFCE
:1012B000FFF7C2FE0020FFF753FF00210020FFF7D9
:1012C000C7FE00210120FFF7C3FE00210220FFF727
:1012D000BFFE03210320FFF7BBFE00210420FFF720
:1012E000B7FE00210520FFF7B3FE0C210620FFF713
:1012F000AFFEFFF795FE00BF80BD80B586B000AFA2
:10130000F860B9601346FB71FFF796FEFB7919464A
:101310000520FFF79DFE0522F9681020FFF7BAFEB1
:1013200033210420FFF794FE3F23FB75FB7D194614
:101330000220FFF78DFE0522B9680B20FFF7AAFEF9
:1013400020211120FFF784FE20211220FFF780FECC
:1013500020211320FFF77CFE20211420FFF778FEC8
:1013600020211520FFF774FE20211620FFF770FEC4
:10137000FFF756FE00F09AF800BF1837BD4680BD53
:1013800080B582B000AFFFF757FE0023FB71FB79F9
:1013900043F00203FB71FB7943F00803FB71FB7917
:1013A00043F00403FB71FB7919460020FFF750FE60
:1013B000FFF736FE00F07AF800BF0837BD4680BD63
:1013C00080B582B000AFFFF737FE0023FB71FB79D9
:1013D00043F00303FB71FB7943F00803FB71FB79D6
:1013E00043F00403FB71FB7919460020FFF730FE40
:1013F000FFF716FE00F06AF800BF0837BD4680BD53
:1014000080B584B000AF786000237B73FFF7F0FDF8
:10141000A0237B7307F10D0164230122214808F00A
:10142000C0FB03461A46204B1A704FF47A732022F1
:1014300079681C4808F0B5FB03461A461A4B1A7027
:10144000FFF7E2FD012003F079FE0720FFF748FED9
:101450000346FB73FB7B03F01003002B0AD0FB7BDE
:1014600043F01003FB73FB7B19460720FFF7F0FDE9
:1014700000F01CF81720FFF733FE0346BB73BB7B5D
:1014800003F01003002B08D0BB7B03F00803002BF4
:1014900003D100F00BF8012300E0002318461037B9
:1014A000BD4680BDA81000202402002080B582B077
:1014B00000AFE123FB71FB791846FFF73BFE1720D5
:1014C000FFF74EFE00BF0837BD4680BD80B582B035
:1014D00000AFE223FB71FB791846FFF72BFE1720C4
:1014E000FFF73EFE00BF0837BD4680BD80B582B025
:1014F00000AF1720FFF7F4FD0346FB710720FFF74D
:10150000EFFD0346BB710020FFF7EAFD03467B7148
:10151000BB7903F04003002B05D040210720FFF7E3
:1015200097FD012300E0002318460837BD4680BD23
:1015300080B584B000AF78600023FB73FFF758FDDF
:101540006123FB7307F10F01642301220C4808F0AB
:1015500028FB4FF47A7320227968094808F064FC6C
:10156000FFF752FD012003F0E9FDE223FB73FB7B53
:101570001846FFF7DFFD00BF1037BD4680BD00BF36
:10158000A810002080B584B000AFB9607A603B60DD
:101590000346FB737B68002B02D16FF0010321E04F
:1015A00000221021114804F041FD07F10F016423CE
:1015B00001220F4808F0F5FA03461A460D4B1A703F
:1015C0007B689AB24FF47A73B968094808F02CFC2A
:1015D00003461A46074B1A7001221021034804F0F3
:1015E00025FD002318461037BD4680BD0008024087
:1015F000501000205402002080B584B000AFB960C4
:101600007A603B600346FB737B68002B02D16FF06E
:10161000010319E0002210210D4804F007FD07F135
:101620000F01642301220B4808F0BBFA7B689AB2D1
:101630004FF47A73B968074808F0B3FA0122102111
:10164000034804F0F3FC002318461037BD4680BD64
:10165000000802405010002080B582B000AF7860D2
:101660003960786803F06AFD00BF0837BD4680BD69
:1016700080B582B000AF0023FB7100F02BF8034669
:10168000FB7197F90730002B02D097F907300FE074
:10169000012000F069F80346FB7197F90730002B31
:1016A00002D097F9073003E0012000F04BF8034621
:1016B00018460837BD4680BD80B500AF0122102115
:1016C000034804F0B3FCFFF7D3FF0346184680BD80
:1016D0000008024080B586B000AF0023FB75134BB5
:1016E00000221A60124B1A46002313605360936065
:1016F000D360104B104A9A600E4B104ADA600D4BC3
:101700000F4A1A610B480AF00AFB0346FB7597F96A
:101710001730002B02D097F9173003E005480AF084
:1017200023FA034618461837BD4680BD4002002004
:10173000440200202802002085150008F915000841
:101740005916000880B582B000AF0346FB71FB79E3
:10175000044918460AF07AFB034618460837BD4686
:1017600080BD00BF2802002080B582B000AF0346D4
:10177000FB71064AFB799370054904480AF050FC56
:10178000034618460837BD4680BD00BF4002002012
:101790002802002080B582B000AF7860044A054975
:1017A00078680AF0A3FB034618460837BD4680BD9B
:1017B0002802002040020020B0B586B000AF87EDBF
:1017C000010A97ED017ADFED226AC7EE267AC7EDAE
:1017D000057A204B3B617869FEF7B6FE04460D465C
:1017E0003869FEF7B1FE02460B4643EC112B45EC7F
:1017F000104B12F0E5FC53EC102B10461946FFF786
:10180000F3F90346FB60B7EE007AD7ED037A77EE83
:10181000677AC7ED037AF868FEF796FE0AA3D3E964
:101820000023FFF713F802460B4610461946FFF750
:10183000DBF90346FB60FB6807EE903AB0EE670AFF
:101840001837BD46B0BD00BFDF55225749A7F73E48
:1018500080E6C54754D4423E80B582B000AF03460F
:10186000FB71FB791946072000F000FD00BF083727
:10187000BD4680BD80B582B000AF0346FB71FB79E9
:1018800019463D2000F0F2FCFB79002B03D1132018
:1018900000F0E0FC02E0072000F0DCFC00BF0837AD
:1018A000BD4680BD80B500AF0020FFF7E3FF00BF5D
:1018B00080BD80B500AF0C20FFF7DCFF00BF80BD0E
:1018C00080B500AF20213F2000F0D0FC4FF42F70F6
:1018D00000F0C0FC00BF80BD80B582B000AFFFF754
:1018E000EFFF0023FB71FB1D01221946002000F0D1
:1018F000A9FDFB79A02B04D0FB79194609480FF00C
:1019000025FE0020FFF7A8FF00213F2000F0AEFCDD
:10191000FFF7C8FF0A2000F09DFC00BF0837BD4656
:1019200080BD00BF585101082DE9B0439EB000AF03
:10193000034687F827300020FFF78EFF97F82730FF
:10194000202B08D107F1480197F8273008221846C4
:1019500000F078FD07E007F1480197F827300622EC
:10196000184600F06FFD4FF000028B4BC7E91C23B7
:1019700097F827300E2B09D1884B1B881846FEF7A5
:10198000C1FD02460B46C7E91C233EE097F827300D
:10199000082B07D097F82730282B03D097F827304B
:1019A0002E2B09D17E4B1B881846FEF7ABFD024655
:1019B0000B46C7E91C2328E097F82730142B09D1E0
:1019C000784B1B881846FEF79DFD02460B46C7E97B
:1019D0001C231AE097F827301A2B09D1724B1B8869
:1019E0001846FEF78FFD02460B46C7E91C230CE0A4
:1019F00097F82730202B08D16C4B1B881846FEF730
:101A000081FD02460B46C7E91C2307F1280320226B
:101A1000002118460FF000FF97F82730202B50D1F7
:101A200097F849301B021AB297F848301BB213439B
:101A30001BB21846FEF776FDD7E91C23FEF706FF1A
:101A400002460B46C7E90A2397F84B301B021AB22D
:101A500097F84A301BB213431BB21846FEF762FDDB
:101A6000D7E91C23FEF7F2FE02460B46C7E90C231A
:101A700097F84D301B021AB297F84C301BB2134343
:101A80001BB21846FEF74EFDD7E91C23FEF7DEFE1B
:101A900002460B46C7E90E2397F84F301B021AB2D5
:101AA00097F84E301BB213431BB21846FEF73AFDAF
:101AB000D7E91C23FEF7CAFE02460B46C7E91023EE
:101AC0003BE097F849301B021AB297F848301BB236
:101AD00013431BB21846FEF725FDD7E91C23FEF77A
:101AE000B5FE02460B46C7E90C2397F84B301B02A4
:101AF0001AB297F84A301BB213431BB21846FEF7CE
:101B000011FDD7E91C23FEF7A1FE02460B46C7E9EB
:101B10000E2397F84D301B021AB297F84C301BB2C7
:101B200013431BB21846FEF7FDFCD7E91C23FEF752
:101B30008DFE02460B46C7E9102307F1500407F15A
:101B400028050FCD0FC495E80F0084E80F00D7E9F2
:101B50001489D7E91645D7E91801D7E91A2349ECC2
:101B6000148B45EC154B41EC160B43EC172BB0EEE8
:101B7000440AF0EE640AB0EE451AF0EE651AB0EED3
:101B8000462AF0EE662AB0EE473AF0EE673A78372A
:101B9000BD46BDE8B08300BF0000F03F0600002056
:101BA00000000020020000200400002008000020A7
:101BB0002DE9B04390B000AF1420FFF7B5FEB0EEB2
:101BC000404AF0EE604AB0EE415AF0EE615AB0EE93
:101BD000426AF0EE626AB0EE437AF0EE637A87ED25
:101BE000084B87ED0A5B87ED0C6B87ED0E7BD7E921
:101BF0000889D7E90A45D7E90C01D7E90E2349EC52
:101C0000148B45EC154B41EC160B43EC172BB0EE47
:101C1000440AF0EE640AB0EE451AF0EE651AB0EE32
:101C2000462AF0EE662AB0EE473AF0EE673A4037C1
:101C3000BD46BDE8B0832DE9B04390B000AF1A2097
:101C4000FFF772FEB0EE404AF0EE604AB0EE415A45
:101C5000F0EE615AB0EE426AF0EE626AB0EE437A9C
:101C6000F0EE637A87ED084B87ED0A5B87ED0C6B2E
:101C700087ED0E7BD7E90889D7E90A45D7E90C013A
:101C8000D7E90E2349EC148B45EC154B41EC160BB0
:101C900043EC172BB0EE440AF0EE640AB0EE451A9E
:101CA000F0EE651AB0EE462AF0EE662AB0EE473A3C
:101CB000F0EE673A4037BD46BDE8B0832DE9B0434A
:101CC00090B000AF2820FFF72FFEB0EE404AF0EEB4
:101CD000604AB0EE415AF0EE615AB0EE426AF0EE60
:101CE000626AB0EE437AF0EE637A87ED084B87EDD7
:101CF0000A5B87ED0C6B87ED0E7BD7E90889D7E986
:101D00000A45D7E90C01D7E90E2349EC148B45ECC1
:101D1000154B41EC160B43EC172BB0EE440AF0EEDA
:101D2000640AB0EE451AF0EE651AB0EE462AF0EEFF
:101D3000662AB0EE473AF0EE673A4037BD46BDE856
:101D4000B0832DE9B04390B000AF2020FFF7ECFD49
:101D5000B0EE404AF0EE604AB0EE415AF0EE615A01
:101D6000B0EE426AF0EE626AB0EE437AF0EE637A69
:101D700087ED084B87ED0A5B87ED0C6B87ED0E7BDB
:101D8000D7E90889D7E90A45D7E90C01D7E90E2335
:101D900049EC148B45EC154B41EC160B43EC172B1F
:101DA000B0EE440AF0EE640AB0EE451AF0EE651AA1
:101DB000B0EE462AF0EE662AB0EE473AF0EE673A09
:101DC0004037BD46BDE8B08380B582B000AF7860D3
:101DD0007B6893F85130DBB2012B02D0786807F0B2
:101DE0002FFE8023234A7968234802F026FF03460A
:101DF0001A46224B1A70204B5B691F4AD26902FBBC
:101E000003F31F4A13601C4B5B691B4A126902FBF8
:101E100003F31C4A13604FF400631B4A0021164869
:101E200002F08CFF194B184A1A60184B1B6893F884
:101E30008430002B05D0154B1B6893F88430FF2BA2
:101E400011D1124B1B68002283F884200F4B1B68B2
:101E50004FF400621A600D4B1B680433802200218E
:101E600018460FF0D9FC786807F073FE00BF0837FA
:101E7000BD4680BD000C024058020020B20E00207A
:101E80008002002084020020A8060020A80E002066
:101E900080B582B000AF7860594B1B885B01594A0E
:101EA00013442022796818460FF0D1FD544B1B884B
:101EB00001339AB2524B1A80514B1B881F2B40F2B0
:101EC0009A80514B1B6893F85130DBB2012B04D040
:101ED0004D4B1B68184607F0B3FD494B00221A8092
:101EE0004A4B1B681B684A4A1360494B1B684FF4F6
:101EF00080621946444802F0F8FF03461A46454BF3
:101F00001A70232003F01AF9414B19684FF48063CB
:101F10003C4A3D4802F052FF03461A463D4B1A70B8
:101F2000232003F00BF93A4B19684FF48063354ACC
:101F3000354802F003FF384B1B78FF2B14D1334B8D
:101F40001B6893F884300133DAB2334B1A70324B8A
:101F50001B781F2B02D9304B01221A702B4B1B68A8
:101F60002D4A127883F88420294B1B6803F580637F
:101F7000274A1360254B1B68254A12681A60234BB9
:101F80001968254B1B78013B214A12689B000B44C2
:101F90005A604FF4006200211B4802F0A6FF03467E
:101FA0001A461C4B1A701B4B1B78002B1ED1174B6B
:101FB0001B681A4A104619464FF400631A460FF080
:101FC00046FD4FF40063154A00210F4802F0F6FE6B
:101FD00003461A460F4B1A70232003F0AFF84FF454
:101FE00000630E4A0021084802F0A8FE064B1B6859
:101FF000184607F0AEFD00BF0837BD4680BD00BFE4
:10200000B00E0020A802002058020020A80E0020D8
:10201000AC0E0020B20E00200A000020A80600200E
:1020200080B594B000AF0122504951480CF0E2FD58
:1020300003461A464F4B1A704E4B1B78002B40F04C
:1020400091804FF40063FB644FF400633B643B1DDD
:10205000464918460DF018FB03461A46454B1A70C0
:10206000444B1B78002B78D1434B1B6893F85130BD
:10207000DBB2012B04D0404B1B68184607F0E0FC94
:10208000012387F84B305BE03C4B1B6893F88430AE
:1020900097F84B209A4208D2384B1A6897F84B3081
:1020A0009B0013445B68FB6403E0344B1B681B68B4
:1020B000FB6407F138030822002118460FF0ACFB3F
:1020C00097F84B2007F138032D4918460FF0ACFA6A
:1020D00007F138030B2219462A480CF0D1FD0346BC
:1020E0001A46244B1A70234B1B78002B23D1234B09
:1020F0001A6897F84B30013B9B0013445B683B64C4
:102100003B6C7B6410E020231F4A796C1A4802F074
:1021100015FE1C491C480DF0EBFB1A491B480DF03D
:10212000E7FB7B6C20337B647A6CFB6C9A42EAD3CE
:1021300014480DF07FFA97F84B30013387F84B3095
:102140000E4B1B6893F8843097F84B209A429BD92A
:10215000094B1B68184607F0FCFC002200210448CC
:102160000CF048FD00BF5037BD4680BD5015002023
:1021700054150020B30E002058020020A80E0020A5
:10218000945101088C250020880200200C000020BA
:1021900080B500AF1E4B1B6893F85130DBB2012BAA
:1021A00004D01B4B1B68184607F04AFC184802F085
:1021B000FCFE4FF40063174A0021154802F0BEFDF3
:1021C000154B144A1A60144B1B6893F88430002B8B
:1021D00005D0114B1B6893F88430FF2B11D10E4BA7
:1021E0001B68002283F884200B4B1B684FF40062AD
:1021F0001A60094B1B6804338022002118460FF037
:102200000BFB034B1B68184607F0A3FC00BF80BD07
:1022100058020020A8060020A80E002080B400AFBD
:10222000034B1B681846BD465DF8047B704700BF32
:10223000A80E002080B483B000AF7860044A7B68A9
:10224000136000BF0C37BD465DF8047B704700BFCC
:10225000B40E002080B582B000AF78607B6818466D
:1022600002F06CFF00BF0837BD4680BD80B588B066
:1022700002AF03460A46FB711346BB71FB793B7301
:10228000BB797B735A4B186807F10C020A23009341
:102290000223502104F058F80346FB75FB7D002B08
:1022A00000F0A080FB7D012B03D152480FF0B4F960
:1022B00012E0FB7D032B03D14F480FF0ADF90BE08B
:1022C000FB7D022B03D14D480FF0A6F904E0FB7D06
:1022D00019464B480FF03AF9454B1B68184604F075
:1022E000CBFF38613B69002B7ED03B69012B03D1CA
:1022F00044480FF091F921E03B69022B03D1424899
:102300000FF08AF91AE03B69042B03D13F480FF024
:1023100083F913E03B69082B03D13D480FF07CF9AA
:102320000CE03B69102B03D13A480FF075F905E03A
:102330003B69202B02D138480FF06EF92C4B1B68FB
:10234000184604F08BFF0346FB73FB7B002B03D185
:1023500032480FF061F948E0FB7B202B03D12F4876
:102360000FF05AF941E0FB7B242B03D12C480FF0EE
:1023700053F93AE0FB7B212B03D12A480FF04CF9AB
:1023800033E0FB7B222B03D127480FF045F92CE0EB
:10239000FB7B282B03D125480FF03EF925E0FB7B82
:1023A000292B03D122480FF037F91EE0FB7B2A2BA3
:1023B00003D120480FF030F917E0FB7B602B03D1ED
:1023C0001D480FF029F910E0FB7BA02B03D11B481F
:1023D0000FF022F909E0FB7BE02B06D118480FF043
:1023E0001BF902E000BF00E000BF1837BD4680BD0A
:1023F000B40E00209C510108C0510108E8510108A9
:102400000C52010824520108385201084C520108AC
:10241000605201087452010888520108A052010854
:10242000B8520108CC520108E4520108FC520108DC
:102430001453010834530108545301086C53010824
:102440008453010880B584B002AF03463960FB7144
:102450001346BB710B4B1868FA1D642300930123CC
:10246000502103F071FF074B1868BB799BB26422BF
:1024700000923A68502104F065F800BF0837BD4665
:1024800080BD00BFB40E002080B58AB000AF786078
:102490000B46FB707B681B78002B00F0CF807B68BD
:1024A0001A78684B1A7000237B6200233B62022378
:1024B000FB7720E0FB7F7A6813441B78202B05D143
:1024C0007B6A01337B6200233B6211E0FB7F7A6809
:1024D000134418785C497A6A13465B0013445B0026
:1024E000CA183B6A134402461A703B6A01333B62C6
:1024F000FB7F0133FB77FA7FFB789A42DAD3514BAB
:102500001B78732B23D150480DF038FB78614F486E
:102510000DF034FB38614E4803F0E6FE00F072FD2A
:102520004B4801F059FE322001F0DAFC7B69DBB246
:10253000013BDBB23A6907EE902AF8EEE77AB0EE9B
:10254000670A184601F0ECFD0346FB7372E03D4B51
:102550001B786C2B0DD13C480DF010FBB8613D4B46
:1025600001221A703C4B02221A70B86900F080F800
:1025700060E0344B1B78772B07D1334B1B78652BEE
:1025800003D1344B01221A7054E02E4B1B78772B69
:1025900007D12D4B1B78642B03D12E4B00221A70D0
:1025A00048E0284B1B78772B10D1274B1B78732BD7
:1025B0000CD101220421294803F038FDFFF730FD3A
:1025C00000220421254803F031FD33E01D4B1B7828
:1025D000722B1FD11C4B1B78612B1BD1204807F09D
:1025E0002FFA2048FFF7D6F80346BB771D4BD3EDF3
:1025F000007AB0EE670AFFF7DFF8F0EE407A1A4B88
:10260000C3ED007A194B4FF000021A60144807F02E
:10261000A0FA0FE00B4B1B78722B0BD10A4B1B78E7
:102620006C2B07D10E4807F00BFAFFF7B1FD0C48F1
:1026300007F08FFA786800F03BF800E000BF283719
:10264000BD4680BD481200204C12002052120020CE
:10265000B80E00207012002000150020001002406B
:1026600050100020F4140020F0140020FC1400206E
:1026700080B584B000AF0346FB71FB7906330122BD
:1026800002FA03F3FB81FB8901221946074803F094
:10269000CDFC0F2002F052FDFB89002219460348B1
:1026A00003F0C4FC00BF1037BD4680BD00100240DF
:1026B00080B582B000AF7860054B1B78012B02D14A
:1026C0007868FFF7E5FB00BF0837BD4680BD00BF57
:1026D0007012002080B584B000AF78600B467B801C
:1026E000284B1A88284B1A80274B1B881A467B8850
:1026F0001344B3F5007F22DD234B1B88C3F5007321
:10270000FB81214B1B881A46204B1344FA89204930
:1027100018460FF09CF91C4B00221A80FB891C4ABA
:1027200099187A88FB89D31A1A4618480FF08FF93E
:102730007A88FB89D31A9AB2124B1A8010E0124B96
:102740001B881A46114B13447A88114918460FF01A
:102750007EF90D4B1A887B8813449AB2094B1A8074
:1027600040220B490B4807F0B9FF0B4B1B681A6856
:10277000094B1B6822F008021A6000BF1037BD46E3
:1027800080BD00BF7412002072120020B812002019
:1027900078120020001100204811002000000000E5
:1027A0002DE9B04FC0B008AF02F056FC00F0C0FBFE
:1027B00000F052FD00F00AFD00F024FC00F0A6FC41
:1027C00000F04EFC09F076FE00F06AFC00F0D4FC4C
:1027D00040222649264807F081FF264B1B681A68CD
:1027E000244B1B6822F008021A60012204212248AF
:1027F00003F01CFC012208211F4803F017FC1F48AE
:10280000FFF7E2FA642002F099FCFFF709FCFEF7FB
:102810004DFD4C221A491B48FEF76FFDFEF7D0FD17
:102820001948FFF707FDFFF757F8FFF742F816487A
:1028300001F0D2FC322001F053FB9FED140A00207E
:1028400001F06EFC9FED120A012001F069FC9FED82
:10285000110A022001F064FC9FED0F0A032001F031
:102860005FFC064807F0ECF81CE000BF781200207F
:1028700000110020481100200010024050100020DC
:102880001800002010000020B80E00200000B44204
:102890000000AE420000A6420000A8424FF47A7049
:1028A00002F04CFCFEF708FF0346002BF6D14FF474
:1028B0007A7002F043FCD048FEF76CFF034687F8BD
:1028C000B730CD4BD3ED007AB0EE670AFEF774FF58
:1028D000F0EE407AC94BC3ED007AC94807F039F9E8
:1028E000C84B01221A7000220421C74803F09EFB46
:1028F00002F018FCC7F8DC0002F014FCC7F8D8009E
:10290000002387F8D7304FF00003C7F8D0304FF0DE
:102910000003C7F8CC304FF00003C7F8C830FFF70A
:102920007DFCC7F8B0004FF000024FF00003C7E98C
:1029300030234FF000024FF00003C7E92E2302F0CE
:10294000F1FBC7F8AC00FFF776F9B0EE404AF0EEC5
:10295000604AB0EE415AF0EE615AB0EE426AF0EED3
:10296000626AB0EE437AF0EE637A87ED084B87ED4A
:102970000A5B87ED0C6B87ED0E7BFFF79FF9B0EEDE
:10298000404AF0EE604AB0EE415AF0EE615AB0EEC5
:10299000426AF0EE626AB0EE437AF0EE637A87ED57
:1029A000104B87ED125B87ED146B87ED167BFFF7FD
:1029B000C8F9B0EE404AF0EE604AB0EE415AF0EE8F
:1029C000615AB0EE426AF0EE626AB0EE437AF0EE1F
:1029D000637A87ED184B87ED1A5B87ED1C6B87EDEB
:1029E0001E7BFFF7E5F8B0EE404AF0EE604AB0EE2D
:1029F000415AF0EE615AB0EE426AF0EE626AB0EE11
:102A0000437AF0EE637A87ED204B87ED225B87ED0A
:102A1000246B87ED267BFFF701FCC7F8B0007848F0
:102A200007F00EF87448FEF7B5FE034687F8AB30A2
:102A3000734807F08EF8704BD3ED007A9FED737AF0
:102A4000F4EEC77AF1EE10FA71DD6B4BD3ED007A3C
:102A5000B0EE670AFEF7B0FEB0EE407A674BD3EDFA
:102A6000007A77EE677AC7ED327A694BD3ED007A58
:102A700097ED327AB4EEE77AF1EE10FA03DD644AAC
:102A8000D7F8C8301360D7F8AC20D7F8D830D31AAD
:102A900007EE903AF8EE677AC7ED297AD7ED297AF2
:102AA000F5EE407AF1EE10FA0FD097ED327AD7EDCD
:102AB000347A77EE676AD7ED297A9FED566A87EE0A
:102AC000867AC6EE877AC7ED337AD7F8C830C7F86A
:102AD000D030D7F8AC30C7F8D830D7ED337AB8EE6D
:102AE000087AF4EEC77AF1EE10FA20D5D7ED327AF3
:102AF000B1EE047AF4EEC77AF1EE10FA17DDD7EDF5
:102B0000327A9FED457AF4EEC77AF1EE10FA0ED5DF
:102B10003C4B1B78022B03D03A4B1B78102B06D171
:102B2000384B10221A7020213C48FFF7ADFC3C4B7B
:102B30001B685A003B4BA3FB0213D21A52081344E2
:102B4000DB0A1846FDF7DEFC29A3D3E90023FDF7D5
:102B500053FD02460B4610461946FEF745F803465C
:102B6000C7F8A0303049314801F062F82F4BD3E963
:102B70000023C7E930232D4BD3E90423C7E92E23D3
:102B80004FF000022A4BD7E92E01FDF7C5FF03469F
:102B9000002B0AD04FF00002254BD7E92E01FDF79C
:102BA00055FE02460B46C7E92E23204B1B7E572BB2
:102BB0000BD1D7F8B830BB60D7F8BC3083F00043F6
:102BC000FB6097ED027B87ED2E7B184B1B7A532B16
:102BD00030D1D7F8C0303B60D7F8C43083F0004321
:102BE0007B6097ED007B87ED307B23E0AFF30080C7
:102BF0009A99999999991D40F4140020F014002095
:102C000050100020001500200010024000401C461B
:102C1000FC14002000007A44000016439C53010875
:102C20006C12002001011000B8120020B81400201E
:102C300000408F400A2002F081FA97F8D73083F0E5
:102C40000103DBB2002B00F02B81FEF799FB202261
:102C50000021A9480EF0E0FDA84B5B6A0493D7E978
:102C60002E23CDE90223D7E93023CDE90023D7F87D
:102C7000AC20A349A0480EF0D7FC9F48FEF7C0FB4C
:102C80009D48FFF715FD0F2002F058FA2022002181
:102C900099480EF0C1FDD7F8C800FDF755FC024673
:102CA0000B46CDE90023D7F8AC20964992480EF0A8
:102CB000BBFC9148FEF7A4FB8F48FFF7F9FC0F20FF
:102CC00002F03CFA202200218B480EF0A5FDD7F837
:102CD000CC00FDF739FC02460B46CDE90023D7F8BE
:102CE000AC20894984480EF09FFC8348FEF788FB9E
:102CF0008148FFF7DDFC0F2002F020FA202200219E
:102D00007D480EF089FDD7E90A23924683F0004BF7
:102D1000D7E90C23BA6183F00043FB61D7E90E23A6
:102D20003A6183F000437B6197ED047B8DED047B7A
:102D300097ED067B8DED027BCDE900ABD7F8AC209B
:102D400072496D480EF070FC6B48FEF759FB6A48FB
:102D5000FFF7AEFC0F2002F0F1F9202200216648B7
:102D60000EF05AFDD7E92201D7E92445D7E92623F9
:102D7000CDE90423CDE90245CDE90001D7F8AC2027
:102D800063495D480EF050FC5B48FEF739FB5A483A
:102D9000FFF78EFC0F2002F0D1F9202200215648C7
:102DA0000EF03AFDD7E91201D7E91445D7E9162309
:102DB000CDE90423CDE90245CDE90001D7F8AC20E7
:102DC00054494D480EF030FC4B48FEF719FB4A4879
:102DD000FFF76EFC0F2002F0B1F9202200214648D7
:102DE0000EF01AFDD7E91A45D7E91C89D7E91E016B
:102DF000D7E91823CDE90623CDE90401CDE90289FD
:102E0000CDE90045D7F8AC2043493B480EF00CFC17
:102E10003948FEF7F5FA3848FFF74AFC0F2002F070
:102E20008DF92022002134480EF0F6FC3B4B1B7834
:102E300019463B4B1B781A46D7F8B03093F88430CC
:102E4000019300920B46D7F8AC2036492A480EF081
:102E5000EBFB2948FEF7D4FA2748FFF729FC0F209F
:102E600002F06CF9D7F8AC20D7F8DC30D31AB3F500
:102E7000FA7F3CD9202200211F480EF0CDFC2A49C0
:102E80001D480EF0D1FB1C48FEF7BAFA012387F863
:102E9000D730FEF795FA02F045F9C7F8DC0026E0D6
:102EA000FEF724FB0346012B13D1202200211F48EB
:102EB0000EF0B2FC1D48FEF73BFB002387F8D7302D
:102EC00002F030F9C7F8DC0020211848FFF7DCFADF
:102ED0000DE0D7F8AC20D7F8DC30D31AFA2B06D99E
:102EE000002387F8D73002F01DF9C7F8DC00462030
:102EF00002F024F923E500BF08120020B8140020D6
:102F0000A4530108B4530108C0530108CC5301086D
:102F1000E0530108F453010808540108701200201E
:102F20000015002024540108345401082812002000
:102F300080B594B000AF07F120033022002118467D
:102F40000EF06AFC07F10C0300221A605A609A60C6
:102F5000DA601A610023BB60284B1B6C274A43F0E0
:102F600080531364254B1B6C03F08053BB60BB681C
:102F700000237B60224B1B68214A43F4804313608B
:102F80001F4B1B6803F480437B607B6802233B621A
:102F90000123FB6210233B630223BB630023FB631B
:102FA00008233B6450237B640223BB640423FB643B
:102FB00007F12003184604F06FFE0346002B01D0F2
:102FC00000F020FA0F23FB6002233B6100237B61AA
:102FD0004FF4C053BB614FF48053FB6107F10C0306
:102FE0000221184605F0D0F80346002B01D000F06E
:102FF00009FA00BF5037BD4680BD00BF003802400F
:103000000070004080B500AF124B134A1A60114B9C
:10301000124A5A600F4B00229A600E4B0022DA606F
:103020000C4B4FF480421A610A4B00225A61094B43
:1030300000229A61074B0022DA61064B00221A62D5
:10304000044803F00DF80346002B01D000F0DAF934
:1030500000BF80BDB80E002000580040A0860100CF
:1030600080B400AF0C4B0D4A1A600B4B00225A6023
:10307000094B00229A60084B0022DA60064B0022BE
:103080001A61054B00225A61034B04229A6100BF6A
:10309000BD465DF8047B70470C0F0020002C0140FA
:1030A00080B500AF174B184A1A60164B4FF4827266
:1030B0005A60144B00229A60124B0022DA60114BC6
:1030C00000221A610F4B00225A610E4B4FF400721E
:1030D0009A610C4B0022DA610A4B00221A62094BFA
:1030E00000225A62074B00229A62064B0A22DA62D9
:1030F000044806F0A5FC0346002B01D000F082F93D
:1031000000BF80BD501000200030014080B500AFEE
:10311000174B184A1A60164B4FF482725A60144BC0
:1031200000229A60124B0022DA60114B00221A61D1
:103130000F4B00225A610E4B4FF400729A610C4BF8
:103140000022DA610A4B00221A62094B00225A62FD
:10315000074B00229A62064B0A22DA62044806F004
:103160006FFC0346002B01D000F04CF900BF80BD7E
:10317000A8100020003C004080B500AF114B124A5F
:103180001A60104B4FF416525A600E4B00229A6090
:103190000C4B0022DA600B4B00221A61094B0C2207
:1031A0005A61084B00229A61064B0022DA610548F9
:1031B00007F044FA0346002B01D000F023F900BFCA
:1031C00080BD00BF001100200044004080B582B0E7
:1031D00000AF00237B601F4B1B6B1E4A43F4800330
:1031E00013631C4B1B6B03F480037B607B68002321
:1031F0003B60184B1B6B174A43F400131363154BCA
:103200001B6B03F400133B603B680022002110207D
:1032100002F093F8102002F0ACF8002200211120F7
:1032200002F08BF8112002F0A4F8002200213B20CC
:1032300002F083F83B2002F09CF800220021452098
:1032400002F07BF8452002F094F800BF0837BD4635
:1032500080BD00BF0038024080B58CB000AF07F1E0
:103260001C0300221A605A609A60DA601A61002317
:10327000BB615F4B1B6B5E4A43F0100313635C4BF7
:103280001B6B03F01003BB61BB6900237B61584BD0
:103290001B6B574A43F080031363554B1B6B03F0C2
:1032A00080037B617B6900233B61514B1B6B504A60
:1032B00043F0010313634E4B1B6B03F001033B61AF
:1032C0003B690023FB604A4B1B6B494A43F00403F4
:1032D0001363474B1B6B03F00403FB60FB68002385
:1032E000BB60434B1B6B424A43F002031363404BEA
:1032F0001B6B03F00203BB60BB6800237B603C4B8D
:103300001B6B3B4A43F008031363394B1B6B03F001
:1033100008037B607B68002241F68C71354802F01F
:1033200085FE00221021344802F080FE0122802117
:10333000324802F07BFE0022C021314802F076FEC6
:1033400041F68C73FB6101233B6200237B62002307
:10335000BB6207F11C031946264802F0B7FB102395
:10336000FB6101233B6200237B620023BB6207F108
:103370001C031946204802F0A9FB4FF40043FB61EF
:103380004FF488133B6200237B6207F11C0319464C
:103390001A4802F09BFB8023FB6100233B6202235F
:1033A0007B6207F11C031946134802F08FFB802350
:1033B000FB6101233B6200237B620023BB6207F1B8
:1033C0001C0319460D4802F081FBC023FB61012359
:1033D0003B6200237B620023BB6207F11C0319469A
:1033E000074802F073FB00BF3037BD4680BD00BF09
:1033F000003802400010024000080240000C024069
:103400000004024080B400AF72B600BFFEE780B592
:1034100086B000AF78607868FCF72AFF0346042B7B
:1034200001D8002338E07868FCF722FF0346043B0C
:103430007A6813441B783B727868FCF719FF0346DF
:10344000033B7A6813441B787B7200237B61002363
:103450003B610AE03B697A6813441B781A467B6932
:1034600053407B613B6901333B617868FCF700FFA7
:1034700003465A1F3B699A42ECD807F10803102211
:10348000002118460DF030FBF8607A69FB689A421B
:1034900001D1012300E0002318461837BD4680BD46
:1034A00090B5B7B000AF786039600023C7F8D4306A
:1034B00007F120036422002118460EF0ADF9C2493D
:1034C00038680EF0C3F9C7F8D00027E0D7F8D0006D
:1034D000FCF7CEFE03465A1CD7F8D440631CC7F84D
:1034E000D43010460CF04EFB03461A46A300D833E6
:1034F0003B4443F8B82CD7F8D430013B9B00D83379
:103500003B4453F8B83CD7F8D01018460EF097FA61
:10351000AD4900200EF09AF9C7F8D000D7F8D030A6
:10352000002BD3D17B6B1B7887F8B730FB6A1B78F5
:1035300087F8B6307B682C337A6A114618460EF04D
:103540007EFA97F8B630532B04D097F8B6304E2B4E
:1035500040F059810023C7F8CC3010E0BA6AD7F8A0
:10356000CC301344197807F11C02D7F8CC3013443F
:103570000A461A70D7F8CC300133C7F8CC30D7F8E8
:10358000CC30012BEADD0023C7F8C83011E0BA6A5D
:10359000D7F8C83002331344197807F11402D7F86A
:1035A000C83013440A461A70D7F8C8300133C7F838
:1035B000C830D7F8C830052BE9DD07F11C030A2213
:1035C000002118460DF090FAC7F8B00007F1140377
:1035D000002118460DF0A0F987ED2B0AD7F8B0307E
:1035E00007EE903AB8EEE77AD7ED2B6A9FED776A4F
:1035F000C6EE867A77EE277A17EE900AFCF7A4FFDC
:1036000002460B46C7E928230023C7F8C43010E060
:103610003A6BD7F8C4301344197807F11002D7F881
:10362000C43013440A461A70D7F8C4300133C7F8BF
:10363000C430D7F8C430022BEADD0023C7F8C0300D
:1036400011E03A6BD7F8C03003331344197807F10F
:103650000802D7F8C03013440A461A70D7F8C030B1
:103660000133C7F8C030D7F8C030052BE9DD07F1CA
:1036700010030A22002118460DF036FAC7F89C0004
:1036800007F10803002118460DF046F987ED260AD8
:10369000D7F89C3007EE903AB8EEE77AD7ED266A75
:1036A0009FED4A6AC6EE867A77EE277A17EE900A81
:1036B000FCF74AFF02460B46C7E924234FF00002FD
:1036C0004FF00003D7E92801FDF7FEF90346002B70
:1036D00076D14FF000024FF00003D7E92401FDF747
:1036E000F3F90346002B6BD14FF00002384BD7E9BA
:1036F0002801FDF7F3F90346002B61D04FF00002DB
:10370000344BD7E92401FDF7E9F90346002B57D0E4
:103710007968D7E92823C1E900237B6897F8B620A8
:103720001A727968D7E92423C1E904237B6897F8E2
:10373000B7201A767B6C002118460DF0EDF887ED66
:10374000230AD7ED237AF5EE407AF1EE10FA02D192
:103750007B68DB6901E0D7F88C307A68D361FB6B5A
:103760000A22002118460DF0BFF902467B685A6212
:10377000BB6B0A22002118460DF0B6F9C7F8880085
:10378000D7F88830002BCCBF01230023DBB21A46C8
:103790007B689A623B6C002118460DF0BDF887EDFE
:1037A000210AD7ED217AF5EE407AF1EE10FA02D136
:1037B0007B681B6A01E0D7F884307A68136222E0E4
:1037C0000023C7F8BC3016E03854010800007042EE
:1037D0000080564000806640D7F8BC309B00D8334C
:1037E0003B4453F8B83C18460CF0D4F9D7F8BC3039
:1037F0000133C7F8BC30D7F8BC20D7F8D4309A4290
:10380000EADB002319E00023C7F8B8300EE0D7F850
:10381000B8309B00D8333B4453F8B83C18460CF002
:10382000B9F9D7F8B8300133C7F8B830D7F8B820AD
:10383000D7F8D4309A42EADB01231846DC37BD467C
:1038400090BD00BF90B5A3B000AF78603960002391
:10385000C7F8843007F10C036422002118460DF0EC
:10386000DBFF3B4938680DF0F1FFC7F8800027E027
:10387000D7F88000FCF7FCFC03465A1CD7F88440BC
:10388000631CC7F8843010460CF07CF903461A46D6
:10389000A30088333B4443F87C2CD7F88430013BA9
:1038A0009B0088333B4453F87C3CD7F88010184683
:1038B0000EF0C5F8264900200DF0C8FFC7F88000BB
:1038C000D7F88030002BD3D17B690A22002118461B
:1038D0000DF00AF938673B6F012BCCBF01230023A1
:1038E000DBB21A467B689A620023FB670323BB673F
:1038F0000EE0BB6F9B0088333B4453F87C3C1B7845
:10390000002B02D0FB6F0133FB67BB6F0133BB673A
:10391000BB6F0E2BEDDD7B68FA6F5A6200237B676D
:103920000BE07B6F9B0088333B4453F87C3C18468C
:103930000CF030F97B6F01337B677A6FD7F88430F6
:103940009A42EEDB012318468C37BD4690BD00BF7E
:103950003854010890B5B7B000AF786039600023E3
:10396000C7F8D43007F124036422002118460DF073
:1039700053FFAD4938680DF069FFC7F8D00027E064
:10398000D7F8D000FCF774FC03465A1CD7F8D44093
:10399000631CC7F8D43010460CF0F4F803461A46FE
:1039A000A300D8333B4443F8B42CD7F8D430013BC0
:1039B0009B00D8333B4453F8B43CD7F8D01018469A
:1039C0000EF03DF8984900200DF040FFC7F8D000F8
:1039D000D7F8D030002BD3D1FB6A1B7887F8B730EB
:1039E00097F8B730532B04D097F8B7304E2B40F0F0
:1039F00016810023C7F8CC3010E0BA6AD7F8CC3073
:103A00001344197807F12002D7F8CC3013440A4642
:103A10001A70D7F8CC300133C7F8CC30D7F8CC3097
:103A2000012BEADD0023C7F8C83011E0BA6AD7F8E5
:103A3000C83002331344197807F11802D7F8C83098
:103A400013440A461A70D7F8C8300133C7F8C83093
:103A5000D7F8C830052BE9DD07F120030A22002141
:103A600018460DF041F8C7F8B00007F1180300211F
:103A700018460CF051FF87ED2B0AD7F8B03007EE4F
:103A8000903AB8EEE77AD7ED2B6A9FED686AC6EEFA
:103A9000867A77EE277A17EE900AFCF755FD0246F4
:103AA0000B46C7E928237B6B1B7887F89F300023E0
:103AB000C7F8C43010E03A6BD7F8C4301344197813
:103AC00007F11402D7F8C43013440A461A70D7F825
:103AD000C4300133C7F8C430D7F8C430022BEADD54
:103AE0000023C7F8C03011E03A6BD7F8C030033379
:103AF0001344197807F10C02D7F8C03013440A4672
:103B00001A70D7F8C0300133C7F8C030D7F8C030CA
:103B1000052BE9DD07F114030A22002118460CF0F9
:103B2000E3FFC7F8980007F10C03002118460CF0DA
:103B3000F3FE87ED250AD7F8983007EE903AB8EEF5
:103B4000E77AD7ED256A9FED396AC6EE867A77EE79
:103B5000277A17EE900AFCF7F7FC02460B46C7E9F6
:103B60002223D7F89830002B11D0D7ED257AF5EE27
:103B7000407AF1EE10FA0AD0D7F8B030002B06D018
:103B8000D7ED2B7AF5EE407AF1EE10FA1AD1002338
:103B9000C7F8BC300EE0D7F8BC309B00D8333B44AC
:103BA00053F8B43C18460BF0F5FFD7F8BC3001339E
:103BB000C7F8BC30D7F8BC20D7F8D4309A42EADB3B
:103BC00000232DE07968D7E92823C1E9002379682B
:103BD000D7E92223C1E904237B6897F8B7201A723A
:103BE0007B6897F89F201A760023C7F8B8300EE05C
:103BF000D7F8B8309B00D8333B4453F8B43C184650
:103C00000BF0C8FFD7F8B8300133C7F8B830D7F891
:103C1000B820D7F8D4309A42EADB012300E0002331
:103C20001846DC37BD4690BD38540108000070428C
:103C300090B589B000AF786039603C2200215048CF
:103C40000DF0EAFD4F4938680DF000FEF8610023E1
:103C5000BB611DE0F869FCF70BFB03465A1CBC690D
:103C6000631CBB6110460BF08DFF03461A46444BA4
:103C700043F82420BB69013B414A52F82330F969DB
:103C800018460DF0DCFE3F4900200DF0DFFDF86125
:103C9000FB69002BDED100237B6152E0384A7B694F
:103CA00052F82330384918460DF02CFE0346002BFD
:103CB00044D0334A7B6952F823301846FFF7A7FBFC
:103CC0000346002B3AD02E4A7B6952F823302F4905
:103CD00018460DF017FE0346002B08D0284A7B69D2
:103CE00052F8233019467868FFF734FE26E0244A5C
:103CF0007B6952F82330264918460DF003FE03462F
:103D0000002B08D01E4A7B6952F823301946786888
:103D1000FFF798FD12E01A4A7B6952F823301D49DB
:103D200018460DF0EFFD0346002B07D0144A7B69BF
:103D300052F8233019467868FFF7B2FB7B690133EC
:103D40007B617A69BB699A42A8DB00233B610EE084
:103D50003C23FB603B693A2B06D8094A3B6952F881
:103D6000233018460BF016FF3B6901333B613A697B
:103D7000BB699A42ECDB00BF00BF2437BD4690BD53
:103D8000041500203C540108405401084454010823
:103D90004C5401085454010880B588B004AF034660
:103DA000FB710B46BB7113467B717B79002B01D0F5
:103DB00001237B71244B1868FB799AB20A23029382
:103DC0000123019307F10F0300930123802102F0E7
:103DD000E5FE0346002B01D0012331E0BB7901222F
:103DE00002FA03F35BB263F07F035BB2DB435AB2C8
:103DF000FB7B5BB213405BB2DBB2FB737B7903F0FE
:103E00000102BB7902FA03F35AB2FB7B5BB21343A4
:103E10005BB2DBB2FB730C4B1868FB799AB20A23D6
:103E200002930123019307F10F03009301238021E3
:103E300002F0BAFD0346002B01D0012300E000236D
:103E400018461037BD4680BD4015002080B584B0AF
:103E500002AF0623FB71094B1868FA1D0A23009371
:103E60000123002102F070FA0346002B01D1002348
:103E700000E0012318460837BD4680BD40150020EC
:103E800080B582B000AF0346FB71FB791A4604216E
:103E90000020FFF781FF034618460837BD4680BD66
:103EA00080B582B000AF0346FB71FB791A4607214B
:103EB0000020FFF771FF034618460837BD4680BD56
:103EC00080B582B000AF0346FB71FB791A4605212D
:103ED0000020FFF761FF034618460837BD4680BD46
:103EE00080B588B004AF0346FB80FB8840F2F552F2
:103EF000934202D90323FB7246E0FB88182B02D8B9
:103F0000FF23FB7240E0FB8807EE903AF8EE677AF9
:103F100017EE900AFCF718FB4FF000022A4BFCF753
:103F20006BFB02460B4626A1D1E90001FCF78EFC93
:103F300002460B46104619464FF00002234BFCF791
:103F4000A3F902460B4610461946FCF74DFE034600
:103F5000FB60F868FCF7F8FA4FF000021C4BFCF726
:103F600095F902460B4643EC172BB0EE470AF0EEEC
:103F7000670A10F0A1F953EC102B10461946FCF714
:103F800013FE0346DBB2FB720120FFF779FF114BF2
:103F900018680A2302930123019307F10B0300938E
:103FA0000123FE22802102F0FFFC0020FFF768FFC2
:103FB0000120FFF775FF002318461037BD4680BD6E
:103FC0000000000084D777410000B0400000F03FBF
:103FD0000000E03F4015002080B588B004AF0346E4
:103FE000FB710B46BB8013467B80FB799B00DBB2E9
:103FF0000633FB73BB88DBB23B72BB881B0A9BB2E8
:10400000DBB27B727B88DBB2BB727B881B0A9BB204
:10401000DBB2FB7200BF124B1868322340228021B2
:1040200002F0EEFF0346002BF5D10D4B1868FB7B29
:104030009AB20A2302930423019307F10803009321
:104040000123802102F0B0FC0346BB73BB7B002B35
:1040500001D0012300E0002318461037BD4680BD83
:104060004015002080B582B000AF0346FB710B46BF
:10407000BB801346BB71BB88B3F5805F02D340F6AB
:10408000FF73BB80BB79002B25D0BB88002B08D1E8
:10409000FB7900224FF480511846FFF79DFF03463D
:1040A0003AE0BB8840F6FF72934208D1FB794FF4A7
:1040B000805200211846FFF78FFF03462CE0BB8893
:1040C000C3F57F630F339AB2FB7900211846FFF7DF
:1040D00083FF034620E0BB8840F6FF72934208D17D
:1040E000FB7900224FF480511846FFF775FF034615
:1040F00012E0BB88002B08D1FB794FF480520021DD
:104100001846FFF769FF034606E0BA88FB790021ED
:104110001846FFF761FF034618460837BD4680BDC5
:1041200080B584B000AF034687ED000AFB71D7ED80
:10413000007AF5EEC07AF1EE10FA02D54FF00003E6
:104140003B60D7ED007A9FED207AF4EEC77AF1EE6E
:1041500010FA01DD1D4B3B603868FCF7F5F918A338
:10416000D3E90023FCF748FA02460B4610461946ED
:104170004FF00002164BFCF769FB02460B46104657
:1041800019464FF00002134BFCF780F802460B462D
:1041900010461946FCF728FD0346FB60D7ED037A6D
:1041A000FCEEE77A17EE903A99B2FB7900221846B6
:1041B000FFF758FF034618461037BD4680BD00BFC5
:1041C00000000000006078400000344300003443E9
:1041D0000080664000805B4080B582B000AF7860B0
:1041E000074A7B681360FFF731FE3020FFF778FE47
:1041F0000120FFF765FE002318460837BD4680BD45
:104200004015002080B483B000AF00237B60104BCA
:104210005B6C0F4A43F4804353640D4B5B6C03F4B7
:1042200080437B607B6800233B60094B1B6C084A22
:1042300043F080531364064B1B6C03F080533B60C8
:104240003B6800BF0C37BD465DF8047B704700BF7C
:104250000038024080B58AB000AF786007F11403DF
:1042600000221A605A609A60DA601A617B681B68E3
:10427000194A93422CD100233B61184B1B6B174A00
:1042800043F002031363154B1B6B03F002033B6106
:104290003B694FF440637B611223BB610023FB61E8
:1042A00003233B6204237B6207F1140319460C4885
:1042B00001F00CFC0023FB60084B1B6C074A43F425
:1042C00080031364054B1B6C03F48003FB60FB68E5
:1042D00000BF2837BD4680BD00580040003802406E
:1042E0000004024080B582B000AF78607B681B6834
:1042F0000B4A93420FD10B4B1B6C0A4A23F48003E9
:1043000013644FF48061084801F07CFD4FF40061B4
:10431000054801F077FD00BF0837BD4680BD00BFEE
:1043200000580040003802400004024080B58AB0C6
:1043300000AF786007F1140300221A605A609A6097
:10434000DA601A617B681B68704A934240F0DA8039
:1043500000233B616E4B5B6C6D4A43F40063536416
:104360006B4B5B6C03F400633B613B690023FB60B8
:10437000674B1B6B664A43F004031363644B1B6B70
:1043800003F00403FB60FB680023BB60604B1B6B06
:104390005F4A43F0080313635D4B1B6B03F0080394
:1043A000BB60BB684FF480737B610223BB61012358
:1043B000FB6103233B620C237B6207F11403194664
:1043C000544801F083FB4FF480537B610223BB61AF
:1043D0000023FB6103233B620C237B6207F1140380
:1043E00019464C4801F072FB04237B610223BB6138
:1043F0000123FB6103233B620C237B6207F114035F
:104400001946454801F062FB444B454A1A60434B4C
:104410004FF000625A60414B00229A603F4B0022ED
:10442000DA603E4B4FF480621A613C4B4FF480528D
:104430005A613A4B4FF480429A61384B2022DA613C
:10444000364B00221A62354B04225A62334B032248
:104450009A62324B4FF40002DA62304B4FF4001292
:104460001A632E4800F0A0FF0346002B01D0FEF790
:10447000C9FF7B68294A1A64284A7B689363294BE1
:10448000294A1A60274B4FF000625A60254B4022A0
:104490009A60244B0022DA60224B4FF480621A614A
:1044A000204B4FF480525A611E4B4FF480429A6168
:1044B0001C4B2022DA611B4B00221A62194B04228A
:1044C0005A62184B03229A62164B4FF40002DA62CA
:1044D000144B4FF400121A63124800F065FF0346B4
:1044E000002B01D0FEF78EFF7B680E4ADA630D4A7F
:1044F0007B68936300220021312000F01EFF3120F1
:1045000000F037FF00BF2837BD4680BD002C0140BA
:104510000038024000080240000C0240900F0020CA
:1045200058640240F00F0020A064024080B58CB0B7
:1045300000AF786007F11C0300221A605A609A608D
:10454000DA601A617B681B68324A93422CD10023DF
:10455000BB61314B5B6C304A43F4805353642E4B48
:104560005B6C03F48053BB61BB6900237B612A4B06
:104570001B6B294A43F001031363274B1B6B03F0AA
:1045800001037B617B69E023FB6102233B62002323
:104590007B620323BB620523FB6207F11C03194600
:1045A0001E4801F093FA30E07B681B681C4A934276
:1045B0002BD100233B61184B1B6C174A43F400437B
:1045C0001364154B1B6C03F400433B613B690023F0
:1045D000FB60114B1B6B104A43F0020313630E4B3D
:1045E0001B6B03F00203FB60FB683823FB610223B3
:1045F0003B6200237B620323BB620623FB6207F15D
:104600001C031946074801F061FA00BF3037BD4668
:1046100080BD00BF00300140003802400000024071
:10462000003C00400004024080B582B000AF7860DA
:104630007B681B68104A93420AD1104B5B6C0F4A8F
:1046400023F480535364E0210D4801F0DBFB0EE0BE
:104650007B681B680B4A934209D1084B1B6C074AC5
:1046600023F4004313643821074801F0CBFB00BF5B
:104670000837BD4680BD00BF003001400038024011
:1046800000000240003C00400004024080B58AB0B7
:1046900000AF786007F1140300221A605A609A6034
:1046A000DA601A617B681B68474A934240F0888051
:1046B00000233B61454B1B6C444A43F400331364B5
:1046C000424B1B6C03F400333B613B690023FB60EE
:1046D0003E4B1B6B3D4A43F0010313633B4B1B6B8B
:1046E00003F00103FB60FB680C237B610223BB61C9
:1046F0000023FB6103233B6207237B6207F1140362
:104700001946334801F0E2F9324B334A1A60314B13
:104710004FF000625A602F4B00229A602D4B00220E
:10472000DA602C4B4FF480621A612A4B00225A61E6
:10473000284B00229A61274B0022DA61254B002288
:104740001A62244B00225A62224800F02DFE0346D2
:10475000002B01D0FEF756FE7B681E4ADA631D4A25
:104760007B6893631D4B1E4A1A601C4B4FF000621E
:104770005A601A4B40229A60184B0022DA60174B9D
:104780004FF480621A61154B00225A61134B0022CC
:104790009A61124B0022DA61104B00221A620F4B11
:1047A00000225A620D4800F0FFFD0346002B01D0A5
:1047B000FEF728FE7B68094A9A63084A7B68936380
:1047C00000BF2837BD4680BD00440040003802408D
:1047D000000002404811002088600240A81100201B
:1047E000A060024080B400AFFEE780B400AFFEE7F7
:1047F00080B400AFFEE780B400AFFEE780B400AF46
:10480000FEE780B400AF00BFBD465DF8047B704793
:1048100080B400AF00BFBD465DF8047B704780B434
:1048200000AF00BFBD465DF8047B704780B500AFA8
:1048300000F064FC00BF80BD80B500AF024800F00E
:10484000DBFE00BF80BD00BF4811002080B500AF77
:10485000024800F0D1FE00BF80BD00BFA8110020BB
:1048600080B500AF024804F0D3FA00BF80BD00BF9E
:104870000C0F002080B500AF024800F0BDFE00BF65
:1048800080BD00BF900F002080B500AF024800F04F
:10489000B3FE00BF80BD00BFF00F002080B400AFAA
:1048A00001231846BD465DF8047B704780B582B091
:1048B00000AF786039600DF095F8034616221A6053
:1048C0004FF0FF3318460837BD4680BD80B582B033
:1048D00000AF78604FF0FF317868FFF7E7FFFEE741
:1048E00080B586B000AFF860B9607A6000237B6164
:1048F0000AE0AFF300800146BB685A1CBA60CAB236
:104900001A707B6901337B617A697B689A42F0DBBC
:104910007B6818461837BD4680BD80B586B000AFAD
:10492000F860B9607A6000237B6109E0BB685A1CBB
:10493000BA601B781846AFF300807B6901337B6156
:104940007A697B689A42F1DB7B6818461837BD4666
:1049500080BD80B483B000AF78604FF0FF3318465D
:104960000C37BD465DF8047B704780B483B000AF60
:10497000786039603B684FF400525A600023184653
:104980000C37BD465DF8047B704780B483B000AF40
:104990007860012318460C37BD465DF8047B7047EC
:1049A00080B485B000AFF860B9607A600023184623
:1049B0001437BD465DF8047B7047000080B586B0B3
:1049C00000AF7860144A154BD31A7B617B693B6159
:1049D000134B1B68002B02D1114B124A1A60104B6B
:1049E0001A687B6813443A699A4207D20CF0FAFFBE
:1049F00003460C221A604FF0FF3309E0084B1B6896
:104A0000FB60074B1A687B681344054A1360FB6818
:104A100018461837BD4680BD00000220000800007F
:104A2000441500204037002080B400AF064BD3F877
:104A30008830054A43F47003C2F8883000BFBD4691
:104A40005DF8047B704700BF00ED00E080B582B0E8
:104A500000AF78607B6858687B681B890022194624
:104A600001F0E4FA00BF0837BD4680BD80B582B0D2
:104A700000AF78607B6858687B681B890122194603
:104A800001F0D4FA00BF0837BD4680BD80B586B0BE
:104A900000AFF860B9607A600123FB75FB681868A5
:104AA0007B689AB24FF0FF33B96805F07AF8034695
:104AB000002B01D10023FB75FB7D18461837BD463E
:104AC00080BD80B586B000AFF860B9607A60012320
:104AD000FB75FB6818687B689AB24FF0FF33B968C2
:104AE00005F0A2F90346002B01D10023FB75FB7DE5
:104AF00018461837BD4680BD80B584B000AF7860D9
:104B00000023FB607868FFF7A1FF9F233B7207F14A
:104B10000803012219467868FFF7B8FF0346002B07
:104B200011D107F10803032219467868FFF7C9FF7E
:104B30000346002B07D13B7A1A047B7A1B021343EE
:104B4000BA7A1343FB607868FFF790FFFB6818465A
:104B50001037BD4680BD80B584B000AF78600023BB
:104B6000FB730523BB737868FFF770FF07F10E0333
:104B7000012219467868FFF789FF0346002B0BD105
:104B800007F10E03012219467868FFF79AFF0346E2
:104B9000002B01D1BB7BFB737868FFF767FFFB7BC2
:104BA00018461037BD4680BD80B584B000AF786030
:104BB0000123FB737868FFF749FF06233B7307F176
:104BC0000C03012219467868FFF760FF0346002BAB
:104BD00001D10023FB737868FFF748FFFB7B184681
:104BE0001037BD4680BD80B586B000AF78603960B3
:104BF0000023FB7500F096FAF86000F093FA386134
:104C000002E000F08FFA38613A69FB68D31A3A681B
:104C10009A4205D37868FFF79EFF0346002BF0D138
:104C20003A69FB68D31A3A689A4201D10223FB75AC
:104C3000FB7D18461837BD4680BD80B586B000AFF5
:104C4000F860B9607A607B800023FB75FB68BA6806
:104C50001A60FB687A685A60FB687A881A81F8687B
:104C6000FFF704FFF868FFF747FF38613B69002B47
:104C700055D03B691B0CDAB2FB689A723B699AB259
:104C8000FB689A81FB689B7AC82B02D0EF2B21D05E
:104C900042E0FB684FF480321A61FB684FF48052A7
:104CA0009A61FB681022DA61FB684FF480721A6225
:104CB000FB6810225A62FB689B891A4646F217036A
:104CC0009A4204D1FB6880225A6100BF29E0012387
:104CD000FB7526E0FB684FF480321A61FB684FF4E5
:104CE00080529A61FB681022DA61FB684FF480728F
:104CF0001A62FB6810225A62FB689B891A4644F2CA
:104D000017039A4205D1FB684FF480725A6100BFC5
:104D100007E00123FB7504E00123FB7501E001239B
:104D2000FB75FB7D012B04D128220021F8680CF0D3
:104D300073FDFB7D18461837BD4680BD80B586B033
:104D400000AFF860B9607A603B6003233B75BB68D5
:104D50001B0CDBB27B75BB681B0ADBB2BB75BB6887
:104D6000DBB2FB754FF0FF31F868FFF73CFF0346FD
:104D7000002B01D001231DE0F868FFF767FE07F163
:104D8000140304221946F868FFF780FE0346002B3F
:104D90000CD13A687968F868FFF793FE0346002B58
:104DA00004D0F868FFF762FE012303E0F868FFF71C
:104DB0005DFE002318461837BD4680BD80B58CB017
:104DC00000AFF860B9607A603B60FB681B6ABA6844
:104DD000B2FBF3F3FB61BA683B6813445A1EFB68ED
:104DE0001B6AB2FBF3F3BB610023FB62BB68BB62CF
:104DF000FB697B6270E0FB681A6AFB681B6A591EDC
:104E0000BB6A0B40D31A7B617A693B68934228BF27
:104E100013467B614FF0FF31F868FFF7E4FE03466D
:104E2000002B01D001235CE0002387F8233007E04A
:104E3000012000F083F997F82330013387F82330FD
:104E4000F868FFF7B1FE0346002B03D097F8233034
:104E5000632BEDD9F868FFF7A7FE0346002B2CD192
:104E600002233B74BB6A1B0CDBB27B74BB6A1B0A5C
:104E7000DBB2BB74BB6ADBB2FB74F868FFF7E6FD1C
:104E800007F1100304221946F868FFF7FFFD0346F7
:104E9000002B0FD17A68FB6A13447A691946F868C7
:104EA000FFF7F4FD0346002B04D0F868FFF7DEFDA2
:104EB000012316E0F868FFF7D9FDBA6A7B6913444D
:104EC000BB62FA6A7B691344FB623A687B69D31A56
:104ED0003B607B6A01337B627A6ABB699A428AD9FA
:104EE000002318463037BD4680BD80B58AB000AF7C
:104EF000F860B9607A60002387F82730FB689B6907
:104F0000BA68B2FBF3F3FB61BA687B6813445A1EBC
:104F1000FB689B69B2FBF3F3BB61FB693B623AE060
:104F20004FF0FF31F868FFF75EFE0346002B2CD1EF
:104F3000F868FFF739FE0346002B29D1FB689A6910
:104F40003B6A02FB03F37B6120233B747B691B0CF0
:104F5000DBB27B747B691B0ADBB2BB747B69DBB29F
:104F6000FB74F868FFF772FD07F11003042219467D
:104F7000F868FFF78BFD0346002B02D0012387F86A
:104F80002730F868FFF772FD02E0022387F8273028
:104F90003B6A01333B623A6ABB699A42C0D997F8CF
:104FA000273018462837BD4680BD80B584B000AF95
:104FB00078607868FFF7F8FD0346002B1DD1C72302
:104FC0003B737868FFF742FD07F10C030122194695
:104FD0007868FFF75BFD0346002B01D001230DE04D
:104FE0007868FFF743FD4FF0FF317868FFF7FBFD6E
:104FF0000346002B01D0012300E0002318461037A0
:10500000BD4680BDDFF834D0FFF70EFD0C480D49DA
:105010000D4A002302E0D458C4500433C4188C4213
:10502000F9D30A4A0A4C002301E013600432A24279
:10503000FBD30CF0DDFCFDF7B3FB70470000022052
:105040000000002008020020E05D010808020020A6
:105050003C370020FEE7000080B500AF0E4B1B6818
:105060000D4A43F4007313600B4B1B680A4A43F468
:1050700080631360084B1B68074A43F48073136016
:10508000032000F04FF90F2000F008F8FFF7BAF8FE
:105090000023184680BD00BF003C024080B582B0AE
:1050A00000AF7860124B1A68124B1B7819464FF408
:1050B0007A73B3FBF1F3B2FBF3F3184600F067F930
:1050C0000346002B01D001230EE07B680F2B0AD88A
:1050D000002279684FF0FF3000F02FF9064A7B6814
:1050E0001360002300E0012318460837BD4680BD49
:1050F00020000020280000202400002080B400AF01
:10510000064B1B781A46064B1B681344044A13606F
:1051100000BFBD465DF8047B704700BF280000203B
:105120004815002080B400AF034B1B681846BD46ED
:105130005DF8047B704700BF4815002080B584B03F
:1051400000AF7860FFF7EEFFB8607B68FB60FB683C
:10515000B3F1FF3F05D00A4B1B781A46FB68134496
:10516000FB6000BFFFF7DEFF0246BB68D31AFA6898
:105170009A42F7D800BF00BF1037BD4680BD00BFC0
:105180002800002080B485B000AF78607B6803F011
:105190000703FB600C4BDB68BB60BA684FF6FF038C
:1051A0001340BB60FB681A02BB68134343F0BF6344
:1051B00043F40033BB60044ABB68D36000BF1437BC
:1051C000BD465DF8047B704700ED00E080B400AFA1
:1051D000044BDB681B0A03F007031846BD465DF865
:1051E000047B704700ED00E080B483B000AF03465D
:1051F000FB7197F90730002B0BDBFB7903F01F02E3
:10520000074997F907305B09012000FA02F241F8DB
:10521000232000BF0C37BD465DF8047B704700BFFC
:1052200000E100E080B483B000AF03463960FB7159
:1052300097F90730002B0ADB3B68DAB20C4997F983
:1052400007301201D2B20B4483F800230AE03B6816
:10525000DAB20849FB7903F00F03043B1201D2B222
:105260000B441A7600BF0C37BD465DF8047B7047CF
:1052700000E100E000ED00E080B489B000AFF8602C
:10528000B9607A60FB6803F00703FB61FB69C3F157
:105290000703042B28BF0423BB61FB690433062BDF
:1052A00002D9FB69033B00E000237B614FF0FF3232
:1052B000BB6902FA03F3DA43BB681A407B699A4080
:1052C0004FF0FF317B6901FA03F3D9437B680B4050
:1052D000134318462437BD465DF8047B7047000031
:1052E00080B582B000AF78607B68013BB3F1807F0E
:1052F00001D301230FE00A4A7B68013B53600F2171
:105300004FF0FF30FFF78EFF054B00229A60044BF1
:1053100007221A60002318460837BD4680BD00BF2B
:1053200010E000E080B582B000AF78607868FFF7E9
:1053300029FF00BF0837BD4680BD80B586B000AFED
:105340000346B9607A60FB7300237B61FFF73EFF81
:1053500078617A68B9687869FFF78EFF024697F935
:105360000F3011461846FFF75DFF00BF1837BD46E6
:1053700080BD80B582B000AF0346FB7197F907305E
:105380001846FFF731FF00BF0837BD4680BD80B526
:1053900082B000AF78607868FFF7A2FF0346184636
:1053A0000837BD4680BD000080B586B000AF78608C
:1053B00000237B61FFF7B6FE38617B68002B01D1CB
:1053C000012399E07B68022283F835207B68002264
:1053D00083F834207B681B681A687B681B6822F09E
:1053E00001021A600FE0FFF79DFE02463B69D31AE7
:1053F000052B08D97B6820225A657B68032283F835
:105400003520032378E07B681B681B6803F00103E9
:10541000002BE8D17B681B681B687B617A69384B7D
:1054200013407B617B685A687B689B681A437B6882
:10543000DB681A437B681B691A437B685B691A4304
:105440007B689B691A437B68DB691A437B681B6A2C
:1054500013437A6913437B617B685B6A042B07D132
:105460007B68DA6A7B681B6B13437A6913437B6141
:105470007B681B687A691A607B681B685B697B6163
:105480007B6923F007037B617B685B6A7A6913435E
:105490007B617B685B6A042B17D17B689B6A7A69A6
:1054A00013437B617B68DB6A002B0ED0786800F0C9
:1054B00091FA0346002B08D07B6840225A657B682E
:1054C000012283F83520012316E07B681B687A6986
:1054D0005A61786800F048FA0346FB607B68DB6D30
:1054E0003F229A40FB689A607B6800225A657B687D
:1054F000012283F83520002318461837BD4680BDA9
:105500003F8010F080B586B000AFF860B9607A6077
:105510003B600023FB75FB689B6D3B61FB6893F868
:105520003430012B01D1022340E0FB68012283F8D3
:105530003420FB6893F83530DBB2012B2FD1FB68A8
:10554000022283F83520FB6800225A653B687A689E
:10555000B968F86800F0DAF9FB68DB6D3F229A4021
:105560003B699A60FB681B681A68FB681B6842F01D
:1055700016021A60FB681B6C002B07D0FB681B68C7
:105580001A68FB681B6842F008021A60FB681B6817
:105590001A68FB681B6842F001021A6005E0FB68AC
:1055A000002283F834200223FB75FB7D1846183750
:1055B000BD4680BD80B483B000AF78607B6893F84F
:1055C0003530DBB2022B04D07B6880225A65012380
:1055D0000CE07B68052283F835207B681B681A681D
:1055E0007B681B6822F001021A60002318460C3702
:1055F000BD465DF8047B704780B586B000AF78602B
:105600000023BB608E4B1B688E4AA2FB03239B0AC0
:105610007B617B689B6D3B613B691B68FB607B68C2
:10562000DB6D08229A40FB681340002B1AD07B6880
:105630001B681B6803F00403002B13D07B681B68F6
:105640001A687B681B6822F004021A607B68DB6DB5
:1056500008229A403B699A607B685B6D43F00102C7
:105660007B685A657B68DB6D01229A40FB681340BA
:10567000002B12D07B681B685B6903F08003002B52
:105680000BD07B68DB6D01229A403B699A607B6896
:105690005B6D43F002027B685A657B68DB6D042218
:1056A0009A40FB681340002B12D07B681B681B6874
:1056B00003F00203002B0BD07B68DB6D04229A40C1
:1056C0003B699A607B685B6D43F004027B685A65B6
:1056D0007B68DB6D10229A40FB681340002B43D09F
:1056E0007B681B681B6803F00803002B3CD07B68B9
:1056F000DB6D10229A403B699A607B681B681B68CF
:1057000003F48023002B18D07B681B681B6803F40C
:105710000023002B08D17B681B6C002B24D07B68F6
:105720001B6C786898471FE07B689B6C002B1BD034
:105730007B689B6C7868984716E07B681B681B68E1
:1057400003F48073002B07D17B681B681A687B68A1
:105750001B6822F008021A607B681B6C002B03D0C8
:105760007B681B6C786898477B68DB6D20229A40C9
:10577000FB681340002B00F08F807B681B681B6860
:1057800003F01003002B00F087807B68DB6D202284
:105790009A403B699A607B6893F83530DBB2052B01
:1057A00036D17B681B681A687B681B6822F016027A
:1057B0001A607B681B685A697B681B6822F080024C
:1057C0005A617B681B6C002B03D17B689B6C002BA0
:1057D00007D07B681B681A687B681B6822F0080288
:1057E0001A607B68DB6D3F229A403B699A607B6858
:1057F000012283F835207B68002283F834207B68FF
:105800001B6D002B7ED07B681B6D7868984779E014
:105810007B681B681B6803F48023002B1DD07B680A
:105820001B681B6803F40023002B0DD17B685B6CA5
:10583000002B31D07B685B6C786898472CE000BF08
:1058400020000020B5814E1B7B68DB6B002B23D032
:105850007B68DB6B786898471EE07B681B681B6879
:1058600003F48073002B0FD17B681B681A687B6878
:105870001B6822F010021A607B68012283F8352031
:105880007B68002283F834207B68DB6B002B03D01D
:105890007B68DB6B786898477B685B6D002B32D048
:1058A0007B685B6D03F00103002B22D07B6805222F
:1058B00083F835207B681B681A687B681B6822F0B8
:1058C00001021A60BB680133BB607A699A4207D350
:1058D0007B681B681B6803F00103002BF2D100E01A
:1058E00000BF7B68012283F835207B68002283F8A3
:1058F00034207B68DB6C002B05D07B68DB6C786820
:10590000984700E000BF1837BD4680BD80B485B021
:1059100000AFF860B9607A603B60FB681B681A688A
:10592000FB681B6822F480221A60FB681B683A68D7
:105930005A60FB689B68402B08D1FB681B687A683B
:105940009A60FB681B68BA68DA6007E0FB681B684E
:10595000BA689A60FB681B687A68DA6000BF14371F
:10596000BD465DF8047B704780B485B000AF7860B9
:105970007B681B68DBB2103B144AA2FB03231B09A4
:10598000FB60134AFB6813441B781A467B68DA6590
:10599000FB68032B09D97B681B6823F47F7323F012
:1059A00003031A1D7B689A6507E07B681B6823F474
:1059B0007F7323F003037A6893657B689B6D1846B9
:1059C0001437BD465DF8047B704700BFABAAAAAA96
:1059D000BC54010880B485B000AF78600023FB732D
:1059E0007B689B6ABB607B689B69002B1FD1BB688F
:1059F000032B56D801A252F823F000BF0D5A00081D
:105A00001F5A00080D5A0008A35A00087B68DB6A79
:105A100003F08073002B46D00123FB7343E07B68C7
:105A2000DB6AB3F1C07F40D10123FB733DE07B68AB
:105A30009B69B3F5005F21D1BB68032B37D801A266
:105A400052F823F0555A00085B5A0008555A0008CE
:105A50006D5A00080123FB7330E07B68DB6A03F0BA
:105A60008073002B25D00123FB7322E07B68DB6A67
:105A7000B3F1C07F1FD10123FB731CE0BB68022B75
:105A800003D9BB68032B03D018E00123FB7315E097
:105A90007B68DB6A03F08073002B0ED00123FB735D
:105AA0000BE000BF0AE000BF08E000BF06E000BF57
:105AB00004E000BF02E000BF00E000BFFB7B18462F
:105AC0001437BD465DF8047B704700BF80B489B0D1
:105AD00000AF7860396000237B6100233B610023C5
